{"src/Register.sol":{"Register":{"abi":[{"inputs":[{"internalType":"string","name":"name_","type":"string"},{"internalType":"string","name":"isin_","type":"string"},{"internalType":"uint256","name":"expectedSupply_","type":"uint256"},{"internalType":"bytes32","name":"currency_","type":"bytes32"},{"internalType":"uint256","name":"unitVal_","type":"uint256"},{"internalType":"uint256","name":"couponRate_","type":"uint256"},{"internalType":"uint256","name":"creationDate_","type":"uint256"},{"internalType":"uint256","name":"issuanceDate_","type":"uint256"},{"internalType":"uint256","name":"maturityDate_","type":"uint256"},{"internalType":"uint256[]","name":"couponDates_","type":"uint256[]"},{"internalType":"uint256","name":"cutofftime_","type":"uint256"}],"stateMutability":"nonpayable","type":"constructor"},{"anonymous":false,"inputs":[{"indexed":true,"internalType":"address","name":"_addressForNewAdmin","type":"address"}],"name":"AdminChanged","type":"event"},{"anonymous":false,"inputs":[{"indexed":true,"internalType":"address","name":"owner","type":"address"},{"indexed":true,"internalType":"address","name":"spender","type":"address"},{"indexed":false,"internalType":"uint256","name":"value","type":"uint256"}],"name":"Approval","type":"event"},{"anonymous":false,"inputs":[{"indexed":true,"internalType":"bytes32","name":"transactionID","type":"bytes32"},{"indexed":true,"internalType":"bytes32","name":"paymentID","type":"bytes32"},{"indexed":false,"internalType":"enum Register.LockStatus","name":"status","type":"uint8"}],"name":"AssetLocked","type":"event"},{"anonymous":false,"inputs":[{"indexed":true,"internalType":"bytes32","name":"transactionID","type":"bytes32"},{"indexed":true,"internalType":"bytes32","name":"paymentID","type":"bytes32"},{"indexed":false,"internalType":"enum Register.LockStatus","name":"status","type":"uint8"}],"name":"AssetReleased","type":"event"},{"anonymous":false,"inputs":[{"indexed":false,"internalType":"bytes32","name":"contractHash","type":"bytes32"}],"name":"DisableContract","type":"event"},{"anonymous":false,"inputs":[{"indexed":false,"internalType":"address","name":"investor","type":"address"}],"name":"DisableInvestor","type":"event"},{"anonymous":false,"inputs":[{"indexed":false,"internalType":"bytes32","name":"contractHash","type":"bytes32"}],"name":"EnableContract","type":"event"},{"anonymous":false,"inputs":[{"indexed":false,"internalType":"address","name":"investor","type":"address"}],"name":"EnableInvestor","type":"event"},{"anonymous":false,"inputs":[{"indexed":true,"internalType":"bytes32","name":"transactionID","type":"bytes32"},{"indexed":true,"internalType":"bytes32","name":"paymentID","type":"bytes32"},{"indexed":false,"internalType":"enum Register.LockStatus","name":"status","type":"uint8"}],"name":"LockCancelled","type":"event"},{"anonymous":false,"inputs":[{"indexed":true,"internalType":"address","name":"creator","type":"address"},{"indexed":false,"internalType":"string","name":"name","type":"string"},{"indexed":false,"internalType":"string","name":"isin","type":"string"}],"name":"NewBondDrafted","type":"event"},{"anonymous":false,"inputs":[{"indexed":true,"internalType":"address","name":"sender","type":"address"},{"indexed":true,"internalType":"address","name":"target","type":"address"},{"indexed":false,"internalType":"string","name":"message","type":"string"}],"name":"PublicMessage","type":"event"},{"anonymous":false,"inputs":[{"indexed":true,"internalType":"address","name":"emiter","type":"address"},{"indexed":false,"internalType":"string","name":"name","type":"string"},{"indexed":false,"internalType":"string","name":"isin","type":"string"},{"indexed":false,"internalType":"enum IRegister.Status","name":"status","type":"uint8"}],"name":"RegisterStatusChanged","type":"event"},{"anonymous":false,"inputs":[{"indexed":true,"internalType":"bytes32","name":"role","type":"bytes32"},{"indexed":true,"internalType":"bytes32","name":"previousAdminRole","type":"bytes32"},{"indexed":true,"internalType":"bytes32","name":"newAdminRole","type":"bytes32"}],"name":"RoleAdminChanged","type":"event"},{"anonymous":false,"inputs":[{"indexed":true,"internalType":"bytes32","name":"role","type":"bytes32"},{"indexed":true,"internalType":"address","name":"account","type":"address"},{"indexed":true,"internalType":"address","name":"sender","type":"address"}],"name":"RoleGranted","type":"event"},{"anonymous":false,"inputs":[{"indexed":true,"internalType":"bytes32","name":"role","type":"bytes32"},{"indexed":true,"internalType":"address","name":"account","type":"address"},{"indexed":true,"internalType":"address","name":"sender","type":"address"}],"name":"RoleRevoked","type":"event"},{"anonymous":false,"inputs":[{"indexed":false,"internalType":"uint256","name":"id","type":"uint256"}],"name":"Snapshot","type":"event"},{"anonymous":false,"inputs":[{"indexed":true,"internalType":"uint256","name":"couponDate","type":"uint256"},{"indexed":true,"internalType":"uint256","name":"currentTimestamp","type":"uint256"},{"indexed":true,"internalType":"uint256","name":"nextTimestamp","type":"uint256"}],"name":"SnapshotTimestampChange","type":"event"},{"anonymous":false,"inputs":[{"indexed":true,"internalType":"address","name":"from","type":"address"},{"indexed":true,"internalType":"address","name":"to","type":"address"},{"indexed":false,"internalType":"uint256","name":"value","type":"uint256"}],"name":"Transfer","type":"event"},{"anonymous":false,"inputs":[{"indexed":true,"internalType":"address","name":"toBeAdded","type":"address"}],"name":"WalletAddedToWhitelist","type":"event"},{"anonymous":false,"inputs":[{"indexed":true,"internalType":"address","name":"toBeDeleted","type":"address"}],"name":"WalletDeletedFromWhitelist","type":"event"},{"inputs":[],"name":"BND_ROLE","outputs":[{"internalType":"bytes32","name":"","type":"bytes32"}],"stateMutability":"view","type":"function"},{"inputs":[],"name":"CAK_ROLE","outputs":[{"internalType":"bytes32","name":"","type":"bytes32"}],"stateMutability":"view","type":"function"},{"inputs":[],"name":"CST_ROLE","outputs":[{"internalType":"bytes32","name":"","type":"bytes32"}],"stateMutability":"view","type":"function"},{"inputs":[],"name":"DEFAULT_ADMIN_ROLE","outputs":[{"internalType":"bytes32","name":"","type":"bytes32"}],"stateMutability":"view","type":"function"},{"inputs":[],"name":"PAY_ROLE","outputs":[{"internalType":"bytes32","name":"","type":"bytes32"}],"stateMutability":"view","type":"function"},{"inputs":[],"name":"_addressForNewAdmin","outputs":[{"internalType":"address","name":"","type":"address"}],"stateMutability":"view","type":"function"},{"inputs":[{"internalType":"bytes32","name":"","type":"bytes32"}],"name":"_contractsAllowed","outputs":[{"internalType":"bool","name":"","type":"bool"}],"stateMutability":"view","type":"function"},{"inputs":[],"name":"_firstVoterForNewAdmin","outputs":[{"internalType":"address","name":"","type":"address"}],"stateMutability":"view","type":"function"},{"inputs":[],"name":"_primaryIssuanceAccount","outputs":[{"internalType":"address","name":"","type":"address"}],"stateMutability":"view","type":"function"},{"inputs":[],"name":"_votesForNewAdmin","outputs":[{"internalType":"uint8","name":"","type":"uint8"}],"stateMutability":"view","type":"function"},{"inputs":[{"internalType":"uint256","name":"date","type":"uint256"}],"name":"addCouponDate","outputs":[],"stateMutability":"nonpayable","type":"function"},{"inputs":[{"internalType":"address","name":"owner","type":"address"},{"internalType":"address","name":"spender","type":"address"}],"name":"allowance","outputs":[{"internalType":"uint256","name":"","type":"uint256"}],"stateMutability":"view","type":"function"},{"inputs":[{"internalType":"address","name":"","type":"address"}],"name":"amountLocked","outputs":[{"internalType":"uint256","name":"","type":"uint256"}],"stateMutability":"view","type":"function"},{"inputs":[{"internalType":"address","name":"","type":"address"},{"internalType":"uint256","name":"","type":"uint256"}],"name":"approve","outputs":[{"internalType":"bool","name":"","type":"bool"}],"stateMutability":"nonpayable","type":"function"},{"inputs":[{"internalType":"address","name":"addr_","type":"address"}],"name":"atReturningHash","outputs":[{"internalType":"bytes32","name":"hash","type":"bytes32"}],"stateMutability":"view","type":"function"},{"inputs":[{"internalType":"address","name":"account","type":"address"}],"name":"balanceOf","outputs":[{"internalType":"uint256","name":"","type":"uint256"}],"stateMutability":"view","type":"function"},{"inputs":[{"internalType":"address","name":"account","type":"address"},{"internalType":"uint256","name":"snapshotId","type":"uint256"}],"name":"balanceOfAt","outputs":[{"internalType":"uint256","name":"","type":"uint256"}],"stateMutability":"view","type":"function"},{"inputs":[{"internalType":"address","name":"account","type":"address"},{"internalType":"uint256","name":"_couponDate","type":"uint256"}],"name":"balanceOfCoupon","outputs":[{"internalType":"uint256","name":"","type":"uint256"}],"stateMutability":"view","type":"function"},{"inputs":[{"internalType":"uint256","name":"amount_","type":"uint256"}],"name":"burn","outputs":[],"stateMutability":"nonpayable","type":"function"},{"inputs":[{"internalType":"address","name":"account_","type":"address"}],"name":"changeAdminRole","outputs":[],"stateMutability":"nonpayable","type":"function"},{"inputs":[{"internalType":"uint256","name":"_couponDate","type":"uint256"}],"name":"checkIfCouponDateExists","outputs":[{"internalType":"bool","name":"","type":"bool"}],"stateMutability":"view","type":"function"},{"inputs":[{"internalType":"uint256","name":"_maturityDate","type":"uint256"}],"name":"checkIfMaturityDateExists","outputs":[{"internalType":"bool","name":"","type":"bool"}],"stateMutability":"view","type":"function"},{"inputs":[],"name":"currentCouponDate","outputs":[{"internalType":"uint256","name":"","type":"uint256"}],"stateMutability":"view","type":"function"},{"inputs":[],"name":"currentSnapshotDatetime","outputs":[{"internalType":"uint256","name":"","type":"uint256"}],"stateMutability":"view","type":"function"},{"inputs":[],"name":"decimals","outputs":[{"internalType":"uint8","name":"","type":"uint8"}],"stateMutability":"view","type":"function"},{"inputs":[{"internalType":"address","name":"","type":"address"},{"internalType":"uint256","name":"","type":"uint256"}],"name":"decreaseAllowance","outputs":[{"internalType":"bool","name":"","type":"bool"}],"stateMutability":"nonpayable","type":"function"},{"inputs":[{"internalType":"uint256","name":"date","type":"uint256"}],"name":"delCouponDate","outputs":[],"stateMutability":"nonpayable","type":"function"},{"inputs":[{"internalType":"bytes32","name":"contractHash_","type":"bytes32"}],"name":"disableContractFromWhitelist","outputs":[],"stateMutability":"nonpayable","type":"function"},{"inputs":[{"internalType":"address","name":"investor_","type":"address"}],"name":"disableInvestorFromWhitelist","outputs":[],"stateMutability":"nonpayable","type":"function"},{"inputs":[{"internalType":"bytes32","name":"contractHash_","type":"bytes32"}],"name":"enableContractToWhitelist","outputs":[],"stateMutability":"nonpayable","type":"function"},{"inputs":[{"internalType":"address","name":"investor_","type":"address"}],"name":"enableInvestorToWhitelist","outputs":[],"stateMutability":"nonpayable","type":"function"},{"inputs":[{"internalType":"bytes32","name":"_transactionID","type":"bytes32"},{"internalType":"bytes32","name":"_secretCancel","type":"bytes32"},{"internalType":"bytes32","name":"_paymentProof","type":"bytes32"}],"name":"forceCancel","outputs":[],"stateMutability":"nonpayable","type":"function"},{"inputs":[{"internalType":"bytes32","name":"_transactionID","type":"bytes32"},{"internalType":"bytes32","name":"_secretRelease","type":"bytes32"},{"internalType":"bytes32","name":"_paymentProof","type":"bytes32"}],"name":"forceRelease","outputs":[],"stateMutability":"nonpayable","type":"function"},{"inputs":[],"name":"getAllInvestors","outputs":[{"internalType":"address[]","name":"","type":"address[]"}],"stateMutability":"view","type":"function"},{"inputs":[],"name":"getBondCouponRate","outputs":[{"internalType":"uint256","name":"","type":"uint256"}],"stateMutability":"view","type":"function"},{"inputs":[],"name":"getBondData","outputs":[{"components":[{"internalType":"string","name":"name","type":"string"},{"internalType":"string","name":"isin","type":"string"},{"internalType":"uint256","name":"expectedSupply","type":"uint256"},{"internalType":"bytes32","name":"currency","type":"bytes32"},{"internalType":"uint256","name":"unitValue","type":"uint256"},{"internalType":"uint256","name":"couponRate","type":"uint256"},{"internalType":"uint256","name":"creationDate","type":"uint256"},{"internalType":"uint256","name":"issuanceDate","type":"uint256"},{"internalType":"uint256","name":"maturityDate","type":"uint256"},{"internalType":"uint256[]","name":"couponDates","type":"uint256[]"},{"internalType":"uint256","name":"cutOffTime","type":"uint256"}],"internalType":"struct IRegisterMetadata.BondData","name":"","type":"tuple"}],"stateMutability":"view","type":"function"},{"inputs":[],"name":"getBondUnitValue","outputs":[{"internalType":"uint256","name":"","type":"uint256"}],"stateMutability":"view","type":"function"},{"inputs":[],"name":"getCreationDate","outputs":[{"internalType":"uint256","name":"","type":"uint256"}],"stateMutability":"view","type":"function"},{"inputs":[{"internalType":"uint256","name":"CouponDate","type":"uint256"}],"name":"getInvestorListAtCoupon","outputs":[{"internalType":"address[]","name":"","type":"address[]"}],"stateMutability":"view","type":"function"},{"inputs":[],"name":"getIssuanceDate","outputs":[{"internalType":"uint256","name":"","type":"uint256"}],"stateMutability":"view","type":"function"},{"inputs":[{"internalType":"bytes32","name":"role","type":"bytes32"}],"name":"getRoleAdmin","outputs":[{"internalType":"bytes32","name":"","type":"bytes32"}],"stateMutability":"view","type":"function"},{"inputs":[{"internalType":"bytes32","name":"role","type":"bytes32"},{"internalType":"uint256","name":"index","type":"uint256"}],"name":"getRoleMember","outputs":[{"internalType":"address","name":"","type":"address"}],"stateMutability":"view","type":"function"},{"inputs":[{"internalType":"bytes32","name":"role","type":"bytes32"}],"name":"getRoleMemberCount","outputs":[{"internalType":"uint256","name":"","type":"uint256"}],"stateMutability":"view","type":"function"},{"inputs":[{"internalType":"address","name":"bndAddress_","type":"address"}],"name":"grantBndRole","outputs":[],"stateMutability":"nonpayable","type":"function"},{"inputs":[{"internalType":"address","name":"cakAddress_","type":"address"}],"name":"grantCakRole","outputs":[],"stateMutability":"nonpayable","type":"function"},{"inputs":[{"internalType":"address","name":"cstAddress_","type":"address"}],"name":"grantCstRole","outputs":[],"stateMutability":"nonpayable","type":"function"},{"inputs":[{"internalType":"address","name":"payAddress_","type":"address"}],"name":"grantPayRole","outputs":[],"stateMutability":"nonpayable","type":"function"},{"inputs":[{"internalType":"bytes32","name":"role","type":"bytes32"},{"internalType":"address","name":"account","type":"address"}],"name":"grantRole","outputs":[],"stateMutability":"nonpayable","type":"function"},{"inputs":[{"internalType":"bytes32","name":"role","type":"bytes32"},{"internalType":"address","name":"account","type":"address"}],"name":"hasRole","outputs":[{"internalType":"bool","name":"","type":"bool"}],"stateMutability":"view","type":"function"},{"inputs":[{"internalType":"address","name":"","type":"address"},{"internalType":"uint256","name":"","type":"uint256"}],"name":"increaseAllowance","outputs":[{"internalType":"bool","name":"","type":"bool"}],"stateMutability":"nonpayable","type":"function"},{"inputs":[{"internalType":"address","name":"investor","type":"address"}],"name":"investorCustodian","outputs":[{"internalType":"address","name":"","type":"address"}],"stateMutability":"view","type":"function"},{"inputs":[{"internalType":"address","name":"investor","type":"address"}],"name":"investorsAllowed","outputs":[{"internalType":"bool","name":"","type":"bool"}],"stateMutability":"view","type":"function"},{"inputs":[{"internalType":"address","name":"account","type":"address"}],"name":"isBnD","outputs":[{"internalType":"bool","name":"","type":"bool"}],"stateMutability":"view","type":"function"},{"inputs":[{"internalType":"address","name":"account","type":"address"}],"name":"isCAK","outputs":[{"internalType":"bool","name":"","type":"bool"}],"stateMutability":"view","type":"function"},{"inputs":[],"name":"isCallerApprovedSmartContract","outputs":[{"internalType":"bool","name":"","type":"bool"}],"stateMutability":"view","type":"function"},{"inputs":[{"internalType":"address","name":"contractAddress_","type":"address"}],"name":"isContractAllowed","outputs":[{"internalType":"bool","name":"","type":"bool"}],"stateMutability":"view","type":"function"},{"inputs":[{"internalType":"address","name":"account","type":"address"}],"name":"isCustodian","outputs":[{"internalType":"bool","name":"","type":"bool"}],"stateMutability":"view","type":"function"},{"inputs":[{"internalType":"address","name":"account","type":"address"}],"name":"isPay","outputs":[{"internalType":"bool","name":"","type":"bool"}],"stateMutability":"view","type":"function"},{"inputs":[{"components":[{"internalType":"address","name":"seller","type":"address"},{"internalType":"address","name":"buyer","type":"address"},{"internalType":"uint256","name":"amount","type":"uint256"},{"internalType":"bytes32","name":"transactionID","type":"bytes32"},{"internalType":"bytes32","name":"paymentID","type":"bytes32"},{"internalType":"bytes32","name":"hashlock","type":"bytes32"},{"internalType":"bytes32","name":"hashRelease","type":"bytes32"},{"internalType":"bytes32","name":"hashCancel","type":"bytes32"},{"internalType":"uint256","name":"paymentDate","type":"uint256"},{"internalType":"uint256","name":"deliveryDate","type":"uint256"},{"components":[{"internalType":"bytes32","name":"paymentProof","type":"bytes32"},{"internalType":"bytes32","name":"secret","type":"bytes32"},{"internalType":"bytes32","name":"secretRelease","type":"bytes32"},{"internalType":"bytes32","name":"secretCancel","type":"bytes32"}],"internalType":"struct Register.Artifact","name":"artifact","type":"tuple"},{"internalType":"enum Register.LockStatus","name":"status","type":"uint8"}],"internalType":"struct Register.LockInfo","name":"_lockInfo","type":"tuple"}],"name":"lockAsset","outputs":[],"stateMutability":"nonpayable","type":"function"},{"inputs":[],"name":"makeReady","outputs":[],"stateMutability":"nonpayable","type":"function"},{"inputs":[{"internalType":"uint256","name":"amount_","type":"uint256"}],"name":"mint","outputs":[],"stateMutability":"nonpayable","type":"function"},{"inputs":[],"name":"name","outputs":[{"internalType":"string","name":"","type":"string"}],"stateMutability":"view","type":"function"},{"inputs":[],"name":"nextSnapshotDatetime","outputs":[{"internalType":"uint256","name":"","type":"uint256"}],"stateMutability":"view","type":"function"},{"inputs":[],"name":"primaryIssuanceAccount","outputs":[{"internalType":"address","name":"","type":"address"}],"stateMutability":"view","type":"function"},{"inputs":[{"internalType":"address","name":"to","type":"address"},{"internalType":"string","name":"message","type":"string"}],"name":"publicMessage","outputs":[],"stateMutability":"nonpayable","type":"function"},{"inputs":[],"name":"registerAdmin","outputs":[{"internalType":"address","name":"","type":"address"}],"stateMutability":"view","type":"function"},{"inputs":[{"internalType":"bytes32","name":"_transactionID","type":"bytes32"},{"internalType":"bytes32","name":"_secret","type":"bytes32"},{"internalType":"bytes32","name":"_paymentProof","type":"bytes32"}],"name":"release","outputs":[],"stateMutability":"nonpayable","type":"function"},{"inputs":[{"internalType":"bytes32","name":"role","type":"bytes32"},{"internalType":"address","name":"account","type":"address"}],"name":"renounceRole","outputs":[],"stateMutability":"nonpayable","type":"function"},{"inputs":[{"internalType":"address","name":"investor","type":"address"}],"name":"returnBalanceToPrimaryIssuanceAccount","outputs":[{"internalType":"bool","name":"","type":"bool"}],"stateMutability":"nonpayable","type":"function"},{"inputs":[],"name":"revertReady","outputs":[],"stateMutability":"nonpayable","type":"function"},{"inputs":[{"internalType":"address","name":"bndAddress_","type":"address"}],"name":"revokeBndRole","outputs":[],"stateMutability":"nonpayable","type":"function"},{"inputs":[{"internalType":"address","name":"cakAddress_","type":"address"}],"name":"revokeCakRole","outputs":[],"stateMutability":"nonpayable","type":"function"},{"inputs":[{"internalType":"address","name":"cstAddress_","type":"address"}],"name":"revokeCstRole","outputs":[],"stateMutability":"nonpayable","type":"function"},{"inputs":[{"internalType":"address","name":"payAddress_","type":"address"}],"name":"revokePayRole","outputs":[],"stateMutability":"nonpayable","type":"function"},{"inputs":[{"internalType":"bytes32","name":"role","type":"bytes32"},{"internalType":"address","name":"account","type":"address"}],"name":"revokeRole","outputs":[],"stateMutability":"nonpayable","type":"function"},{"inputs":[{"internalType":"bytes32","name":"","type":"bytes32"}],"name":"sellerLocks","outputs":[{"internalType":"address","name":"seller","type":"address"},{"internalType":"address","name":"buyer","type":"address"},{"internalType":"uint256","name":"amount","type":"uint256"},{"internalType":"bytes32","name":"transactionID","type":"bytes32"},{"internalType":"bytes32","name":"paymentID","type":"bytes32"},{"internalType":"bytes32","name":"hashlock","type":"bytes32"},{"internalType":"bytes32","name":"hashRelease","type":"bytes32"},{"internalType":"bytes32","name":"hashCancel","type":"bytes32"},{"internalType":"uint256","name":"paymentDate","type":"uint256"},{"internalType":"uint256","name":"deliveryDate","type":"uint256"},{"components":[{"internalType":"bytes32","name":"paymentProof","type":"bytes32"},{"internalType":"bytes32","name":"secret","type":"bytes32"},{"internalType":"bytes32","name":"secretRelease","type":"bytes32"},{"internalType":"bytes32","name":"secretCancel","type":"bytes32"}],"internalType":"struct Register.Artifact","name":"artifact","type":"tuple"},{"internalType":"enum Register.LockStatus","name":"status","type":"uint8"}],"stateMutability":"view","type":"function"},{"inputs":[{"internalType":"string","name":"name_","type":"string"},{"internalType":"uint256","name":"expectedSupply_","type":"uint256"},{"internalType":"bytes32","name":"currency_","type":"bytes32"},{"internalType":"uint256","name":"unitVal_","type":"uint256"},{"internalType":"uint256","name":"couponRate_","type":"uint256"},{"internalType":"uint256","name":"issuanceDate_","type":"uint256"},{"internalType":"uint256","name":"maturityDate_","type":"uint256"},{"internalType":"uint256","name":"cutofftime_","type":"uint256"}],"name":"setBondData","outputs":[],"stateMutability":"nonpayable","type":"function"},{"inputs":[{"internalType":"uint256","name":"creationDate_","type":"uint256"}],"name":"setCreationDate","outputs":[],"stateMutability":"nonpayable","type":"function"},{"inputs":[{"internalType":"bytes32","name":"currency_","type":"bytes32"}],"name":"setCurrency","outputs":[],"stateMutability":"nonpayable","type":"function"},{"inputs":[{"internalType":"uint256","name":"couponDate_","type":"uint256"},{"internalType":"uint256","name":"recordDatetime_","type":"uint256"}],"name":"setCurrentCouponDate","outputs":[],"stateMutability":"nonpayable","type":"function"},{"inputs":[{"internalType":"uint256","name":"expectedSupply_","type":"uint256"}],"name":"setExpectedSupply","outputs":[],"stateMutability":"nonpayable","type":"function"},{"inputs":[{"internalType":"string","name":"isinSymbol_","type":"string"}],"name":"setIsinSymbol","outputs":[],"stateMutability":"nonpayable","type":"function"},{"inputs":[{"internalType":"uint256","name":"issuanceDate_","type":"uint256"}],"name":"setIssuanceDate","outputs":[],"stateMutability":"nonpayable","type":"function"},{"inputs":[{"internalType":"string","name":"name_","type":"string"}],"name":"setName","outputs":[],"stateMutability":"nonpayable","type":"function"},{"inputs":[],"name":"status","outputs":[{"internalType":"enum IRegister.Status","name":"","type":"uint8"}],"stateMutability":"view","type":"function"},{"inputs":[{"internalType":"bytes4","name":"interfaceId","type":"bytes4"}],"name":"supportsInterface","outputs":[{"internalType":"bool","name":"","type":"bool"}],"stateMutability":"view","type":"function"},{"inputs":[],"name":"symbol","outputs":[{"internalType":"string","name":"","type":"string"}],"stateMutability":"view","type":"function"},{"inputs":[],"name":"toggleFrozen","outputs":[],"stateMutability":"nonpayable","type":"function"},{"inputs":[],"name":"totalSupply","outputs":[{"internalType":"uint256","name":"","type":"uint256"}],"stateMutability":"view","type":"function"},{"inputs":[{"internalType":"uint256","name":"snapshotId","type":"uint256"}],"name":"totalSupplyAt","outputs":[{"internalType":"uint256","name":"","type":"uint256"}],"stateMutability":"view","type":"function"},{"inputs":[{"internalType":"uint256","name":"_couponDate","type":"uint256"}],"name":"totalSupplyAtCoupon","outputs":[{"internalType":"uint256","name":"","type":"uint256"}],"stateMutability":"view","type":"function"},{"inputs":[{"internalType":"address","name":"","type":"address"},{"internalType":"uint256","name":"","type":"uint256"}],"name":"transfer","outputs":[{"internalType":"bool","name":"","type":"bool"}],"stateMutability":"nonpayable","type":"function"},{"inputs":[{"internalType":"address","name":"from_","type":"address"},{"internalType":"address","name":"to_","type":"address"},{"internalType":"uint256","name":"amount_","type":"uint256"}],"name":"transferFrom","outputs":[{"internalType":"bool","name":"","type":"bool"}],"stateMutability":"nonpayable","type":"function"}],"evm":{"bytecode":{"linkReferences":{},"object":"6080604052602480546001600160a01b031916301790553480156200002357600080fd5b506040516200755f3803806200755f833981016040819052620000469162000b90565b8a8a6200005560003362000279565b620000706000805160206200753f8339815191528062000289565b600280546001600160a01b03191633908117909155620000a1906000805160206200753f8339815191529062000279565b620000dc7ff698af62c65280e4949bceec64b760f3b7738217cbc536cdfc4c9463676b05c26000805160206200753f83398151915262000289565b620001177f6ba6f588bcdc2df8426603a466c98ab15e79f7fb7f37b53581ce39c1d01b72496000805160206200753f83398151915262000289565b620001527fd7aa2ddfa4e381128202bf365b7e0a176f2fca6cdf2f23c2b0a6f439376958906000805160206200753f83398151915262000289565b600862000160838262000d0b565b5060096200016f828262000d0b565b50601991506200018290508c8262000d0b565b50601a620001918b8262000d0b565b50601b899055601c889055601d879055601e869055601f859055602084815560218490558251620001c99160229190850190620009c6565b506023819055620001d9620002d4565b6018805460ff1916905560405133907f9c99cfc2b1740648876aee40ef245ae7527339df99966fd618b900e61bc76e759062000219908e908e9062000e05565b60405180910390a260185460405133917fda2010acfda7a262372331cb3b57e3f648f63eb009a423a2b5602cfa4f9bff51916200026091601991601a9160ff169062000ebc565b60405180910390a2505050505050505050505062000fac565b6200028582826200039c565b5050565b600082815260208190526040808220600101805490849055905190918391839186917fbd79b86ffe0ab8e8776151514217cd7cacd52c909f66475c3af44e129f0b00ff9190a4505050565b6000620002e142620003c7565b506022549091506000908190831015620003715760228054849081106200030c576200030c62000f15565b6000918252602090912001546022549092506200032b84600162000f41565b1015620003675760226200034184600162000f41565b8154811062000354576200035462000f15565b9060005260206000200154905062000379565b5060215462000379565b505060215460005b602354620003969083906200038f908262000f41565b8362000466565b50505050565b620003a88282620004bd565b6000828152600160205260409020620003c290826200055d565b505050565b60008060005b60225481101562000458578360196009018281548110620003f257620003f262000f15565b9060005260206000200154036200040d579360019350915050565b836019600901828154811062000427576200042762000f15565b9060005260206000200154111562000443579360009350915050565b806200044f8162000f57565b915050620003cd565b505060225492600092509050565b6000601154841462000485576200047f8484846200057d565b620004b3565b60105462000495906000620007e8565b8214620004b357620004b3601154600f54846200057d60201b60201c565b5060019392505050565b6000828152602081815260408083206001600160a01b038516845290915290205460ff1662000285576000828152602081815260408083206001600160a01b03851684529091529020805460ff19166001179055620005193390565b6001600160a01b0316816001600160a01b0316837f2f8788117e7eff1d82e926ec794901d17c78024a50270940304540a733656f0d60405160405180910390a45050565b600062000574836001600160a01b0384166200082f565b90505b92915050565b60006200058b8382620007e8565b905083811115620006095760405162461bcd60e51b815260206004820152603360248201527f746865207265636f726420646174652063616e6e6f742062652061667465722060448201527f74686520736574746c656d656e7420646174650000000000000000000000000060648201526084015b60405180910390fd5b8115806200061657508382115b6200068a5760405162461bcd60e51b815260206004820152603c60248201527f696e76616c6964206e6578742064617465207768656e2073657474696e67207460448201527f68652063757272656e7420736e617073686f74206461746574696d6500000000606482015260840162000600565b6000620006988582620007e8565b9050828015620006b157620006ae8186620007e8565b90505b6000828152600e602052604090205415620007205760405162461bcd60e51b815260206004820152602860248201527f44617465206f6620636f75706f6e206f72206d6174757269747920616c726561604482015267323c903a30b5b2b760c11b606482015260840162000600565b844210620007975760405162461bcd60e51b815260206004820152603d60248201527f796f75206861766520746f20646566696e652061206e657720706572696f642060448201527f656e64696e67206166746572207468652063757272656e742074696d65000000606482015260840162000600565b620007a162000881565b50600f859055601182905560108190556040518190869084907f4d1d74d5cbfc13e02ef05af3a30d8721e87a00d20bc3dc42198917139944def390600090a4505050505050565b600080620007fa620151808562000f73565b905062000808818562000f96565b915062000819620151808462000f73565b905062000827818362000f41565b949350505050565b6000818152600183016020526040812054620008785750815460018181018455600084815260208082209093018490558454848252828601909352604090209190915562000577565b50600062000577565b600080600f54118015620008a457506011546000908152600e6020526040902054155b8015620008b35750600f544210155b1562000951576000620008c562000957565b6011546000908152600e60205260409020819055601054909150620008ec57600062000902565b62000902601054600f54620007e860201b60201c565b600f81905562000914906000620007e8565b6011819055601054600f54604051919290917f4d1d74d5cbfc13e02ef05af3a30d8721e87a00d20bc3dc42198917139944def390600090a4919050565b50600090565b600062000968600d80546001019055565b600062000974620009b5565b90507f8030e83b04d87bef53480e26263266d6ca66863aa8506aca6f2559d18aa1cb6781604051620009a891815260200190565b60405180910390a1919050565b6000620009c1600d5490565b905090565b82805482825590600052602060002090810192821562000a04579160200282015b8281111562000a04578251825591602001919060010190620009e7565b5062000a1292915062000a16565b5090565b5b8082111562000a12576000815560010162000a17565b634e487b7160e01b600052604160045260246000fd5b604051601f8201601f191681016001600160401b038111828210171562000a6e5762000a6e62000a2d565b604052919050565b60005b8381101562000a9357818101518382015260200162000a79565b50506000910152565b600082601f83011262000aae57600080fd5b81516001600160401b0381111562000aca5762000aca62000a2d565b62000adf601f8201601f191660200162000a43565b81815284602083860101111562000af557600080fd5b6200082782602083016020870162000a76565b600082601f83011262000b1a57600080fd5b815160206001600160401b0382111562000b385762000b3862000a2d565b8160051b62000b4982820162000a43565b928352848101820192828101908785111562000b6457600080fd5b83870192505b8483101562000b855782518252918301919083019062000b6a565b979650505050505050565b60008060008060008060008060008060006101608c8e03121562000bb357600080fd5b8b516001600160401b0381111562000bca57600080fd5b62000bd88e828f0162000a9c565b60208e0151909c5090506001600160401b0381111562000bf757600080fd5b62000c058e828f0162000a9c565b9a505060408c0151985060608c0151975060808c0151965060a08c0151955060c08c0151945060e08c015193506101008c015192506101208c015160018060401b0381111562000c5457600080fd5b62000c628e828f0162000b08565b9250506101408c015190509295989b509295989b9093969950565b600181811c9082168062000c9257607f821691505b60208210810362000cb357634e487b7160e01b600052602260045260246000fd5b50919050565b601f821115620003c257600081815260208120601f850160051c8101602086101562000ce25750805b601f850160051c820191505b8181101562000d035782815560010162000cee565b505050505050565b81516001600160401b0381111562000d275762000d2762000a2d565b62000d3f8162000d38845462000c7d565b8462000cb9565b602080601f83116001811462000d77576000841562000d5e5750858301515b600019600386901b1c1916600185901b17855562000d03565b600085815260208120601f198616915b8281101562000da85788860151825594840194600190910190840162000d87565b508582101562000dc75787850151600019600388901b60f8161c191681555b5050505050600190811b01905550565b6000815180845262000df181602086016020860162000a76565b601f01601f19169290920160200192915050565b60408152600062000e1a604083018562000dd7565b828103602084015262000e2e818562000dd7565b95945050505050565b6000815462000e468162000c7d565b80855260206001838116801562000e66576001811462000e815762000eb1565b60ff1985168884015283151560051b88018301955062000eb1565b866000528260002060005b8581101562000ea95781548a820186015290830190840162000e8c565b890184019650505b505050505092915050565b60608152600062000ed1606083018662000e37565b828103602084015262000ee5818662000e37565b9150506005831062000f0757634e487b7160e01b600052602160045260246000fd5b826040830152949350505050565b634e487b7160e01b600052603260045260246000fd5b634e487b7160e01b600052601160045260246000fd5b8082018082111562000577576200057762000f2b565b60006001820162000f6c5762000f6c62000f2b565b5060010190565b60008262000f9157634e487b7160e01b600052601260045260246000fd5b500690565b8181038181111562000577576200057762000f2b565b6165838062000fbc6000396000f3fe608060405234801561001057600080fd5b506004361061050e5760003560e01c806391d14854116102a4578063ca15c87311610172578063d8eab9a5116100d9578063e3965d5411610092578063e3965d5414610c6d578063e5bf6dc814610c80578063eeb4cee914610c88578063f60d9ea114610c90578063f690c6c514610ca3578063f6c788b214610cb657600080fd5b8063d8eab9a514610be0578063d9a7997814610bf3578063dc16722b14610c06578063dd62ed3e14610c0e578063e09d1f9714610c47578063e336c59014610c5a57600080fd5b8063d4cdda911161012b578063d4cdda9114610b6c578063d547741f14610b81578063d58c80b414610b94578063d5c0beeb14610ba7578063d614284a14610bba578063d696fb0b14610bcd57600080fd5b8063ca15c87314610b10578063cc80473c14610b23578063cf5b362814610b36578063d0a2f2c414610b49578063d1ec6de814610b51578063d46be60814610b6457600080fd5b8063a7f2f6ec11610216578063b90c1dbb116101cf578063b90c1dbb14610a02578063c1f4250b14610a0a578063c2faae5914610a1d578063c41251a114610a25578063c47f002714610a38578063c7725d1b14610a4b57600080fd5b8063a7f2f6ec1461099b578063a9059cbb146109a3578063ab62b444146109b6578063abc2cf2a146109c9578063ac8f75c1146109dc578063aed054d5146109ef57600080fd5b8063a0712d6811610268578063a0712d6814610934578063a196218314610947578063a217fddf1461095a578063a28f78f814610962578063a457c2d714610975578063a55234b81461098857600080fd5b806391d14854146108eb57806393c39393146108fe57806395d89b4114610911578063981b24d0146109195780639ef986de1461092c57600080fd5b806339027f7c116103e15780636f2ddb5f11610353578063806ba1001161030c578063806ba1001461084d5780638784ff18146108705780638865f1e2146108815780638e1305de146108965780638f92f490146108a95780639010d07c146108d857600080fd5b80636f2ddb5f146107cd57806370a08231146107e057806371c41f8a146107f35780637469538a146108065780637cc7bcce146108195780637dc355051461083957600080fd5b806342966c68116103a557806342966c68146107595780634361f92a1461076c5780634e0b0dcf1461077f5780634ee2cd7e146107925780635ab6f71b146107a557806363896d19146107b857600080fd5b806339027f7c1461070e57806339509351146107165780633bf2a9f4146107295780633e4be6391461073e5780633e7e87131461074657600080fd5b8063222ca340116104855780632f9628661161043e5780632f962866146106825780633052974c146106ad578063313ce567146106c057806333a8ad21146106d557806335c80c8c146106e857806336568abe146106fb57600080fd5b8063222ca3401461060957806323b872dd1461061c578063248a9ca31461062f5780632682ac91146106525780632877d473146106675780632f2ff15d1461066f57600080fd5b806307b2d9e3116104d757806307b2d9e31461058b578063095ea7b3146105ac57806317559df0146105bf57806318160ddd146105d25780631c67a363146105da578063200d2ed2146105ef57600080fd5b8062a9303d1461051357806301ffc9a71461052857806304b8c4711461055057806306ec8ca61461056357806306fdde0314610576575b600080fd5b61052661052136600461587b565b610cd6565b005b61053b610536366004615896565b610cf1565b60405190151581526020015b60405180910390f35b61052661055e36600461587b565b610d1c565b6105266105713660046158c0565b61103a565b61057e611058565b6040516105479190615929565b61059e61059936600461593c565b6110ed565b604051908152602001610547565b61053b6105ba36600461593c565b61111d565b6105266105cd366004615a33565b61115e565b60075461059e565b61059e6000805160206164ce83398151915281565b6018546105fc9060ff1681565b6040516105479190615ade565b61052661061736600461587b565b6112f1565b61053b61062a366004615af1565b611309565b61059e61063d3660046158c0565b60009081526020819052604090206001015490565b61059e60008051602061650e83398151915281565b60205461059e565b61052661067d366004615b2d565b61156e565b600454610695906001600160a01b031681565b6040516001600160a01b039091168152602001610547565b6105266106bb366004615b59565b6116a3565b60005b60405160ff9091168152602001610547565b6105266106e3366004615b7b565b611766565b61053b6106f636600461587b565b611ae1565b610526610709366004615b2d565b611afb565b601e5461059e565b61053b61072436600461593c565b611b75565b61059e6000805160206164ae83398151915281565b610526611bc0565b6105266107543660046158c0565b611d15565b6105266107673660046158c0565b611e7f565b61053b61077a36600461587b565b611f39565b61052661078d366004615ba7565b611f53565b61059e6107a036600461593c565b611f93565b600254610695906001600160a01b031681565b6107c0611fdc565b6040516105479190615c17565b61053b6107db36600461587b565b61221b565b61059e6107ee36600461587b565b612240565b61053b6108013660046158c0565b61225b565b6105266108143660046158c0565b612295565b61082c6108273660046158c0565b61256c565b6040516105479190615cd7565b6002546106c390600160a01b900460ff1681565b61053b61085b3660046158c0565b60136020526000908152604090205460ff1681565b6024546001600160a01b0316610695565b61059e60008051602061652e83398151915281565b6105266108a436600461587b565b61272d565b6106956108b736600461587b565b6001600160a01b039081166000908152601660205260409020600201541690565b6106956108e6366004615b59565b612745565b61053b6108f9366004615b2d565b61275d565b61052661090c3660046158c0565b612786565b61057e6127bf565b61059e6109273660046158c0565b6127d1565b600f5461059e565b6105266109423660046158c0565b6127fc565b61059e61095536600461587b565b61286e565b61059e600081565b61052661097036600461587b565b61289f565b61053b61098336600461593c565b6128b7565b61053b61099636600461587b565b612902565b601d5461059e565b61053b6109b136600461593c565b61291c565b6105266109c4366004615d99565b61295e565b61053b6109d736600461587b565b612dcd565b6105266109ea366004615b7b565b6130c2565b602454610695906001600160a01b031681565b601f5461059e565b610526610a1836600461587b565b6133bb565b61053b6133d3565b61053b610a3336600461587b565b6133f7565b610526610a46366004615ba7565b61341c565b610af8610a593660046158c0565b60156020908152600091825260409182902080546001820154600283015460038401546004850154600586015460068701546007880154600889015460098a01548c51608081018e52600a8c01548152600b8c01549c81019c909c52600c8b01549c8c019c909c52600d8a015460608c0152600e909901546001600160a01b039889169b97909816999598949793969295919490939092919060ff168c565b6040516105479c9b9a99989796959493929190615e5e565b61059e610b1e3660046158c0565b61345c565b610526610b3136600461587b565b613473565b61059e610b443660046158c0565b61348b565b61082c6134b7565b610526610b5f36600461587b565b613518565b610526613686565b61053b610b7a3660046158c0565b6021541490565b610526610b8f366004615b2d565b613783565b610526610ba23660046158c0565b61388d565b610526610bb536600461587b565b613952565b610526610bc83660046158c0565b613b43565b610526610bdb3660046158c0565b613bb2565b610526610bee3660046158c0565b613c1e565b610526610c01366004615ef6565b613c57565b610526613d6f565b61059e610c1c366004615f44565b6001600160a01b03918216600090815260066020908152604080832093909416825291909152205490565b610526610c55366004615b7b565b613eb6565b600354610695906001600160a01b031681565b61053b610c7b36600461587b565b61424b565b60115461059e565b60105461059e565b610526610c9e36600461587b565b614265565b610526610cb136600461587b565b61427d565b61059e610cc436600461587b565b60146020526000908152604090205481565b610cee6000805160206164ae8339815191528261156e565b50565b60006001600160e01b03198216635a05180f60e01b1480610d165750610d1682614295565b92915050565b610d3460008051602061652e8339815191523361275d565b610d595760405162461bcd60e51b8152600401610d5090615f6e565b60405180910390fd5b6002546001600160a01b0390811690821603610dc35760405162461bcd60e51b8152602060048201526024808201527f4e65772061646d696e206973207468652073616d652061732063757272656e74604482015263206f6e6560e01b6064820152608401610d50565b6001600160a01b038116158015610de65750600254600160a01b900460ff166001145b15610e26576002805460ff60a01b19169055600480546001600160a01b0319908116909155600380549091166001600160a01b0392909216919091179055565b6001600160a01b038116610e965760405162461bcd60e51b815260206004820152603160248201527f5468652070726f706f736564206e65772061646d696e2063616e6e6f7420626560448201527020746865207a65726f206164647265737360781b6064820152608401610d50565b600254600160a01b900460ff16600003610eee576002805460ff60a01b1916600160a01b179055600480546001600160a01b03199081163317909155600380546001600160a01b039390931692909116919091179055565b600254600160a01b900460ff16600103610cee576003546001600160a01b03828116911614610f475760048054336001600160a01b031991821617909155600380549091166001600160a01b0392909216919091179055565b600454336001600160a01b0390911603610fa35760405162461bcd60e51b815260206004820152601a60248201527f546869732043414b2068617320616c726561647920766f7465640000000000006044820152606401610d50565b600254610fbb906000906001600160a01b03166142ca565b600354610fd3906000906001600160a01b0316611695565b60038054600280546001600160a81b0319166001600160a01b038316908117909155600480546001600160a01b03199081169091559091169091556040517f7ce7ec0b50378fb6c0186ffb5f48325f6593fcb4ca4386f21861af3129188f5c90600090a250565b60008051602061652e833981519152611052816142ec565b50601c55565b60606019600001805461106a90615f9a565b80601f016020809104026020016040519081016040528092919081815260200182805461109690615f9a565b80156110e35780601f106110b8576101008083540402835291602001916110e3565b820191906000526020600020905b8154815290600101906020018083116110c657829003601f168201915b5050505050905090565b6000818152600e602052604081205480156111145761110c8482611f93565b915050610d16565b61110c84612240565b60405162461bcd60e51b8152602060048201526013602482015272185c1c1c9bdd99481a5cc8191a5cd8589b1959606a1b6044820152600090606401610d50565b61117660008051602061652e8339815191523361275d565b6111925760405162461bcd60e51b8152600401610d5090615f6e565b602254156112c3578260196009016000815481106111b2576111b2615fce565b9060005260206000200154116112295760405162461bcd60e51b815260206004820152603660248201527f43616e6e6f742073657420612069737375616e636520646174652061667465726044820152752074686520666972737420636f75706f6e206461746560501b6064820152608401610d50565b6022805483919061123c90600190615ffa565b8154811061124c5761124c615fce565b9060005260206000200154106112c35760405162461bcd60e51b815260206004820152603660248201527f43616e6e6f74207365742061206d617475726974792064617465206265666f726044820152756520746865206c61737420636f75706f6e206461746560501b6064820152608401610d50565b60196112cf898261605b565b50601b96909655601c94909455601d92909255601e5560205560215560235550565b610cee6000805160206164ce83398151915282613783565b600061132360008051602061652e8339815191523361275d565b1561133b576113338484846142f6565b506001611567565b6113443361221b565b6113605760405162461bcd60e51b8152600401610d509061611b565b600460185460ff16600481111561137957611379615aaa565b036113e25760405162461bcd60e51b815260206004820152603360248201527f4e6f207472616e736665722063616e20626520646f6e65207768656e20746865604482015272103932b3b4b9ba32b91034b990233937bd32b760691b6064820152608401610d50565b600160185460ff1660048111156113fb576113fb615aaa565b14801561141b575061141b60008051602061650e8339815191528461275d565b801561143457506024546001600160a01b038581169116145b1561148a576018805460ff19166002179055611452836000806144a5565b60185460405133916000805160206164ee8339815191529161147d91601991601a9160ff16906161cd565b60405180910390a261155c565b611493836133f7565b15156001146114e45760405162461bcd60e51b815260206004820152601b60248201527f546865207265636569766572206973206e6f7420616c6c6f77656400000000006044820152606401610d50565b6114ed846133f7565b151560011480611510575061151060008051602061650e8339815191528561275d565b61155c5760405162461bcd60e51b815260206004820152601960248201527f5468652073656e646572206973206e6f7420616c6c6f776564000000000000006044820152606401610d50565b6113338484846142f6565b9392505050565b8161158b5760405162461bcd60e51b8152600401610d509061620c565b60008051602061652e8339815191528203611631576115b860008051602061652e8339815191523361275d565b806115c957506115c960003361275d565b61162c5760405162461bcd60e51b815260206004820152602e60248201527f43616c6c6572206d7573742062652043414b206f722041444d494e20746f207360448201526d657420616e6f746865722043414b60901b6064820152608401610d50565b611695565b61164960008051602061652e8339815191523361275d565b6116955760405162461bcd60e51b815260206004820181905260248201527f43616c6c6572206d7573742062652043414b20746f20736574206120726f6c656044820152606401610d50565b61169f828261453d565b5050565b6116ac3361221b565b6116c85760405162461bcd60e51b8152600401610d509061611b565b816116d682620d2f00616250565b116117535760405162461bcd60e51b815260206004820152604160248201527f496e636f6e73697374656e74207265636f72642064617465206d6f726520746860448201527f616e2031302064617973206265666f726520736574746c656d656e74206461746064820152606560f81b608482015260a401610d50565b61169f82826117618561455f565b6145f4565b61177e60008051602061652e8339815191523361275d565b8061179c575061179c60008051602061650e8339815191523361275d565b806117ab57506117ab336133f7565b806117ba57506117ba3361221b565b6117d65760405162461bcd60e51b8152600401610d5090616263565b600083815260156020908152604080832081516101808101835281546001600160a01b039081168252600183015416818501526002820154818401526003820154606080830191909152600480840154608080850191909152600585015460a0850152600685015460c0850152600785015460e08501526008850154610100850152600985015461012085015285519081018652600a8501548152600b85015496810196909652600c84015494860194909452600d83015490850152610140810193909352600e810154909161016084019160ff16908111156118bb576118bb615aaa565b60048111156118cc576118cc615aaa565b9052509050600181610160015160048111156118ea576118ea615aaa565b146119075760405162461bcd60e51b8152600401610d5090616292565b8060c0015160028460405160200161192191815260200190565b60408051601f198184030181529082905261193b916162d6565b602060405180830381855afa158015611958573d6000803e3d6000fd5b5050506040513d601f19601f8201168201806040525081019061197b91906162f2565b146119c85760405162461bcd60e51b815260206004820152601c60248201527f496e76616c696420666f7263652072656c6561736520736563726574000000006044820152606401610d50565b8061012001514211611a2d5760405162461bcd60e51b815260206004820152602860248201527f43616e6e6f7420666f7263652072656c65617365206265666f7265207061796d604482015267656e74206461746560c01b6064820152608401610d50565b600361016082015260408082015182516001600160a01b031660009081526014602052918220805491929091611a64908490615ffa565b9091555050600084815260156020908152604091829020600a8101859055600d0185905582519083015191830151611a9c9290611309565b508060800151847f2089944216aac981761c066b1d0353ceb806269186ef8e9045b9b1b9483699c06003604051611ad39190615ade565b60405180910390a350505050565b6000610d166000805160206164ce8339815191528361275d565b6001600160a01b0381163314611b6b5760405162461bcd60e51b815260206004820152602f60248201527f416363657373436f6e74726f6c3a2063616e206f6e6c792072656e6f756e636560448201526e103937b632b9903337b91039b2b63360891b6064820152608401610d50565b61169f82826142ca565b60405162461bcd60e51b815260206004820152601d60248201527f696e637265617365416c6c6f77616e63652069732064697361626c65640000006044820152600090606401610d50565b611bd860008051602061652e8339815191523361275d565b611bf45760405162461bcd60e51b8152600401610d5090615f6e565b600260185460ff166004811115611c0d57611c0d615aaa565b03611c2c57601880546004919060ff19166001835b0217905550611ce0565b600460185460ff166004811115611c4557611c45615aaa565b03611c5e57601880546002919060ff1916600183611c22565b60405162461bcd60e51b815260206004820152604b60248201527f43616e6e6f7420467265657a65202f20556e667265657a65207468652072656760448201527f69737465722061732074686520737461747573206973206e6f7420497373756560648201526a321037b910233937bd32b760a91b608482015260a401610d50565b60185460405133916000805160206164ee83398151915291611d0b91601991601a9160ff16906161cd565b60405180910390a2565b611d2d60008051602061652e8339815191523361275d565b611d495760405162461bcd60e51b8152600401610d5090615f6e565b600080611d5583614841565b915091508015611e7a57611d68836148d4565b611dbf5760405162461bcd60e51b815260206004820152602260248201527f5468697320636f75706f6e20646174652063616e6e6f742062652064656c6574604482015261195960f21b6064820152608401610d50565b602254611dce90600190615ffa565b821015611e4b57815b602254611de690600190615ffa565b811015611e49576022611dfa826001616250565b81548110611e0a57611e0a615fce565b906000526020600020015460196009018281548110611e2b57611e2b615fce565b60009182526020909120015580611e418161630b565b915050611dd7565b505b6022805480611e5c57611e5c616324565b60019003818190600052602060002001600090559055611e7a6148fe565b505050565b611e9760008051602061652e8339815191523361275d565b611eb35760405162461bcd60e51b8152600401610d5090615f6e565b611ebb6149ac565b50602454611ed2906001600160a01b031682614a21565b602454611ee7906001600160a01b0316612240565b158015611ef45750600754155b15610cee576018805460ff1916600390811790915560405133916000805160206164ee83398151915291611f2e91601991601a91906161cd565b60405180910390a250565b6000610d1660008051602061652e8339815191528361275d565b611f6b60008051602061652e8339815191523361275d565b611f875760405162461bcd60e51b8152600401610d5090615f6e565b601a61169f828261605b565b6001600160a01b0382166000908152600a6020526040812081908190611fba908590614b61565b9150915081611fd157611fcc85612240565b611fd3565b805b95945050505050565b61203c60405180610160016040528060608152602001606081526020016000815260200160008019168152602001600081526020016000815260200160008152602001600081526020016000815260200160608152602001600081525090565b60196040518061016001604052908160008201805461205a90615f9a565b80601f016020809104026020016040519081016040528092919081815260200182805461208690615f9a565b80156120d35780601f106120a8576101008083540402835291602001916120d3565b820191906000526020600020905b8154815290600101906020018083116120b657829003601f168201915b505050505081526020016001820180546120ec90615f9a565b80601f016020809104026020016040519081016040528092919081815260200182805461211890615f9a565b80156121655780601f1061213a57610100808354040283529160200191612165565b820191906000526020600020905b81548152906001019060200180831161214857829003601f168201915b50505050508152602001600282015481526020016003820154815260200160048201548152602001600582015481526020016006820154815260200160078201548152602001600882015481526020016009820180548060200260200160405190810160405280929190818152602001828054801561220357602002820191906000526020600020905b8154815260200190600101908083116121ef575b50505050508152602001600a82015481525050905090565b6000806122278361286e565b60009081526013602052604090205460ff169392505050565b6001600160a01b031660009081526005602052604090205490565b60008061226783614841565b91505080156122795750600192915050565b60215483900361228c5750600192915050565b50600092915050565b6122ad60008051602061652e8339815191523361275d565b6122c95760405162461bcd60e51b8152600401610d5090615f6e565b60205481116123405760405162461bcd60e51b815260206004820152603e60248201527f43616e6e6f7420736574206120636f75706f6e206461746520736d616c6c657260448201527f206f7220657175616c20746f207468652069737375616e6365206461746500006064820152608401610d50565b60215481106123b75760405162461bcd60e51b815260206004820152603e60248201527f43616e6e6f7420736574206120636f75706f6e2064617465206772656174657260448201527f206f7220657175616c20746f20746865206d61747572697479206461746500006064820152608401610d50565b6000806123c383614841565b9150915080611e7a576123d583614c57565b6124345760405162461bcd60e51b815260206004820152602a60248201527f43616e6e6f7420696e73657274207468697320646174652c20697420697320696044820152691b881d1a19481c185cdd60b21b6064820152608401610d50565b6022541561252e5760228054819061244e90600190615ffa565b8154811061245e5761245e615fce565b600091825260208083209091015483546001810185559383529120909101556022546003116125065760225460009061249990600390615ffa565b90505b8281106125045760228054829081106124b7576124b7615fce565b60009182526020909120015460226124d0836001616250565b815481106124e0576124e0615fce565b600091825260209091200155801561250457806124fc8161633a565b91505061249c565b505b826019600901838154811061251d5761251d615fce565b600091825260209091200155612564565b602280546001810182556000919091527f61035b26e3e9eee00e0d72fd1ee8ddca6894550dca6916ea2ac6baa90d11e510018390555b611e7a6148fe565b60175460609060009067ffffffffffffffff81111561258d5761258d615966565b6040519080825280602002602001820160405280156125b6578160200160208202803683370190505b5090506000805b60175481101561267b5760006125fa601783815481106125df576125df615fce565b6000918252602090912001546001600160a01b0316876110ed565b1115612669576017818154811061261357612613615fce565b9060005260206000200160009054906101000a90046001600160a01b031683838151811061264357612643615fce565b6001600160a01b0390921660209283029190910190910152816126658161630b565b9250505b806126738161630b565b9150506125bd565b5060008167ffffffffffffffff81111561269757612697615966565b6040519080825280602002602001820160405280156126c0578160200160208202803683370190505b50905060005b82811015612724578381815181106126e0576126e0615fce565b60200260200101518282815181106126fa576126fa615fce565b6001600160a01b03909216602092830291909101909101528061271c8161630b565b9150506126c6565b50949350505050565b610cee60008051602061652e83398151915282613783565b60008281526001602052604081206115679083614c6c565b6000918252602082815260408084206001600160a01b0393909316845291905290205460ff1690565b61279e60008051602061652e8339815191523361275d565b6127ba5760405162461bcd60e51b8152600401610d5090615f6e565b601f55565b60606019600101805461106a90615f9a565b60008060006127e184600b614b61565b91509150816127f2576007546127f4565b805b949350505050565b61281460008051602061652e8339815191523361275d565b6128305760405162461bcd60e51b8152600401610d5090615f6e565b6024546001600160a01b03166128585760405162461bcd60e51b8152600401610d5090616351565b602454610cee906001600160a01b031682614c78565b60408051603f833b908101601f19168201909252818152600091808360208401863c50805160209091012092915050565b610cee60008051602061652e8339815191528261156e565b60405162461bcd60e51b815260206004820152601d60248201527f6465637265617365416c6c6f77616e63652069732064697361626c65640000006044820152600090606401610d50565b6000610d1660008051602061650e8339815191528361275d565b60405162461bcd60e51b81526020600482015260146024820152731d1c985b9cd9995c881a5cc8191a5cd8589b195960621b6044820152600090606401610d50565b61297660008051602061652e8339815191523361275d565b80612994575061299460008051602061650e8339815191523361275d565b806129a357506129a3336133f7565b806129b257506129b23361221b565b6129ce5760405162461bcd60e51b8152600401610d5090616263565b60608101516000908152601560205260408120600e015460ff16908160048111156129fb576129fb615aaa565b14612a3b5760405162461bcd60e51b815260206004820152601060248201526f131bd8dac8185b1c9958591e481cd95d60821b6044820152606401610d50565b60008261016001516004811115612a5457612a54615aaa565b14612a925760405162461bcd60e51b815260206004820152600e60248201526d496e76616c69642073746174757360901b6044820152606401610d50565b81516001600160a01b031615801590612ab7575060208201516001600160a01b031615155b612af55760405162461bcd60e51b815260206004820152600f60248201526e496e76616c6964206164647265737360881b6044820152606401610d50565b8161012001518261010001511115612b3f5760405162461bcd60e51b815260206004820152600d60248201526c496e76616c696420646174657360981b6044820152606401610d50565b6000826040015111612b845760405162461bcd60e51b815260206004820152600e60248201526d125b9d985b1a5908185b5bdd5b9d60921b6044820152606401610d50565b81516001600160a01b0316600090815260146020526040908190205490830151612bae9190616250565b8251612bb990612240565b1015612bfe5760405162461bcd60e51b8152602060048201526014602482015273496e73756666696369656e742062616c616e636560601b6044820152606401610d50565b42826101000151118015612c1c575081610100015182610120015110155b612c585760405162461bcd60e51b815260206004820152600d60248201526c496e76616c696420646174657360981b6044820152606401610d50565b60408083015183516001600160a01b031660009081526014602052918220805491929091612c87908490616250565b909155505060608281018051600090815260156020908152604091829020865181546001600160a01b03199081166001600160a01b0392831617835583890151600180850180549093169190931617905583880151600283015593516003820155608087015160048083019190915560a0880151600583015560c0880151600683015560e08801516007830155610100880151600883015561012088015160098301556101408801518051600a84015592830151600b83015592820151600c820155930151600d840155610160850151600e840180548795949293919260ff19909116918490811115612d7c57612d7c615aaa565b02179055505050608082015160608301516101608401516040517fd31c125177f0903f650e8515327fc08ce105de44664e68b42644a3b2f28b60df91612dc191615ade565b60405180910390a35050565b6000612dd83361221b565b612df45760405162461bcd60e51b8152600401610d509061611b565b612dfd826133f7565b1515600114612e4e5760405162461bcd60e51b815260206004820152601f60248201527f54686520696e766573746f72206973206e6f742077686974656c6973746564006044820152606401610d50565b6000306001600160a01b031663e5bf6dc86040518163ffffffff1660e01b8152600401602060405180830381865afa158015612e8e573d6000803e3d6000fd5b505050506040513d601f19601f82011682018060405250810190612eb291906162f2565b602154909150811480612ec3575080155b8015612f2f5750306001600160a01b0316639ef986de6040518163ffffffff1660e01b8152600401602060405180830381865afa158015612f08573d6000803e3d6000fd5b505050506040513d601f19601f82011682018060405250810190612f2c91906162f2565b42115b612fc75760405162461bcd60e51b815260206004820152605e60248201527f72657475726e696e67207468652062616c616e636520746f207468652070726960448201527f6d6172792069737375616e63652063616e206f6e6c7920626520646f6e65206160648201527f6674657220746865206d6174757269747920637574206f66662074696d650000608482015260a401610d50565b6040516370a0823160e01b81526001600160a01b038416600482015260009030906370a0823190602401602060405180830381865afa15801561300e573d6000803e3d6000fd5b505050506040513d601f19601f8201168201806040525081019061303291906162f2565b9050600081116130935760405162461bcd60e51b815260206004820152602660248201527f6e6f2062616c616e636520746f2072657475726e20666f72207468697320696e6044820152653b32b9ba37b960d11b6064820152608401610d50565b61309b6149ac565b506130b8846130b26024546001600160a01b031690565b836142f6565b5060019392505050565b6130da60008051602061652e8339815191523361275d565b806130f857506130f860008051602061650e8339815191523361275d565b806131075750613107336133f7565b8061311657506131163361221b565b6131325760405162461bcd60e51b8152600401610d5090616263565b600083815260156020908152604080832081516101808101835281546001600160a01b039081168252600183015416818501526002820154818401526003820154606080830191909152600480840154608080850191909152600585015460a0850152600685015460c0850152600785015460e08501526008850154610100850152600985015461012085015285519081018652600a8501548152600b85015496810196909652600c84015494860194909452600d83015490850152610140810193909352600e810154909161016084019160ff169081111561321757613217615aaa565b600481111561322857613228615aaa565b90525090506001816101600151600481111561324657613246615aaa565b146132635760405162461bcd60e51b8152600401610d5090616292565b8060a0015160028460405160200161327d91815260200190565b60408051601f1981840301815290829052613297916162d6565b602060405180830381855afa1580156132b4573d6000803e3d6000fd5b5050506040513d601f19601f820116820180604052508101906132d791906162f2565b146133155760405162461bcd60e51b815260206004820152600e60248201526d125b9d985b1a59081cd958dc995d60921b6044820152606401610d50565b600261016082015260408082015182516001600160a01b03166000908152601460205291822080549192909161334c908490615ffa565b9091555050600084815260156020908152604091829020600a8101859055600b01859055825190830151918301516133849290611309565b508060800151847f2089944216aac981761c066b1d0353ceb806269186ef8e9045b9b1b9483699c06002604051611ad39190615ade565b610cee60008051602061650e83398151915282613783565b6000806133df3361286e565b60009081526013602052604090205460ff1692915050565b6001600160a01b0316600090815260166020526040902054600160a01b900460ff1690565b61343460008051602061652e8339815191523361275d565b6134505760405162461bcd60e51b8152600401610d5090615f6e565b601961169f828261605b565b6000818152600160205260408120610d1690614d45565b610cee60008051602061650e8339815191528261156e565b6000818152600e602052604081205480156134a957611567816127d1565b600754611567565b50919050565b606060178054806020026020016040519081016040528092919081815260200182805480156110e357602002820191906000526020600020905b81546001600160a01b031681526001909101906020018083116134f1575050505050905090565b6001600160a01b03811661356e5760405162461bcd60e51b815260206004820152601f60248201527f696e766573746f7220616464726573732063616e6e6f74206265207a65726f006044820152606401610d50565b6001600160a01b0381811660009081526016602052604090206002015416156135a560008051602061652e8339815191523361275d565b156136235780156135f85760405162461bcd60e51b815260206004820152601d60248201527f696e766573746f72206d757374206265207365742075702066697273740000006044820152606401610d50565b506001600160a01b03166000908152601660205260409020805460ff60a01b1916600160a01b179055565b61363b6000805160206164ce8339815191523361275d565b61367c5760405162461bcd60e51b815260206004820152601260248201527110d85b1b195c881b5d5cdd0818994810d4d560721b6044820152606401610d50565b61169f8233614d4f565b61369e60008051602061652e8339815191523361275d565b6136ba5760405162461bcd60e51b8152600401610d5090615f6e565b600160185460ff1660048111156136d3576136d3615aaa565b1461372a5760405162461bcd60e51b815260206004820152602160248201527f52656769737465722073686f756c6420626520696e20526561647920737461746044820152606560f81b6064820152608401610d50565b602454601b54613743916001600160a01b031690614a21565b601880546000919060ff19166001835b021790555060185460405133916000805160206164ee83398151915291611d0b91601991601a9160ff16906161cd565b816137a05760405162461bcd60e51b8152600401610d509061620c565b60008051602061652e833981519152820361381d576137c060003361275d565b6138185760405162461bcd60e51b8152602060048201526024808201527f43616c6c6572206d7573742062652041444d494e20746f2072656d6f766520616044820152632043414b60e01b6064820152608401610d50565b611b6b565b61383560008051602061652e8339815191523361275d565b611b6b5760405162461bcd60e51b815260206004820152602360248201527f43616c6c6572206d7573742062652043414b20746f2072656d6f7665206120726044820152626f6c6560e81b6064820152608401610d50565b6138a560008051602061652e8339815191523361275d565b6138c15760405162461bcd60e51b8152600401610d5090615f6e565b600060185460ff1660048111156138da576138da615aaa565b1461394d5760405162461bcd60e51b815260206004820152603a60248201527f6c6966656379636c652076696f6c6174696f6e202d206f6e6c7920616c6c6f7760448201527f6564207768656e2073746174757320697320696e2064726166740000000000006064820152608401610d50565b601b55565b6001600160a01b0381166139a85760405162461bcd60e51b815260206004820152601f60248201527f696e766573746f7220616464726573732063616e6e6f74206265207a65726f006044820152606401610d50565b6139c060008051602061652e8339815191523361275d565b15613a53576001600160a01b0381811660009081526016602052604090206002015416613a2f5760405162461bcd60e51b815260206004820152601d60248201527f696e766573746f72206d757374206265207365742075702066697273740000006044820152606401610d50565b6001600160a01b03166000908152601660205260409020805460ff60a01b19169055565b613a6b6000805160206164ce8339815191523361275d565b613aac5760405162461bcd60e51b815260206004820152601260248201527110d85b1b195c881b5d5cdd0818994810d4d560721b6044820152606401610d50565b6001600160a01b03818116600090815260166020526040902060020154163314613ae85760405162461bcd60e51b8152600401610d5090616397565b6001600160a01b038116600081815260166020908152604091829020805460ff60a01b1916905590519182527ffeae65559f65b7c3f804001ac3371fbb83cf05e8344bc2b66588084bfe9250a891015b60405180910390a150565b613b4b614e41565b613b675760405162461bcd60e51b8152600401610d5090615f6e565b60008181526013602052604090819020805460ff19166001179055517fbaf2f827de189827a9b5ea8781dbbffcad675a367dccaad8b9ada866795598d790613b389083815260200190565b613bba614e41565b613bd65760405162461bcd60e51b8152600401610d5090615f6e565b60008181526013602052604090819020805460ff19169055517f2876b9bd97a638025f28a0d50cb5f3cd9e5c0b85624fb7ee15267149452c2d7490613b389083815260200190565b613c3660008051602061652e8339815191523361275d565b613c525760405162461bcd60e51b8152600401610d5090615f6e565b602055565b613c6f60008051602061652e8339815191523361275d565b80613c8d5750613c8d60008051602061650e8339815191523361275d565b80613cab5750613cab6000805160206164ce8339815191523361275d565b80613cc95750613cc96000805160206164ae8339815191523361275d565b613d2c5760405162461bcd60e51b815260206004820152602e60248201527f5468652063616c6c6572206d7573742068617665206120726f6c6520696e207460448201526d3432903a3930b739b0b1ba34b7b760911b6064820152608401610d50565b816001600160a01b0316336001600160a01b03167fa923df1773651806246e73e1e43342c4845d608ad54e2606d3c1a50124d66e7183604051612dc19190615929565b613d8760008051602061652e8339815191523361275d565b613da35760405162461bcd60e51b8152600401610d5090615f6e565b600060185460ff166004811115613dbc57613dbc615aaa565b14613e135760405162461bcd60e51b815260206004820152602160248201527f52656769737465722073686f756c6420626520696e20447261667420737461746044820152606560f81b6064820152608401610d50565b601b54613e625760405162461bcd60e51b815260206004820152601e60248201527f657870656374656420737570706c792063616e6e6f74206265207a65726f00006044820152606401610d50565b6024546001600160a01b0316613e8a5760405162461bcd60e51b8152600401610d5090616351565b602454601b54613ea3916001600160a01b031690614c78565b601880546001919060ff19168280613753565b613ece60008051602061652e8339815191523361275d565b80613eec5750613eec60008051602061650e8339815191523361275d565b80613efb5750613efb336133f7565b80613f0a5750613f0a3361221b565b613f265760405162461bcd60e51b8152600401610d5090616263565b600083815260156020908152604080832081516101808101835281546001600160a01b039081168252600183015416818501526002820154818401526003820154606080830191909152600480840154608080850191909152600585015460a0850152600685015460c0850152600785015460e08501526008850154610100850152600985015461012085015285519081018652600a8501548152600b85015496810196909652600c84015494860194909452600d83015490850152610140810193909352600e810154909161016084019160ff169081111561400b5761400b615aaa565b600481111561401c5761401c615aaa565b90525090506001816101600151600481111561403a5761403a615aaa565b146140575760405162461bcd60e51b8152600401610d5090616292565b61406f60008051602061652e8339815191523361275d565b8061407e575080610100015142115b6140db5760405162461bcd60e51b815260206004820152602860248201527f43616e6e6f7420666f7263652063616e63656c206265666f72652064656c6976604482015267657279206461746560c01b6064820152608401610d50565b6140f360008051602061652e8339815191523361275d565b8061416f57508060e0015160028460405160200161411391815260200190565b60408051601f198184030181529082905261412d916162d6565b602060405180830381855afa15801561414a573d6000803e3d6000fd5b5050506040513d601f19601f8201168201806040525081019061416d91906162f2565b145b6141bb5760405162461bcd60e51b815260206004820152601c60248201527f496e76616c696420666f7263652072656c6561736520736563726574000000006044820152606401610d50565b600461016082015260408082015182516001600160a01b0316600090815260146020529182208054919290916141f2908490615ffa565b909155505060008481526015602052604090819020600a8101849055600d018490556080820151905185907f1a8cba02f5d013fea67ada9f32246816eef8d429321e769eb3bdb1a0ccc7a28490611ad390600490615ade565b6000610d166000805160206164ae8339815191528361275d565b610cee6000805160206164ae83398151915282613783565b610cee6000805160206164ce8339815191528261156e565b60006001600160e01b03198216637965db0b60e01b1480610d1657506301ffc9a760e01b6001600160e01b0319831614610d16565b6142d48282614e60565b6000828152600160205260409020611e7a9082614ec5565b610cee8133614eda565b6001600160a01b03831661435a5760405162461bcd60e51b815260206004820152602560248201527f45524332303a207472616e736665722066726f6d20746865207a65726f206164604482015264647265737360d81b6064820152608401610d50565b6001600160a01b0382166143bc5760405162461bcd60e51b815260206004820152602360248201527f45524332303a207472616e7366657220746f20746865207a65726f206164647260448201526265737360e81b6064820152608401610d50565b6143c7838383614f33565b6001600160a01b0383166000908152600560205260409020548181101561443f5760405162461bcd60e51b815260206004820152602660248201527f45524332303a207472616e7366657220616d6f756e7420657863656564732062604482015265616c616e636560d01b6064820152608401610d50565b6001600160a01b0380851660008181526005602052604080822086860390559286168082529083902080548601905591517fddf252ad1be2c89b69c2b068fc378daa952ba7f163c4a11628f55a4df523b3ef90611ad39086815260200190565b50505050565b6017805460018082019092557fc624b66cc0138b8fabc209247f72d758e1cf3343756d543badbf24212bed8c15810180546001600160a01b03199081166001600160a01b039788169081179092556000828152601660205260409020938401929092558254600284018054909316959096169490941790556001600160a81b0319909316909117600160a01b91151591909102179055565b614547828261500f565b6000828152600160205260409020611e7a9082615093565b6000805b60225481101561228c57826019600901828154811061458457614584615fce565b9060005260206000200154036145e2576022546145a2826001616250565b10156145d85760226145b5826001616250565b815481106145c5576145c5615fce565b9060005260206000200154915050919050565b5050602154919050565b806145ec8161630b565b915050614563565b60006146018360006150a8565b90508381111561466f5760405162461bcd60e51b815260206004820152603360248201527f746865207265636f726420646174652063616e6e6f742062652061667465722060448201527274686520736574746c656d656e74206461746560681b6064820152608401610d50565b81158061467b57508382115b6146ed5760405162461bcd60e51b815260206004820152603c60248201527f696e76616c6964206e6578742064617465207768656e2073657474696e67207460448201527f68652063757272656e7420736e617073686f74206461746574696d65000000006064820152608401610d50565b60006146fa8560006150a8565b90508280156147105761470d81866150a8565b90505b6000828152600e60205260409020541561477d5760405162461bcd60e51b815260206004820152602860248201527f44617465206f6620636f75706f6e206f72206d6174757269747920616c726561604482015267323c903a30b5b2b760c11b6064820152608401610d50565b8442106147f25760405162461bcd60e51b815260206004820152603d60248201527f796f75206861766520746f20646566696e652061206e657720706572696f642060448201527f656e64696e67206166746572207468652063757272656e742074696d650000006064820152608401610d50565b6147fa6150df565b50600f859055601182905560108190556040518190869084907f4d1d74d5cbfc13e02ef05af3a30d8721e87a00d20bc3dc42198917139944def390600090a4505050505050565b60008060005b6022548110156148c657836019600901828154811061486857614868615fce565b906000526020600020015403614882579360019350915050565b836019600901828154811061489957614899615fce565b906000526020600020015411156148b4579360009350915050565b806148be8161630b565b915050614847565b505060225492600092509050565b60006148e14260006150a8565b82118015610d165750506000908152600e60205260409020541590565b600061490942614841565b50602254909150600090819083101561498b57602280548490811061493057614930615fce565b60009182526020909120015460225490925061494d846001616250565b1015614982576022614960846001616250565b8154811061497057614970615fce565b90600052602060002001549050614993565b50602154614993565b505060215460005b60235461449f9083906149a69082616250565b836151a4565b60125460009060ff1615614a0d5760405162461bcd60e51b815260206004820152602260248201527f666f72636520666c616720616c7265616479207365742c20636865636b20636f604482015261646560f01b6064820152608401610d50565b506012805460ff1916600190811790915590565b6001600160a01b038216614a815760405162461bcd60e51b815260206004820152602160248201527f45524332303a206275726e2066726f6d20746865207a65726f206164647265736044820152607360f81b6064820152608401610d50565b614a8d82600083614f33565b6001600160a01b03821660009081526005602052604090205481811015614b015760405162461bcd60e51b815260206004820152602260248201527f45524332303a206275726e20616d6f756e7420657863656564732062616c616e604482015261636560f01b6064820152608401610d50565b6001600160a01b03831660008181526005602090815260408083208686039055600780548790039055518581529192917fddf252ad1be2c89b69c2b068fc378daa952ba7f163c4a11628f55a4df523b3ef910160405180910390a3505050565b60008060008411614bad5760405162461bcd60e51b815260206004820152601660248201527504552433230536e617073686f743a20696420697320360541b6044820152606401610d50565b614bb56151e1565b841115614c045760405162461bcd60e51b815260206004820152601d60248201527f4552433230536e617073686f743a206e6f6e6578697374656e742069640000006044820152606401610d50565b6000614c1084866151ec565b84549091508103614c28576000809250925050614c50565b6001846001018281548110614c3f57614c3f615fce565b906000526020600020015492509250505b9250929050565b6000614c644260006150a8565b909111919050565b6000611567838361528d565b6001600160a01b038216614cce5760405162461bcd60e51b815260206004820152601f60248201527f45524332303a206d696e7420746f20746865207a65726f2061646472657373006044820152606401610d50565b614cda60008383614f33565b8060076000828254614cec9190616250565b90915550506001600160a01b0382166000818152600560209081526040808320805486019055518481527fddf252ad1be2c89b69c2b068fc378daa952ba7f163c4a11628f55a4df523b3ef910160405180910390a35050565b6000610d16825490565b614d58826133f7565b15614d61575050565b6001600160a01b0382811660009081526016602052604090206002015416158015614d9757614d92838360016144a5565b614e00565b6001600160a01b03838116600090815260166020526040902060020154811690831614614dd65760405162461bcd60e51b8152600401610d5090616397565b6001600160a01b0383166000908152601660205260409020805460ff60a01b1916600160a01b1790555b6040516001600160a01b03841681527ff96a35a7272aecca4e6ac04b9ecbc33e3c2655f1fa104a4604d8f50370e6beb39060200160405180910390a1505050565b6000614e5b60008051602061652e8339815191523361275d565b905090565b614e6a828261275d565b1561169f576000828152602081815260408083206001600160a01b0385168085529252808320805460ff1916905551339285917ff6391f5c32d9c69d2a47ea670b442974b53935d1edc7fd64eb21e047a839171b9190a45050565b6000611567836001600160a01b0384166152b7565b614ee4828261275d565b61169f57614ef1816153aa565b614efc8360206153bc565b604051602001614f0d9291906163e3565b60408051601f198184030181529082905262461bcd60e51b8252610d5091600401615929565b600360185460ff166004811115614f4c57614f4c615aaa565b03614f925760405162461bcd60e51b81526020600482015260166024820152751d1a1948149959da5cdd195c881a5cc818db1bdcd95960521b6044820152606401610d50565b6001600160a01b038316600090815260146020526040902054614fb6908290616250565b614fbf84612240565b10156150045760405162461bcd60e51b8152602060048201526014602482015273496e73756666696369656e742062616c616e636560601b6044820152606401610d50565b611e7a838383615558565b615019828261275d565b61169f576000828152602081815260408083206001600160a01b03851684529091529020805460ff1916600117905561504f3390565b6001600160a01b0316816001600160a01b0316837f2f8788117e7eff1d82e926ec794901d17c78024a50270940304540a733656f0d60405160405180910390a45050565b6000611567836001600160a01b03841661567d565b6000806150b8620151808561646e565b90506150c48185615ffa565b91506150d3620151808461646e565b90506127f48183616250565b600080600f5411801561510157506011546000908152600e6020526040902054155b801561510f5750600f544210155b1561519e57600061511e6156cc565b6011546000908152600e60205260409020819055601054909150615143576000615151565b615151601054600f546150a8565b600f8190556151619060006150a8565b6011819055601054600f54604051919290917f4d1d74d5cbfc13e02ef05af3a30d8721e87a00d20bc3dc42198917139944def390600090a4919050565b50600090565b600060115484146151bf576151ba8484846145f4565b6130b8565b6151cc60105460006150a8565b82146130b8576130b8601154600f54846145f4565b6000614e5b600d5490565b815460009081036151ff57506000610d16565b82546000905b808210156152495760006152198383615726565b9050846152268783615741565b54111561523557809150615243565b615240816001616250565b92505b50615205565b60008211801561526c57508361526986615264600186615ffa565b615741565b54145b156152855761527c600183615ffa565b92505050610d16565b509050610d16565b60008260000182815481106152a4576152a4615fce565b9060005260206000200154905092915050565b600081815260018301602052604081205480156153a05760006152db600183615ffa565b85549091506000906152ef90600190615ffa565b905081811461535457600086600001828154811061530f5761530f615fce565b906000526020600020015490508087600001848154811061533257615332615fce565b6000918252602080832090910192909255918252600188019052604090208390555b855486908061536557615365616324565b600190038181906000526020600020016000905590558560010160008681526020019081526020016000206000905560019350505050610d16565b6000915050610d16565b6060610d166001600160a01b03831660145b606060006153cb836002616482565b6153d6906002616250565b67ffffffffffffffff8111156153ee576153ee615966565b6040519080825280601f01601f191660200182016040528015615418576020820181803683370190505b509050600360fc1b8160008151811061543357615433615fce565b60200101906001600160f81b031916908160001a905350600f60fb1b8160018151811061546257615462615fce565b60200101906001600160f81b031916908160001a9053506000615486846002616482565b615491906001616250565b90505b6001811115615509576f181899199a1a9b1b9c1cb0b131b232b360811b85600f16601081106154c5576154c5615fce565b1a60f81b8282815181106154db576154db615fce565b60200101906001600160f81b031916908160001a90535060049490941c936155028161633a565b9050615494565b5083156115675760405162461bcd60e51b815260206004820181905260248201527f537472696e67733a20686578206c656e67746820696e73756666696369656e746044820152606401610d50565b60125460ff1615615572576012805460ff19169055615669565b6000600f54116156025760405162461bcd60e51b815260206004820152604f60248201527f746865207265676973746572206973206c6f636b65642062656361757365206e60448201527f6f20636f75706f6e206973207072657061726564206f7220746865206d61747560648201526e1c9a5d1e481a5cc81c995858da1959608a1b608482015260a401610d50565b600f544210615669576000601054116156695760405162461bcd60e51b8152602060048201526024808201527f746865206d61747572697479206375742d6f66662074696d65206861732070616044820152631cdcd95960e21b6064820152608401610d50565b6156716150df565b50611e7a838383615752565b60008181526001830160205260408120546156c457508154600181810184556000848152602080822090930184905584548482528286019093526040902091909155610d16565b506000610d16565b60006156dc600d80546001019055565b60006156e66151e1565b90507f8030e83b04d87bef53480e26263266d6ca66863aa8506aca6f2559d18aa1cb678160405161571991815260200190565b60405180910390a1919050565b60006157356002848418616499565b61156790848416616250565b6000828152602081208201806127f4565b6001600160a01b0383166157715761576982615796565b611e7a6157c0565b6001600160a01b0382166157885761576983615796565b61579183615796565b611e7a825b6001600160a01b0381166000908152600a60205260409020610cee906157bb83612240565b6157d0565b6157ce600b6157bb60075490565b565b60006157da6151e1565b9050806157e68461581a565b1015611e7a578254600180820185556000858152602080822090930193909355938401805494850181558252902090910155565b8054600090810361582d57506000919050565b8154829061583d90600190615ffa565b8154811061584d5761584d615fce565b90600052602060002001549050919050565b919050565b80356001600160a01b038116811461585f57600080fd5b60006020828403121561588d57600080fd5b61156782615864565b6000602082840312156158a857600080fd5b81356001600160e01b03198116811461156757600080fd5b6000602082840312156158d257600080fd5b5035919050565b60005b838110156158f45781810151838201526020016158dc565b50506000910152565b600081518084526159158160208601602086016158d9565b601f01601f19169290920160200192915050565b60208152600061156760208301846158fd565b6000806040838503121561594f57600080fd5b61595883615864565b946020939093013593505050565b634e487b7160e01b600052604160045260246000fd5b604051610180810167ffffffffffffffff811182821017156159a0576159a0615966565b60405290565b600082601f8301126159b757600080fd5b813567ffffffffffffffff808211156159d2576159d2615966565b604051601f8301601f19908116603f011681019082821181831017156159fa576159fa615966565b81604052838152866020858801011115615a1357600080fd5b836020870160208301376000602085830101528094505050505092915050565b600080600080600080600080610100898b031215615a5057600080fd5b883567ffffffffffffffff811115615a6757600080fd5b615a738b828c016159a6565b9b60208b01359b5060408b01359a60608101359a506080810135995060a0810135985060c0810135975060e0013595509350505050565b634e487b7160e01b600052602160045260246000fd5b60058110610cee57634e487b7160e01b600052602160045260246000fd5b60208101615aeb83615ac0565b91905290565b600080600060608486031215615b0657600080fd5b615b0f84615864565b9250615b1d60208501615864565b9150604084013590509250925092565b60008060408385031215615b4057600080fd5b82359150615b5060208401615864565b90509250929050565b60008060408385031215615b6c57600080fd5b50508035926020909101359150565b600080600060608486031215615b9057600080fd5b505081359360208301359350604090920135919050565b600060208284031215615bb957600080fd5b813567ffffffffffffffff811115615bd057600080fd5b6127f4848285016159a6565b600081518084526020808501945080840160005b83811015615c0c57815187529582019590820190600101615bf0565b509495945050505050565b6020815260008251610160806020850152615c366101808501836158fd565b91506020850151601f1980868503016040870152615c5484836158fd565b93506040870151606087015260608701516080870152608087015160a087015260a087015160c087015260c087015160e087015260e08701519150610100828188015280880151925050610120828188015280880151925050610140818786030181880152615cc38584615bdc565b970151959092019490945250929392505050565b6020808252825182820181905260009190848201906040850190845b81811015615d185783516001600160a01b031683529284019291840191600101615cf3565b50909695505050505050565b600060808284031215615d3657600080fd5b6040516080810181811067ffffffffffffffff82111715615d5957615d59615966565b8060405250809150823581526020830135602082015260408301356040820152606083013560608201525092915050565b80356005811061585f57600080fd5b60006101e08284031215615dac57600080fd5b615db461597c565b615dbd83615864565b8152615dcb60208401615864565b602082015260408301356040820152606083013560608201526080830135608082015260a083013560a082015260c083013560c082015260e083013560e0820152610100808401358183015250610120808401358183015250610140615e3385828601615d24565b90820152615e446101c08401615d8a565b6101608201529392505050565b615e5a81615ac0565b9052565b60006101e08201905060018060a01b03808f168352808e166020840152508b60408301528a60608301528960808301528860a08301528760c08301528660e0830152856101008301528461012083015283516101408301526020840151610160830152604084015161018083015260608401516101a0830152615ee56101c0830184615e51565b9d9c50505050505050505050505050565b60008060408385031215615f0957600080fd5b615f1283615864565b9150602083013567ffffffffffffffff811115615f2e57600080fd5b615f3a858286016159a6565b9150509250929050565b60008060408385031215615f5757600080fd5b615f6083615864565b9150615b5060208401615864565b60208082526012908201527143616c6c6572206d7573742062652043414b60701b604082015260600190565b600181811c90821680615fae57607f821691505b6020821081036134b157634e487b7160e01b600052602260045260246000fd5b634e487b7160e01b600052603260045260246000fd5b634e487b7160e01b600052601160045260246000fd5b81810381811115610d1657610d16615fe4565b601f821115611e7a57600081815260208120601f850160051c810160208610156160345750805b601f850160051c820191505b8181101561605357828155600101616040565b505050505050565b815167ffffffffffffffff81111561607557616075615966565b616089816160838454615f9a565b8461600d565b602080601f8311600181146160be57600084156160a65750858301515b600019600386901b1c1916600185901b178555616053565b600085815260208120601f198616915b828110156160ed578886015182559484019460019091019084016160ce565b508582101561610b5787850151600019600388901b60f8161c191681555b5050505050600190811b01905550565b6020808252818101527f5468697320636f6e7472616374206973206e6f742077686974656c6973746564604082015260600190565b6000815461615d81615f9a565b80855260206001838116801561617a5760018114616194576161c2565b60ff1985168884015283151560051b8801830195506161c2565b866000528260002060005b858110156161ba5781548a820186015290830190840161619f565b890184019650505b505050505092915050565b6060815260006161e06060830186616150565b82810360208401526161f28186616150565b9150506161fe83615ac0565b826040830152949350505050565b60208082526024908201527f5573652066756e6374696f6e206368616e676541646d696e526f6c6520696e736040820152631d19585960e21b606082015260800190565b80820180821115610d1657610d16615fe4565b60208082526015908201527410d85b1b195c881b9bdd08185d5d1a1bdc9a5e9959605a1b604082015260600190565b60208082526024908201527f4173736574206e6f74206c6f636b6564206f7220616c72656164792072656c65604082015263185cd95960e21b606082015260800190565b600082516162e88184602087016158d9565b9190910192915050565b60006020828403121561630457600080fd5b5051919050565b60006001820161631d5761631d615fe4565b5060010190565b634e487b7160e01b600052603160045260246000fd5b60008161634957616349615fe4565b506000190190565b60208082526026908201527f596f75206d7573742073657420746865206d696e74207265636569766572206160408201526564647265737360d01b606082015260800190565b6020808252602c908201527f6f6e6c792074686520637573746f6469616e2063616e20646973616c6c6f772060408201526b3a34329034b73b32b9ba37b960a11b606082015260800190565b7f416363657373436f6e74726f6c3a206163636f756e742000000000000000000081526000835161641b8160178501602088016158d9565b7001034b99036b4b9b9b4b733903937b6329607d1b601791840191820152835161644c8160288401602088016158d9565b01602801949350505050565b634e487b7160e01b600052601260045260246000fd5b60008261647d5761647d616458565b500690565b8082028115828204841417610d1657610d16615fe4565b6000826164a8576164a8616458565b50049056fed7aa2ddfa4e381128202bf365b7e0a176f2fca6cdf2f23c2b0a6f439376958906ba6f588bcdc2df8426603a466c98ab15e79f7fb7f37b53581ce39c1d01b7249da2010acfda7a262372331cb3b57e3f648f63eb009a423a2b5602cfa4f9bff51f698af62c65280e4949bceec64b760f3b7738217cbc536cdfc4c9463676b05c2a75205b8583660bdad375c0ccde11af17668d76a408a9a5e739251b0f7c59870a2646970667358221220ee1853ee3c4fa5072b09c8b37c7c99062bb8393cd26bed9f254151c9167c335d64736f6c63430008130033a75205b8583660bdad375c0ccde11af17668d76a408a9a5e739251b0f7c59870","opcodes":"PUSH1 0x80 PUSH1 0x40 MSTORE PUSH1 0x24 DUP1 SLOAD PUSH1 0x1 PUSH1 0x1 PUSH1 0xA0 SHL SUB NOT AND ADDRESS OR SWAP1 SSTORE CALLVALUE DUP1 ISZERO PUSH3 0x23 JUMPI PUSH1 0x0 DUP1 REVERT JUMPDEST POP PUSH1 0x40 MLOAD PUSH3 0x755F CODESIZE SUB DUP1 PUSH3 0x755F DUP4 CODECOPY DUP2 ADD PUSH1 0x40 DUP2 SWAP1 MSTORE PUSH3 0x46 SWAP2 PUSH3 0xB90 JUMP JUMPDEST DUP11 DUP11 PUSH3 0x55 PUSH1 0x0 CALLER PUSH3 0x279 JUMP JUMPDEST PUSH3 0x70 PUSH1 0x0 DUP1 MLOAD PUSH1 0x20 PUSH3 0x753F DUP4 CODECOPY DUP2 MLOAD SWAP2 MSTORE DUP1 PUSH3 0x289 JUMP JUMPDEST PUSH1 0x2 DUP1 SLOAD PUSH1 0x1 PUSH1 0x1 PUSH1 0xA0 SHL SUB NOT AND CALLER SWAP1 DUP2 OR SWAP1 SWAP2 SSTORE PUSH3 0xA1 SWAP1 PUSH1 0x0 DUP1 MLOAD PUSH1 0x20 PUSH3 0x753F DUP4 CODECOPY DUP2 MLOAD SWAP2 MSTORE SWAP1 PUSH3 0x279 JUMP JUMPDEST PUSH3 0xDC PUSH32 0xF698AF62C65280E4949BCEEC64B760F3B7738217CBC536CDFC4C9463676B05C2 PUSH1 0x0 DUP1 MLOAD PUSH1 0x20 PUSH3 0x753F DUP4 CODECOPY DUP2 MLOAD SWAP2 MSTORE PUSH3 0x289 JUMP JUMPDEST PUSH3 0x117 PUSH32 0x6BA6F588BCDC2DF8426603A466C98AB15E79F7FB7F37B53581CE39C1D01B7249 PUSH1 0x0 DUP1 MLOAD PUSH1 0x20 PUSH3 0x753F DUP4 CODECOPY DUP2 MLOAD SWAP2 MSTORE PUSH3 0x289 JUMP JUMPDEST PUSH3 0x152 PUSH32 0xD7AA2DDFA4E381128202BF365B7E0A176F2FCA6CDF2F23C2B0A6F43937695890 PUSH1 0x0 DUP1 MLOAD PUSH1 0x20 PUSH3 0x753F DUP4 CODECOPY DUP2 MLOAD SWAP2 MSTORE PUSH3 0x289 JUMP JUMPDEST PUSH1 0x8 PUSH3 0x160 DUP4 DUP3 PUSH3 0xD0B JUMP JUMPDEST POP PUSH1 0x9 PUSH3 0x16F DUP3 DUP3 PUSH3 0xD0B JUMP JUMPDEST POP PUSH1 0x19 SWAP2 POP PUSH3 0x182 SWAP1 POP DUP13 DUP3 PUSH3 0xD0B JUMP JUMPDEST POP PUSH1 0x1A PUSH3 0x191 DUP12 DUP3 PUSH3 0xD0B JUMP JUMPDEST POP PUSH1 0x1B DUP10 SWAP1 SSTORE PUSH1 0x1C DUP9 SWAP1 SSTORE PUSH1 0x1D DUP8 SWAP1 SSTORE PUSH1 0x1E DUP7 SWAP1 SSTORE PUSH1 0x1F DUP6 SWAP1 SSTORE PUSH1 0x20 DUP5 DUP2 SSTORE PUSH1 0x21 DUP5 SWAP1 SSTORE DUP3 MLOAD PUSH3 0x1C9 SWAP2 PUSH1 0x22 SWAP2 SWAP1 DUP6 ADD SWAP1 PUSH3 0x9C6 JUMP JUMPDEST POP PUSH1 0x23 DUP2 SWAP1 SSTORE PUSH3 0x1D9 PUSH3 0x2D4 JUMP JUMPDEST PUSH1 0x18 DUP1 SLOAD PUSH1 0xFF NOT AND SWAP1 SSTORE PUSH1 0x40 MLOAD CALLER SWAP1 PUSH32 0x9C99CFC2B1740648876AEE40EF245AE7527339DF99966FD618B900E61BC76E75 SWAP1 PUSH3 0x219 SWAP1 DUP15 SWAP1 DUP15 SWAP1 PUSH3 0xE05 JUMP JUMPDEST PUSH1 0x40 MLOAD DUP1 SWAP2 SUB SWAP1 LOG2 PUSH1 0x18 SLOAD PUSH1 0x40 MLOAD CALLER SWAP2 PUSH32 0xDA2010ACFDA7A262372331CB3B57E3F648F63EB009A423A2B5602CFA4F9BFF51 SWAP2 PUSH3 0x260 SWAP2 PUSH1 0x19 SWAP2 PUSH1 0x1A SWAP2 PUSH1 0xFF AND SWAP1 PUSH3 0xEBC JUMP JUMPDEST PUSH1 0x40 MLOAD DUP1 SWAP2 SUB SWAP1 LOG2 POP POP POP POP POP POP POP POP POP POP POP PUSH3 0xFAC JUMP JUMPDEST PUSH3 0x285 DUP3 DUP3 PUSH3 0x39C JUMP JUMPDEST POP POP JUMP JUMPDEST PUSH1 0x0 DUP3 DUP2 MSTORE PUSH1 0x20 DUP2 SWAP1 MSTORE PUSH1 0x40 DUP1 DUP3 KECCAK256 PUSH1 0x1 ADD DUP1 SLOAD SWAP1 DUP5 SWAP1 SSTORE SWAP1 MLOAD SWAP1 SWAP2 DUP4 SWAP2 DUP4 SWAP2 DUP7 SWAP2 PUSH32 0xBD79B86FFE0AB8E8776151514217CD7CACD52C909F66475C3AF44E129F0B00FF SWAP2 SWAP1 LOG4 POP POP POP JUMP JUMPDEST PUSH1 0x0 PUSH3 0x2E1 TIMESTAMP PUSH3 0x3C7 JUMP JUMPDEST POP PUSH1 0x22 SLOAD SWAP1 SWAP2 POP PUSH1 0x0 SWAP1 DUP2 SWAP1 DUP4 LT ISZERO PUSH3 0x371 JUMPI PUSH1 0x22 DUP1 SLOAD DUP5 SWAP1 DUP2 LT PUSH3 0x30C JUMPI PUSH3 0x30C PUSH3 0xF15 JUMP JUMPDEST PUSH1 0x0 SWAP2 DUP3 MSTORE PUSH1 0x20 SWAP1 SWAP2 KECCAK256 ADD SLOAD PUSH1 0x22 SLOAD SWAP1 SWAP3 POP PUSH3 0x32B DUP5 PUSH1 0x1 PUSH3 0xF41 JUMP JUMPDEST LT ISZERO PUSH3 0x367 JUMPI PUSH1 0x22 PUSH3 0x341 DUP5 PUSH1 0x1 PUSH3 0xF41 JUMP JUMPDEST DUP2 SLOAD DUP2 LT PUSH3 0x354 JUMPI PUSH3 0x354 PUSH3 0xF15 JUMP JUMPDEST SWAP1 PUSH1 0x0 MSTORE PUSH1 0x20 PUSH1 0x0 KECCAK256 ADD SLOAD SWAP1 POP PUSH3 0x379 JUMP JUMPDEST POP PUSH1 0x21 SLOAD PUSH3 0x379 JUMP JUMPDEST POP POP PUSH1 0x21 SLOAD PUSH1 0x0 JUMPDEST PUSH1 0x23 SLOAD PUSH3 0x396 SWAP1 DUP4 SWAP1 PUSH3 0x38F SWAP1 DUP3 PUSH3 0xF41 JUMP JUMPDEST DUP4 PUSH3 0x466 JUMP JUMPDEST POP POP POP POP JUMP JUMPDEST PUSH3 0x3A8 DUP3 DUP3 PUSH3 0x4BD JUMP JUMPDEST PUSH1 0x0 DUP3 DUP2 MSTORE PUSH1 0x1 PUSH1 0x20 MSTORE PUSH1 0x40 SWAP1 KECCAK256 PUSH3 0x3C2 SWAP1 DUP3 PUSH3 0x55D JUMP JUMPDEST POP POP POP JUMP JUMPDEST PUSH1 0x0 DUP1 PUSH1 0x0 JUMPDEST PUSH1 0x22 SLOAD DUP2 LT ISZERO PUSH3 0x458 JUMPI DUP4 PUSH1 0x19 PUSH1 0x9 ADD DUP3 DUP2 SLOAD DUP2 LT PUSH3 0x3F2 JUMPI PUSH3 0x3F2 PUSH3 0xF15 JUMP JUMPDEST SWAP1 PUSH1 0x0 MSTORE PUSH1 0x20 PUSH1 0x0 KECCAK256 ADD SLOAD SUB PUSH3 0x40D JUMPI SWAP4 PUSH1 0x1 SWAP4 POP SWAP2 POP POP JUMP JUMPDEST DUP4 PUSH1 0x19 PUSH1 0x9 ADD DUP3 DUP2 SLOAD DUP2 LT PUSH3 0x427 JUMPI PUSH3 0x427 PUSH3 0xF15 JUMP JUMPDEST SWAP1 PUSH1 0x0 MSTORE PUSH1 0x20 PUSH1 0x0 KECCAK256 ADD SLOAD GT ISZERO PUSH3 0x443 JUMPI SWAP4 PUSH1 0x0 SWAP4 POP SWAP2 POP POP JUMP JUMPDEST DUP1 PUSH3 0x44F DUP2 PUSH3 0xF57 JUMP JUMPDEST SWAP2 POP POP PUSH3 0x3CD JUMP JUMPDEST POP POP PUSH1 0x22 SLOAD SWAP3 PUSH1 0x0 SWAP3 POP SWAP1 POP JUMP JUMPDEST PUSH1 0x0 PUSH1 0x11 SLOAD DUP5 EQ PUSH3 0x485 JUMPI PUSH3 0x47F DUP5 DUP5 DUP5 PUSH3 0x57D JUMP JUMPDEST PUSH3 0x4B3 JUMP JUMPDEST PUSH1 0x10 SLOAD PUSH3 0x495 SWAP1 PUSH1 0x0 PUSH3 0x7E8 JUMP JUMPDEST DUP3 EQ PUSH3 0x4B3 JUMPI PUSH3 0x4B3 PUSH1 0x11 SLOAD PUSH1 0xF SLOAD DUP5 PUSH3 0x57D PUSH1 0x20 SHL PUSH1 0x20 SHR JUMP JUMPDEST POP PUSH1 0x1 SWAP4 SWAP3 POP POP POP JUMP JUMPDEST PUSH1 0x0 DUP3 DUP2 MSTORE PUSH1 0x20 DUP2 DUP2 MSTORE PUSH1 0x40 DUP1 DUP4 KECCAK256 PUSH1 0x1 PUSH1 0x1 PUSH1 0xA0 SHL SUB DUP6 AND DUP5 MSTORE SWAP1 SWAP2 MSTORE SWAP1 KECCAK256 SLOAD PUSH1 0xFF AND PUSH3 0x285 JUMPI PUSH1 0x0 DUP3 DUP2 MSTORE PUSH1 0x20 DUP2 DUP2 MSTORE PUSH1 0x40 DUP1 DUP4 KECCAK256 PUSH1 0x1 PUSH1 0x1 PUSH1 0xA0 SHL SUB DUP6 AND DUP5 MSTORE SWAP1 SWAP2 MSTORE SWAP1 KECCAK256 DUP1 SLOAD PUSH1 0xFF NOT AND PUSH1 0x1 OR SWAP1 SSTORE PUSH3 0x519 CALLER SWAP1 JUMP JUMPDEST PUSH1 0x1 PUSH1 0x1 PUSH1 0xA0 SHL SUB AND DUP2 PUSH1 0x1 PUSH1 0x1 PUSH1 0xA0 SHL SUB AND DUP4 PUSH32 0x2F8788117E7EFF1D82E926EC794901D17C78024A50270940304540A733656F0D PUSH1 0x40 MLOAD PUSH1 0x40 MLOAD DUP1 SWAP2 SUB SWAP1 LOG4 POP POP JUMP JUMPDEST PUSH1 0x0 PUSH3 0x574 DUP4 PUSH1 0x1 PUSH1 0x1 PUSH1 0xA0 SHL SUB DUP5 AND PUSH3 0x82F JUMP JUMPDEST SWAP1 POP JUMPDEST SWAP3 SWAP2 POP POP JUMP JUMPDEST PUSH1 0x0 PUSH3 0x58B DUP4 DUP3 PUSH3 0x7E8 JUMP JUMPDEST SWAP1 POP DUP4 DUP2 GT ISZERO PUSH3 0x609 JUMPI PUSH1 0x40 MLOAD PUSH3 0x461BCD PUSH1 0xE5 SHL DUP2 MSTORE PUSH1 0x20 PUSH1 0x4 DUP3 ADD MSTORE PUSH1 0x33 PUSH1 0x24 DUP3 ADD MSTORE PUSH32 0x746865207265636F726420646174652063616E6E6F7420626520616674657220 PUSH1 0x44 DUP3 ADD MSTORE PUSH32 0x74686520736574746C656D656E74206461746500000000000000000000000000 PUSH1 0x64 DUP3 ADD MSTORE PUSH1 0x84 ADD JUMPDEST PUSH1 0x40 MLOAD DUP1 SWAP2 SUB SWAP1 REVERT JUMPDEST DUP2 ISZERO DUP1 PUSH3 0x616 JUMPI POP DUP4 DUP3 GT JUMPDEST PUSH3 0x68A JUMPI PUSH1 0x40 MLOAD PUSH3 0x461BCD PUSH1 0xE5 SHL DUP2 MSTORE PUSH1 0x20 PUSH1 0x4 DUP3 ADD MSTORE PUSH1 0x3C PUSH1 0x24 DUP3 ADD MSTORE PUSH32 0x696E76616C6964206E6578742064617465207768656E2073657474696E672074 PUSH1 0x44 DUP3 ADD MSTORE PUSH32 0x68652063757272656E7420736E617073686F74206461746574696D6500000000 PUSH1 0x64 DUP3 ADD MSTORE PUSH1 0x84 ADD PUSH3 0x600 JUMP JUMPDEST PUSH1 0x0 PUSH3 0x698 DUP6 DUP3 PUSH3 0x7E8 JUMP JUMPDEST SWAP1 POP DUP3 DUP1 ISZERO PUSH3 0x6B1 JUMPI PUSH3 0x6AE DUP2 DUP7 PUSH3 0x7E8 JUMP JUMPDEST SWAP1 POP JUMPDEST PUSH1 0x0 DUP3 DUP2 MSTORE PUSH1 0xE PUSH1 0x20 MSTORE PUSH1 0x40 SWAP1 KECCAK256 SLOAD ISZERO PUSH3 0x720 JUMPI PUSH1 0x40 MLOAD PUSH3 0x461BCD PUSH1 0xE5 SHL DUP2 MSTORE PUSH1 0x20 PUSH1 0x4 DUP3 ADD MSTORE PUSH1 0x28 PUSH1 0x24 DUP3 ADD MSTORE PUSH32 0x44617465206F6620636F75706F6E206F72206D6174757269747920616C726561 PUSH1 0x44 DUP3 ADD MSTORE PUSH8 0x323C903A30B5B2B7 PUSH1 0xC1 SHL PUSH1 0x64 DUP3 ADD MSTORE PUSH1 0x84 ADD PUSH3 0x600 JUMP JUMPDEST DUP5 TIMESTAMP LT PUSH3 0x797 JUMPI PUSH1 0x40 MLOAD PUSH3 0x461BCD PUSH1 0xE5 SHL DUP2 MSTORE PUSH1 0x20 PUSH1 0x4 DUP3 ADD MSTORE PUSH1 0x3D PUSH1 0x24 DUP3 ADD MSTORE PUSH32 0x796F75206861766520746F20646566696E652061206E657720706572696F6420 PUSH1 0x44 DUP3 ADD MSTORE PUSH32 0x656E64696E67206166746572207468652063757272656E742074696D65000000 PUSH1 0x64 DUP3 ADD MSTORE PUSH1 0x84 ADD PUSH3 0x600 JUMP JUMPDEST PUSH3 0x7A1 PUSH3 0x881 JUMP JUMPDEST POP PUSH1 0xF DUP6 SWAP1 SSTORE PUSH1 0x11 DUP3 SWAP1 SSTORE PUSH1 0x10 DUP2 SWAP1 SSTORE PUSH1 0x40 MLOAD DUP2 SWAP1 DUP7 SWAP1 DUP5 SWAP1 PUSH32 0x4D1D74D5CBFC13E02EF05AF3A30D8721E87A00D20BC3DC42198917139944DEF3 SWAP1 PUSH1 0x0 SWAP1 LOG4 POP POP POP POP POP POP JUMP JUMPDEST PUSH1 0x0 DUP1 PUSH3 0x7FA PUSH3 0x15180 DUP6 PUSH3 0xF73 JUMP JUMPDEST SWAP1 POP PUSH3 0x808 DUP2 DUP6 PUSH3 0xF96 JUMP JUMPDEST SWAP2 POP PUSH3 0x819 PUSH3 0x15180 DUP5 PUSH3 0xF73 JUMP JUMPDEST SWAP1 POP PUSH3 0x827 DUP2 DUP4 PUSH3 0xF41 JUMP JUMPDEST SWAP5 SWAP4 POP POP POP POP JUMP JUMPDEST PUSH1 0x0 DUP2 DUP2 MSTORE PUSH1 0x1 DUP4 ADD PUSH1 0x20 MSTORE PUSH1 0x40 DUP2 KECCAK256 SLOAD PUSH3 0x878 JUMPI POP DUP2 SLOAD PUSH1 0x1 DUP2 DUP2 ADD DUP5 SSTORE PUSH1 0x0 DUP5 DUP2 MSTORE PUSH1 0x20 DUP1 DUP3 KECCAK256 SWAP1 SWAP4 ADD DUP5 SWAP1 SSTORE DUP5 SLOAD DUP5 DUP3 MSTORE DUP3 DUP7 ADD SWAP1 SWAP4 MSTORE PUSH1 0x40 SWAP1 KECCAK256 SWAP2 SWAP1 SWAP2 SSTORE PUSH3 0x577 JUMP JUMPDEST POP PUSH1 0x0 PUSH3 0x577 JUMP JUMPDEST PUSH1 0x0 DUP1 PUSH1 0xF SLOAD GT DUP1 ISZERO PUSH3 0x8A4 JUMPI POP PUSH1 0x11 SLOAD PUSH1 0x0 SWAP1 DUP2 MSTORE PUSH1 0xE PUSH1 0x20 MSTORE PUSH1 0x40 SWAP1 KECCAK256 SLOAD ISZERO JUMPDEST DUP1 ISZERO PUSH3 0x8B3 JUMPI POP PUSH1 0xF SLOAD TIMESTAMP LT ISZERO JUMPDEST ISZERO PUSH3 0x951 JUMPI PUSH1 0x0 PUSH3 0x8C5 PUSH3 0x957 JUMP JUMPDEST PUSH1 0x11 SLOAD PUSH1 0x0 SWAP1 DUP2 MSTORE PUSH1 0xE PUSH1 0x20 MSTORE PUSH1 0x40 SWAP1 KECCAK256 DUP2 SWAP1 SSTORE PUSH1 0x10 SLOAD SWAP1 SWAP2 POP PUSH3 0x8EC JUMPI PUSH1 0x0 PUSH3 0x902 JUMP JUMPDEST PUSH3 0x902 PUSH1 0x10 SLOAD PUSH1 0xF SLOAD PUSH3 0x7E8 PUSH1 0x20 SHL PUSH1 0x20 SHR JUMP JUMPDEST PUSH1 0xF DUP2 SWAP1 SSTORE PUSH3 0x914 SWAP1 PUSH1 0x0 PUSH3 0x7E8 JUMP JUMPDEST PUSH1 0x11 DUP2 SWAP1 SSTORE PUSH1 0x10 SLOAD PUSH1 0xF SLOAD PUSH1 0x40 MLOAD SWAP2 SWAP3 SWAP1 SWAP2 PUSH32 0x4D1D74D5CBFC13E02EF05AF3A30D8721E87A00D20BC3DC42198917139944DEF3 SWAP1 PUSH1 0x0 SWAP1 LOG4 SWAP2 SWAP1 POP JUMP JUMPDEST POP PUSH1 0x0 SWAP1 JUMP JUMPDEST PUSH1 0x0 PUSH3 0x968 PUSH1 0xD DUP1 SLOAD PUSH1 0x1 ADD SWAP1 SSTORE JUMP JUMPDEST PUSH1 0x0 PUSH3 0x974 PUSH3 0x9B5 JUMP JUMPDEST SWAP1 POP PUSH32 0x8030E83B04D87BEF53480E26263266D6CA66863AA8506ACA6F2559D18AA1CB67 DUP2 PUSH1 0x40 MLOAD PUSH3 0x9A8 SWAP2 DUP2 MSTORE PUSH1 0x20 ADD SWAP1 JUMP JUMPDEST PUSH1 0x40 MLOAD DUP1 SWAP2 SUB SWAP1 LOG1 SWAP2 SWAP1 POP JUMP JUMPDEST PUSH1 0x0 PUSH3 0x9C1 PUSH1 0xD SLOAD SWAP1 JUMP JUMPDEST SWAP1 POP SWAP1 JUMP JUMPDEST DUP3 DUP1 SLOAD DUP3 DUP3 SSTORE SWAP1 PUSH1 0x0 MSTORE PUSH1 0x20 PUSH1 0x0 KECCAK256 SWAP1 DUP2 ADD SWAP3 DUP3 ISZERO PUSH3 0xA04 JUMPI SWAP2 PUSH1 0x20 MUL DUP3 ADD JUMPDEST DUP3 DUP2 GT ISZERO PUSH3 0xA04 JUMPI DUP3 MLOAD DUP3 SSTORE SWAP2 PUSH1 0x20 ADD SWAP2 SWAP1 PUSH1 0x1 ADD SWAP1 PUSH3 0x9E7 JUMP JUMPDEST POP PUSH3 0xA12 SWAP3 SWAP2 POP PUSH3 0xA16 JUMP JUMPDEST POP SWAP1 JUMP JUMPDEST JUMPDEST DUP1 DUP3 GT ISZERO PUSH3 0xA12 JUMPI PUSH1 0x0 DUP2 SSTORE PUSH1 0x1 ADD PUSH3 0xA17 JUMP JUMPDEST PUSH4 0x4E487B71 PUSH1 0xE0 SHL PUSH1 0x0 MSTORE PUSH1 0x41 PUSH1 0x4 MSTORE PUSH1 0x24 PUSH1 0x0 REVERT JUMPDEST PUSH1 0x40 MLOAD PUSH1 0x1F DUP3 ADD PUSH1 0x1F NOT AND DUP2 ADD PUSH1 0x1 PUSH1 0x1 PUSH1 0x40 SHL SUB DUP2 GT DUP3 DUP3 LT OR ISZERO PUSH3 0xA6E JUMPI PUSH3 0xA6E PUSH3 0xA2D JUMP JUMPDEST PUSH1 0x40 MSTORE SWAP2 SWAP1 POP JUMP JUMPDEST PUSH1 0x0 JUMPDEST DUP4 DUP2 LT ISZERO PUSH3 0xA93 JUMPI DUP2 DUP2 ADD MLOAD DUP4 DUP3 ADD MSTORE PUSH1 0x20 ADD PUSH3 0xA79 JUMP JUMPDEST POP POP PUSH1 0x0 SWAP2 ADD MSTORE JUMP JUMPDEST PUSH1 0x0 DUP3 PUSH1 0x1F DUP4 ADD SLT PUSH3 0xAAE JUMPI PUSH1 0x0 DUP1 REVERT JUMPDEST DUP2 MLOAD PUSH1 0x1 PUSH1 0x1 PUSH1 0x40 SHL SUB DUP2 GT ISZERO PUSH3 0xACA JUMPI PUSH3 0xACA PUSH3 0xA2D JUMP JUMPDEST PUSH3 0xADF PUSH1 0x1F DUP3 ADD PUSH1 0x1F NOT AND PUSH1 0x20 ADD PUSH3 0xA43 JUMP JUMPDEST DUP2 DUP2 MSTORE DUP5 PUSH1 0x20 DUP4 DUP7 ADD ADD GT ISZERO PUSH3 0xAF5 JUMPI PUSH1 0x0 DUP1 REVERT JUMPDEST PUSH3 0x827 DUP3 PUSH1 0x20 DUP4 ADD PUSH1 0x20 DUP8 ADD PUSH3 0xA76 JUMP JUMPDEST PUSH1 0x0 DUP3 PUSH1 0x1F DUP4 ADD SLT PUSH3 0xB1A JUMPI PUSH1 0x0 DUP1 REVERT JUMPDEST DUP2 MLOAD PUSH1 0x20 PUSH1 0x1 PUSH1 0x1 PUSH1 0x40 SHL SUB DUP3 GT ISZERO PUSH3 0xB38 JUMPI PUSH3 0xB38 PUSH3 0xA2D JUMP JUMPDEST DUP2 PUSH1 0x5 SHL PUSH3 0xB49 DUP3 DUP3 ADD PUSH3 0xA43 JUMP JUMPDEST SWAP3 DUP4 MSTORE DUP5 DUP2 ADD DUP3 ADD SWAP3 DUP3 DUP2 ADD SWAP1 DUP8 DUP6 GT ISZERO PUSH3 0xB64 JUMPI PUSH1 0x0 DUP1 REVERT JUMPDEST DUP4 DUP8 ADD SWAP3 POP JUMPDEST DUP5 DUP4 LT ISZERO PUSH3 0xB85 JUMPI DUP3 MLOAD DUP3 MSTORE SWAP2 DUP4 ADD SWAP2 SWAP1 DUP4 ADD SWAP1 PUSH3 0xB6A JUMP JUMPDEST SWAP8 SWAP7 POP POP POP POP POP POP POP JUMP JUMPDEST PUSH1 0x0 DUP1 PUSH1 0x0 DUP1 PUSH1 0x0 DUP1 PUSH1 0x0 DUP1 PUSH1 0x0 DUP1 PUSH1 0x0 PUSH2 0x160 DUP13 DUP15 SUB SLT ISZERO PUSH3 0xBB3 JUMPI PUSH1 0x0 DUP1 REVERT JUMPDEST DUP12 MLOAD PUSH1 0x1 PUSH1 0x1 PUSH1 0x40 SHL SUB DUP2 GT ISZERO PUSH3 0xBCA JUMPI PUSH1 0x0 DUP1 REVERT JUMPDEST PUSH3 0xBD8 DUP15 DUP3 DUP16 ADD PUSH3 0xA9C JUMP JUMPDEST PUSH1 0x20 DUP15 ADD MLOAD SWAP1 SWAP13 POP SWAP1 POP PUSH1 0x1 PUSH1 0x1 PUSH1 0x40 SHL SUB DUP2 GT ISZERO PUSH3 0xBF7 JUMPI PUSH1 0x0 DUP1 REVERT JUMPDEST PUSH3 0xC05 DUP15 DUP3 DUP16 ADD PUSH3 0xA9C JUMP JUMPDEST SWAP11 POP POP PUSH1 0x40 DUP13 ADD MLOAD SWAP9 POP PUSH1 0x60 DUP13 ADD MLOAD SWAP8 POP PUSH1 0x80 DUP13 ADD MLOAD SWAP7 POP PUSH1 0xA0 DUP13 ADD MLOAD SWAP6 POP PUSH1 0xC0 DUP13 ADD MLOAD SWAP5 POP PUSH1 0xE0 DUP13 ADD MLOAD SWAP4 POP PUSH2 0x100 DUP13 ADD MLOAD SWAP3 POP PUSH2 0x120 DUP13 ADD MLOAD PUSH1 0x1 DUP1 PUSH1 0x40 SHL SUB DUP2 GT ISZERO PUSH3 0xC54 JUMPI PUSH1 0x0 DUP1 REVERT JUMPDEST PUSH3 0xC62 DUP15 DUP3 DUP16 ADD PUSH3 0xB08 JUMP JUMPDEST SWAP3 POP POP PUSH2 0x140 DUP13 ADD MLOAD SWAP1 POP SWAP3 SWAP6 SWAP9 SWAP12 POP SWAP3 SWAP6 SWAP9 SWAP12 SWAP1 SWAP4 SWAP7 SWAP10 POP JUMP JUMPDEST PUSH1 0x1 DUP2 DUP2 SHR SWAP1 DUP3 AND DUP1 PUSH3 0xC92 JUMPI PUSH1 0x7F DUP3 AND SWAP2 POP JUMPDEST PUSH1 0x20 DUP3 LT DUP2 SUB PUSH3 0xCB3 JUMPI PUSH4 0x4E487B71 PUSH1 0xE0 SHL PUSH1 0x0 MSTORE PUSH1 0x22 PUSH1 0x4 MSTORE PUSH1 0x24 PUSH1 0x0 REVERT JUMPDEST POP SWAP2 SWAP1 POP JUMP JUMPDEST PUSH1 0x1F DUP3 GT ISZERO PUSH3 0x3C2 JUMPI PUSH1 0x0 DUP2 DUP2 MSTORE PUSH1 0x20 DUP2 KECCAK256 PUSH1 0x1F DUP6 ADD PUSH1 0x5 SHR DUP2 ADD PUSH1 0x20 DUP7 LT ISZERO PUSH3 0xCE2 JUMPI POP DUP1 JUMPDEST PUSH1 0x1F DUP6 ADD PUSH1 0x5 SHR DUP3 ADD SWAP2 POP JUMPDEST DUP2 DUP2 LT ISZERO PUSH3 0xD03 JUMPI DUP3 DUP2 SSTORE PUSH1 0x1 ADD PUSH3 0xCEE JUMP JUMPDEST POP POP POP POP POP POP JUMP JUMPDEST DUP2 MLOAD PUSH1 0x1 PUSH1 0x1 PUSH1 0x40 SHL SUB DUP2 GT ISZERO PUSH3 0xD27 JUMPI PUSH3 0xD27 PUSH3 0xA2D JUMP JUMPDEST PUSH3 0xD3F DUP2 PUSH3 0xD38 DUP5 SLOAD PUSH3 0xC7D JUMP JUMPDEST DUP5 PUSH3 0xCB9 JUMP JUMPDEST PUSH1 0x20 DUP1 PUSH1 0x1F DUP4 GT PUSH1 0x1 DUP2 EQ PUSH3 0xD77 JUMPI PUSH1 0x0 DUP5 ISZERO PUSH3 0xD5E JUMPI POP DUP6 DUP4 ADD MLOAD JUMPDEST PUSH1 0x0 NOT PUSH1 0x3 DUP7 SWAP1 SHL SHR NOT AND PUSH1 0x1 DUP6 SWAP1 SHL OR DUP6 SSTORE PUSH3 0xD03 JUMP JUMPDEST PUSH1 0x0 DUP6 DUP2 MSTORE PUSH1 0x20 DUP2 KECCAK256 PUSH1 0x1F NOT DUP7 AND SWAP2 JUMPDEST DUP3 DUP2 LT ISZERO PUSH3 0xDA8 JUMPI DUP9 DUP7 ADD MLOAD DUP3 SSTORE SWAP5 DUP5 ADD SWAP5 PUSH1 0x1 SWAP1 SWAP2 ADD SWAP1 DUP5 ADD PUSH3 0xD87 JUMP JUMPDEST POP DUP6 DUP3 LT ISZERO PUSH3 0xDC7 JUMPI DUP8 DUP6 ADD MLOAD PUSH1 0x0 NOT PUSH1 0x3 DUP9 SWAP1 SHL PUSH1 0xF8 AND SHR NOT AND DUP2 SSTORE JUMPDEST POP POP POP POP POP PUSH1 0x1 SWAP1 DUP2 SHL ADD SWAP1 SSTORE POP JUMP JUMPDEST PUSH1 0x0 DUP2 MLOAD DUP1 DUP5 MSTORE PUSH3 0xDF1 DUP2 PUSH1 0x20 DUP7 ADD PUSH1 0x20 DUP7 ADD PUSH3 0xA76 JUMP JUMPDEST PUSH1 0x1F ADD PUSH1 0x1F NOT AND SWAP3 SWAP1 SWAP3 ADD PUSH1 0x20 ADD SWAP3 SWAP2 POP POP JUMP JUMPDEST PUSH1 0x40 DUP2 MSTORE PUSH1 0x0 PUSH3 0xE1A PUSH1 0x40 DUP4 ADD DUP6 PUSH3 0xDD7 JUMP JUMPDEST DUP3 DUP2 SUB PUSH1 0x20 DUP5 ADD MSTORE PUSH3 0xE2E DUP2 DUP6 PUSH3 0xDD7 JUMP JUMPDEST SWAP6 SWAP5 POP POP POP POP POP JUMP JUMPDEST PUSH1 0x0 DUP2 SLOAD PUSH3 0xE46 DUP2 PUSH3 0xC7D JUMP JUMPDEST DUP1 DUP6 MSTORE PUSH1 0x20 PUSH1 0x1 DUP4 DUP2 AND DUP1 ISZERO PUSH3 0xE66 JUMPI PUSH1 0x1 DUP2 EQ PUSH3 0xE81 JUMPI PUSH3 0xEB1 JUMP JUMPDEST PUSH1 0xFF NOT DUP6 AND DUP9 DUP5 ADD MSTORE DUP4 ISZERO ISZERO PUSH1 0x5 SHL DUP9 ADD DUP4 ADD SWAP6 POP PUSH3 0xEB1 JUMP JUMPDEST DUP7 PUSH1 0x0 MSTORE DUP3 PUSH1 0x0 KECCAK256 PUSH1 0x0 JUMPDEST DUP6 DUP2 LT ISZERO PUSH3 0xEA9 JUMPI DUP2 SLOAD DUP11 DUP3 ADD DUP7 ADD MSTORE SWAP1 DUP4 ADD SWAP1 DUP5 ADD PUSH3 0xE8C JUMP JUMPDEST DUP10 ADD DUP5 ADD SWAP7 POP POP JUMPDEST POP POP POP POP POP SWAP3 SWAP2 POP POP JUMP JUMPDEST PUSH1 0x60 DUP2 MSTORE PUSH1 0x0 PUSH3 0xED1 PUSH1 0x60 DUP4 ADD DUP7 PUSH3 0xE37 JUMP JUMPDEST DUP3 DUP2 SUB PUSH1 0x20 DUP5 ADD MSTORE PUSH3 0xEE5 DUP2 DUP7 PUSH3 0xE37 JUMP JUMPDEST SWAP2 POP POP PUSH1 0x5 DUP4 LT PUSH3 0xF07 JUMPI PUSH4 0x4E487B71 PUSH1 0xE0 SHL PUSH1 0x0 MSTORE PUSH1 0x21 PUSH1 0x4 MSTORE PUSH1 0x24 PUSH1 0x0 REVERT JUMPDEST DUP3 PUSH1 0x40 DUP4 ADD MSTORE SWAP5 SWAP4 POP POP POP POP JUMP JUMPDEST PUSH4 0x4E487B71 PUSH1 0xE0 SHL PUSH1 0x0 MSTORE PUSH1 0x32 PUSH1 0x4 MSTORE PUSH1 0x24 PUSH1 0x0 REVERT JUMPDEST PUSH4 0x4E487B71 PUSH1 0xE0 SHL PUSH1 0x0 MSTORE PUSH1 0x11 PUSH1 0x4 MSTORE PUSH1 0x24 PUSH1 0x0 REVERT JUMPDEST DUP1 DUP3 ADD DUP1 DUP3 GT ISZERO PUSH3 0x577 JUMPI PUSH3 0x577 PUSH3 0xF2B JUMP JUMPDEST PUSH1 0x0 PUSH1 0x1 DUP3 ADD PUSH3 0xF6C JUMPI PUSH3 0xF6C PUSH3 0xF2B JUMP JUMPDEST POP PUSH1 0x1 ADD SWAP1 JUMP JUMPDEST PUSH1 0x0 DUP3 PUSH3 0xF91 JUMPI PUSH4 0x4E487B71 PUSH1 0xE0 SHL PUSH1 0x0 MSTORE PUSH1 0x12 PUSH1 0x4 MSTORE PUSH1 0x24 PUSH1 0x0 REVERT JUMPDEST POP MOD SWAP1 JUMP JUMPDEST DUP2 DUP2 SUB DUP2 DUP2 GT ISZERO PUSH3 0x577 JUMPI PUSH3 0x577 PUSH3 0xF2B JUMP JUMPDEST PUSH2 0x6583 DUP1 PUSH3 0xFBC PUSH1 0x0 CODECOPY PUSH1 0x0 RETURN INVALID PUSH1 0x80 PUSH1 0x40 MSTORE CALLVALUE DUP1 ISZERO PUSH2 0x10 JUMPI PUSH1 0x0 DUP1 REVERT JUMPDEST POP PUSH1 0x4 CALLDATASIZE LT PUSH2 0x50E JUMPI PUSH1 0x0 CALLDATALOAD PUSH1 0xE0 SHR DUP1 PUSH4 0x91D14854 GT PUSH2 0x2A4 JUMPI DUP1 PUSH4 0xCA15C873 GT PUSH2 0x172 JUMPI DUP1 PUSH4 0xD8EAB9A5 GT PUSH2 0xD9 JUMPI DUP1 PUSH4 0xE3965D54 GT PUSH2 0x92 JUMPI DUP1 PUSH4 0xE3965D54 EQ PUSH2 0xC6D JUMPI DUP1 PUSH4 0xE5BF6DC8 EQ PUSH2 0xC80 JUMPI DUP1 PUSH4 0xEEB4CEE9 EQ PUSH2 0xC88 JUMPI DUP1 PUSH4 0xF60D9EA1 EQ PUSH2 0xC90 JUMPI DUP1 PUSH4 0xF690C6C5 EQ PUSH2 0xCA3 JUMPI DUP1 PUSH4 0xF6C788B2 EQ PUSH2 0xCB6 JUMPI PUSH1 0x0 DUP1 REVERT JUMPDEST DUP1 PUSH4 0xD8EAB9A5 EQ PUSH2 0xBE0 JUMPI DUP1 PUSH4 0xD9A79978 EQ PUSH2 0xBF3 JUMPI DUP1 PUSH4 0xDC16722B EQ PUSH2 0xC06 JUMPI DUP1 PUSH4 0xDD62ED3E EQ PUSH2 0xC0E JUMPI DUP1 PUSH4 0xE09D1F97 EQ PUSH2 0xC47 JUMPI DUP1 PUSH4 0xE336C590 EQ PUSH2 0xC5A JUMPI PUSH1 0x0 DUP1 REVERT JUMPDEST DUP1 PUSH4 0xD4CDDA91 GT PUSH2 0x12B JUMPI DUP1 PUSH4 0xD4CDDA91 EQ PUSH2 0xB6C JUMPI DUP1 PUSH4 0xD547741F EQ PUSH2 0xB81 JUMPI DUP1 PUSH4 0xD58C80B4 EQ PUSH2 0xB94 JUMPI DUP1 PUSH4 0xD5C0BEEB EQ PUSH2 0xBA7 JUMPI DUP1 PUSH4 0xD614284A EQ PUSH2 0xBBA JUMPI DUP1 PUSH4 0xD696FB0B EQ PUSH2 0xBCD JUMPI PUSH1 0x0 DUP1 REVERT JUMPDEST DUP1 PUSH4 0xCA15C873 EQ PUSH2 0xB10 JUMPI DUP1 PUSH4 0xCC80473C EQ PUSH2 0xB23 JUMPI DUP1 PUSH4 0xCF5B3628 EQ PUSH2 0xB36 JUMPI DUP1 PUSH4 0xD0A2F2C4 EQ PUSH2 0xB49 JUMPI DUP1 PUSH4 0xD1EC6DE8 EQ PUSH2 0xB51 JUMPI DUP1 PUSH4 0xD46BE608 EQ PUSH2 0xB64 JUMPI PUSH1 0x0 DUP1 REVERT JUMPDEST DUP1 PUSH4 0xA7F2F6EC GT PUSH2 0x216 JUMPI DUP1 PUSH4 0xB90C1DBB GT PUSH2 0x1CF JUMPI DUP1 PUSH4 0xB90C1DBB EQ PUSH2 0xA02 JUMPI DUP1 PUSH4 0xC1F4250B EQ PUSH2 0xA0A JUMPI DUP1 PUSH4 0xC2FAAE59 EQ PUSH2 0xA1D JUMPI DUP1 PUSH4 0xC41251A1 EQ PUSH2 0xA25 JUMPI DUP1 PUSH4 0xC47F0027 EQ PUSH2 0xA38 JUMPI DUP1 PUSH4 0xC7725D1B EQ PUSH2 0xA4B JUMPI PUSH1 0x0 DUP1 REVERT JUMPDEST DUP1 PUSH4 0xA7F2F6EC EQ PUSH2 0x99B JUMPI DUP1 PUSH4 0xA9059CBB EQ PUSH2 0x9A3 JUMPI DUP1 PUSH4 0xAB62B444 EQ PUSH2 0x9B6 JUMPI DUP1 PUSH4 0xABC2CF2A EQ PUSH2 0x9C9 JUMPI DUP1 PUSH4 0xAC8F75C1 EQ PUSH2 0x9DC JUMPI DUP1 PUSH4 0xAED054D5 EQ PUSH2 0x9EF JUMPI PUSH1 0x0 DUP1 REVERT JUMPDEST DUP1 PUSH4 0xA0712D68 GT PUSH2 0x268 JUMPI DUP1 PUSH4 0xA0712D68 EQ PUSH2 0x934 JUMPI DUP1 PUSH4 0xA1962183 EQ PUSH2 0x947 JUMPI DUP1 PUSH4 0xA217FDDF EQ PUSH2 0x95A JUMPI DUP1 PUSH4 0xA28F78F8 EQ PUSH2 0x962 JUMPI DUP1 PUSH4 0xA457C2D7 EQ PUSH2 0x975 JUMPI DUP1 PUSH4 0xA55234B8 EQ PUSH2 0x988 JUMPI PUSH1 0x0 DUP1 REVERT JUMPDEST DUP1 PUSH4 0x91D14854 EQ PUSH2 0x8EB JUMPI DUP1 PUSH4 0x93C39393 EQ PUSH2 0x8FE JUMPI DUP1 PUSH4 0x95D89B41 EQ PUSH2 0x911 JUMPI DUP1 PUSH4 0x981B24D0 EQ PUSH2 0x919 JUMPI DUP1 PUSH4 0x9EF986DE EQ PUSH2 0x92C JUMPI PUSH1 0x0 DUP1 REVERT JUMPDEST DUP1 PUSH4 0x39027F7C GT PUSH2 0x3E1 JUMPI DUP1 PUSH4 0x6F2DDB5F GT PUSH2 0x353 JUMPI DUP1 PUSH4 0x806BA100 GT PUSH2 0x30C JUMPI DUP1 PUSH4 0x806BA100 EQ PUSH2 0x84D JUMPI DUP1 PUSH4 0x8784FF18 EQ PUSH2 0x870 JUMPI DUP1 PUSH4 0x8865F1E2 EQ PUSH2 0x881 JUMPI DUP1 PUSH4 0x8E1305DE EQ PUSH2 0x896 JUMPI DUP1 PUSH4 0x8F92F490 EQ PUSH2 0x8A9 JUMPI DUP1 PUSH4 0x9010D07C EQ PUSH2 0x8D8 JUMPI PUSH1 0x0 DUP1 REVERT JUMPDEST DUP1 PUSH4 0x6F2DDB5F EQ PUSH2 0x7CD JUMPI DUP1 PUSH4 0x70A08231 EQ PUSH2 0x7E0 JUMPI DUP1 PUSH4 0x71C41F8A EQ PUSH2 0x7F3 JUMPI DUP1 PUSH4 0x7469538A EQ PUSH2 0x806 JUMPI DUP1 PUSH4 0x7CC7BCCE EQ PUSH2 0x819 JUMPI DUP1 PUSH4 0x7DC35505 EQ PUSH2 0x839 JUMPI PUSH1 0x0 DUP1 REVERT JUMPDEST DUP1 PUSH4 0x42966C68 GT PUSH2 0x3A5 JUMPI DUP1 PUSH4 0x42966C68 EQ PUSH2 0x759 JUMPI DUP1 PUSH4 0x4361F92A EQ PUSH2 0x76C JUMPI DUP1 PUSH4 0x4E0B0DCF EQ PUSH2 0x77F JUMPI DUP1 PUSH4 0x4EE2CD7E EQ PUSH2 0x792 JUMPI DUP1 PUSH4 0x5AB6F71B EQ PUSH2 0x7A5 JUMPI DUP1 PUSH4 0x63896D19 EQ PUSH2 0x7B8 JUMPI PUSH1 0x0 DUP1 REVERT JUMPDEST DUP1 PUSH4 0x39027F7C EQ PUSH2 0x70E JUMPI DUP1 PUSH4 0x39509351 EQ PUSH2 0x716 JUMPI DUP1 PUSH4 0x3BF2A9F4 EQ PUSH2 0x729 JUMPI DUP1 PUSH4 0x3E4BE639 EQ PUSH2 0x73E JUMPI DUP1 PUSH4 0x3E7E8713 EQ PUSH2 0x746 JUMPI PUSH1 0x0 DUP1 REVERT JUMPDEST DUP1 PUSH4 0x222CA340 GT PUSH2 0x485 JUMPI DUP1 PUSH4 0x2F962866 GT PUSH2 0x43E JUMPI DUP1 PUSH4 0x2F962866 EQ PUSH2 0x682 JUMPI DUP1 PUSH4 0x3052974C EQ PUSH2 0x6AD JUMPI DUP1 PUSH4 0x313CE567 EQ PUSH2 0x6C0 JUMPI DUP1 PUSH4 0x33A8AD21 EQ PUSH2 0x6D5 JUMPI DUP1 PUSH4 0x35C80C8C EQ PUSH2 0x6E8 JUMPI DUP1 PUSH4 0x36568ABE EQ PUSH2 0x6FB JUMPI PUSH1 0x0 DUP1 REVERT JUMPDEST DUP1 PUSH4 0x222CA340 EQ PUSH2 0x609 JUMPI DUP1 PUSH4 0x23B872DD EQ PUSH2 0x61C JUMPI DUP1 PUSH4 0x248A9CA3 EQ PUSH2 0x62F JUMPI DUP1 PUSH4 0x2682AC91 EQ PUSH2 0x652 JUMPI DUP1 PUSH4 0x2877D473 EQ PUSH2 0x667 JUMPI DUP1 PUSH4 0x2F2FF15D EQ PUSH2 0x66F JUMPI PUSH1 0x0 DUP1 REVERT JUMPDEST DUP1 PUSH4 0x7B2D9E3 GT PUSH2 0x4D7 JUMPI DUP1 PUSH4 0x7B2D9E3 EQ PUSH2 0x58B JUMPI DUP1 PUSH4 0x95EA7B3 EQ PUSH2 0x5AC JUMPI DUP1 PUSH4 0x17559DF0 EQ PUSH2 0x5BF JUMPI DUP1 PUSH4 0x18160DDD EQ PUSH2 0x5D2 JUMPI DUP1 PUSH4 0x1C67A363 EQ PUSH2 0x5DA JUMPI DUP1 PUSH4 0x200D2ED2 EQ PUSH2 0x5EF JUMPI PUSH1 0x0 DUP1 REVERT JUMPDEST DUP1 PUSH3 0xA9303D EQ PUSH2 0x513 JUMPI DUP1 PUSH4 0x1FFC9A7 EQ PUSH2 0x528 JUMPI DUP1 PUSH4 0x4B8C471 EQ PUSH2 0x550 JUMPI DUP1 PUSH4 0x6EC8CA6 EQ PUSH2 0x563 JUMPI DUP1 PUSH4 0x6FDDE03 EQ PUSH2 0x576 JUMPI JUMPDEST PUSH1 0x0 DUP1 REVERT JUMPDEST PUSH2 0x526 PUSH2 0x521 CALLDATASIZE PUSH1 0x4 PUSH2 0x587B JUMP JUMPDEST PUSH2 0xCD6 JUMP JUMPDEST STOP JUMPDEST PUSH2 0x53B PUSH2 0x536 CALLDATASIZE PUSH1 0x4 PUSH2 0x5896 JUMP JUMPDEST PUSH2 0xCF1 JUMP JUMPDEST PUSH1 0x40 MLOAD SWAP1 ISZERO ISZERO DUP2 MSTORE PUSH1 0x20 ADD JUMPDEST PUSH1 0x40 MLOAD DUP1 SWAP2 SUB SWAP1 RETURN JUMPDEST PUSH2 0x526 PUSH2 0x55E CALLDATASIZE PUSH1 0x4 PUSH2 0x587B JUMP JUMPDEST PUSH2 0xD1C JUMP JUMPDEST PUSH2 0x526 PUSH2 0x571 CALLDATASIZE PUSH1 0x4 PUSH2 0x58C0 JUMP JUMPDEST PUSH2 0x103A JUMP JUMPDEST PUSH2 0x57E PUSH2 0x1058 JUMP JUMPDEST PUSH1 0x40 MLOAD PUSH2 0x547 SWAP2 SWAP1 PUSH2 0x5929 JUMP JUMPDEST PUSH2 0x59E PUSH2 0x599 CALLDATASIZE PUSH1 0x4 PUSH2 0x593C JUMP JUMPDEST PUSH2 0x10ED JUMP JUMPDEST PUSH1 0x40 MLOAD SWAP1 DUP2 MSTORE PUSH1 0x20 ADD PUSH2 0x547 JUMP JUMPDEST PUSH2 0x53B PUSH2 0x5BA CALLDATASIZE PUSH1 0x4 PUSH2 0x593C JUMP JUMPDEST PUSH2 0x111D JUMP JUMPDEST PUSH2 0x526 PUSH2 0x5CD CALLDATASIZE PUSH1 0x4 PUSH2 0x5A33 JUMP JUMPDEST PUSH2 0x115E JUMP JUMPDEST PUSH1 0x7 SLOAD PUSH2 0x59E JUMP JUMPDEST PUSH2 0x59E PUSH1 0x0 DUP1 MLOAD PUSH1 0x20 PUSH2 0x64CE DUP4 CODECOPY DUP2 MLOAD SWAP2 MSTORE DUP2 JUMP JUMPDEST PUSH1 0x18 SLOAD PUSH2 0x5FC SWAP1 PUSH1 0xFF AND DUP2 JUMP JUMPDEST PUSH1 0x40 MLOAD PUSH2 0x547 SWAP2 SWAP1 PUSH2 0x5ADE JUMP JUMPDEST PUSH2 0x526 PUSH2 0x617 CALLDATASIZE PUSH1 0x4 PUSH2 0x587B JUMP JUMPDEST PUSH2 0x12F1 JUMP JUMPDEST PUSH2 0x53B PUSH2 0x62A CALLDATASIZE PUSH1 0x4 PUSH2 0x5AF1 JUMP JUMPDEST PUSH2 0x1309 JUMP JUMPDEST PUSH2 0x59E PUSH2 0x63D CALLDATASIZE PUSH1 0x4 PUSH2 0x58C0 JUMP JUMPDEST PUSH1 0x0 SWAP1 DUP2 MSTORE PUSH1 0x20 DUP2 SWAP1 MSTORE PUSH1 0x40 SWAP1 KECCAK256 PUSH1 0x1 ADD SLOAD SWAP1 JUMP JUMPDEST PUSH2 0x59E PUSH1 0x0 DUP1 MLOAD PUSH1 0x20 PUSH2 0x650E DUP4 CODECOPY DUP2 MLOAD SWAP2 MSTORE DUP2 JUMP JUMPDEST PUSH1 0x20 SLOAD PUSH2 0x59E JUMP JUMPDEST PUSH2 0x526 PUSH2 0x67D CALLDATASIZE PUSH1 0x4 PUSH2 0x5B2D JUMP JUMPDEST PUSH2 0x156E JUMP JUMPDEST PUSH1 0x4 SLOAD PUSH2 0x695 SWAP1 PUSH1 0x1 PUSH1 0x1 PUSH1 0xA0 SHL SUB AND DUP2 JUMP JUMPDEST PUSH1 0x40 MLOAD PUSH1 0x1 PUSH1 0x1 PUSH1 0xA0 SHL SUB SWAP1 SWAP2 AND DUP2 MSTORE PUSH1 0x20 ADD PUSH2 0x547 JUMP JUMPDEST PUSH2 0x526 PUSH2 0x6BB CALLDATASIZE PUSH1 0x4 PUSH2 0x5B59 JUMP JUMPDEST PUSH2 0x16A3 JUMP JUMPDEST PUSH1 0x0 JUMPDEST PUSH1 0x40 MLOAD PUSH1 0xFF SWAP1 SWAP2 AND DUP2 MSTORE PUSH1 0x20 ADD PUSH2 0x547 JUMP JUMPDEST PUSH2 0x526 PUSH2 0x6E3 CALLDATASIZE PUSH1 0x4 PUSH2 0x5B7B JUMP JUMPDEST PUSH2 0x1766 JUMP JUMPDEST PUSH2 0x53B PUSH2 0x6F6 CALLDATASIZE PUSH1 0x4 PUSH2 0x587B JUMP JUMPDEST PUSH2 0x1AE1 JUMP JUMPDEST PUSH2 0x526 PUSH2 0x709 CALLDATASIZE PUSH1 0x4 PUSH2 0x5B2D JUMP JUMPDEST PUSH2 0x1AFB JUMP JUMPDEST PUSH1 0x1E SLOAD PUSH2 0x59E JUMP JUMPDEST PUSH2 0x53B PUSH2 0x724 CALLDATASIZE PUSH1 0x4 PUSH2 0x593C JUMP JUMPDEST PUSH2 0x1B75 JUMP JUMPDEST PUSH2 0x59E PUSH1 0x0 DUP1 MLOAD PUSH1 0x20 PUSH2 0x64AE DUP4 CODECOPY DUP2 MLOAD SWAP2 MSTORE DUP2 JUMP JUMPDEST PUSH2 0x526 PUSH2 0x1BC0 JUMP JUMPDEST PUSH2 0x526 PUSH2 0x754 CALLDATASIZE PUSH1 0x4 PUSH2 0x58C0 JUMP JUMPDEST PUSH2 0x1D15 JUMP JUMPDEST PUSH2 0x526 PUSH2 0x767 CALLDATASIZE PUSH1 0x4 PUSH2 0x58C0 JUMP JUMPDEST PUSH2 0x1E7F JUMP JUMPDEST PUSH2 0x53B PUSH2 0x77A CALLDATASIZE PUSH1 0x4 PUSH2 0x587B JUMP JUMPDEST PUSH2 0x1F39 JUMP JUMPDEST PUSH2 0x526 PUSH2 0x78D CALLDATASIZE PUSH1 0x4 PUSH2 0x5BA7 JUMP JUMPDEST PUSH2 0x1F53 JUMP JUMPDEST PUSH2 0x59E PUSH2 0x7A0 CALLDATASIZE PUSH1 0x4 PUSH2 0x593C JUMP JUMPDEST PUSH2 0x1F93 JUMP JUMPDEST PUSH1 0x2 SLOAD PUSH2 0x695 SWAP1 PUSH1 0x1 PUSH1 0x1 PUSH1 0xA0 SHL SUB AND DUP2 JUMP JUMPDEST PUSH2 0x7C0 PUSH2 0x1FDC JUMP JUMPDEST PUSH1 0x40 MLOAD PUSH2 0x547 SWAP2 SWAP1 PUSH2 0x5C17 JUMP JUMPDEST PUSH2 0x53B PUSH2 0x7DB CALLDATASIZE PUSH1 0x4 PUSH2 0x587B JUMP JUMPDEST PUSH2 0x221B JUMP JUMPDEST PUSH2 0x59E PUSH2 0x7EE CALLDATASIZE PUSH1 0x4 PUSH2 0x587B JUMP JUMPDEST PUSH2 0x2240 JUMP JUMPDEST PUSH2 0x53B PUSH2 0x801 CALLDATASIZE PUSH1 0x4 PUSH2 0x58C0 JUMP JUMPDEST PUSH2 0x225B JUMP JUMPDEST PUSH2 0x526 PUSH2 0x814 CALLDATASIZE PUSH1 0x4 PUSH2 0x58C0 JUMP JUMPDEST PUSH2 0x2295 JUMP JUMPDEST PUSH2 0x82C PUSH2 0x827 CALLDATASIZE PUSH1 0x4 PUSH2 0x58C0 JUMP JUMPDEST PUSH2 0x256C JUMP JUMPDEST PUSH1 0x40 MLOAD PUSH2 0x547 SWAP2 SWAP1 PUSH2 0x5CD7 JUMP JUMPDEST PUSH1 0x2 SLOAD PUSH2 0x6C3 SWAP1 PUSH1 0x1 PUSH1 0xA0 SHL SWAP1 DIV PUSH1 0xFF AND DUP2 JUMP JUMPDEST PUSH2 0x53B PUSH2 0x85B CALLDATASIZE PUSH1 0x4 PUSH2 0x58C0 JUMP JUMPDEST PUSH1 0x13 PUSH1 0x20 MSTORE PUSH1 0x0 SWAP1 DUP2 MSTORE PUSH1 0x40 SWAP1 KECCAK256 SLOAD PUSH1 0xFF AND DUP2 JUMP JUMPDEST PUSH1 0x24 SLOAD PUSH1 0x1 PUSH1 0x1 PUSH1 0xA0 SHL SUB AND PUSH2 0x695 JUMP JUMPDEST PUSH2 0x59E PUSH1 0x0 DUP1 MLOAD PUSH1 0x20 PUSH2 0x652E DUP4 CODECOPY DUP2 MLOAD SWAP2 MSTORE DUP2 JUMP JUMPDEST PUSH2 0x526 PUSH2 0x8A4 CALLDATASIZE PUSH1 0x4 PUSH2 0x587B JUMP JUMPDEST PUSH2 0x272D JUMP JUMPDEST PUSH2 0x695 PUSH2 0x8B7 CALLDATASIZE PUSH1 0x4 PUSH2 0x587B JUMP JUMPDEST PUSH1 0x1 PUSH1 0x1 PUSH1 0xA0 SHL SUB SWAP1 DUP2 AND PUSH1 0x0 SWAP1 DUP2 MSTORE PUSH1 0x16 PUSH1 0x20 MSTORE PUSH1 0x40 SWAP1 KECCAK256 PUSH1 0x2 ADD SLOAD AND SWAP1 JUMP JUMPDEST PUSH2 0x695 PUSH2 0x8E6 CALLDATASIZE PUSH1 0x4 PUSH2 0x5B59 JUMP JUMPDEST PUSH2 0x2745 JUMP JUMPDEST PUSH2 0x53B PUSH2 0x8F9 CALLDATASIZE PUSH1 0x4 PUSH2 0x5B2D JUMP JUMPDEST PUSH2 0x275D JUMP JUMPDEST PUSH2 0x526 PUSH2 0x90C CALLDATASIZE PUSH1 0x4 PUSH2 0x58C0 JUMP JUMPDEST PUSH2 0x2786 JUMP JUMPDEST PUSH2 0x57E PUSH2 0x27BF JUMP JUMPDEST PUSH2 0x59E PUSH2 0x927 CALLDATASIZE PUSH1 0x4 PUSH2 0x58C0 JUMP JUMPDEST PUSH2 0x27D1 JUMP JUMPDEST PUSH1 0xF SLOAD PUSH2 0x59E JUMP JUMPDEST PUSH2 0x526 PUSH2 0x942 CALLDATASIZE PUSH1 0x4 PUSH2 0x58C0 JUMP JUMPDEST PUSH2 0x27FC JUMP JUMPDEST PUSH2 0x59E PUSH2 0x955 CALLDATASIZE PUSH1 0x4 PUSH2 0x587B JUMP JUMPDEST PUSH2 0x286E JUMP JUMPDEST PUSH2 0x59E PUSH1 0x0 DUP2 JUMP JUMPDEST PUSH2 0x526 PUSH2 0x970 CALLDATASIZE PUSH1 0x4 PUSH2 0x587B JUMP JUMPDEST PUSH2 0x289F JUMP JUMPDEST PUSH2 0x53B PUSH2 0x983 CALLDATASIZE PUSH1 0x4 PUSH2 0x593C JUMP JUMPDEST PUSH2 0x28B7 JUMP JUMPDEST PUSH2 0x53B PUSH2 0x996 CALLDATASIZE PUSH1 0x4 PUSH2 0x587B JUMP JUMPDEST PUSH2 0x2902 JUMP JUMPDEST PUSH1 0x1D SLOAD PUSH2 0x59E JUMP JUMPDEST PUSH2 0x53B PUSH2 0x9B1 CALLDATASIZE PUSH1 0x4 PUSH2 0x593C JUMP JUMPDEST PUSH2 0x291C JUMP JUMPDEST PUSH2 0x526 PUSH2 0x9C4 CALLDATASIZE PUSH1 0x4 PUSH2 0x5D99 JUMP JUMPDEST PUSH2 0x295E JUMP JUMPDEST PUSH2 0x53B PUSH2 0x9D7 CALLDATASIZE PUSH1 0x4 PUSH2 0x587B JUMP JUMPDEST PUSH2 0x2DCD JUMP JUMPDEST PUSH2 0x526 PUSH2 0x9EA CALLDATASIZE PUSH1 0x4 PUSH2 0x5B7B JUMP JUMPDEST PUSH2 0x30C2 JUMP JUMPDEST PUSH1 0x24 SLOAD PUSH2 0x695 SWAP1 PUSH1 0x1 PUSH1 0x1 PUSH1 0xA0 SHL SUB AND DUP2 JUMP JUMPDEST PUSH1 0x1F SLOAD PUSH2 0x59E JUMP JUMPDEST PUSH2 0x526 PUSH2 0xA18 CALLDATASIZE PUSH1 0x4 PUSH2 0x587B JUMP JUMPDEST PUSH2 0x33BB JUMP JUMPDEST PUSH2 0x53B PUSH2 0x33D3 JUMP JUMPDEST PUSH2 0x53B PUSH2 0xA33 CALLDATASIZE PUSH1 0x4 PUSH2 0x587B JUMP JUMPDEST PUSH2 0x33F7 JUMP JUMPDEST PUSH2 0x526 PUSH2 0xA46 CALLDATASIZE PUSH1 0x4 PUSH2 0x5BA7 JUMP JUMPDEST PUSH2 0x341C JUMP JUMPDEST PUSH2 0xAF8 PUSH2 0xA59 CALLDATASIZE PUSH1 0x4 PUSH2 0x58C0 JUMP JUMPDEST PUSH1 0x15 PUSH1 0x20 SWAP1 DUP2 MSTORE PUSH1 0x0 SWAP2 DUP3 MSTORE PUSH1 0x40 SWAP2 DUP3 SWAP1 KECCAK256 DUP1 SLOAD PUSH1 0x1 DUP3 ADD SLOAD PUSH1 0x2 DUP4 ADD SLOAD PUSH1 0x3 DUP5 ADD SLOAD PUSH1 0x4 DUP6 ADD SLOAD PUSH1 0x5 DUP7 ADD SLOAD PUSH1 0x6 DUP8 ADD SLOAD PUSH1 0x7 DUP9 ADD SLOAD PUSH1 0x8 DUP10 ADD SLOAD PUSH1 0x9 DUP11 ADD SLOAD DUP13 MLOAD PUSH1 0x80 DUP2 ADD DUP15 MSTORE PUSH1 0xA DUP13 ADD SLOAD DUP2 MSTORE PUSH1 0xB DUP13 ADD SLOAD SWAP13 DUP2 ADD SWAP13 SWAP1 SWAP13 MSTORE PUSH1 0xC DUP12 ADD SLOAD SWAP13 DUP13 ADD SWAP13 SWAP1 SWAP13 MSTORE PUSH1 0xD DUP11 ADD SLOAD PUSH1 0x60 DUP13 ADD MSTORE PUSH1 0xE SWAP1 SWAP10 ADD SLOAD PUSH1 0x1 PUSH1 0x1 PUSH1 0xA0 SHL SUB SWAP9 DUP10 AND SWAP12 SWAP8 SWAP1 SWAP9 AND SWAP10 SWAP6 SWAP9 SWAP5 SWAP8 SWAP4 SWAP7 SWAP3 SWAP6 SWAP2 SWAP5 SWAP1 SWAP4 SWAP1 SWAP3 SWAP2 SWAP1 PUSH1 0xFF AND DUP13 JUMP JUMPDEST PUSH1 0x40 MLOAD PUSH2 0x547 SWAP13 SWAP12 SWAP11 SWAP10 SWAP9 SWAP8 SWAP7 SWAP6 SWAP5 SWAP4 SWAP3 SWAP2 SWAP1 PUSH2 0x5E5E JUMP JUMPDEST PUSH2 0x59E PUSH2 0xB1E CALLDATASIZE PUSH1 0x4 PUSH2 0x58C0 JUMP JUMPDEST PUSH2 0x345C JUMP JUMPDEST PUSH2 0x526 PUSH2 0xB31 CALLDATASIZE PUSH1 0x4 PUSH2 0x587B JUMP JUMPDEST PUSH2 0x3473 JUMP JUMPDEST PUSH2 0x59E PUSH2 0xB44 CALLDATASIZE PUSH1 0x4 PUSH2 0x58C0 JUMP JUMPDEST PUSH2 0x348B JUMP JUMPDEST PUSH2 0x82C PUSH2 0x34B7 JUMP JUMPDEST PUSH2 0x526 PUSH2 0xB5F CALLDATASIZE PUSH1 0x4 PUSH2 0x587B JUMP JUMPDEST PUSH2 0x3518 JUMP JUMPDEST PUSH2 0x526 PUSH2 0x3686 JUMP JUMPDEST PUSH2 0x53B PUSH2 0xB7A CALLDATASIZE PUSH1 0x4 PUSH2 0x58C0 JUMP JUMPDEST PUSH1 0x21 SLOAD EQ SWAP1 JUMP JUMPDEST PUSH2 0x526 PUSH2 0xB8F CALLDATASIZE PUSH1 0x4 PUSH2 0x5B2D JUMP JUMPDEST PUSH2 0x3783 JUMP JUMPDEST PUSH2 0x526 PUSH2 0xBA2 CALLDATASIZE PUSH1 0x4 PUSH2 0x58C0 JUMP JUMPDEST PUSH2 0x388D JUMP JUMPDEST PUSH2 0x526 PUSH2 0xBB5 CALLDATASIZE PUSH1 0x4 PUSH2 0x587B JUMP JUMPDEST PUSH2 0x3952 JUMP JUMPDEST PUSH2 0x526 PUSH2 0xBC8 CALLDATASIZE PUSH1 0x4 PUSH2 0x58C0 JUMP JUMPDEST PUSH2 0x3B43 JUMP JUMPDEST PUSH2 0x526 PUSH2 0xBDB CALLDATASIZE PUSH1 0x4 PUSH2 0x58C0 JUMP JUMPDEST PUSH2 0x3BB2 JUMP JUMPDEST PUSH2 0x526 PUSH2 0xBEE CALLDATASIZE PUSH1 0x4 PUSH2 0x58C0 JUMP JUMPDEST PUSH2 0x3C1E JUMP JUMPDEST PUSH2 0x526 PUSH2 0xC01 CALLDATASIZE PUSH1 0x4 PUSH2 0x5EF6 JUMP JUMPDEST PUSH2 0x3C57 JUMP JUMPDEST PUSH2 0x526 PUSH2 0x3D6F JUMP JUMPDEST PUSH2 0x59E PUSH2 0xC1C CALLDATASIZE PUSH1 0x4 PUSH2 0x5F44 JUMP JUMPDEST PUSH1 0x1 PUSH1 0x1 PUSH1 0xA0 SHL SUB SWAP2 DUP3 AND PUSH1 0x0 SWAP1 DUP2 MSTORE PUSH1 0x6 PUSH1 0x20 SWAP1 DUP2 MSTORE PUSH1 0x40 DUP1 DUP4 KECCAK256 SWAP4 SWAP1 SWAP5 AND DUP3 MSTORE SWAP2 SWAP1 SWAP2 MSTORE KECCAK256 SLOAD SWAP1 JUMP JUMPDEST PUSH2 0x526 PUSH2 0xC55 CALLDATASIZE PUSH1 0x4 PUSH2 0x5B7B JUMP JUMPDEST PUSH2 0x3EB6 JUMP JUMPDEST PUSH1 0x3 SLOAD PUSH2 0x695 SWAP1 PUSH1 0x1 PUSH1 0x1 PUSH1 0xA0 SHL SUB AND DUP2 JUMP JUMPDEST PUSH2 0x53B PUSH2 0xC7B CALLDATASIZE PUSH1 0x4 PUSH2 0x587B JUMP JUMPDEST PUSH2 0x424B JUMP JUMPDEST PUSH1 0x11 SLOAD PUSH2 0x59E JUMP JUMPDEST PUSH1 0x10 SLOAD PUSH2 0x59E JUMP JUMPDEST PUSH2 0x526 PUSH2 0xC9E CALLDATASIZE PUSH1 0x4 PUSH2 0x587B JUMP JUMPDEST PUSH2 0x4265 JUMP JUMPDEST PUSH2 0x526 PUSH2 0xCB1 CALLDATASIZE PUSH1 0x4 PUSH2 0x587B JUMP JUMPDEST PUSH2 0x427D JUMP JUMPDEST PUSH2 0x59E PUSH2 0xCC4 CALLDATASIZE PUSH1 0x4 PUSH2 0x587B JUMP JUMPDEST PUSH1 0x14 PUSH1 0x20 MSTORE PUSH1 0x0 SWAP1 DUP2 MSTORE PUSH1 0x40 SWAP1 KECCAK256 SLOAD DUP2 JUMP JUMPDEST PUSH2 0xCEE PUSH1 0x0 DUP1 MLOAD PUSH1 0x20 PUSH2 0x64AE DUP4 CODECOPY DUP2 MLOAD SWAP2 MSTORE DUP3 PUSH2 0x156E JUMP JUMPDEST POP JUMP JUMPDEST PUSH1 0x0 PUSH1 0x1 PUSH1 0x1 PUSH1 0xE0 SHL SUB NOT DUP3 AND PUSH4 0x5A05180F PUSH1 0xE0 SHL EQ DUP1 PUSH2 0xD16 JUMPI POP PUSH2 0xD16 DUP3 PUSH2 0x4295 JUMP JUMPDEST SWAP3 SWAP2 POP POP JUMP JUMPDEST PUSH2 0xD34 PUSH1 0x0 DUP1 MLOAD PUSH1 0x20 PUSH2 0x652E DUP4 CODECOPY DUP2 MLOAD SWAP2 MSTORE CALLER PUSH2 0x275D JUMP JUMPDEST PUSH2 0xD59 JUMPI PUSH1 0x40 MLOAD PUSH3 0x461BCD PUSH1 0xE5 SHL DUP2 MSTORE PUSH1 0x4 ADD PUSH2 0xD50 SWAP1 PUSH2 0x5F6E JUMP JUMPDEST PUSH1 0x40 MLOAD DUP1 SWAP2 SUB SWAP1 REVERT JUMPDEST PUSH1 0x2 SLOAD PUSH1 0x1 PUSH1 0x1 PUSH1 0xA0 SHL SUB SWAP1 DUP2 AND SWAP1 DUP3 AND SUB PUSH2 0xDC3 JUMPI PUSH1 0x40 MLOAD PUSH3 0x461BCD PUSH1 0xE5 SHL DUP2 MSTORE PUSH1 0x20 PUSH1 0x4 DUP3 ADD MSTORE PUSH1 0x24 DUP1 DUP3 ADD MSTORE PUSH32 0x4E65772061646D696E206973207468652073616D652061732063757272656E74 PUSH1 0x44 DUP3 ADD MSTORE PUSH4 0x206F6E65 PUSH1 0xE0 SHL PUSH1 0x64 DUP3 ADD MSTORE PUSH1 0x84 ADD PUSH2 0xD50 JUMP JUMPDEST PUSH1 0x1 PUSH1 0x1 PUSH1 0xA0 SHL SUB DUP2 AND ISZERO DUP1 ISZERO PUSH2 0xDE6 JUMPI POP PUSH1 0x2 SLOAD PUSH1 0x1 PUSH1 0xA0 SHL SWAP1 DIV PUSH1 0xFF AND PUSH1 0x1 EQ JUMPDEST ISZERO PUSH2 0xE26 JUMPI PUSH1 0x2 DUP1 SLOAD PUSH1 0xFF PUSH1 0xA0 SHL NOT AND SWAP1 SSTORE PUSH1 0x4 DUP1 SLOAD PUSH1 0x1 PUSH1 0x1 PUSH1 0xA0 SHL SUB NOT SWAP1 DUP2 AND SWAP1 SWAP2 SSTORE PUSH1 0x3 DUP1 SLOAD SWAP1 SWAP2 AND PUSH1 0x1 PUSH1 0x1 PUSH1 0xA0 SHL SUB SWAP3 SWAP1 SWAP3 AND SWAP2 SWAP1 SWAP2 OR SWAP1 SSTORE JUMP JUMPDEST PUSH1 0x1 PUSH1 0x1 PUSH1 0xA0 SHL SUB DUP2 AND PUSH2 0xE96 JUMPI PUSH1 0x40 MLOAD PUSH3 0x461BCD PUSH1 0xE5 SHL DUP2 MSTORE PUSH1 0x20 PUSH1 0x4 DUP3 ADD MSTORE PUSH1 0x31 PUSH1 0x24 DUP3 ADD MSTORE PUSH32 0x5468652070726F706F736564206E65772061646D696E2063616E6E6F74206265 PUSH1 0x44 DUP3 ADD MSTORE PUSH17 0x20746865207A65726F2061646472657373 PUSH1 0x78 SHL PUSH1 0x64 DUP3 ADD MSTORE PUSH1 0x84 ADD PUSH2 0xD50 JUMP JUMPDEST PUSH1 0x2 SLOAD PUSH1 0x1 PUSH1 0xA0 SHL SWAP1 DIV PUSH1 0xFF AND PUSH1 0x0 SUB PUSH2 0xEEE JUMPI PUSH1 0x2 DUP1 SLOAD PUSH1 0xFF PUSH1 0xA0 SHL NOT AND PUSH1 0x1 PUSH1 0xA0 SHL OR SWAP1 SSTORE PUSH1 0x4 DUP1 SLOAD PUSH1 0x1 PUSH1 0x1 PUSH1 0xA0 SHL SUB NOT SWAP1 DUP2 AND CALLER OR SWAP1 SWAP2 SSTORE PUSH1 0x3 DUP1 SLOAD PUSH1 0x1 PUSH1 0x1 PUSH1 0xA0 SHL SUB SWAP4 SWAP1 SWAP4 AND SWAP3 SWAP1 SWAP2 AND SWAP2 SWAP1 SWAP2 OR SWAP1 SSTORE JUMP JUMPDEST PUSH1 0x2 SLOAD PUSH1 0x1 PUSH1 0xA0 SHL SWAP1 DIV PUSH1 0xFF AND PUSH1 0x1 SUB PUSH2 0xCEE JUMPI PUSH1 0x3 SLOAD PUSH1 0x1 PUSH1 0x1 PUSH1 0xA0 SHL SUB DUP3 DUP2 AND SWAP2 AND EQ PUSH2 0xF47 JUMPI PUSH1 0x4 DUP1 SLOAD CALLER PUSH1 0x1 PUSH1 0x1 PUSH1 0xA0 SHL SUB NOT SWAP2 DUP3 AND OR SWAP1 SWAP2 SSTORE PUSH1 0x3 DUP1 SLOAD SWAP1 SWAP2 AND PUSH1 0x1 PUSH1 0x1 PUSH1 0xA0 SHL SUB SWAP3 SWAP1 SWAP3 AND SWAP2 SWAP1 SWAP2 OR SWAP1 SSTORE JUMP JUMPDEST PUSH1 0x4 SLOAD CALLER PUSH1 0x1 PUSH1 0x1 PUSH1 0xA0 SHL SUB SWAP1 SWAP2 AND SUB PUSH2 0xFA3 JUMPI PUSH1 0x40 MLOAD PUSH3 0x461BCD PUSH1 0xE5 SHL DUP2 MSTORE PUSH1 0x20 PUSH1 0x4 DUP3 ADD MSTORE PUSH1 0x1A PUSH1 0x24 DUP3 ADD MSTORE PUSH32 0x546869732043414B2068617320616C726561647920766F746564000000000000 PUSH1 0x44 DUP3 ADD MSTORE PUSH1 0x64 ADD PUSH2 0xD50 JUMP JUMPDEST PUSH1 0x2 SLOAD PUSH2 0xFBB SWAP1 PUSH1 0x0 SWAP1 PUSH1 0x1 PUSH1 0x1 PUSH1 0xA0 SHL SUB AND PUSH2 0x42CA JUMP JUMPDEST PUSH1 0x3 SLOAD PUSH2 0xFD3 SWAP1 PUSH1 0x0 SWAP1 PUSH1 0x1 PUSH1 0x1 PUSH1 0xA0 SHL SUB AND PUSH2 0x1695 JUMP JUMPDEST PUSH1 0x3 DUP1 SLOAD PUSH1 0x2 DUP1 SLOAD PUSH1 0x1 PUSH1 0x1 PUSH1 0xA8 SHL SUB NOT AND PUSH1 0x1 PUSH1 0x1 PUSH1 0xA0 SHL SUB DUP4 AND SWAP1 DUP2 OR SWAP1 SWAP2 SSTORE PUSH1 0x4 DUP1 SLOAD PUSH1 0x1 PUSH1 0x1 PUSH1 0xA0 SHL SUB NOT SWAP1 DUP2 AND SWAP1 SWAP2 SSTORE SWAP1 SWAP2 AND SWAP1 SWAP2 SSTORE PUSH1 0x40 MLOAD PUSH32 0x7CE7EC0B50378FB6C0186FFB5F48325F6593FCB4CA4386F21861AF3129188F5C SWAP1 PUSH1 0x0 SWAP1 LOG2 POP JUMP JUMPDEST PUSH1 0x0 DUP1 MLOAD PUSH1 0x20 PUSH2 0x652E DUP4 CODECOPY DUP2 MLOAD SWAP2 MSTORE PUSH2 0x1052 DUP2 PUSH2 0x42EC JUMP JUMPDEST POP PUSH1 0x1C SSTORE JUMP JUMPDEST PUSH1 0x60 PUSH1 0x19 PUSH1 0x0 ADD DUP1 SLOAD PUSH2 0x106A SWAP1 PUSH2 0x5F9A JUMP JUMPDEST DUP1 PUSH1 0x1F ADD PUSH1 0x20 DUP1 SWAP2 DIV MUL PUSH1 0x20 ADD PUSH1 0x40 MLOAD SWAP1 DUP2 ADD PUSH1 0x40 MSTORE DUP1 SWAP3 SWAP2 SWAP1 DUP2 DUP2 MSTORE PUSH1 0x20 ADD DUP3 DUP1 SLOAD PUSH2 0x1096 SWAP1 PUSH2 0x5F9A JUMP JUMPDEST DUP1 ISZERO PUSH2 0x10E3 JUMPI DUP1 PUSH1 0x1F LT PUSH2 0x10B8 JUMPI PUSH2 0x100 DUP1 DUP4 SLOAD DIV MUL DUP4 MSTORE SWAP2 PUSH1 0x20 ADD SWAP2 PUSH2 0x10E3 JUMP JUMPDEST DUP3 ADD SWAP2 SWAP1 PUSH1 0x0 MSTORE PUSH1 0x20 PUSH1 0x0 KECCAK256 SWAP1 JUMPDEST DUP2 SLOAD DUP2 MSTORE SWAP1 PUSH1 0x1 ADD SWAP1 PUSH1 0x20 ADD DUP1 DUP4 GT PUSH2 0x10C6 JUMPI DUP3 SWAP1 SUB PUSH1 0x1F AND DUP3 ADD SWAP2 JUMPDEST POP POP POP POP POP SWAP1 POP SWAP1 JUMP JUMPDEST PUSH1 0x0 DUP2 DUP2 MSTORE PUSH1 0xE PUSH1 0x20 MSTORE PUSH1 0x40 DUP2 KECCAK256 SLOAD DUP1 ISZERO PUSH2 0x1114 JUMPI PUSH2 0x110C DUP5 DUP3 PUSH2 0x1F93 JUMP JUMPDEST SWAP2 POP POP PUSH2 0xD16 JUMP JUMPDEST PUSH2 0x110C DUP5 PUSH2 0x2240 JUMP JUMPDEST PUSH1 0x40 MLOAD PUSH3 0x461BCD PUSH1 0xE5 SHL DUP2 MSTORE PUSH1 0x20 PUSH1 0x4 DUP3 ADD MSTORE PUSH1 0x13 PUSH1 0x24 DUP3 ADD MSTORE PUSH19 0x185C1C1C9BDD99481A5CC8191A5CD8589B1959 PUSH1 0x6A SHL PUSH1 0x44 DUP3 ADD MSTORE PUSH1 0x0 SWAP1 PUSH1 0x64 ADD PUSH2 0xD50 JUMP JUMPDEST PUSH2 0x1176 PUSH1 0x0 DUP1 MLOAD PUSH1 0x20 PUSH2 0x652E DUP4 CODECOPY DUP2 MLOAD SWAP2 MSTORE CALLER PUSH2 0x275D JUMP JUMPDEST PUSH2 0x1192 JUMPI PUSH1 0x40 MLOAD PUSH3 0x461BCD PUSH1 0xE5 SHL DUP2 MSTORE PUSH1 0x4 ADD PUSH2 0xD50 SWAP1 PUSH2 0x5F6E JUMP JUMPDEST PUSH1 0x22 SLOAD ISZERO PUSH2 0x12C3 JUMPI DUP3 PUSH1 0x19 PUSH1 0x9 ADD PUSH1 0x0 DUP2 SLOAD DUP2 LT PUSH2 0x11B2 JUMPI PUSH2 0x11B2 PUSH2 0x5FCE JUMP JUMPDEST SWAP1 PUSH1 0x0 MSTORE PUSH1 0x20 PUSH1 0x0 KECCAK256 ADD SLOAD GT PUSH2 0x1229 JUMPI PUSH1 0x40 MLOAD PUSH3 0x461BCD PUSH1 0xE5 SHL DUP2 MSTORE PUSH1 0x20 PUSH1 0x4 DUP3 ADD MSTORE PUSH1 0x36 PUSH1 0x24 DUP3 ADD MSTORE PUSH32 0x43616E6E6F742073657420612069737375616E63652064617465206166746572 PUSH1 0x44 DUP3 ADD MSTORE PUSH22 0x2074686520666972737420636F75706F6E2064617465 PUSH1 0x50 SHL PUSH1 0x64 DUP3 ADD MSTORE PUSH1 0x84 ADD PUSH2 0xD50 JUMP JUMPDEST PUSH1 0x22 DUP1 SLOAD DUP4 SWAP2 SWAP1 PUSH2 0x123C SWAP1 PUSH1 0x1 SWAP1 PUSH2 0x5FFA JUMP JUMPDEST DUP2 SLOAD DUP2 LT PUSH2 0x124C JUMPI PUSH2 0x124C PUSH2 0x5FCE JUMP JUMPDEST SWAP1 PUSH1 0x0 MSTORE PUSH1 0x20 PUSH1 0x0 KECCAK256 ADD SLOAD LT PUSH2 0x12C3 JUMPI PUSH1 0x40 MLOAD PUSH3 0x461BCD PUSH1 0xE5 SHL DUP2 MSTORE PUSH1 0x20 PUSH1 0x4 DUP3 ADD MSTORE PUSH1 0x36 PUSH1 0x24 DUP3 ADD MSTORE PUSH32 0x43616E6E6F74207365742061206D617475726974792064617465206265666F72 PUSH1 0x44 DUP3 ADD MSTORE PUSH22 0x6520746865206C61737420636F75706F6E2064617465 PUSH1 0x50 SHL PUSH1 0x64 DUP3 ADD MSTORE PUSH1 0x84 ADD PUSH2 0xD50 JUMP JUMPDEST PUSH1 0x19 PUSH2 0x12CF DUP10 DUP3 PUSH2 0x605B JUMP JUMPDEST POP PUSH1 0x1B SWAP7 SWAP1 SWAP7 SSTORE PUSH1 0x1C SWAP5 SWAP1 SWAP5 SSTORE PUSH1 0x1D SWAP3 SWAP1 SWAP3 SSTORE PUSH1 0x1E SSTORE PUSH1 0x20 SSTORE PUSH1 0x21 SSTORE PUSH1 0x23 SSTORE POP JUMP JUMPDEST PUSH2 0xCEE PUSH1 0x0 DUP1 MLOAD PUSH1 0x20 PUSH2 0x64CE DUP4 CODECOPY DUP2 MLOAD SWAP2 MSTORE DUP3 PUSH2 0x3783 JUMP JUMPDEST PUSH1 0x0 PUSH2 0x1323 PUSH1 0x0 DUP1 MLOAD PUSH1 0x20 PUSH2 0x652E DUP4 CODECOPY DUP2 MLOAD SWAP2 MSTORE CALLER PUSH2 0x275D JUMP JUMPDEST ISZERO PUSH2 0x133B JUMPI PUSH2 0x1333 DUP5 DUP5 DUP5 PUSH2 0x42F6 JUMP JUMPDEST POP PUSH1 0x1 PUSH2 0x1567 JUMP JUMPDEST PUSH2 0x1344 CALLER PUSH2 0x221B JUMP JUMPDEST PUSH2 0x1360 JUMPI PUSH1 0x40 MLOAD PUSH3 0x461BCD PUSH1 0xE5 SHL DUP2 MSTORE PUSH1 0x4 ADD PUSH2 0xD50 SWAP1 PUSH2 0x611B JUMP JUMPDEST PUSH1 0x4 PUSH1 0x18 SLOAD PUSH1 0xFF AND PUSH1 0x4 DUP2 GT ISZERO PUSH2 0x1379 JUMPI PUSH2 0x1379 PUSH2 0x5AAA JUMP JUMPDEST SUB PUSH2 0x13E2 JUMPI PUSH1 0x40 MLOAD PUSH3 0x461BCD PUSH1 0xE5 SHL DUP2 MSTORE PUSH1 0x20 PUSH1 0x4 DUP3 ADD MSTORE PUSH1 0x33 PUSH1 0x24 DUP3 ADD MSTORE PUSH32 0x4E6F207472616E736665722063616E20626520646F6E65207768656E20746865 PUSH1 0x44 DUP3 ADD MSTORE PUSH19 0x103932B3B4B9BA32B91034B990233937BD32B7 PUSH1 0x69 SHL PUSH1 0x64 DUP3 ADD MSTORE PUSH1 0x84 ADD PUSH2 0xD50 JUMP JUMPDEST PUSH1 0x1 PUSH1 0x18 SLOAD PUSH1 0xFF AND PUSH1 0x4 DUP2 GT ISZERO PUSH2 0x13FB JUMPI PUSH2 0x13FB PUSH2 0x5AAA JUMP JUMPDEST EQ DUP1 ISZERO PUSH2 0x141B JUMPI POP PUSH2 0x141B PUSH1 0x0 DUP1 MLOAD PUSH1 0x20 PUSH2 0x650E DUP4 CODECOPY DUP2 MLOAD SWAP2 MSTORE DUP5 PUSH2 0x275D JUMP JUMPDEST DUP1 ISZERO PUSH2 0x1434 JUMPI POP PUSH1 0x24 SLOAD PUSH1 0x1 PUSH1 0x1 PUSH1 0xA0 SHL SUB DUP6 DUP2 AND SWAP2 AND EQ JUMPDEST ISZERO PUSH2 0x148A JUMPI PUSH1 0x18 DUP1 SLOAD PUSH1 0xFF NOT AND PUSH1 0x2 OR SWAP1 SSTORE PUSH2 0x1452 DUP4 PUSH1 0x0 DUP1 PUSH2 0x44A5 JUMP JUMPDEST PUSH1 0x18 SLOAD PUSH1 0x40 MLOAD CALLER SWAP2 PUSH1 0x0 DUP1 MLOAD PUSH1 0x20 PUSH2 0x64EE DUP4 CODECOPY DUP2 MLOAD SWAP2 MSTORE SWAP2 PUSH2 0x147D SWAP2 PUSH1 0x19 SWAP2 PUSH1 0x1A SWAP2 PUSH1 0xFF AND SWAP1 PUSH2 0x61CD JUMP JUMPDEST PUSH1 0x40 MLOAD DUP1 SWAP2 SUB SWAP1 LOG2 PUSH2 0x155C JUMP JUMPDEST PUSH2 0x1493 DUP4 PUSH2 0x33F7 JUMP JUMPDEST ISZERO ISZERO PUSH1 0x1 EQ PUSH2 0x14E4 JUMPI PUSH1 0x40 MLOAD PUSH3 0x461BCD PUSH1 0xE5 SHL DUP2 MSTORE PUSH1 0x20 PUSH1 0x4 DUP3 ADD MSTORE PUSH1 0x1B PUSH1 0x24 DUP3 ADD MSTORE PUSH32 0x546865207265636569766572206973206E6F7420616C6C6F7765640000000000 PUSH1 0x44 DUP3 ADD MSTORE PUSH1 0x64 ADD PUSH2 0xD50 JUMP JUMPDEST PUSH2 0x14ED DUP5 PUSH2 0x33F7 JUMP JUMPDEST ISZERO ISZERO PUSH1 0x1 EQ DUP1 PUSH2 0x1510 JUMPI POP PUSH2 0x1510 PUSH1 0x0 DUP1 MLOAD PUSH1 0x20 PUSH2 0x650E DUP4 CODECOPY DUP2 MLOAD SWAP2 MSTORE DUP6 PUSH2 0x275D JUMP JUMPDEST PUSH2 0x155C JUMPI PUSH1 0x40 MLOAD PUSH3 0x461BCD PUSH1 0xE5 SHL DUP2 MSTORE PUSH1 0x20 PUSH1 0x4 DUP3 ADD MSTORE PUSH1 0x19 PUSH1 0x24 DUP3 ADD MSTORE PUSH32 0x5468652073656E646572206973206E6F7420616C6C6F77656400000000000000 PUSH1 0x44 DUP3 ADD MSTORE PUSH1 0x64 ADD PUSH2 0xD50 JUMP JUMPDEST PUSH2 0x1333 DUP5 DUP5 DUP5 PUSH2 0x42F6 JUMP JUMPDEST SWAP4 SWAP3 POP POP POP JUMP JUMPDEST DUP2 PUSH2 0x158B JUMPI PUSH1 0x40 MLOAD PUSH3 0x461BCD PUSH1 0xE5 SHL DUP2 MSTORE PUSH1 0x4 ADD PUSH2 0xD50 SWAP1 PUSH2 0x620C JUMP JUMPDEST PUSH1 0x0 DUP1 MLOAD PUSH1 0x20 PUSH2 0x652E DUP4 CODECOPY DUP2 MLOAD SWAP2 MSTORE DUP3 SUB PUSH2 0x1631 JUMPI PUSH2 0x15B8 PUSH1 0x0 DUP1 MLOAD PUSH1 0x20 PUSH2 0x652E DUP4 CODECOPY DUP2 MLOAD SWAP2 MSTORE CALLER PUSH2 0x275D JUMP JUMPDEST DUP1 PUSH2 0x15C9 JUMPI POP PUSH2 0x15C9 PUSH1 0x0 CALLER PUSH2 0x275D JUMP JUMPDEST PUSH2 0x162C JUMPI PUSH1 0x40 MLOAD PUSH3 0x461BCD PUSH1 0xE5 SHL DUP2 MSTORE PUSH1 0x20 PUSH1 0x4 DUP3 ADD MSTORE PUSH1 0x2E PUSH1 0x24 DUP3 ADD MSTORE PUSH32 0x43616C6C6572206D7573742062652043414B206F722041444D494E20746F2073 PUSH1 0x44 DUP3 ADD MSTORE PUSH14 0x657420616E6F746865722043414B PUSH1 0x90 SHL PUSH1 0x64 DUP3 ADD MSTORE PUSH1 0x84 ADD PUSH2 0xD50 JUMP JUMPDEST PUSH2 0x1695 JUMP JUMPDEST PUSH2 0x1649 PUSH1 0x0 DUP1 MLOAD PUSH1 0x20 PUSH2 0x652E DUP4 CODECOPY DUP2 MLOAD SWAP2 MSTORE CALLER PUSH2 0x275D JUMP JUMPDEST PUSH2 0x1695 JUMPI PUSH1 0x40 MLOAD PUSH3 0x461BCD PUSH1 0xE5 SHL DUP2 MSTORE PUSH1 0x20 PUSH1 0x4 DUP3 ADD DUP2 SWAP1 MSTORE PUSH1 0x24 DUP3 ADD MSTORE PUSH32 0x43616C6C6572206D7573742062652043414B20746F20736574206120726F6C65 PUSH1 0x44 DUP3 ADD MSTORE PUSH1 0x64 ADD PUSH2 0xD50 JUMP JUMPDEST PUSH2 0x169F DUP3 DUP3 PUSH2 0x453D JUMP JUMPDEST POP POP JUMP JUMPDEST PUSH2 0x16AC CALLER PUSH2 0x221B JUMP JUMPDEST PUSH2 0x16C8 JUMPI PUSH1 0x40 MLOAD PUSH3 0x461BCD PUSH1 0xE5 SHL DUP2 MSTORE PUSH1 0x4 ADD PUSH2 0xD50 SWAP1 PUSH2 0x611B JUMP JUMPDEST DUP2 PUSH2 0x16D6 DUP3 PUSH3 0xD2F00 PUSH2 0x6250 JUMP JUMPDEST GT PUSH2 0x1753 JUMPI PUSH1 0x40 MLOAD PUSH3 0x461BCD PUSH1 0xE5 SHL DUP2 MSTORE PUSH1 0x20 PUSH1 0x4 DUP3 ADD MSTORE PUSH1 0x41 PUSH1 0x24 DUP3 ADD MSTORE PUSH32 0x496E636F6E73697374656E74207265636F72642064617465206D6F7265207468 PUSH1 0x44 DUP3 ADD MSTORE PUSH32 0x616E2031302064617973206265666F726520736574746C656D656E7420646174 PUSH1 0x64 DUP3 ADD MSTORE PUSH1 0x65 PUSH1 0xF8 SHL PUSH1 0x84 DUP3 ADD MSTORE PUSH1 0xA4 ADD PUSH2 0xD50 JUMP JUMPDEST PUSH2 0x169F DUP3 DUP3 PUSH2 0x1761 DUP6 PUSH2 0x455F JUMP JUMPDEST PUSH2 0x45F4 JUMP JUMPDEST PUSH2 0x177E PUSH1 0x0 DUP1 MLOAD PUSH1 0x20 PUSH2 0x652E DUP4 CODECOPY DUP2 MLOAD SWAP2 MSTORE CALLER PUSH2 0x275D JUMP JUMPDEST DUP1 PUSH2 0x179C JUMPI POP PUSH2 0x179C PUSH1 0x0 DUP1 MLOAD PUSH1 0x20 PUSH2 0x650E DUP4 CODECOPY DUP2 MLOAD SWAP2 MSTORE CALLER PUSH2 0x275D JUMP JUMPDEST DUP1 PUSH2 0x17AB JUMPI POP PUSH2 0x17AB CALLER PUSH2 0x33F7 JUMP JUMPDEST DUP1 PUSH2 0x17BA JUMPI POP PUSH2 0x17BA CALLER PUSH2 0x221B JUMP JUMPDEST PUSH2 0x17D6 JUMPI PUSH1 0x40 MLOAD PUSH3 0x461BCD PUSH1 0xE5 SHL DUP2 MSTORE PUSH1 0x4 ADD PUSH2 0xD50 SWAP1 PUSH2 0x6263 JUMP JUMPDEST PUSH1 0x0 DUP4 DUP2 MSTORE PUSH1 0x15 PUSH1 0x20 SWAP1 DUP2 MSTORE PUSH1 0x40 DUP1 DUP4 KECCAK256 DUP2 MLOAD PUSH2 0x180 DUP2 ADD DUP4 MSTORE DUP2 SLOAD PUSH1 0x1 PUSH1 0x1 PUSH1 0xA0 SHL SUB SWAP1 DUP2 AND DUP3 MSTORE PUSH1 0x1 DUP4 ADD SLOAD AND DUP2 DUP6 ADD MSTORE PUSH1 0x2 DUP3 ADD SLOAD DUP2 DUP5 ADD MSTORE PUSH1 0x3 DUP3 ADD SLOAD PUSH1 0x60 DUP1 DUP4 ADD SWAP2 SWAP1 SWAP2 MSTORE PUSH1 0x4 DUP1 DUP5 ADD SLOAD PUSH1 0x80 DUP1 DUP6 ADD SWAP2 SWAP1 SWAP2 MSTORE PUSH1 0x5 DUP6 ADD SLOAD PUSH1 0xA0 DUP6 ADD MSTORE PUSH1 0x6 DUP6 ADD SLOAD PUSH1 0xC0 DUP6 ADD MSTORE PUSH1 0x7 DUP6 ADD SLOAD PUSH1 0xE0 DUP6 ADD MSTORE PUSH1 0x8 DUP6 ADD SLOAD PUSH2 0x100 DUP6 ADD MSTORE PUSH1 0x9 DUP6 ADD SLOAD PUSH2 0x120 DUP6 ADD MSTORE DUP6 MLOAD SWAP1 DUP2 ADD DUP7 MSTORE PUSH1 0xA DUP6 ADD SLOAD DUP2 MSTORE PUSH1 0xB DUP6 ADD SLOAD SWAP7 DUP2 ADD SWAP7 SWAP1 SWAP7 MSTORE PUSH1 0xC DUP5 ADD SLOAD SWAP5 DUP7 ADD SWAP5 SWAP1 SWAP5 MSTORE PUSH1 0xD DUP4 ADD SLOAD SWAP1 DUP6 ADD MSTORE PUSH2 0x140 DUP2 ADD SWAP4 SWAP1 SWAP4 MSTORE PUSH1 0xE DUP2 ADD SLOAD SWAP1 SWAP2 PUSH2 0x160 DUP5 ADD SWAP2 PUSH1 0xFF AND SWAP1 DUP2 GT ISZERO PUSH2 0x18BB JUMPI PUSH2 0x18BB PUSH2 0x5AAA JUMP JUMPDEST PUSH1 0x4 DUP2 GT ISZERO PUSH2 0x18CC JUMPI PUSH2 0x18CC PUSH2 0x5AAA JUMP JUMPDEST SWAP1 MSTORE POP SWAP1 POP PUSH1 0x1 DUP2 PUSH2 0x160 ADD MLOAD PUSH1 0x4 DUP2 GT ISZERO PUSH2 0x18EA JUMPI PUSH2 0x18EA PUSH2 0x5AAA JUMP JUMPDEST EQ PUSH2 0x1907 JUMPI PUSH1 0x40 MLOAD PUSH3 0x461BCD PUSH1 0xE5 SHL DUP2 MSTORE PUSH1 0x4 ADD PUSH2 0xD50 SWAP1 PUSH2 0x6292 JUMP JUMPDEST DUP1 PUSH1 0xC0 ADD MLOAD PUSH1 0x2 DUP5 PUSH1 0x40 MLOAD PUSH1 0x20 ADD PUSH2 0x1921 SWAP2 DUP2 MSTORE PUSH1 0x20 ADD SWAP1 JUMP JUMPDEST PUSH1 0x40 DUP1 MLOAD PUSH1 0x1F NOT DUP2 DUP5 SUB ADD DUP2 MSTORE SWAP1 DUP3 SWAP1 MSTORE PUSH2 0x193B SWAP2 PUSH2 0x62D6 JUMP JUMPDEST PUSH1 0x20 PUSH1 0x40 MLOAD DUP1 DUP4 SUB DUP2 DUP6 GAS STATICCALL ISZERO DUP1 ISZERO PUSH2 0x1958 JUMPI RETURNDATASIZE PUSH1 0x0 DUP1 RETURNDATACOPY RETURNDATASIZE PUSH1 0x0 REVERT JUMPDEST POP POP POP PUSH1 0x40 MLOAD RETURNDATASIZE PUSH1 0x1F NOT PUSH1 0x1F DUP3 ADD AND DUP3 ADD DUP1 PUSH1 0x40 MSTORE POP DUP2 ADD SWAP1 PUSH2 0x197B SWAP2 SWAP1 PUSH2 0x62F2 JUMP JUMPDEST EQ PUSH2 0x19C8 JUMPI PUSH1 0x40 MLOAD PUSH3 0x461BCD PUSH1 0xE5 SHL DUP2 MSTORE PUSH1 0x20 PUSH1 0x4 DUP3 ADD MSTORE PUSH1 0x1C PUSH1 0x24 DUP3 ADD MSTORE PUSH32 0x496E76616C696420666F7263652072656C656173652073656372657400000000 PUSH1 0x44 DUP3 ADD MSTORE PUSH1 0x64 ADD PUSH2 0xD50 JUMP JUMPDEST DUP1 PUSH2 0x120 ADD MLOAD TIMESTAMP GT PUSH2 0x1A2D JUMPI PUSH1 0x40 MLOAD PUSH3 0x461BCD PUSH1 0xE5 SHL DUP2 MSTORE PUSH1 0x20 PUSH1 0x4 DUP3 ADD MSTORE PUSH1 0x28 PUSH1 0x24 DUP3 ADD MSTORE PUSH32 0x43616E6E6F7420666F7263652072656C65617365206265666F7265207061796D PUSH1 0x44 DUP3 ADD MSTORE PUSH8 0x656E742064617465 PUSH1 0xC0 SHL PUSH1 0x64 DUP3 ADD MSTORE PUSH1 0x84 ADD PUSH2 0xD50 JUMP JUMPDEST PUSH1 0x3 PUSH2 0x160 DUP3 ADD MSTORE PUSH1 0x40 DUP1 DUP3 ADD MLOAD DUP3 MLOAD PUSH1 0x1 PUSH1 0x1 PUSH1 0xA0 SHL SUB AND PUSH1 0x0 SWAP1 DUP2 MSTORE PUSH1 0x14 PUSH1 0x20 MSTORE SWAP2 DUP3 KECCAK256 DUP1 SLOAD SWAP2 SWAP3 SWAP1 SWAP2 PUSH2 0x1A64 SWAP1 DUP5 SWAP1 PUSH2 0x5FFA JUMP JUMPDEST SWAP1 SWAP2 SSTORE POP POP PUSH1 0x0 DUP5 DUP2 MSTORE PUSH1 0x15 PUSH1 0x20 SWAP1 DUP2 MSTORE PUSH1 0x40 SWAP2 DUP3 SWAP1 KECCAK256 PUSH1 0xA DUP2 ADD DUP6 SWAP1 SSTORE PUSH1 0xD ADD DUP6 SWAP1 SSTORE DUP3 MLOAD SWAP1 DUP4 ADD MLOAD SWAP2 DUP4 ADD MLOAD PUSH2 0x1A9C SWAP3 SWAP1 PUSH2 0x1309 JUMP JUMPDEST POP DUP1 PUSH1 0x80 ADD MLOAD DUP5 PUSH32 0x2089944216AAC981761C066B1D0353CEB806269186EF8E9045B9B1B9483699C0 PUSH1 0x3 PUSH1 0x40 MLOAD PUSH2 0x1AD3 SWAP2 SWAP1 PUSH2 0x5ADE JUMP JUMPDEST PUSH1 0x40 MLOAD DUP1 SWAP2 SUB SWAP1 LOG3 POP POP POP POP JUMP JUMPDEST PUSH1 0x0 PUSH2 0xD16 PUSH1 0x0 DUP1 MLOAD PUSH1 0x20 PUSH2 0x64CE DUP4 CODECOPY DUP2 MLOAD SWAP2 MSTORE DUP4 PUSH2 0x275D JUMP JUMPDEST PUSH1 0x1 PUSH1 0x1 PUSH1 0xA0 SHL SUB DUP2 AND CALLER EQ PUSH2 0x1B6B JUMPI PUSH1 0x40 MLOAD PUSH3 0x461BCD PUSH1 0xE5 SHL DUP2 MSTORE PUSH1 0x20 PUSH1 0x4 DUP3 ADD MSTORE PUSH1 0x2F PUSH1 0x24 DUP3 ADD MSTORE PUSH32 0x416363657373436F6E74726F6C3A2063616E206F6E6C792072656E6F756E6365 PUSH1 0x44 DUP3 ADD MSTORE PUSH15 0x103937B632B9903337B91039B2B633 PUSH1 0x89 SHL PUSH1 0x64 DUP3 ADD MSTORE PUSH1 0x84 ADD PUSH2 0xD50 JUMP JUMPDEST PUSH2 0x169F DUP3 DUP3 PUSH2 0x42CA JUMP JUMPDEST PUSH1 0x40 MLOAD PUSH3 0x461BCD PUSH1 0xE5 SHL DUP2 MSTORE PUSH1 0x20 PUSH1 0x4 DUP3 ADD MSTORE PUSH1 0x1D PUSH1 0x24 DUP3 ADD MSTORE PUSH32 0x696E637265617365416C6C6F77616E63652069732064697361626C6564000000 PUSH1 0x44 DUP3 ADD MSTORE PUSH1 0x0 SWAP1 PUSH1 0x64 ADD PUSH2 0xD50 JUMP JUMPDEST PUSH2 0x1BD8 PUSH1 0x0 DUP1 MLOAD PUSH1 0x20 PUSH2 0x652E DUP4 CODECOPY DUP2 MLOAD SWAP2 MSTORE CALLER PUSH2 0x275D JUMP JUMPDEST PUSH2 0x1BF4 JUMPI PUSH1 0x40 MLOAD PUSH3 0x461BCD PUSH1 0xE5 SHL DUP2 MSTORE PUSH1 0x4 ADD PUSH2 0xD50 SWAP1 PUSH2 0x5F6E JUMP JUMPDEST PUSH1 0x2 PUSH1 0x18 SLOAD PUSH1 0xFF AND PUSH1 0x4 DUP2 GT ISZERO PUSH2 0x1C0D JUMPI PUSH2 0x1C0D PUSH2 0x5AAA JUMP JUMPDEST SUB PUSH2 0x1C2C JUMPI PUSH1 0x18 DUP1 SLOAD PUSH1 0x4 SWAP2 SWAP1 PUSH1 0xFF NOT AND PUSH1 0x1 DUP4 JUMPDEST MUL OR SWAP1 SSTORE POP PUSH2 0x1CE0 JUMP JUMPDEST PUSH1 0x4 PUSH1 0x18 SLOAD PUSH1 0xFF AND PUSH1 0x4 DUP2 GT ISZERO PUSH2 0x1C45 JUMPI PUSH2 0x1C45 PUSH2 0x5AAA JUMP JUMPDEST SUB PUSH2 0x1C5E JUMPI PUSH1 0x18 DUP1 SLOAD PUSH1 0x2 SWAP2 SWAP1 PUSH1 0xFF NOT AND PUSH1 0x1 DUP4 PUSH2 0x1C22 JUMP JUMPDEST PUSH1 0x40 MLOAD PUSH3 0x461BCD PUSH1 0xE5 SHL DUP2 MSTORE PUSH1 0x20 PUSH1 0x4 DUP3 ADD MSTORE PUSH1 0x4B PUSH1 0x24 DUP3 ADD MSTORE PUSH32 0x43616E6E6F7420467265657A65202F20556E667265657A652074686520726567 PUSH1 0x44 DUP3 ADD MSTORE PUSH32 0x69737465722061732074686520737461747573206973206E6F74204973737565 PUSH1 0x64 DUP3 ADD MSTORE PUSH11 0x321037B910233937BD32B7 PUSH1 0xA9 SHL PUSH1 0x84 DUP3 ADD MSTORE PUSH1 0xA4 ADD PUSH2 0xD50 JUMP JUMPDEST PUSH1 0x18 SLOAD PUSH1 0x40 MLOAD CALLER SWAP2 PUSH1 0x0 DUP1 MLOAD PUSH1 0x20 PUSH2 0x64EE DUP4 CODECOPY DUP2 MLOAD SWAP2 MSTORE SWAP2 PUSH2 0x1D0B SWAP2 PUSH1 0x19 SWAP2 PUSH1 0x1A SWAP2 PUSH1 0xFF AND SWAP1 PUSH2 0x61CD JUMP JUMPDEST PUSH1 0x40 MLOAD DUP1 SWAP2 SUB SWAP1 LOG2 JUMP JUMPDEST PUSH2 0x1D2D PUSH1 0x0 DUP1 MLOAD PUSH1 0x20 PUSH2 0x652E DUP4 CODECOPY DUP2 MLOAD SWAP2 MSTORE CALLER PUSH2 0x275D JUMP JUMPDEST PUSH2 0x1D49 JUMPI PUSH1 0x40 MLOAD PUSH3 0x461BCD PUSH1 0xE5 SHL DUP2 MSTORE PUSH1 0x4 ADD PUSH2 0xD50 SWAP1 PUSH2 0x5F6E JUMP JUMPDEST PUSH1 0x0 DUP1 PUSH2 0x1D55 DUP4 PUSH2 0x4841 JUMP JUMPDEST SWAP2 POP SWAP2 POP DUP1 ISZERO PUSH2 0x1E7A JUMPI PUSH2 0x1D68 DUP4 PUSH2 0x48D4 JUMP JUMPDEST PUSH2 0x1DBF JUMPI PUSH1 0x40 MLOAD PUSH3 0x461BCD PUSH1 0xE5 SHL DUP2 MSTORE PUSH1 0x20 PUSH1 0x4 DUP3 ADD MSTORE PUSH1 0x22 PUSH1 0x24 DUP3 ADD MSTORE PUSH32 0x5468697320636F75706F6E20646174652063616E6E6F742062652064656C6574 PUSH1 0x44 DUP3 ADD MSTORE PUSH2 0x1959 PUSH1 0xF2 SHL PUSH1 0x64 DUP3 ADD MSTORE PUSH1 0x84 ADD PUSH2 0xD50 JUMP JUMPDEST PUSH1 0x22 SLOAD PUSH2 0x1DCE SWAP1 PUSH1 0x1 SWAP1 PUSH2 0x5FFA JUMP JUMPDEST DUP3 LT ISZERO PUSH2 0x1E4B JUMPI DUP2 JUMPDEST PUSH1 0x22 SLOAD PUSH2 0x1DE6 SWAP1 PUSH1 0x1 SWAP1 PUSH2 0x5FFA JUMP JUMPDEST DUP2 LT ISZERO PUSH2 0x1E49 JUMPI PUSH1 0x22 PUSH2 0x1DFA DUP3 PUSH1 0x1 PUSH2 0x6250 JUMP JUMPDEST DUP2 SLOAD DUP2 LT PUSH2 0x1E0A JUMPI PUSH2 0x1E0A PUSH2 0x5FCE JUMP JUMPDEST SWAP1 PUSH1 0x0 MSTORE PUSH1 0x20 PUSH1 0x0 KECCAK256 ADD SLOAD PUSH1 0x19 PUSH1 0x9 ADD DUP3 DUP2 SLOAD DUP2 LT PUSH2 0x1E2B JUMPI PUSH2 0x1E2B PUSH2 0x5FCE JUMP JUMPDEST PUSH1 0x0 SWAP2 DUP3 MSTORE PUSH1 0x20 SWAP1 SWAP2 KECCAK256 ADD SSTORE DUP1 PUSH2 0x1E41 DUP2 PUSH2 0x630B JUMP JUMPDEST SWAP2 POP POP PUSH2 0x1DD7 JUMP JUMPDEST POP JUMPDEST PUSH1 0x22 DUP1 SLOAD DUP1 PUSH2 0x1E5C JUMPI PUSH2 0x1E5C PUSH2 0x6324 JUMP JUMPDEST PUSH1 0x1 SWAP1 SUB DUP2 DUP2 SWAP1 PUSH1 0x0 MSTORE PUSH1 0x20 PUSH1 0x0 KECCAK256 ADD PUSH1 0x0 SWAP1 SSTORE SWAP1 SSTORE PUSH2 0x1E7A PUSH2 0x48FE JUMP JUMPDEST POP POP POP JUMP JUMPDEST PUSH2 0x1E97 PUSH1 0x0 DUP1 MLOAD PUSH1 0x20 PUSH2 0x652E DUP4 CODECOPY DUP2 MLOAD SWAP2 MSTORE CALLER PUSH2 0x275D JUMP JUMPDEST PUSH2 0x1EB3 JUMPI PUSH1 0x40 MLOAD PUSH3 0x461BCD PUSH1 0xE5 SHL DUP2 MSTORE PUSH1 0x4 ADD PUSH2 0xD50 SWAP1 PUSH2 0x5F6E JUMP JUMPDEST PUSH2 0x1EBB PUSH2 0x49AC JUMP JUMPDEST POP PUSH1 0x24 SLOAD PUSH2 0x1ED2 SWAP1 PUSH1 0x1 PUSH1 0x1 PUSH1 0xA0 SHL SUB AND DUP3 PUSH2 0x4A21 JUMP JUMPDEST PUSH1 0x24 SLOAD PUSH2 0x1EE7 SWAP1 PUSH1 0x1 PUSH1 0x1 PUSH1 0xA0 SHL SUB AND PUSH2 0x2240 JUMP JUMPDEST ISZERO DUP1 ISZERO PUSH2 0x1EF4 JUMPI POP PUSH1 0x7 SLOAD ISZERO JUMPDEST ISZERO PUSH2 0xCEE JUMPI PUSH1 0x18 DUP1 SLOAD PUSH1 0xFF NOT AND PUSH1 0x3 SWAP1 DUP2 OR SWAP1 SWAP2 SSTORE PUSH1 0x40 MLOAD CALLER SWAP2 PUSH1 0x0 DUP1 MLOAD PUSH1 0x20 PUSH2 0x64EE DUP4 CODECOPY DUP2 MLOAD SWAP2 MSTORE SWAP2 PUSH2 0x1F2E SWAP2 PUSH1 0x19 SWAP2 PUSH1 0x1A SWAP2 SWAP1 PUSH2 0x61CD JUMP JUMPDEST PUSH1 0x40 MLOAD DUP1 SWAP2 SUB SWAP1 LOG2 POP JUMP JUMPDEST PUSH1 0x0 PUSH2 0xD16 PUSH1 0x0 DUP1 MLOAD PUSH1 0x20 PUSH2 0x652E DUP4 CODECOPY DUP2 MLOAD SWAP2 MSTORE DUP4 PUSH2 0x275D JUMP JUMPDEST PUSH2 0x1F6B PUSH1 0x0 DUP1 MLOAD PUSH1 0x20 PUSH2 0x652E DUP4 CODECOPY DUP2 MLOAD SWAP2 MSTORE CALLER PUSH2 0x275D JUMP JUMPDEST PUSH2 0x1F87 JUMPI PUSH1 0x40 MLOAD PUSH3 0x461BCD PUSH1 0xE5 SHL DUP2 MSTORE PUSH1 0x4 ADD PUSH2 0xD50 SWAP1 PUSH2 0x5F6E JUMP JUMPDEST PUSH1 0x1A PUSH2 0x169F DUP3 DUP3 PUSH2 0x605B JUMP JUMPDEST PUSH1 0x1 PUSH1 0x1 PUSH1 0xA0 SHL SUB DUP3 AND PUSH1 0x0 SWAP1 DUP2 MSTORE PUSH1 0xA PUSH1 0x20 MSTORE PUSH1 0x40 DUP2 KECCAK256 DUP2 SWAP1 DUP2 SWAP1 PUSH2 0x1FBA SWAP1 DUP6 SWAP1 PUSH2 0x4B61 JUMP JUMPDEST SWAP2 POP SWAP2 POP DUP2 PUSH2 0x1FD1 JUMPI PUSH2 0x1FCC DUP6 PUSH2 0x2240 JUMP JUMPDEST PUSH2 0x1FD3 JUMP JUMPDEST DUP1 JUMPDEST SWAP6 SWAP5 POP POP POP POP POP JUMP JUMPDEST PUSH2 0x203C PUSH1 0x40 MLOAD DUP1 PUSH2 0x160 ADD PUSH1 0x40 MSTORE DUP1 PUSH1 0x60 DUP2 MSTORE PUSH1 0x20 ADD PUSH1 0x60 DUP2 MSTORE PUSH1 0x20 ADD PUSH1 0x0 DUP2 MSTORE PUSH1 0x20 ADD PUSH1 0x0 DUP1 NOT AND DUP2 MSTORE PUSH1 0x20 ADD PUSH1 0x0 DUP2 MSTORE PUSH1 0x20 ADD PUSH1 0x0 DUP2 MSTORE PUSH1 0x20 ADD PUSH1 0x0 DUP2 MSTORE PUSH1 0x20 ADD PUSH1 0x0 DUP2 MSTORE PUSH1 0x20 ADD PUSH1 0x0 DUP2 MSTORE PUSH1 0x20 ADD PUSH1 0x60 DUP2 MSTORE PUSH1 0x20 ADD PUSH1 0x0 DUP2 MSTORE POP SWAP1 JUMP JUMPDEST PUSH1 0x19 PUSH1 0x40 MLOAD DUP1 PUSH2 0x160 ADD PUSH1 0x40 MSTORE SWAP1 DUP2 PUSH1 0x0 DUP3 ADD DUP1 SLOAD PUSH2 0x205A SWAP1 PUSH2 0x5F9A JUMP JUMPDEST DUP1 PUSH1 0x1F ADD PUSH1 0x20 DUP1 SWAP2 DIV MUL PUSH1 0x20 ADD PUSH1 0x40 MLOAD SWAP1 DUP2 ADD PUSH1 0x40 MSTORE DUP1 SWAP3 SWAP2 SWAP1 DUP2 DUP2 MSTORE PUSH1 0x20 ADD DUP3 DUP1 SLOAD PUSH2 0x2086 SWAP1 PUSH2 0x5F9A JUMP JUMPDEST DUP1 ISZERO PUSH2 0x20D3 JUMPI DUP1 PUSH1 0x1F LT PUSH2 0x20A8 JUMPI PUSH2 0x100 DUP1 DUP4 SLOAD DIV MUL DUP4 MSTORE SWAP2 PUSH1 0x20 ADD SWAP2 PUSH2 0x20D3 JUMP JUMPDEST DUP3 ADD SWAP2 SWAP1 PUSH1 0x0 MSTORE PUSH1 0x20 PUSH1 0x0 KECCAK256 SWAP1 JUMPDEST DUP2 SLOAD DUP2 MSTORE SWAP1 PUSH1 0x1 ADD SWAP1 PUSH1 0x20 ADD DUP1 DUP4 GT PUSH2 0x20B6 JUMPI DUP3 SWAP1 SUB PUSH1 0x1F AND DUP3 ADD SWAP2 JUMPDEST POP POP POP POP POP DUP2 MSTORE PUSH1 0x20 ADD PUSH1 0x1 DUP3 ADD DUP1 SLOAD PUSH2 0x20EC SWAP1 PUSH2 0x5F9A JUMP JUMPDEST DUP1 PUSH1 0x1F ADD PUSH1 0x20 DUP1 SWAP2 DIV MUL PUSH1 0x20 ADD PUSH1 0x40 MLOAD SWAP1 DUP2 ADD PUSH1 0x40 MSTORE DUP1 SWAP3 SWAP2 SWAP1 DUP2 DUP2 MSTORE PUSH1 0x20 ADD DUP3 DUP1 SLOAD PUSH2 0x2118 SWAP1 PUSH2 0x5F9A JUMP JUMPDEST DUP1 ISZERO PUSH2 0x2165 JUMPI DUP1 PUSH1 0x1F LT PUSH2 0x213A JUMPI PUSH2 0x100 DUP1 DUP4 SLOAD DIV MUL DUP4 MSTORE SWAP2 PUSH1 0x20 ADD SWAP2 PUSH2 0x2165 JUMP JUMPDEST DUP3 ADD SWAP2 SWAP1 PUSH1 0x0 MSTORE PUSH1 0x20 PUSH1 0x0 KECCAK256 SWAP1 JUMPDEST DUP2 SLOAD DUP2 MSTORE SWAP1 PUSH1 0x1 ADD SWAP1 PUSH1 0x20 ADD DUP1 DUP4 GT PUSH2 0x2148 JUMPI DUP3 SWAP1 SUB PUSH1 0x1F AND DUP3 ADD SWAP2 JUMPDEST POP POP POP POP POP DUP2 MSTORE PUSH1 0x20 ADD PUSH1 0x2 DUP3 ADD SLOAD DUP2 MSTORE PUSH1 0x20 ADD PUSH1 0x3 DUP3 ADD SLOAD DUP2 MSTORE PUSH1 0x20 ADD PUSH1 0x4 DUP3 ADD SLOAD DUP2 MSTORE PUSH1 0x20 ADD PUSH1 0x5 DUP3 ADD SLOAD DUP2 MSTORE PUSH1 0x20 ADD PUSH1 0x6 DUP3 ADD SLOAD DUP2 MSTORE PUSH1 0x20 ADD PUSH1 0x7 DUP3 ADD SLOAD DUP2 MSTORE PUSH1 0x20 ADD PUSH1 0x8 DUP3 ADD SLOAD DUP2 MSTORE PUSH1 0x20 ADD PUSH1 0x9 DUP3 ADD DUP1 SLOAD DUP1 PUSH1 0x20 MUL PUSH1 0x20 ADD PUSH1 0x40 MLOAD SWAP1 DUP2 ADD PUSH1 0x40 MSTORE DUP1 SWAP3 SWAP2 SWAP1 DUP2 DUP2 MSTORE PUSH1 0x20 ADD DUP3 DUP1 SLOAD DUP1 ISZERO PUSH2 0x2203 JUMPI PUSH1 0x20 MUL DUP3 ADD SWAP2 SWAP1 PUSH1 0x0 MSTORE PUSH1 0x20 PUSH1 0x0 KECCAK256 SWAP1 JUMPDEST DUP2 SLOAD DUP2 MSTORE PUSH1 0x20 ADD SWAP1 PUSH1 0x1 ADD SWAP1 DUP1 DUP4 GT PUSH2 0x21EF JUMPI JUMPDEST POP POP POP POP POP DUP2 MSTORE PUSH1 0x20 ADD PUSH1 0xA DUP3 ADD SLOAD DUP2 MSTORE POP POP SWAP1 POP SWAP1 JUMP JUMPDEST PUSH1 0x0 DUP1 PUSH2 0x2227 DUP4 PUSH2 0x286E JUMP JUMPDEST PUSH1 0x0 SWAP1 DUP2 MSTORE PUSH1 0x13 PUSH1 0x20 MSTORE PUSH1 0x40 SWAP1 KECCAK256 SLOAD PUSH1 0xFF AND SWAP4 SWAP3 POP POP POP JUMP JUMPDEST PUSH1 0x1 PUSH1 0x1 PUSH1 0xA0 SHL SUB AND PUSH1 0x0 SWAP1 DUP2 MSTORE PUSH1 0x5 PUSH1 0x20 MSTORE PUSH1 0x40 SWAP1 KECCAK256 SLOAD SWAP1 JUMP JUMPDEST PUSH1 0x0 DUP1 PUSH2 0x2267 DUP4 PUSH2 0x4841 JUMP JUMPDEST SWAP2 POP POP DUP1 ISZERO PUSH2 0x2279 JUMPI POP PUSH1 0x1 SWAP3 SWAP2 POP POP JUMP JUMPDEST PUSH1 0x21 SLOAD DUP4 SWAP1 SUB PUSH2 0x228C JUMPI POP PUSH1 0x1 SWAP3 SWAP2 POP POP JUMP JUMPDEST POP PUSH1 0x0 SWAP3 SWAP2 POP POP JUMP JUMPDEST PUSH2 0x22AD PUSH1 0x0 DUP1 MLOAD PUSH1 0x20 PUSH2 0x652E DUP4 CODECOPY DUP2 MLOAD SWAP2 MSTORE CALLER PUSH2 0x275D JUMP JUMPDEST PUSH2 0x22C9 JUMPI PUSH1 0x40 MLOAD PUSH3 0x461BCD PUSH1 0xE5 SHL DUP2 MSTORE PUSH1 0x4 ADD PUSH2 0xD50 SWAP1 PUSH2 0x5F6E JUMP JUMPDEST PUSH1 0x20 SLOAD DUP2 GT PUSH2 0x2340 JUMPI PUSH1 0x40 MLOAD PUSH3 0x461BCD PUSH1 0xE5 SHL DUP2 MSTORE PUSH1 0x20 PUSH1 0x4 DUP3 ADD MSTORE PUSH1 0x3E PUSH1 0x24 DUP3 ADD MSTORE PUSH32 0x43616E6E6F7420736574206120636F75706F6E206461746520736D616C6C6572 PUSH1 0x44 DUP3 ADD MSTORE PUSH32 0x206F7220657175616C20746F207468652069737375616E636520646174650000 PUSH1 0x64 DUP3 ADD MSTORE PUSH1 0x84 ADD PUSH2 0xD50 JUMP JUMPDEST PUSH1 0x21 SLOAD DUP2 LT PUSH2 0x23B7 JUMPI PUSH1 0x40 MLOAD PUSH3 0x461BCD PUSH1 0xE5 SHL DUP2 MSTORE PUSH1 0x20 PUSH1 0x4 DUP3 ADD MSTORE PUSH1 0x3E PUSH1 0x24 DUP3 ADD MSTORE PUSH32 0x43616E6E6F7420736574206120636F75706F6E20646174652067726561746572 PUSH1 0x44 DUP3 ADD MSTORE PUSH32 0x206F7220657175616C20746F20746865206D6174757269747920646174650000 PUSH1 0x64 DUP3 ADD MSTORE PUSH1 0x84 ADD PUSH2 0xD50 JUMP JUMPDEST PUSH1 0x0 DUP1 PUSH2 0x23C3 DUP4 PUSH2 0x4841 JUMP JUMPDEST SWAP2 POP SWAP2 POP DUP1 PUSH2 0x1E7A JUMPI PUSH2 0x23D5 DUP4 PUSH2 0x4C57 JUMP JUMPDEST PUSH2 0x2434 JUMPI PUSH1 0x40 MLOAD PUSH3 0x461BCD PUSH1 0xE5 SHL DUP2 MSTORE PUSH1 0x20 PUSH1 0x4 DUP3 ADD MSTORE PUSH1 0x2A PUSH1 0x24 DUP3 ADD MSTORE PUSH32 0x43616E6E6F7420696E73657274207468697320646174652C2069742069732069 PUSH1 0x44 DUP3 ADD MSTORE PUSH10 0x1B881D1A19481C185CDD PUSH1 0xB2 SHL PUSH1 0x64 DUP3 ADD MSTORE PUSH1 0x84 ADD PUSH2 0xD50 JUMP JUMPDEST PUSH1 0x22 SLOAD ISZERO PUSH2 0x252E JUMPI PUSH1 0x22 DUP1 SLOAD DUP2 SWAP1 PUSH2 0x244E SWAP1 PUSH1 0x1 SWAP1 PUSH2 0x5FFA JUMP JUMPDEST DUP2 SLOAD DUP2 LT PUSH2 0x245E JUMPI PUSH2 0x245E PUSH2 0x5FCE JUMP JUMPDEST PUSH1 0x0 SWAP2 DUP3 MSTORE PUSH1 0x20 DUP1 DUP4 KECCAK256 SWAP1 SWAP2 ADD SLOAD DUP4 SLOAD PUSH1 0x1 DUP2 ADD DUP6 SSTORE SWAP4 DUP4 MSTORE SWAP2 KECCAK256 SWAP1 SWAP2 ADD SSTORE PUSH1 0x22 SLOAD PUSH1 0x3 GT PUSH2 0x2506 JUMPI PUSH1 0x22 SLOAD PUSH1 0x0 SWAP1 PUSH2 0x2499 SWAP1 PUSH1 0x3 SWAP1 PUSH2 0x5FFA JUMP JUMPDEST SWAP1 POP JUMPDEST DUP3 DUP2 LT PUSH2 0x2504 JUMPI PUSH1 0x22 DUP1 SLOAD DUP3 SWAP1 DUP2 LT PUSH2 0x24B7 JUMPI PUSH2 0x24B7 PUSH2 0x5FCE JUMP JUMPDEST PUSH1 0x0 SWAP2 DUP3 MSTORE PUSH1 0x20 SWAP1 SWAP2 KECCAK256 ADD SLOAD PUSH1 0x22 PUSH2 0x24D0 DUP4 PUSH1 0x1 PUSH2 0x6250 JUMP JUMPDEST DUP2 SLOAD DUP2 LT PUSH2 0x24E0 JUMPI PUSH2 0x24E0 PUSH2 0x5FCE JUMP JUMPDEST PUSH1 0x0 SWAP2 DUP3 MSTORE PUSH1 0x20 SWAP1 SWAP2 KECCAK256 ADD SSTORE DUP1 ISZERO PUSH2 0x2504 JUMPI DUP1 PUSH2 0x24FC DUP2 PUSH2 0x633A JUMP JUMPDEST SWAP2 POP POP PUSH2 0x249C JUMP JUMPDEST POP JUMPDEST DUP3 PUSH1 0x19 PUSH1 0x9 ADD DUP4 DUP2 SLOAD DUP2 LT PUSH2 0x251D JUMPI PUSH2 0x251D PUSH2 0x5FCE JUMP JUMPDEST PUSH1 0x0 SWAP2 DUP3 MSTORE PUSH1 0x20 SWAP1 SWAP2 KECCAK256 ADD SSTORE PUSH2 0x2564 JUMP JUMPDEST PUSH1 0x22 DUP1 SLOAD PUSH1 0x1 DUP2 ADD DUP3 SSTORE PUSH1 0x0 SWAP2 SWAP1 SWAP2 MSTORE PUSH32 0x61035B26E3E9EEE00E0D72FD1EE8DDCA6894550DCA6916EA2AC6BAA90D11E510 ADD DUP4 SWAP1 SSTORE JUMPDEST PUSH2 0x1E7A PUSH2 0x48FE JUMP JUMPDEST PUSH1 0x17 SLOAD PUSH1 0x60 SWAP1 PUSH1 0x0 SWAP1 PUSH8 0xFFFFFFFFFFFFFFFF DUP2 GT ISZERO PUSH2 0x258D JUMPI PUSH2 0x258D PUSH2 0x5966 JUMP JUMPDEST PUSH1 0x40 MLOAD SWAP1 DUP1 DUP3 MSTORE DUP1 PUSH1 0x20 MUL PUSH1 0x20 ADD DUP3 ADD PUSH1 0x40 MSTORE DUP1 ISZERO PUSH2 0x25B6 JUMPI DUP2 PUSH1 0x20 ADD PUSH1 0x20 DUP3 MUL DUP1 CALLDATASIZE DUP4 CALLDATACOPY ADD SWAP1 POP JUMPDEST POP SWAP1 POP PUSH1 0x0 DUP1 JUMPDEST PUSH1 0x17 SLOAD DUP2 LT ISZERO PUSH2 0x267B JUMPI PUSH1 0x0 PUSH2 0x25FA PUSH1 0x17 DUP4 DUP2 SLOAD DUP2 LT PUSH2 0x25DF JUMPI PUSH2 0x25DF PUSH2 0x5FCE JUMP JUMPDEST PUSH1 0x0 SWAP2 DUP3 MSTORE PUSH1 0x20 SWAP1 SWAP2 KECCAK256 ADD SLOAD PUSH1 0x1 PUSH1 0x1 PUSH1 0xA0 SHL SUB AND DUP8 PUSH2 0x10ED JUMP JUMPDEST GT ISZERO PUSH2 0x2669 JUMPI PUSH1 0x17 DUP2 DUP2 SLOAD DUP2 LT PUSH2 0x2613 JUMPI PUSH2 0x2613 PUSH2 0x5FCE JUMP JUMPDEST SWAP1 PUSH1 0x0 MSTORE PUSH1 0x20 PUSH1 0x0 KECCAK256 ADD PUSH1 0x0 SWAP1 SLOAD SWAP1 PUSH2 0x100 EXP SWAP1 DIV PUSH1 0x1 PUSH1 0x1 PUSH1 0xA0 SHL SUB AND DUP4 DUP4 DUP2 MLOAD DUP2 LT PUSH2 0x2643 JUMPI PUSH2 0x2643 PUSH2 0x5FCE JUMP JUMPDEST PUSH1 0x1 PUSH1 0x1 PUSH1 0xA0 SHL SUB SWAP1 SWAP3 AND PUSH1 0x20 SWAP3 DUP4 MUL SWAP2 SWAP1 SWAP2 ADD SWAP1 SWAP2 ADD MSTORE DUP2 PUSH2 0x2665 DUP2 PUSH2 0x630B JUMP JUMPDEST SWAP3 POP POP JUMPDEST DUP1 PUSH2 0x2673 DUP2 PUSH2 0x630B JUMP JUMPDEST SWAP2 POP POP PUSH2 0x25BD JUMP JUMPDEST POP PUSH1 0x0 DUP2 PUSH8 0xFFFFFFFFFFFFFFFF DUP2 GT ISZERO PUSH2 0x2697 JUMPI PUSH2 0x2697 PUSH2 0x5966 JUMP JUMPDEST PUSH1 0x40 MLOAD SWAP1 DUP1 DUP3 MSTORE DUP1 PUSH1 0x20 MUL PUSH1 0x20 ADD DUP3 ADD PUSH1 0x40 MSTORE DUP1 ISZERO PUSH2 0x26C0 JUMPI DUP2 PUSH1 0x20 ADD PUSH1 0x20 DUP3 MUL DUP1 CALLDATASIZE DUP4 CALLDATACOPY ADD SWAP1 POP JUMPDEST POP SWAP1 POP PUSH1 0x0 JUMPDEST DUP3 DUP2 LT ISZERO PUSH2 0x2724 JUMPI DUP4 DUP2 DUP2 MLOAD DUP2 LT PUSH2 0x26E0 JUMPI PUSH2 0x26E0 PUSH2 0x5FCE JUMP JUMPDEST PUSH1 0x20 MUL PUSH1 0x20 ADD ADD MLOAD DUP3 DUP3 DUP2 MLOAD DUP2 LT PUSH2 0x26FA JUMPI PUSH2 0x26FA PUSH2 0x5FCE JUMP JUMPDEST PUSH1 0x1 PUSH1 0x1 PUSH1 0xA0 SHL SUB SWAP1 SWAP3 AND PUSH1 0x20 SWAP3 DUP4 MUL SWAP2 SWAP1 SWAP2 ADD SWAP1 SWAP2 ADD MSTORE DUP1 PUSH2 0x271C DUP2 PUSH2 0x630B JUMP JUMPDEST SWAP2 POP POP PUSH2 0x26C6 JUMP JUMPDEST POP SWAP5 SWAP4 POP POP POP POP JUMP JUMPDEST PUSH2 0xCEE PUSH1 0x0 DUP1 MLOAD PUSH1 0x20 PUSH2 0x652E DUP4 CODECOPY DUP2 MLOAD SWAP2 MSTORE DUP3 PUSH2 0x3783 JUMP JUMPDEST PUSH1 0x0 DUP3 DUP2 MSTORE PUSH1 0x1 PUSH1 0x20 MSTORE PUSH1 0x40 DUP2 KECCAK256 PUSH2 0x1567 SWAP1 DUP4 PUSH2 0x4C6C JUMP JUMPDEST PUSH1 0x0 SWAP2 DUP3 MSTORE PUSH1 0x20 DUP3 DUP2 MSTORE PUSH1 0x40 DUP1 DUP5 KECCAK256 PUSH1 0x1 PUSH1 0x1 PUSH1 0xA0 SHL SUB SWAP4 SWAP1 SWAP4 AND DUP5 MSTORE SWAP2 SWAP1 MSTORE SWAP1 KECCAK256 SLOAD PUSH1 0xFF AND SWAP1 JUMP JUMPDEST PUSH2 0x279E PUSH1 0x0 DUP1 MLOAD PUSH1 0x20 PUSH2 0x652E DUP4 CODECOPY DUP2 MLOAD SWAP2 MSTORE CALLER PUSH2 0x275D JUMP JUMPDEST PUSH2 0x27BA JUMPI PUSH1 0x40 MLOAD PUSH3 0x461BCD PUSH1 0xE5 SHL DUP2 MSTORE PUSH1 0x4 ADD PUSH2 0xD50 SWAP1 PUSH2 0x5F6E JUMP JUMPDEST PUSH1 0x1F SSTORE JUMP JUMPDEST PUSH1 0x60 PUSH1 0x19 PUSH1 0x1 ADD DUP1 SLOAD PUSH2 0x106A SWAP1 PUSH2 0x5F9A JUMP JUMPDEST PUSH1 0x0 DUP1 PUSH1 0x0 PUSH2 0x27E1 DUP5 PUSH1 0xB PUSH2 0x4B61 JUMP JUMPDEST SWAP2 POP SWAP2 POP DUP2 PUSH2 0x27F2 JUMPI PUSH1 0x7 SLOAD PUSH2 0x27F4 JUMP JUMPDEST DUP1 JUMPDEST SWAP5 SWAP4 POP POP POP POP JUMP JUMPDEST PUSH2 0x2814 PUSH1 0x0 DUP1 MLOAD PUSH1 0x20 PUSH2 0x652E DUP4 CODECOPY DUP2 MLOAD SWAP2 MSTORE CALLER PUSH2 0x275D JUMP JUMPDEST PUSH2 0x2830 JUMPI PUSH1 0x40 MLOAD PUSH3 0x461BCD PUSH1 0xE5 SHL DUP2 MSTORE PUSH1 0x4 ADD PUSH2 0xD50 SWAP1 PUSH2 0x5F6E JUMP JUMPDEST PUSH1 0x24 SLOAD PUSH1 0x1 PUSH1 0x1 PUSH1 0xA0 SHL SUB AND PUSH2 0x2858 JUMPI PUSH1 0x40 MLOAD PUSH3 0x461BCD PUSH1 0xE5 SHL DUP2 MSTORE PUSH1 0x4 ADD PUSH2 0xD50 SWAP1 PUSH2 0x6351 JUMP JUMPDEST PUSH1 0x24 SLOAD PUSH2 0xCEE SWAP1 PUSH1 0x1 PUSH1 0x1 PUSH1 0xA0 SHL SUB AND DUP3 PUSH2 0x4C78 JUMP JUMPDEST PUSH1 0x40 DUP1 MLOAD PUSH1 0x3F DUP4 EXTCODESIZE SWAP1 DUP2 ADD PUSH1 0x1F NOT AND DUP3 ADD SWAP1 SWAP3 MSTORE DUP2 DUP2 MSTORE PUSH1 0x0 SWAP2 DUP1 DUP4 PUSH1 0x20 DUP5 ADD DUP7 EXTCODECOPY POP DUP1 MLOAD PUSH1 0x20 SWAP1 SWAP2 ADD KECCAK256 SWAP3 SWAP2 POP POP JUMP JUMPDEST PUSH2 0xCEE PUSH1 0x0 DUP1 MLOAD PUSH1 0x20 PUSH2 0x652E DUP4 CODECOPY DUP2 MLOAD SWAP2 MSTORE DUP3 PUSH2 0x156E JUMP JUMPDEST PUSH1 0x40 MLOAD PUSH3 0x461BCD PUSH1 0xE5 SHL DUP2 MSTORE PUSH1 0x20 PUSH1 0x4 DUP3 ADD MSTORE PUSH1 0x1D PUSH1 0x24 DUP3 ADD MSTORE PUSH32 0x6465637265617365416C6C6F77616E63652069732064697361626C6564000000 PUSH1 0x44 DUP3 ADD MSTORE PUSH1 0x0 SWAP1 PUSH1 0x64 ADD PUSH2 0xD50 JUMP JUMPDEST PUSH1 0x0 PUSH2 0xD16 PUSH1 0x0 DUP1 MLOAD PUSH1 0x20 PUSH2 0x650E DUP4 CODECOPY DUP2 MLOAD SWAP2 MSTORE DUP4 PUSH2 0x275D JUMP JUMPDEST PUSH1 0x40 MLOAD PUSH3 0x461BCD PUSH1 0xE5 SHL DUP2 MSTORE PUSH1 0x20 PUSH1 0x4 DUP3 ADD MSTORE PUSH1 0x14 PUSH1 0x24 DUP3 ADD MSTORE PUSH20 0x1D1C985B9CD9995C881A5CC8191A5CD8589B1959 PUSH1 0x62 SHL PUSH1 0x44 DUP3 ADD MSTORE PUSH1 0x0 SWAP1 PUSH1 0x64 ADD PUSH2 0xD50 JUMP JUMPDEST PUSH2 0x2976 PUSH1 0x0 DUP1 MLOAD PUSH1 0x20 PUSH2 0x652E DUP4 CODECOPY DUP2 MLOAD SWAP2 MSTORE CALLER PUSH2 0x275D JUMP JUMPDEST DUP1 PUSH2 0x2994 JUMPI POP PUSH2 0x2994 PUSH1 0x0 DUP1 MLOAD PUSH1 0x20 PUSH2 0x650E DUP4 CODECOPY DUP2 MLOAD SWAP2 MSTORE CALLER PUSH2 0x275D JUMP JUMPDEST DUP1 PUSH2 0x29A3 JUMPI POP PUSH2 0x29A3 CALLER PUSH2 0x33F7 JUMP JUMPDEST DUP1 PUSH2 0x29B2 JUMPI POP PUSH2 0x29B2 CALLER PUSH2 0x221B JUMP JUMPDEST PUSH2 0x29CE JUMPI PUSH1 0x40 MLOAD PUSH3 0x461BCD PUSH1 0xE5 SHL DUP2 MSTORE PUSH1 0x4 ADD PUSH2 0xD50 SWAP1 PUSH2 0x6263 JUMP JUMPDEST PUSH1 0x60 DUP2 ADD MLOAD PUSH1 0x0 SWAP1 DUP2 MSTORE PUSH1 0x15 PUSH1 0x20 MSTORE PUSH1 0x40 DUP2 KECCAK256 PUSH1 0xE ADD SLOAD PUSH1 0xFF AND SWAP1 DUP2 PUSH1 0x4 DUP2 GT ISZERO PUSH2 0x29FB JUMPI PUSH2 0x29FB PUSH2 0x5AAA JUMP JUMPDEST EQ PUSH2 0x2A3B JUMPI PUSH1 0x40 MLOAD PUSH3 0x461BCD PUSH1 0xE5 SHL DUP2 MSTORE PUSH1 0x20 PUSH1 0x4 DUP3 ADD MSTORE PUSH1 0x10 PUSH1 0x24 DUP3 ADD MSTORE PUSH16 0x131BD8DAC8185B1C9958591E481CD95D PUSH1 0x82 SHL PUSH1 0x44 DUP3 ADD MSTORE PUSH1 0x64 ADD PUSH2 0xD50 JUMP JUMPDEST PUSH1 0x0 DUP3 PUSH2 0x160 ADD MLOAD PUSH1 0x4 DUP2 GT ISZERO PUSH2 0x2A54 JUMPI PUSH2 0x2A54 PUSH2 0x5AAA JUMP JUMPDEST EQ PUSH2 0x2A92 JUMPI PUSH1 0x40 MLOAD PUSH3 0x461BCD PUSH1 0xE5 SHL DUP2 MSTORE PUSH1 0x20 PUSH1 0x4 DUP3 ADD MSTORE PUSH1 0xE PUSH1 0x24 DUP3 ADD MSTORE PUSH14 0x496E76616C696420737461747573 PUSH1 0x90 SHL PUSH1 0x44 DUP3 ADD MSTORE PUSH1 0x64 ADD PUSH2 0xD50 JUMP JUMPDEST DUP2 MLOAD PUSH1 0x1 PUSH1 0x1 PUSH1 0xA0 SHL SUB AND ISZERO DUP1 ISZERO SWAP1 PUSH2 0x2AB7 JUMPI POP PUSH1 0x20 DUP3 ADD MLOAD PUSH1 0x1 PUSH1 0x1 PUSH1 0xA0 SHL SUB AND ISZERO ISZERO JUMPDEST PUSH2 0x2AF5 JUMPI PUSH1 0x40 MLOAD PUSH3 0x461BCD PUSH1 0xE5 SHL DUP2 MSTORE PUSH1 0x20 PUSH1 0x4 DUP3 ADD MSTORE PUSH1 0xF PUSH1 0x24 DUP3 ADD MSTORE PUSH15 0x496E76616C69642061646472657373 PUSH1 0x88 SHL PUSH1 0x44 DUP3 ADD MSTORE PUSH1 0x64 ADD PUSH2 0xD50 JUMP JUMPDEST DUP2 PUSH2 0x120 ADD MLOAD DUP3 PUSH2 0x100 ADD MLOAD GT ISZERO PUSH2 0x2B3F JUMPI PUSH1 0x40 MLOAD PUSH3 0x461BCD PUSH1 0xE5 SHL DUP2 MSTORE PUSH1 0x20 PUSH1 0x4 DUP3 ADD MSTORE PUSH1 0xD PUSH1 0x24 DUP3 ADD MSTORE PUSH13 0x496E76616C6964206461746573 PUSH1 0x98 SHL PUSH1 0x44 DUP3 ADD MSTORE PUSH1 0x64 ADD PUSH2 0xD50 JUMP JUMPDEST PUSH1 0x0 DUP3 PUSH1 0x40 ADD MLOAD GT PUSH2 0x2B84 JUMPI PUSH1 0x40 MLOAD PUSH3 0x461BCD PUSH1 0xE5 SHL DUP2 MSTORE PUSH1 0x20 PUSH1 0x4 DUP3 ADD MSTORE PUSH1 0xE PUSH1 0x24 DUP3 ADD MSTORE PUSH14 0x125B9D985B1A5908185B5BDD5B9D PUSH1 0x92 SHL PUSH1 0x44 DUP3 ADD MSTORE PUSH1 0x64 ADD PUSH2 0xD50 JUMP JUMPDEST DUP2 MLOAD PUSH1 0x1 PUSH1 0x1 PUSH1 0xA0 SHL SUB AND PUSH1 0x0 SWAP1 DUP2 MSTORE PUSH1 0x14 PUSH1 0x20 MSTORE PUSH1 0x40 SWAP1 DUP2 SWAP1 KECCAK256 SLOAD SWAP1 DUP4 ADD MLOAD PUSH2 0x2BAE SWAP2 SWAP1 PUSH2 0x6250 JUMP JUMPDEST DUP3 MLOAD PUSH2 0x2BB9 SWAP1 PUSH2 0x2240 JUMP JUMPDEST LT ISZERO PUSH2 0x2BFE JUMPI PUSH1 0x40 MLOAD PUSH3 0x461BCD PUSH1 0xE5 SHL DUP2 MSTORE PUSH1 0x20 PUSH1 0x4 DUP3 ADD MSTORE PUSH1 0x14 PUSH1 0x24 DUP3 ADD MSTORE PUSH20 0x496E73756666696369656E742062616C616E6365 PUSH1 0x60 SHL PUSH1 0x44 DUP3 ADD MSTORE PUSH1 0x64 ADD PUSH2 0xD50 JUMP JUMPDEST TIMESTAMP DUP3 PUSH2 0x100 ADD MLOAD GT DUP1 ISZERO PUSH2 0x2C1C JUMPI POP DUP2 PUSH2 0x100 ADD MLOAD DUP3 PUSH2 0x120 ADD MLOAD LT ISZERO JUMPDEST PUSH2 0x2C58 JUMPI PUSH1 0x40 MLOAD PUSH3 0x461BCD PUSH1 0xE5 SHL DUP2 MSTORE PUSH1 0x20 PUSH1 0x4 DUP3 ADD MSTORE PUSH1 0xD PUSH1 0x24 DUP3 ADD MSTORE PUSH13 0x496E76616C6964206461746573 PUSH1 0x98 SHL PUSH1 0x44 DUP3 ADD MSTORE PUSH1 0x64 ADD PUSH2 0xD50 JUMP JUMPDEST PUSH1 0x40 DUP1 DUP4 ADD MLOAD DUP4 MLOAD PUSH1 0x1 PUSH1 0x1 PUSH1 0xA0 SHL SUB AND PUSH1 0x0 SWAP1 DUP2 MSTORE PUSH1 0x14 PUSH1 0x20 MSTORE SWAP2 DUP3 KECCAK256 DUP1 SLOAD SWAP2 SWAP3 SWAP1 SWAP2 PUSH2 0x2C87 SWAP1 DUP5 SWAP1 PUSH2 0x6250 JUMP JUMPDEST SWAP1 SWAP2 SSTORE POP POP PUSH1 0x60 DUP3 DUP2 ADD DUP1 MLOAD PUSH1 0x0 SWAP1 DUP2 MSTORE PUSH1 0x15 PUSH1 0x20 SWAP1 DUP2 MSTORE PUSH1 0x40 SWAP2 DUP3 SWAP1 KECCAK256 DUP7 MLOAD DUP2 SLOAD PUSH1 0x1 PUSH1 0x1 PUSH1 0xA0 SHL SUB NOT SWAP1 DUP2 AND PUSH1 0x1 PUSH1 0x1 PUSH1 0xA0 SHL SUB SWAP3 DUP4 AND OR DUP4 SSTORE DUP4 DUP10 ADD MLOAD PUSH1 0x1 DUP1 DUP6 ADD DUP1 SLOAD SWAP1 SWAP4 AND SWAP2 SWAP1 SWAP4 AND OR SWAP1 SSTORE DUP4 DUP9 ADD MLOAD PUSH1 0x2 DUP4 ADD SSTORE SWAP4 MLOAD PUSH1 0x3 DUP3 ADD SSTORE PUSH1 0x80 DUP8 ADD MLOAD PUSH1 0x4 DUP1 DUP4 ADD SWAP2 SWAP1 SWAP2 SSTORE PUSH1 0xA0 DUP9 ADD MLOAD PUSH1 0x5 DUP4 ADD SSTORE PUSH1 0xC0 DUP9 ADD MLOAD PUSH1 0x6 DUP4 ADD SSTORE PUSH1 0xE0 DUP9 ADD MLOAD PUSH1 0x7 DUP4 ADD SSTORE PUSH2 0x100 DUP9 ADD MLOAD PUSH1 0x8 DUP4 ADD SSTORE PUSH2 0x120 DUP9 ADD MLOAD PUSH1 0x9 DUP4 ADD SSTORE PUSH2 0x140 DUP9 ADD MLOAD DUP1 MLOAD PUSH1 0xA DUP5 ADD SSTORE SWAP3 DUP4 ADD MLOAD PUSH1 0xB DUP4 ADD SSTORE SWAP3 DUP3 ADD MLOAD PUSH1 0xC DUP3 ADD SSTORE SWAP4 ADD MLOAD PUSH1 0xD DUP5 ADD SSTORE PUSH2 0x160 DUP6 ADD MLOAD PUSH1 0xE DUP5 ADD DUP1 SLOAD DUP8 SWAP6 SWAP5 SWAP3 SWAP4 SWAP2 SWAP3 PUSH1 0xFF NOT SWAP1 SWAP2 AND SWAP2 DUP5 SWAP1 DUP2 GT ISZERO PUSH2 0x2D7C JUMPI PUSH2 0x2D7C PUSH2 0x5AAA JUMP JUMPDEST MUL OR SWAP1 SSTORE POP POP POP PUSH1 0x80 DUP3 ADD MLOAD PUSH1 0x60 DUP4 ADD MLOAD PUSH2 0x160 DUP5 ADD MLOAD PUSH1 0x40 MLOAD PUSH32 0xD31C125177F0903F650E8515327FC08CE105DE44664E68B42644A3B2F28B60DF SWAP2 PUSH2 0x2DC1 SWAP2 PUSH2 0x5ADE JUMP JUMPDEST PUSH1 0x40 MLOAD DUP1 SWAP2 SUB SWAP1 LOG3 POP POP JUMP JUMPDEST PUSH1 0x0 PUSH2 0x2DD8 CALLER PUSH2 0x221B JUMP JUMPDEST PUSH2 0x2DF4 JUMPI PUSH1 0x40 MLOAD PUSH3 0x461BCD PUSH1 0xE5 SHL DUP2 MSTORE PUSH1 0x4 ADD PUSH2 0xD50 SWAP1 PUSH2 0x611B JUMP JUMPDEST PUSH2 0x2DFD DUP3 PUSH2 0x33F7 JUMP JUMPDEST ISZERO ISZERO PUSH1 0x1 EQ PUSH2 0x2E4E JUMPI PUSH1 0x40 MLOAD PUSH3 0x461BCD PUSH1 0xE5 SHL DUP2 MSTORE PUSH1 0x20 PUSH1 0x4 DUP3 ADD MSTORE PUSH1 0x1F PUSH1 0x24 DUP3 ADD MSTORE PUSH32 0x54686520696E766573746F72206973206E6F742077686974656C697374656400 PUSH1 0x44 DUP3 ADD MSTORE PUSH1 0x64 ADD PUSH2 0xD50 JUMP JUMPDEST PUSH1 0x0 ADDRESS PUSH1 0x1 PUSH1 0x1 PUSH1 0xA0 SHL SUB AND PUSH4 0xE5BF6DC8 PUSH1 0x40 MLOAD DUP2 PUSH4 0xFFFFFFFF AND PUSH1 0xE0 SHL DUP2 MSTORE PUSH1 0x4 ADD PUSH1 0x20 PUSH1 0x40 MLOAD DUP1 DUP4 SUB DUP2 DUP7 GAS STATICCALL ISZERO DUP1 ISZERO PUSH2 0x2E8E JUMPI RETURNDATASIZE PUSH1 0x0 DUP1 RETURNDATACOPY RETURNDATASIZE PUSH1 0x0 REVERT JUMPDEST POP POP POP POP PUSH1 0x40 MLOAD RETURNDATASIZE PUSH1 0x1F NOT PUSH1 0x1F DUP3 ADD AND DUP3 ADD DUP1 PUSH1 0x40 MSTORE POP DUP2 ADD SWAP1 PUSH2 0x2EB2 SWAP2 SWAP1 PUSH2 0x62F2 JUMP JUMPDEST PUSH1 0x21 SLOAD SWAP1 SWAP2 POP DUP2 EQ DUP1 PUSH2 0x2EC3 JUMPI POP DUP1 ISZERO JUMPDEST DUP1 ISZERO PUSH2 0x2F2F JUMPI POP ADDRESS PUSH1 0x1 PUSH1 0x1 PUSH1 0xA0 SHL SUB AND PUSH4 0x9EF986DE PUSH1 0x40 MLOAD DUP2 PUSH4 0xFFFFFFFF AND PUSH1 0xE0 SHL DUP2 MSTORE PUSH1 0x4 ADD PUSH1 0x20 PUSH1 0x40 MLOAD DUP1 DUP4 SUB DUP2 DUP7 GAS STATICCALL ISZERO DUP1 ISZERO PUSH2 0x2F08 JUMPI RETURNDATASIZE PUSH1 0x0 DUP1 RETURNDATACOPY RETURNDATASIZE PUSH1 0x0 REVERT JUMPDEST POP POP POP POP PUSH1 0x40 MLOAD RETURNDATASIZE PUSH1 0x1F NOT PUSH1 0x1F DUP3 ADD AND DUP3 ADD DUP1 PUSH1 0x40 MSTORE POP DUP2 ADD SWAP1 PUSH2 0x2F2C SWAP2 SWAP1 PUSH2 0x62F2 JUMP JUMPDEST TIMESTAMP GT JUMPDEST PUSH2 0x2FC7 JUMPI PUSH1 0x40 MLOAD PUSH3 0x461BCD PUSH1 0xE5 SHL DUP2 MSTORE PUSH1 0x20 PUSH1 0x4 DUP3 ADD MSTORE PUSH1 0x5E PUSH1 0x24 DUP3 ADD MSTORE PUSH32 0x72657475726E696E67207468652062616C616E636520746F2074686520707269 PUSH1 0x44 DUP3 ADD MSTORE PUSH32 0x6D6172792069737375616E63652063616E206F6E6C7920626520646F6E652061 PUSH1 0x64 DUP3 ADD MSTORE PUSH32 0x6674657220746865206D6174757269747920637574206F66662074696D650000 PUSH1 0x84 DUP3 ADD MSTORE PUSH1 0xA4 ADD PUSH2 0xD50 JUMP JUMPDEST PUSH1 0x40 MLOAD PUSH4 0x70A08231 PUSH1 0xE0 SHL DUP2 MSTORE PUSH1 0x1 PUSH1 0x1 PUSH1 0xA0 SHL SUB DUP5 AND PUSH1 0x4 DUP3 ADD MSTORE PUSH1 0x0 SWAP1 ADDRESS SWAP1 PUSH4 0x70A08231 SWAP1 PUSH1 0x24 ADD PUSH1 0x20 PUSH1 0x40 MLOAD DUP1 DUP4 SUB DUP2 DUP7 GAS STATICCALL ISZERO DUP1 ISZERO PUSH2 0x300E JUMPI RETURNDATASIZE PUSH1 0x0 DUP1 RETURNDATACOPY RETURNDATASIZE PUSH1 0x0 REVERT JUMPDEST POP POP POP POP PUSH1 0x40 MLOAD RETURNDATASIZE PUSH1 0x1F NOT PUSH1 0x1F DUP3 ADD AND DUP3 ADD DUP1 PUSH1 0x40 MSTORE POP DUP2 ADD SWAP1 PUSH2 0x3032 SWAP2 SWAP1 PUSH2 0x62F2 JUMP JUMPDEST SWAP1 POP PUSH1 0x0 DUP2 GT PUSH2 0x3093 JUMPI PUSH1 0x40 MLOAD PUSH3 0x461BCD PUSH1 0xE5 SHL DUP2 MSTORE PUSH1 0x20 PUSH1 0x4 DUP3 ADD MSTORE PUSH1 0x26 PUSH1 0x24 DUP3 ADD MSTORE PUSH32 0x6E6F2062616C616E636520746F2072657475726E20666F72207468697320696E PUSH1 0x44 DUP3 ADD MSTORE PUSH6 0x3B32B9BA37B9 PUSH1 0xD1 SHL PUSH1 0x64 DUP3 ADD MSTORE PUSH1 0x84 ADD PUSH2 0xD50 JUMP JUMPDEST PUSH2 0x309B PUSH2 0x49AC JUMP JUMPDEST POP PUSH2 0x30B8 DUP5 PUSH2 0x30B2 PUSH1 0x24 SLOAD PUSH1 0x1 PUSH1 0x1 PUSH1 0xA0 SHL SUB AND SWAP1 JUMP JUMPDEST DUP4 PUSH2 0x42F6 JUMP JUMPDEST POP PUSH1 0x1 SWAP4 SWAP3 POP POP POP JUMP JUMPDEST PUSH2 0x30DA PUSH1 0x0 DUP1 MLOAD PUSH1 0x20 PUSH2 0x652E DUP4 CODECOPY DUP2 MLOAD SWAP2 MSTORE CALLER PUSH2 0x275D JUMP JUMPDEST DUP1 PUSH2 0x30F8 JUMPI POP PUSH2 0x30F8 PUSH1 0x0 DUP1 MLOAD PUSH1 0x20 PUSH2 0x650E DUP4 CODECOPY DUP2 MLOAD SWAP2 MSTORE CALLER PUSH2 0x275D JUMP JUMPDEST DUP1 PUSH2 0x3107 JUMPI POP PUSH2 0x3107 CALLER PUSH2 0x33F7 JUMP JUMPDEST DUP1 PUSH2 0x3116 JUMPI POP PUSH2 0x3116 CALLER PUSH2 0x221B JUMP JUMPDEST PUSH2 0x3132 JUMPI PUSH1 0x40 MLOAD PUSH3 0x461BCD PUSH1 0xE5 SHL DUP2 MSTORE PUSH1 0x4 ADD PUSH2 0xD50 SWAP1 PUSH2 0x6263 JUMP JUMPDEST PUSH1 0x0 DUP4 DUP2 MSTORE PUSH1 0x15 PUSH1 0x20 SWAP1 DUP2 MSTORE PUSH1 0x40 DUP1 DUP4 KECCAK256 DUP2 MLOAD PUSH2 0x180 DUP2 ADD DUP4 MSTORE DUP2 SLOAD PUSH1 0x1 PUSH1 0x1 PUSH1 0xA0 SHL SUB SWAP1 DUP2 AND DUP3 MSTORE PUSH1 0x1 DUP4 ADD SLOAD AND DUP2 DUP6 ADD MSTORE PUSH1 0x2 DUP3 ADD SLOAD DUP2 DUP5 ADD MSTORE PUSH1 0x3 DUP3 ADD SLOAD PUSH1 0x60 DUP1 DUP4 ADD SWAP2 SWAP1 SWAP2 MSTORE PUSH1 0x4 DUP1 DUP5 ADD SLOAD PUSH1 0x80 DUP1 DUP6 ADD SWAP2 SWAP1 SWAP2 MSTORE PUSH1 0x5 DUP6 ADD SLOAD PUSH1 0xA0 DUP6 ADD MSTORE PUSH1 0x6 DUP6 ADD SLOAD PUSH1 0xC0 DUP6 ADD MSTORE PUSH1 0x7 DUP6 ADD SLOAD PUSH1 0xE0 DUP6 ADD MSTORE PUSH1 0x8 DUP6 ADD SLOAD PUSH2 0x100 DUP6 ADD MSTORE PUSH1 0x9 DUP6 ADD SLOAD PUSH2 0x120 DUP6 ADD MSTORE DUP6 MLOAD SWAP1 DUP2 ADD DUP7 MSTORE PUSH1 0xA DUP6 ADD SLOAD DUP2 MSTORE PUSH1 0xB DUP6 ADD SLOAD SWAP7 DUP2 ADD SWAP7 SWAP1 SWAP7 MSTORE PUSH1 0xC DUP5 ADD SLOAD SWAP5 DUP7 ADD SWAP5 SWAP1 SWAP5 MSTORE PUSH1 0xD DUP4 ADD SLOAD SWAP1 DUP6 ADD MSTORE PUSH2 0x140 DUP2 ADD SWAP4 SWAP1 SWAP4 MSTORE PUSH1 0xE DUP2 ADD SLOAD SWAP1 SWAP2 PUSH2 0x160 DUP5 ADD SWAP2 PUSH1 0xFF AND SWAP1 DUP2 GT ISZERO PUSH2 0x3217 JUMPI PUSH2 0x3217 PUSH2 0x5AAA JUMP JUMPDEST PUSH1 0x4 DUP2 GT ISZERO PUSH2 0x3228 JUMPI PUSH2 0x3228 PUSH2 0x5AAA JUMP JUMPDEST SWAP1 MSTORE POP SWAP1 POP PUSH1 0x1 DUP2 PUSH2 0x160 ADD MLOAD PUSH1 0x4 DUP2 GT ISZERO PUSH2 0x3246 JUMPI PUSH2 0x3246 PUSH2 0x5AAA JUMP JUMPDEST EQ PUSH2 0x3263 JUMPI PUSH1 0x40 MLOAD PUSH3 0x461BCD PUSH1 0xE5 SHL DUP2 MSTORE PUSH1 0x4 ADD PUSH2 0xD50 SWAP1 PUSH2 0x6292 JUMP JUMPDEST DUP1 PUSH1 0xA0 ADD MLOAD PUSH1 0x2 DUP5 PUSH1 0x40 MLOAD PUSH1 0x20 ADD PUSH2 0x327D SWAP2 DUP2 MSTORE PUSH1 0x20 ADD SWAP1 JUMP JUMPDEST PUSH1 0x40 DUP1 MLOAD PUSH1 0x1F NOT DUP2 DUP5 SUB ADD DUP2 MSTORE SWAP1 DUP3 SWAP1 MSTORE PUSH2 0x3297 SWAP2 PUSH2 0x62D6 JUMP JUMPDEST PUSH1 0x20 PUSH1 0x40 MLOAD DUP1 DUP4 SUB DUP2 DUP6 GAS STATICCALL ISZERO DUP1 ISZERO PUSH2 0x32B4 JUMPI RETURNDATASIZE PUSH1 0x0 DUP1 RETURNDATACOPY RETURNDATASIZE PUSH1 0x0 REVERT JUMPDEST POP POP POP PUSH1 0x40 MLOAD RETURNDATASIZE PUSH1 0x1F NOT PUSH1 0x1F DUP3 ADD AND DUP3 ADD DUP1 PUSH1 0x40 MSTORE POP DUP2 ADD SWAP1 PUSH2 0x32D7 SWAP2 SWAP1 PUSH2 0x62F2 JUMP JUMPDEST EQ PUSH2 0x3315 JUMPI PUSH1 0x40 MLOAD PUSH3 0x461BCD PUSH1 0xE5 SHL DUP2 MSTORE PUSH1 0x20 PUSH1 0x4 DUP3 ADD MSTORE PUSH1 0xE PUSH1 0x24 DUP3 ADD MSTORE PUSH14 0x125B9D985B1A59081CD958DC995D PUSH1 0x92 SHL PUSH1 0x44 DUP3 ADD MSTORE PUSH1 0x64 ADD PUSH2 0xD50 JUMP JUMPDEST PUSH1 0x2 PUSH2 0x160 DUP3 ADD MSTORE PUSH1 0x40 DUP1 DUP3 ADD MLOAD DUP3 MLOAD PUSH1 0x1 PUSH1 0x1 PUSH1 0xA0 SHL SUB AND PUSH1 0x0 SWAP1 DUP2 MSTORE PUSH1 0x14 PUSH1 0x20 MSTORE SWAP2 DUP3 KECCAK256 DUP1 SLOAD SWAP2 SWAP3 SWAP1 SWAP2 PUSH2 0x334C SWAP1 DUP5 SWAP1 PUSH2 0x5FFA JUMP JUMPDEST SWAP1 SWAP2 SSTORE POP POP PUSH1 0x0 DUP5 DUP2 MSTORE PUSH1 0x15 PUSH1 0x20 SWAP1 DUP2 MSTORE PUSH1 0x40 SWAP2 DUP3 SWAP1 KECCAK256 PUSH1 0xA DUP2 ADD DUP6 SWAP1 SSTORE PUSH1 0xB ADD DUP6 SWAP1 SSTORE DUP3 MLOAD SWAP1 DUP4 ADD MLOAD SWAP2 DUP4 ADD MLOAD PUSH2 0x3384 SWAP3 SWAP1 PUSH2 0x1309 JUMP JUMPDEST POP DUP1 PUSH1 0x80 ADD MLOAD DUP5 PUSH32 0x2089944216AAC981761C066B1D0353CEB806269186EF8E9045B9B1B9483699C0 PUSH1 0x2 PUSH1 0x40 MLOAD PUSH2 0x1AD3 SWAP2 SWAP1 PUSH2 0x5ADE JUMP JUMPDEST PUSH2 0xCEE PUSH1 0x0 DUP1 MLOAD PUSH1 0x20 PUSH2 0x650E DUP4 CODECOPY DUP2 MLOAD SWAP2 MSTORE DUP3 PUSH2 0x3783 JUMP JUMPDEST PUSH1 0x0 DUP1 PUSH2 0x33DF CALLER PUSH2 0x286E JUMP JUMPDEST PUSH1 0x0 SWAP1 DUP2 MSTORE PUSH1 0x13 PUSH1 0x20 MSTORE PUSH1 0x40 SWAP1 KECCAK256 SLOAD PUSH1 0xFF AND SWAP3 SWAP2 POP POP JUMP JUMPDEST PUSH1 0x1 PUSH1 0x1 PUSH1 0xA0 SHL SUB AND PUSH1 0x0 SWAP1 DUP2 MSTORE PUSH1 0x16 PUSH1 0x20 MSTORE PUSH1 0x40 SWAP1 KECCAK256 SLOAD PUSH1 0x1 PUSH1 0xA0 SHL SWAP1 DIV PUSH1 0xFF AND SWAP1 JUMP JUMPDEST PUSH2 0x3434 PUSH1 0x0 DUP1 MLOAD PUSH1 0x20 PUSH2 0x652E DUP4 CODECOPY DUP2 MLOAD SWAP2 MSTORE CALLER PUSH2 0x275D JUMP JUMPDEST PUSH2 0x3450 JUMPI PUSH1 0x40 MLOAD PUSH3 0x461BCD PUSH1 0xE5 SHL DUP2 MSTORE PUSH1 0x4 ADD PUSH2 0xD50 SWAP1 PUSH2 0x5F6E JUMP JUMPDEST PUSH1 0x19 PUSH2 0x169F DUP3 DUP3 PUSH2 0x605B JUMP JUMPDEST PUSH1 0x0 DUP2 DUP2 MSTORE PUSH1 0x1 PUSH1 0x20 MSTORE PUSH1 0x40 DUP2 KECCAK256 PUSH2 0xD16 SWAP1 PUSH2 0x4D45 JUMP JUMPDEST PUSH2 0xCEE PUSH1 0x0 DUP1 MLOAD PUSH1 0x20 PUSH2 0x650E DUP4 CODECOPY DUP2 MLOAD SWAP2 MSTORE DUP3 PUSH2 0x156E JUMP JUMPDEST PUSH1 0x0 DUP2 DUP2 MSTORE PUSH1 0xE PUSH1 0x20 MSTORE PUSH1 0x40 DUP2 KECCAK256 SLOAD DUP1 ISZERO PUSH2 0x34A9 JUMPI PUSH2 0x1567 DUP2 PUSH2 0x27D1 JUMP JUMPDEST PUSH1 0x7 SLOAD PUSH2 0x1567 JUMP JUMPDEST POP SWAP2 SWAP1 POP JUMP JUMPDEST PUSH1 0x60 PUSH1 0x17 DUP1 SLOAD DUP1 PUSH1 0x20 MUL PUSH1 0x20 ADD PUSH1 0x40 MLOAD SWAP1 DUP2 ADD PUSH1 0x40 MSTORE DUP1 SWAP3 SWAP2 SWAP1 DUP2 DUP2 MSTORE PUSH1 0x20 ADD DUP3 DUP1 SLOAD DUP1 ISZERO PUSH2 0x10E3 JUMPI PUSH1 0x20 MUL DUP3 ADD SWAP2 SWAP1 PUSH1 0x0 MSTORE PUSH1 0x20 PUSH1 0x0 KECCAK256 SWAP1 JUMPDEST DUP2 SLOAD PUSH1 0x1 PUSH1 0x1 PUSH1 0xA0 SHL SUB AND DUP2 MSTORE PUSH1 0x1 SWAP1 SWAP2 ADD SWAP1 PUSH1 0x20 ADD DUP1 DUP4 GT PUSH2 0x34F1 JUMPI POP POP POP POP POP SWAP1 POP SWAP1 JUMP JUMPDEST PUSH1 0x1 PUSH1 0x1 PUSH1 0xA0 SHL SUB DUP2 AND PUSH2 0x356E JUMPI PUSH1 0x40 MLOAD PUSH3 0x461BCD PUSH1 0xE5 SHL DUP2 MSTORE PUSH1 0x20 PUSH1 0x4 DUP3 ADD MSTORE PUSH1 0x1F PUSH1 0x24 DUP3 ADD MSTORE PUSH32 0x696E766573746F7220616464726573732063616E6E6F74206265207A65726F00 PUSH1 0x44 DUP3 ADD MSTORE PUSH1 0x64 ADD PUSH2 0xD50 JUMP JUMPDEST PUSH1 0x1 PUSH1 0x1 PUSH1 0xA0 SHL SUB DUP2 DUP2 AND PUSH1 0x0 SWAP1 DUP2 MSTORE PUSH1 0x16 PUSH1 0x20 MSTORE PUSH1 0x40 SWAP1 KECCAK256 PUSH1 0x2 ADD SLOAD AND ISZERO PUSH2 0x35A5 PUSH1 0x0 DUP1 MLOAD PUSH1 0x20 PUSH2 0x652E DUP4 CODECOPY DUP2 MLOAD SWAP2 MSTORE CALLER PUSH2 0x275D JUMP JUMPDEST ISZERO PUSH2 0x3623 JUMPI DUP1 ISZERO PUSH2 0x35F8 JUMPI PUSH1 0x40 MLOAD PUSH3 0x461BCD PUSH1 0xE5 SHL DUP2 MSTORE PUSH1 0x20 PUSH1 0x4 DUP3 ADD MSTORE PUSH1 0x1D PUSH1 0x24 DUP3 ADD MSTORE PUSH32 0x696E766573746F72206D75737420626520736574207570206669727374000000 PUSH1 0x44 DUP3 ADD MSTORE PUSH1 0x64 ADD PUSH2 0xD50 JUMP JUMPDEST POP PUSH1 0x1 PUSH1 0x1 PUSH1 0xA0 SHL SUB AND PUSH1 0x0 SWAP1 DUP2 MSTORE PUSH1 0x16 PUSH1 0x20 MSTORE PUSH1 0x40 SWAP1 KECCAK256 DUP1 SLOAD PUSH1 0xFF PUSH1 0xA0 SHL NOT AND PUSH1 0x1 PUSH1 0xA0 SHL OR SWAP1 SSTORE JUMP JUMPDEST PUSH2 0x363B PUSH1 0x0 DUP1 MLOAD PUSH1 0x20 PUSH2 0x64CE DUP4 CODECOPY DUP2 MLOAD SWAP2 MSTORE CALLER PUSH2 0x275D JUMP JUMPDEST PUSH2 0x367C JUMPI PUSH1 0x40 MLOAD PUSH3 0x461BCD PUSH1 0xE5 SHL DUP2 MSTORE PUSH1 0x20 PUSH1 0x4 DUP3 ADD MSTORE PUSH1 0x12 PUSH1 0x24 DUP3 ADD MSTORE PUSH18 0x10D85B1B195C881B5D5CDD0818994810D4D5 PUSH1 0x72 SHL PUSH1 0x44 DUP3 ADD MSTORE PUSH1 0x64 ADD PUSH2 0xD50 JUMP JUMPDEST PUSH2 0x169F DUP3 CALLER PUSH2 0x4D4F JUMP JUMPDEST PUSH2 0x369E PUSH1 0x0 DUP1 MLOAD PUSH1 0x20 PUSH2 0x652E DUP4 CODECOPY DUP2 MLOAD SWAP2 MSTORE CALLER PUSH2 0x275D JUMP JUMPDEST PUSH2 0x36BA JUMPI PUSH1 0x40 MLOAD PUSH3 0x461BCD PUSH1 0xE5 SHL DUP2 MSTORE PUSH1 0x4 ADD PUSH2 0xD50 SWAP1 PUSH2 0x5F6E JUMP JUMPDEST PUSH1 0x1 PUSH1 0x18 SLOAD PUSH1 0xFF AND PUSH1 0x4 DUP2 GT ISZERO PUSH2 0x36D3 JUMPI PUSH2 0x36D3 PUSH2 0x5AAA JUMP JUMPDEST EQ PUSH2 0x372A JUMPI PUSH1 0x40 MLOAD PUSH3 0x461BCD PUSH1 0xE5 SHL DUP2 MSTORE PUSH1 0x20 PUSH1 0x4 DUP3 ADD MSTORE PUSH1 0x21 PUSH1 0x24 DUP3 ADD MSTORE PUSH32 0x52656769737465722073686F756C6420626520696E2052656164792073746174 PUSH1 0x44 DUP3 ADD MSTORE PUSH1 0x65 PUSH1 0xF8 SHL PUSH1 0x64 DUP3 ADD MSTORE PUSH1 0x84 ADD PUSH2 0xD50 JUMP JUMPDEST PUSH1 0x24 SLOAD PUSH1 0x1B SLOAD PUSH2 0x3743 SWAP2 PUSH1 0x1 PUSH1 0x1 PUSH1 0xA0 SHL SUB AND SWAP1 PUSH2 0x4A21 JUMP JUMPDEST PUSH1 0x18 DUP1 SLOAD PUSH1 0x0 SWAP2 SWAP1 PUSH1 0xFF NOT AND PUSH1 0x1 DUP4 JUMPDEST MUL OR SWAP1 SSTORE POP PUSH1 0x18 SLOAD PUSH1 0x40 MLOAD CALLER SWAP2 PUSH1 0x0 DUP1 MLOAD PUSH1 0x20 PUSH2 0x64EE DUP4 CODECOPY DUP2 MLOAD SWAP2 MSTORE SWAP2 PUSH2 0x1D0B SWAP2 PUSH1 0x19 SWAP2 PUSH1 0x1A SWAP2 PUSH1 0xFF AND SWAP1 PUSH2 0x61CD JUMP JUMPDEST DUP2 PUSH2 0x37A0 JUMPI PUSH1 0x40 MLOAD PUSH3 0x461BCD PUSH1 0xE5 SHL DUP2 MSTORE PUSH1 0x4 ADD PUSH2 0xD50 SWAP1 PUSH2 0x620C JUMP JUMPDEST PUSH1 0x0 DUP1 MLOAD PUSH1 0x20 PUSH2 0x652E DUP4 CODECOPY DUP2 MLOAD SWAP2 MSTORE DUP3 SUB PUSH2 0x381D JUMPI PUSH2 0x37C0 PUSH1 0x0 CALLER PUSH2 0x275D JUMP JUMPDEST PUSH2 0x3818 JUMPI PUSH1 0x40 MLOAD PUSH3 0x461BCD PUSH1 0xE5 SHL DUP2 MSTORE PUSH1 0x20 PUSH1 0x4 DUP3 ADD MSTORE PUSH1 0x24 DUP1 DUP3 ADD MSTORE PUSH32 0x43616C6C6572206D7573742062652041444D494E20746F2072656D6F76652061 PUSH1 0x44 DUP3 ADD MSTORE PUSH4 0x2043414B PUSH1 0xE0 SHL PUSH1 0x64 DUP3 ADD MSTORE PUSH1 0x84 ADD PUSH2 0xD50 JUMP JUMPDEST PUSH2 0x1B6B JUMP JUMPDEST PUSH2 0x3835 PUSH1 0x0 DUP1 MLOAD PUSH1 0x20 PUSH2 0x652E DUP4 CODECOPY DUP2 MLOAD SWAP2 MSTORE CALLER PUSH2 0x275D JUMP JUMPDEST PUSH2 0x1B6B JUMPI PUSH1 0x40 MLOAD PUSH3 0x461BCD PUSH1 0xE5 SHL DUP2 MSTORE PUSH1 0x20 PUSH1 0x4 DUP3 ADD MSTORE PUSH1 0x23 PUSH1 0x24 DUP3 ADD MSTORE PUSH32 0x43616C6C6572206D7573742062652043414B20746F2072656D6F766520612072 PUSH1 0x44 DUP3 ADD MSTORE PUSH3 0x6F6C65 PUSH1 0xE8 SHL PUSH1 0x64 DUP3 ADD MSTORE PUSH1 0x84 ADD PUSH2 0xD50 JUMP JUMPDEST PUSH2 0x38A5 PUSH1 0x0 DUP1 MLOAD PUSH1 0x20 PUSH2 0x652E DUP4 CODECOPY DUP2 MLOAD SWAP2 MSTORE CALLER PUSH2 0x275D JUMP JUMPDEST PUSH2 0x38C1 JUMPI PUSH1 0x40 MLOAD PUSH3 0x461BCD PUSH1 0xE5 SHL DUP2 MSTORE PUSH1 0x4 ADD PUSH2 0xD50 SWAP1 PUSH2 0x5F6E JUMP JUMPDEST PUSH1 0x0 PUSH1 0x18 SLOAD PUSH1 0xFF AND PUSH1 0x4 DUP2 GT ISZERO PUSH2 0x38DA JUMPI PUSH2 0x38DA PUSH2 0x5AAA JUMP JUMPDEST EQ PUSH2 0x394D JUMPI PUSH1 0x40 MLOAD PUSH3 0x461BCD PUSH1 0xE5 SHL DUP2 MSTORE PUSH1 0x20 PUSH1 0x4 DUP3 ADD MSTORE PUSH1 0x3A PUSH1 0x24 DUP3 ADD MSTORE PUSH32 0x6C6966656379636C652076696F6C6174696F6E202D206F6E6C7920616C6C6F77 PUSH1 0x44 DUP3 ADD MSTORE PUSH32 0x6564207768656E2073746174757320697320696E206472616674000000000000 PUSH1 0x64 DUP3 ADD MSTORE PUSH1 0x84 ADD PUSH2 0xD50 JUMP JUMPDEST PUSH1 0x1B SSTORE JUMP JUMPDEST PUSH1 0x1 PUSH1 0x1 PUSH1 0xA0 SHL SUB DUP2 AND PUSH2 0x39A8 JUMPI PUSH1 0x40 MLOAD PUSH3 0x461BCD PUSH1 0xE5 SHL DUP2 MSTORE PUSH1 0x20 PUSH1 0x4 DUP3 ADD MSTORE PUSH1 0x1F PUSH1 0x24 DUP3 ADD MSTORE PUSH32 0x696E766573746F7220616464726573732063616E6E6F74206265207A65726F00 PUSH1 0x44 DUP3 ADD MSTORE PUSH1 0x64 ADD PUSH2 0xD50 JUMP JUMPDEST PUSH2 0x39C0 PUSH1 0x0 DUP1 MLOAD PUSH1 0x20 PUSH2 0x652E DUP4 CODECOPY DUP2 MLOAD SWAP2 MSTORE CALLER PUSH2 0x275D JUMP JUMPDEST ISZERO PUSH2 0x3A53 JUMPI PUSH1 0x1 PUSH1 0x1 PUSH1 0xA0 SHL SUB DUP2 DUP2 AND PUSH1 0x0 SWAP1 DUP2 MSTORE PUSH1 0x16 PUSH1 0x20 MSTORE PUSH1 0x40 SWAP1 KECCAK256 PUSH1 0x2 ADD SLOAD AND PUSH2 0x3A2F JUMPI PUSH1 0x40 MLOAD PUSH3 0x461BCD PUSH1 0xE5 SHL DUP2 MSTORE PUSH1 0x20 PUSH1 0x4 DUP3 ADD MSTORE PUSH1 0x1D PUSH1 0x24 DUP3 ADD MSTORE PUSH32 0x696E766573746F72206D75737420626520736574207570206669727374000000 PUSH1 0x44 DUP3 ADD MSTORE PUSH1 0x64 ADD PUSH2 0xD50 JUMP JUMPDEST PUSH1 0x1 PUSH1 0x1 PUSH1 0xA0 SHL SUB AND PUSH1 0x0 SWAP1 DUP2 MSTORE PUSH1 0x16 PUSH1 0x20 MSTORE PUSH1 0x40 SWAP1 KECCAK256 DUP1 SLOAD PUSH1 0xFF PUSH1 0xA0 SHL NOT AND SWAP1 SSTORE JUMP JUMPDEST PUSH2 0x3A6B PUSH1 0x0 DUP1 MLOAD PUSH1 0x20 PUSH2 0x64CE DUP4 CODECOPY DUP2 MLOAD SWAP2 MSTORE CALLER PUSH2 0x275D JUMP JUMPDEST PUSH2 0x3AAC JUMPI PUSH1 0x40 MLOAD PUSH3 0x461BCD PUSH1 0xE5 SHL DUP2 MSTORE PUSH1 0x20 PUSH1 0x4 DUP3 ADD MSTORE PUSH1 0x12 PUSH1 0x24 DUP3 ADD MSTORE PUSH18 0x10D85B1B195C881B5D5CDD0818994810D4D5 PUSH1 0x72 SHL PUSH1 0x44 DUP3 ADD MSTORE PUSH1 0x64 ADD PUSH2 0xD50 JUMP JUMPDEST PUSH1 0x1 PUSH1 0x1 PUSH1 0xA0 SHL SUB DUP2 DUP2 AND PUSH1 0x0 SWAP1 DUP2 MSTORE PUSH1 0x16 PUSH1 0x20 MSTORE PUSH1 0x40 SWAP1 KECCAK256 PUSH1 0x2 ADD SLOAD AND CALLER EQ PUSH2 0x3AE8 JUMPI PUSH1 0x40 MLOAD PUSH3 0x461BCD PUSH1 0xE5 SHL DUP2 MSTORE PUSH1 0x4 ADD PUSH2 0xD50 SWAP1 PUSH2 0x6397 JUMP JUMPDEST PUSH1 0x1 PUSH1 0x1 PUSH1 0xA0 SHL SUB DUP2 AND PUSH1 0x0 DUP2 DUP2 MSTORE PUSH1 0x16 PUSH1 0x20 SWAP1 DUP2 MSTORE PUSH1 0x40 SWAP2 DUP3 SWAP1 KECCAK256 DUP1 SLOAD PUSH1 0xFF PUSH1 0xA0 SHL NOT AND SWAP1 SSTORE SWAP1 MLOAD SWAP2 DUP3 MSTORE PUSH32 0xFEAE65559F65B7C3F804001AC3371FBB83CF05E8344BC2B66588084BFE9250A8 SWAP2 ADD JUMPDEST PUSH1 0x40 MLOAD DUP1 SWAP2 SUB SWAP1 LOG1 POP JUMP JUMPDEST PUSH2 0x3B4B PUSH2 0x4E41 JUMP JUMPDEST PUSH2 0x3B67 JUMPI PUSH1 0x40 MLOAD PUSH3 0x461BCD PUSH1 0xE5 SHL DUP2 MSTORE PUSH1 0x4 ADD PUSH2 0xD50 SWAP1 PUSH2 0x5F6E JUMP JUMPDEST PUSH1 0x0 DUP2 DUP2 MSTORE PUSH1 0x13 PUSH1 0x20 MSTORE PUSH1 0x40 SWAP1 DUP2 SWAP1 KECCAK256 DUP1 SLOAD PUSH1 0xFF NOT AND PUSH1 0x1 OR SWAP1 SSTORE MLOAD PUSH32 0xBAF2F827DE189827A9B5EA8781DBBFFCAD675A367DCCAAD8B9ADA866795598D7 SWAP1 PUSH2 0x3B38 SWAP1 DUP4 DUP2 MSTORE PUSH1 0x20 ADD SWAP1 JUMP JUMPDEST PUSH2 0x3BBA PUSH2 0x4E41 JUMP JUMPDEST PUSH2 0x3BD6 JUMPI PUSH1 0x40 MLOAD PUSH3 0x461BCD PUSH1 0xE5 SHL DUP2 MSTORE PUSH1 0x4 ADD PUSH2 0xD50 SWAP1 PUSH2 0x5F6E JUMP JUMPDEST PUSH1 0x0 DUP2 DUP2 MSTORE PUSH1 0x13 PUSH1 0x20 MSTORE PUSH1 0x40 SWAP1 DUP2 SWAP1 KECCAK256 DUP1 SLOAD PUSH1 0xFF NOT AND SWAP1 SSTORE MLOAD PUSH32 0x2876B9BD97A638025F28A0D50CB5F3CD9E5C0B85624FB7EE15267149452C2D74 SWAP1 PUSH2 0x3B38 SWAP1 DUP4 DUP2 MSTORE PUSH1 0x20 ADD SWAP1 JUMP JUMPDEST PUSH2 0x3C36 PUSH1 0x0 DUP1 MLOAD PUSH1 0x20 PUSH2 0x652E DUP4 CODECOPY DUP2 MLOAD SWAP2 MSTORE CALLER PUSH2 0x275D JUMP JUMPDEST PUSH2 0x3C52 JUMPI PUSH1 0x40 MLOAD PUSH3 0x461BCD PUSH1 0xE5 SHL DUP2 MSTORE PUSH1 0x4 ADD PUSH2 0xD50 SWAP1 PUSH2 0x5F6E JUMP JUMPDEST PUSH1 0x20 SSTORE JUMP JUMPDEST PUSH2 0x3C6F PUSH1 0x0 DUP1 MLOAD PUSH1 0x20 PUSH2 0x652E DUP4 CODECOPY DUP2 MLOAD SWAP2 MSTORE CALLER PUSH2 0x275D JUMP JUMPDEST DUP1 PUSH2 0x3C8D JUMPI POP PUSH2 0x3C8D PUSH1 0x0 DUP1 MLOAD PUSH1 0x20 PUSH2 0x650E DUP4 CODECOPY DUP2 MLOAD SWAP2 MSTORE CALLER PUSH2 0x275D JUMP JUMPDEST DUP1 PUSH2 0x3CAB JUMPI POP PUSH2 0x3CAB PUSH1 0x0 DUP1 MLOAD PUSH1 0x20 PUSH2 0x64CE DUP4 CODECOPY DUP2 MLOAD SWAP2 MSTORE CALLER PUSH2 0x275D JUMP JUMPDEST DUP1 PUSH2 0x3CC9 JUMPI POP PUSH2 0x3CC9 PUSH1 0x0 DUP1 MLOAD PUSH1 0x20 PUSH2 0x64AE DUP4 CODECOPY DUP2 MLOAD SWAP2 MSTORE CALLER PUSH2 0x275D JUMP JUMPDEST PUSH2 0x3D2C JUMPI PUSH1 0x40 MLOAD PUSH3 0x461BCD PUSH1 0xE5 SHL DUP2 MSTORE PUSH1 0x20 PUSH1 0x4 DUP3 ADD MSTORE PUSH1 0x2E PUSH1 0x24 DUP3 ADD MSTORE PUSH32 0x5468652063616C6C6572206D7573742068617665206120726F6C6520696E2074 PUSH1 0x44 DUP3 ADD MSTORE PUSH14 0x3432903A3930B739B0B1BA34B7B7 PUSH1 0x91 SHL PUSH1 0x64 DUP3 ADD MSTORE PUSH1 0x84 ADD PUSH2 0xD50 JUMP JUMPDEST DUP2 PUSH1 0x1 PUSH1 0x1 PUSH1 0xA0 SHL SUB AND CALLER PUSH1 0x1 PUSH1 0x1 PUSH1 0xA0 SHL SUB AND PUSH32 0xA923DF1773651806246E73E1E43342C4845D608AD54E2606D3C1A50124D66E71 DUP4 PUSH1 0x40 MLOAD PUSH2 0x2DC1 SWAP2 SWAP1 PUSH2 0x5929 JUMP JUMPDEST PUSH2 0x3D87 PUSH1 0x0 DUP1 MLOAD PUSH1 0x20 PUSH2 0x652E DUP4 CODECOPY DUP2 MLOAD SWAP2 MSTORE CALLER PUSH2 0x275D JUMP JUMPDEST PUSH2 0x3DA3 JUMPI PUSH1 0x40 MLOAD PUSH3 0x461BCD PUSH1 0xE5 SHL DUP2 MSTORE PUSH1 0x4 ADD PUSH2 0xD50 SWAP1 PUSH2 0x5F6E JUMP JUMPDEST PUSH1 0x0 PUSH1 0x18 SLOAD PUSH1 0xFF AND PUSH1 0x4 DUP2 GT ISZERO PUSH2 0x3DBC JUMPI PUSH2 0x3DBC PUSH2 0x5AAA JUMP JUMPDEST EQ PUSH2 0x3E13 JUMPI PUSH1 0x40 MLOAD PUSH3 0x461BCD PUSH1 0xE5 SHL DUP2 MSTORE PUSH1 0x20 PUSH1 0x4 DUP3 ADD MSTORE PUSH1 0x21 PUSH1 0x24 DUP3 ADD MSTORE PUSH32 0x52656769737465722073686F756C6420626520696E2044726166742073746174 PUSH1 0x44 DUP3 ADD MSTORE PUSH1 0x65 PUSH1 0xF8 SHL PUSH1 0x64 DUP3 ADD MSTORE PUSH1 0x84 ADD PUSH2 0xD50 JUMP JUMPDEST PUSH1 0x1B SLOAD PUSH2 0x3E62 JUMPI PUSH1 0x40 MLOAD PUSH3 0x461BCD PUSH1 0xE5 SHL DUP2 MSTORE PUSH1 0x20 PUSH1 0x4 DUP3 ADD MSTORE PUSH1 0x1E PUSH1 0x24 DUP3 ADD MSTORE PUSH32 0x657870656374656420737570706C792063616E6E6F74206265207A65726F0000 PUSH1 0x44 DUP3 ADD MSTORE PUSH1 0x64 ADD PUSH2 0xD50 JUMP JUMPDEST PUSH1 0x24 SLOAD PUSH1 0x1 PUSH1 0x1 PUSH1 0xA0 SHL SUB AND PUSH2 0x3E8A JUMPI PUSH1 0x40 MLOAD PUSH3 0x461BCD PUSH1 0xE5 SHL DUP2 MSTORE PUSH1 0x4 ADD PUSH2 0xD50 SWAP1 PUSH2 0x6351 JUMP JUMPDEST PUSH1 0x24 SLOAD PUSH1 0x1B SLOAD PUSH2 0x3EA3 SWAP2 PUSH1 0x1 PUSH1 0x1 PUSH1 0xA0 SHL SUB AND SWAP1 PUSH2 0x4C78 JUMP JUMPDEST PUSH1 0x18 DUP1 SLOAD PUSH1 0x1 SWAP2 SWAP1 PUSH1 0xFF NOT AND DUP3 DUP1 PUSH2 0x3753 JUMP JUMPDEST PUSH2 0x3ECE PUSH1 0x0 DUP1 MLOAD PUSH1 0x20 PUSH2 0x652E DUP4 CODECOPY DUP2 MLOAD SWAP2 MSTORE CALLER PUSH2 0x275D JUMP JUMPDEST DUP1 PUSH2 0x3EEC JUMPI POP PUSH2 0x3EEC PUSH1 0x0 DUP1 MLOAD PUSH1 0x20 PUSH2 0x650E DUP4 CODECOPY DUP2 MLOAD SWAP2 MSTORE CALLER PUSH2 0x275D JUMP JUMPDEST DUP1 PUSH2 0x3EFB JUMPI POP PUSH2 0x3EFB CALLER PUSH2 0x33F7 JUMP JUMPDEST DUP1 PUSH2 0x3F0A JUMPI POP PUSH2 0x3F0A CALLER PUSH2 0x221B JUMP JUMPDEST PUSH2 0x3F26 JUMPI PUSH1 0x40 MLOAD PUSH3 0x461BCD PUSH1 0xE5 SHL DUP2 MSTORE PUSH1 0x4 ADD PUSH2 0xD50 SWAP1 PUSH2 0x6263 JUMP JUMPDEST PUSH1 0x0 DUP4 DUP2 MSTORE PUSH1 0x15 PUSH1 0x20 SWAP1 DUP2 MSTORE PUSH1 0x40 DUP1 DUP4 KECCAK256 DUP2 MLOAD PUSH2 0x180 DUP2 ADD DUP4 MSTORE DUP2 SLOAD PUSH1 0x1 PUSH1 0x1 PUSH1 0xA0 SHL SUB SWAP1 DUP2 AND DUP3 MSTORE PUSH1 0x1 DUP4 ADD SLOAD AND DUP2 DUP6 ADD MSTORE PUSH1 0x2 DUP3 ADD SLOAD DUP2 DUP5 ADD MSTORE PUSH1 0x3 DUP3 ADD SLOAD PUSH1 0x60 DUP1 DUP4 ADD SWAP2 SWAP1 SWAP2 MSTORE PUSH1 0x4 DUP1 DUP5 ADD SLOAD PUSH1 0x80 DUP1 DUP6 ADD SWAP2 SWAP1 SWAP2 MSTORE PUSH1 0x5 DUP6 ADD SLOAD PUSH1 0xA0 DUP6 ADD MSTORE PUSH1 0x6 DUP6 ADD SLOAD PUSH1 0xC0 DUP6 ADD MSTORE PUSH1 0x7 DUP6 ADD SLOAD PUSH1 0xE0 DUP6 ADD MSTORE PUSH1 0x8 DUP6 ADD SLOAD PUSH2 0x100 DUP6 ADD MSTORE PUSH1 0x9 DUP6 ADD SLOAD PUSH2 0x120 DUP6 ADD MSTORE DUP6 MLOAD SWAP1 DUP2 ADD DUP7 MSTORE PUSH1 0xA DUP6 ADD SLOAD DUP2 MSTORE PUSH1 0xB DUP6 ADD SLOAD SWAP7 DUP2 ADD SWAP7 SWAP1 SWAP7 MSTORE PUSH1 0xC DUP5 ADD SLOAD SWAP5 DUP7 ADD SWAP5 SWAP1 SWAP5 MSTORE PUSH1 0xD DUP4 ADD SLOAD SWAP1 DUP6 ADD MSTORE PUSH2 0x140 DUP2 ADD SWAP4 SWAP1 SWAP4 MSTORE PUSH1 0xE DUP2 ADD SLOAD SWAP1 SWAP2 PUSH2 0x160 DUP5 ADD SWAP2 PUSH1 0xFF AND SWAP1 DUP2 GT ISZERO PUSH2 0x400B JUMPI PUSH2 0x400B PUSH2 0x5AAA JUMP JUMPDEST PUSH1 0x4 DUP2 GT ISZERO PUSH2 0x401C JUMPI PUSH2 0x401C PUSH2 0x5AAA JUMP JUMPDEST SWAP1 MSTORE POP SWAP1 POP PUSH1 0x1 DUP2 PUSH2 0x160 ADD MLOAD PUSH1 0x4 DUP2 GT ISZERO PUSH2 0x403A JUMPI PUSH2 0x403A PUSH2 0x5AAA JUMP JUMPDEST EQ PUSH2 0x4057 JUMPI PUSH1 0x40 MLOAD PUSH3 0x461BCD PUSH1 0xE5 SHL DUP2 MSTORE PUSH1 0x4 ADD PUSH2 0xD50 SWAP1 PUSH2 0x6292 JUMP JUMPDEST PUSH2 0x406F PUSH1 0x0 DUP1 MLOAD PUSH1 0x20 PUSH2 0x652E DUP4 CODECOPY DUP2 MLOAD SWAP2 MSTORE CALLER PUSH2 0x275D JUMP JUMPDEST DUP1 PUSH2 0x407E JUMPI POP DUP1 PUSH2 0x100 ADD MLOAD TIMESTAMP GT JUMPDEST PUSH2 0x40DB JUMPI PUSH1 0x40 MLOAD PUSH3 0x461BCD PUSH1 0xE5 SHL DUP2 MSTORE PUSH1 0x20 PUSH1 0x4 DUP3 ADD MSTORE PUSH1 0x28 PUSH1 0x24 DUP3 ADD MSTORE PUSH32 0x43616E6E6F7420666F7263652063616E63656C206265666F72652064656C6976 PUSH1 0x44 DUP3 ADD MSTORE PUSH8 0x6572792064617465 PUSH1 0xC0 SHL PUSH1 0x64 DUP3 ADD MSTORE PUSH1 0x84 ADD PUSH2 0xD50 JUMP JUMPDEST PUSH2 0x40F3 PUSH1 0x0 DUP1 MLOAD PUSH1 0x20 PUSH2 0x652E DUP4 CODECOPY DUP2 MLOAD SWAP2 MSTORE CALLER PUSH2 0x275D JUMP JUMPDEST DUP1 PUSH2 0x416F JUMPI POP DUP1 PUSH1 0xE0 ADD MLOAD PUSH1 0x2 DUP5 PUSH1 0x40 MLOAD PUSH1 0x20 ADD PUSH2 0x4113 SWAP2 DUP2 MSTORE PUSH1 0x20 ADD SWAP1 JUMP JUMPDEST PUSH1 0x40 DUP1 MLOAD PUSH1 0x1F NOT DUP2 DUP5 SUB ADD DUP2 MSTORE SWAP1 DUP3 SWAP1 MSTORE PUSH2 0x412D SWAP2 PUSH2 0x62D6 JUMP JUMPDEST PUSH1 0x20 PUSH1 0x40 MLOAD DUP1 DUP4 SUB DUP2 DUP6 GAS STATICCALL ISZERO DUP1 ISZERO PUSH2 0x414A JUMPI RETURNDATASIZE PUSH1 0x0 DUP1 RETURNDATACOPY RETURNDATASIZE PUSH1 0x0 REVERT JUMPDEST POP POP POP PUSH1 0x40 MLOAD RETURNDATASIZE PUSH1 0x1F NOT PUSH1 0x1F DUP3 ADD AND DUP3 ADD DUP1 PUSH1 0x40 MSTORE POP DUP2 ADD SWAP1 PUSH2 0x416D SWAP2 SWAP1 PUSH2 0x62F2 JUMP JUMPDEST EQ JUMPDEST PUSH2 0x41BB JUMPI PUSH1 0x40 MLOAD PUSH3 0x461BCD PUSH1 0xE5 SHL DUP2 MSTORE PUSH1 0x20 PUSH1 0x4 DUP3 ADD MSTORE PUSH1 0x1C PUSH1 0x24 DUP3 ADD MSTORE PUSH32 0x496E76616C696420666F7263652072656C656173652073656372657400000000 PUSH1 0x44 DUP3 ADD MSTORE PUSH1 0x64 ADD PUSH2 0xD50 JUMP JUMPDEST PUSH1 0x4 PUSH2 0x160 DUP3 ADD MSTORE PUSH1 0x40 DUP1 DUP3 ADD MLOAD DUP3 MLOAD PUSH1 0x1 PUSH1 0x1 PUSH1 0xA0 SHL SUB AND PUSH1 0x0 SWAP1 DUP2 MSTORE PUSH1 0x14 PUSH1 0x20 MSTORE SWAP2 DUP3 KECCAK256 DUP1 SLOAD SWAP2 SWAP3 SWAP1 SWAP2 PUSH2 0x41F2 SWAP1 DUP5 SWAP1 PUSH2 0x5FFA JUMP JUMPDEST SWAP1 SWAP2 SSTORE POP POP PUSH1 0x0 DUP5 DUP2 MSTORE PUSH1 0x15 PUSH1 0x20 MSTORE PUSH1 0x40 SWAP1 DUP2 SWAP1 KECCAK256 PUSH1 0xA DUP2 ADD DUP5 SWAP1 SSTORE PUSH1 0xD ADD DUP5 SWAP1 SSTORE PUSH1 0x80 DUP3 ADD MLOAD SWAP1 MLOAD DUP6 SWAP1 PUSH32 0x1A8CBA02F5D013FEA67ADA9F32246816EEF8D429321E769EB3BDB1A0CCC7A284 SWAP1 PUSH2 0x1AD3 SWAP1 PUSH1 0x4 SWAP1 PUSH2 0x5ADE JUMP JUMPDEST PUSH1 0x0 PUSH2 0xD16 PUSH1 0x0 DUP1 MLOAD PUSH1 0x20 PUSH2 0x64AE DUP4 CODECOPY DUP2 MLOAD SWAP2 MSTORE DUP4 PUSH2 0x275D JUMP JUMPDEST PUSH2 0xCEE PUSH1 0x0 DUP1 MLOAD PUSH1 0x20 PUSH2 0x64AE DUP4 CODECOPY DUP2 MLOAD SWAP2 MSTORE DUP3 PUSH2 0x3783 JUMP JUMPDEST PUSH2 0xCEE PUSH1 0x0 DUP1 MLOAD PUSH1 0x20 PUSH2 0x64CE DUP4 CODECOPY DUP2 MLOAD SWAP2 MSTORE DUP3 PUSH2 0x156E JUMP JUMPDEST PUSH1 0x0 PUSH1 0x1 PUSH1 0x1 PUSH1 0xE0 SHL SUB NOT DUP3 AND PUSH4 0x7965DB0B PUSH1 0xE0 SHL EQ DUP1 PUSH2 0xD16 JUMPI POP PUSH4 0x1FFC9A7 PUSH1 0xE0 SHL PUSH1 0x1 PUSH1 0x1 PUSH1 0xE0 SHL SUB NOT DUP4 AND EQ PUSH2 0xD16 JUMP JUMPDEST PUSH2 0x42D4 DUP3 DUP3 PUSH2 0x4E60 JUMP JUMPDEST PUSH1 0x0 DUP3 DUP2 MSTORE PUSH1 0x1 PUSH1 0x20 MSTORE PUSH1 0x40 SWAP1 KECCAK256 PUSH2 0x1E7A SWAP1 DUP3 PUSH2 0x4EC5 JUMP JUMPDEST PUSH2 0xCEE DUP2 CALLER PUSH2 0x4EDA JUMP JUMPDEST PUSH1 0x1 PUSH1 0x1 PUSH1 0xA0 SHL SUB DUP4 AND PUSH2 0x435A JUMPI PUSH1 0x40 MLOAD PUSH3 0x461BCD PUSH1 0xE5 SHL DUP2 MSTORE PUSH1 0x20 PUSH1 0x4 DUP3 ADD MSTORE PUSH1 0x25 PUSH1 0x24 DUP3 ADD MSTORE PUSH32 0x45524332303A207472616E736665722066726F6D20746865207A65726F206164 PUSH1 0x44 DUP3 ADD MSTORE PUSH5 0x6472657373 PUSH1 0xD8 SHL PUSH1 0x64 DUP3 ADD MSTORE PUSH1 0x84 ADD PUSH2 0xD50 JUMP JUMPDEST PUSH1 0x1 PUSH1 0x1 PUSH1 0xA0 SHL SUB DUP3 AND PUSH2 0x43BC JUMPI PUSH1 0x40 MLOAD PUSH3 0x461BCD PUSH1 0xE5 SHL DUP2 MSTORE PUSH1 0x20 PUSH1 0x4 DUP3 ADD MSTORE PUSH1 0x23 PUSH1 0x24 DUP3 ADD MSTORE PUSH32 0x45524332303A207472616E7366657220746F20746865207A65726F2061646472 PUSH1 0x44 DUP3 ADD MSTORE PUSH3 0x657373 PUSH1 0xE8 SHL PUSH1 0x64 DUP3 ADD MSTORE PUSH1 0x84 ADD PUSH2 0xD50 JUMP JUMPDEST PUSH2 0x43C7 DUP4 DUP4 DUP4 PUSH2 0x4F33 JUMP JUMPDEST PUSH1 0x1 PUSH1 0x1 PUSH1 0xA0 SHL SUB DUP4 AND PUSH1 0x0 SWAP1 DUP2 MSTORE PUSH1 0x5 PUSH1 0x20 MSTORE PUSH1 0x40 SWAP1 KECCAK256 SLOAD DUP2 DUP2 LT ISZERO PUSH2 0x443F JUMPI PUSH1 0x40 MLOAD PUSH3 0x461BCD PUSH1 0xE5 SHL DUP2 MSTORE PUSH1 0x20 PUSH1 0x4 DUP3 ADD MSTORE PUSH1 0x26 PUSH1 0x24 DUP3 ADD MSTORE PUSH32 0x45524332303A207472616E7366657220616D6F756E7420657863656564732062 PUSH1 0x44 DUP3 ADD MSTORE PUSH6 0x616C616E6365 PUSH1 0xD0 SHL PUSH1 0x64 DUP3 ADD MSTORE PUSH1 0x84 ADD PUSH2 0xD50 JUMP JUMPDEST PUSH1 0x1 PUSH1 0x1 PUSH1 0xA0 SHL SUB DUP1 DUP6 AND PUSH1 0x0 DUP2 DUP2 MSTORE PUSH1 0x5 PUSH1 0x20 MSTORE PUSH1 0x40 DUP1 DUP3 KECCAK256 DUP7 DUP7 SUB SWAP1 SSTORE SWAP3 DUP7 AND DUP1 DUP3 MSTORE SWAP1 DUP4 SWAP1 KECCAK256 DUP1 SLOAD DUP7 ADD SWAP1 SSTORE SWAP2 MLOAD PUSH32 0xDDF252AD1BE2C89B69C2B068FC378DAA952BA7F163C4A11628F55A4DF523B3EF SWAP1 PUSH2 0x1AD3 SWAP1 DUP7 DUP2 MSTORE PUSH1 0x20 ADD SWAP1 JUMP JUMPDEST POP POP POP POP JUMP JUMPDEST PUSH1 0x17 DUP1 SLOAD PUSH1 0x1 DUP1 DUP3 ADD SWAP1 SWAP3 SSTORE PUSH32 0xC624B66CC0138B8FABC209247F72D758E1CF3343756D543BADBF24212BED8C15 DUP2 ADD DUP1 SLOAD PUSH1 0x1 PUSH1 0x1 PUSH1 0xA0 SHL SUB NOT SWAP1 DUP2 AND PUSH1 0x1 PUSH1 0x1 PUSH1 0xA0 SHL SUB SWAP8 DUP9 AND SWAP1 DUP2 OR SWAP1 SWAP3 SSTORE PUSH1 0x0 DUP3 DUP2 MSTORE PUSH1 0x16 PUSH1 0x20 MSTORE PUSH1 0x40 SWAP1 KECCAK256 SWAP4 DUP5 ADD SWAP3 SWAP1 SWAP3 SSTORE DUP3 SLOAD PUSH1 0x2 DUP5 ADD DUP1 SLOAD SWAP1 SWAP4 AND SWAP6 SWAP1 SWAP7 AND SWAP5 SWAP1 SWAP5 OR SWAP1 SSTORE PUSH1 0x1 PUSH1 0x1 PUSH1 0xA8 SHL SUB NOT SWAP1 SWAP4 AND SWAP1 SWAP2 OR PUSH1 0x1 PUSH1 0xA0 SHL SWAP2 ISZERO ISZERO SWAP2 SWAP1 SWAP2 MUL OR SWAP1 SSTORE JUMP JUMPDEST PUSH2 0x4547 DUP3 DUP3 PUSH2 0x500F JUMP JUMPDEST PUSH1 0x0 DUP3 DUP2 MSTORE PUSH1 0x1 PUSH1 0x20 MSTORE PUSH1 0x40 SWAP1 KECCAK256 PUSH2 0x1E7A SWAP1 DUP3 PUSH2 0x5093 JUMP JUMPDEST PUSH1 0x0 DUP1 JUMPDEST PUSH1 0x22 SLOAD DUP2 LT ISZERO PUSH2 0x228C JUMPI DUP3 PUSH1 0x19 PUSH1 0x9 ADD DUP3 DUP2 SLOAD DUP2 LT PUSH2 0x4584 JUMPI PUSH2 0x4584 PUSH2 0x5FCE JUMP JUMPDEST SWAP1 PUSH1 0x0 MSTORE PUSH1 0x20 PUSH1 0x0 KECCAK256 ADD SLOAD SUB PUSH2 0x45E2 JUMPI PUSH1 0x22 SLOAD PUSH2 0x45A2 DUP3 PUSH1 0x1 PUSH2 0x6250 JUMP JUMPDEST LT ISZERO PUSH2 0x45D8 JUMPI PUSH1 0x22 PUSH2 0x45B5 DUP3 PUSH1 0x1 PUSH2 0x6250 JUMP JUMPDEST DUP2 SLOAD DUP2 LT PUSH2 0x45C5 JUMPI PUSH2 0x45C5 PUSH2 0x5FCE JUMP JUMPDEST SWAP1 PUSH1 0x0 MSTORE PUSH1 0x20 PUSH1 0x0 KECCAK256 ADD SLOAD SWAP2 POP POP SWAP2 SWAP1 POP JUMP JUMPDEST POP POP PUSH1 0x21 SLOAD SWAP2 SWAP1 POP JUMP JUMPDEST DUP1 PUSH2 0x45EC DUP2 PUSH2 0x630B JUMP JUMPDEST SWAP2 POP POP PUSH2 0x4563 JUMP JUMPDEST PUSH1 0x0 PUSH2 0x4601 DUP4 PUSH1 0x0 PUSH2 0x50A8 JUMP JUMPDEST SWAP1 POP DUP4 DUP2 GT ISZERO PUSH2 0x466F JUMPI PUSH1 0x40 MLOAD PUSH3 0x461BCD PUSH1 0xE5 SHL DUP2 MSTORE PUSH1 0x20 PUSH1 0x4 DUP3 ADD MSTORE PUSH1 0x33 PUSH1 0x24 DUP3 ADD MSTORE PUSH32 0x746865207265636F726420646174652063616E6E6F7420626520616674657220 PUSH1 0x44 DUP3 ADD MSTORE PUSH19 0x74686520736574746C656D656E742064617465 PUSH1 0x68 SHL PUSH1 0x64 DUP3 ADD MSTORE PUSH1 0x84 ADD PUSH2 0xD50 JUMP JUMPDEST DUP2 ISZERO DUP1 PUSH2 0x467B JUMPI POP DUP4 DUP3 GT JUMPDEST PUSH2 0x46ED JUMPI PUSH1 0x40 MLOAD PUSH3 0x461BCD PUSH1 0xE5 SHL DUP2 MSTORE PUSH1 0x20 PUSH1 0x4 DUP3 ADD MSTORE PUSH1 0x3C PUSH1 0x24 DUP3 ADD MSTORE PUSH32 0x696E76616C6964206E6578742064617465207768656E2073657474696E672074 PUSH1 0x44 DUP3 ADD MSTORE PUSH32 0x68652063757272656E7420736E617073686F74206461746574696D6500000000 PUSH1 0x64 DUP3 ADD MSTORE PUSH1 0x84 ADD PUSH2 0xD50 JUMP JUMPDEST PUSH1 0x0 PUSH2 0x46FA DUP6 PUSH1 0x0 PUSH2 0x50A8 JUMP JUMPDEST SWAP1 POP DUP3 DUP1 ISZERO PUSH2 0x4710 JUMPI PUSH2 0x470D DUP2 DUP7 PUSH2 0x50A8 JUMP JUMPDEST SWAP1 POP JUMPDEST PUSH1 0x0 DUP3 DUP2 MSTORE PUSH1 0xE PUSH1 0x20 MSTORE PUSH1 0x40 SWAP1 KECCAK256 SLOAD ISZERO PUSH2 0x477D JUMPI PUSH1 0x40 MLOAD PUSH3 0x461BCD PUSH1 0xE5 SHL DUP2 MSTORE PUSH1 0x20 PUSH1 0x4 DUP3 ADD MSTORE PUSH1 0x28 PUSH1 0x24 DUP3 ADD MSTORE PUSH32 0x44617465206F6620636F75706F6E206F72206D6174757269747920616C726561 PUSH1 0x44 DUP3 ADD MSTORE PUSH8 0x323C903A30B5B2B7 PUSH1 0xC1 SHL PUSH1 0x64 DUP3 ADD MSTORE PUSH1 0x84 ADD PUSH2 0xD50 JUMP JUMPDEST DUP5 TIMESTAMP LT PUSH2 0x47F2 JUMPI PUSH1 0x40 MLOAD PUSH3 0x461BCD PUSH1 0xE5 SHL DUP2 MSTORE PUSH1 0x20 PUSH1 0x4 DUP3 ADD MSTORE PUSH1 0x3D PUSH1 0x24 DUP3 ADD MSTORE PUSH32 0x796F75206861766520746F20646566696E652061206E657720706572696F6420 PUSH1 0x44 DUP3 ADD MSTORE PUSH32 0x656E64696E67206166746572207468652063757272656E742074696D65000000 PUSH1 0x64 DUP3 ADD MSTORE PUSH1 0x84 ADD PUSH2 0xD50 JUMP JUMPDEST PUSH2 0x47FA PUSH2 0x50DF JUMP JUMPDEST POP PUSH1 0xF DUP6 SWAP1 SSTORE PUSH1 0x11 DUP3 SWAP1 SSTORE PUSH1 0x10 DUP2 SWAP1 SSTORE PUSH1 0x40 MLOAD DUP2 SWAP1 DUP7 SWAP1 DUP5 SWAP1 PUSH32 0x4D1D74D5CBFC13E02EF05AF3A30D8721E87A00D20BC3DC42198917139944DEF3 SWAP1 PUSH1 0x0 SWAP1 LOG4 POP POP POP POP POP POP JUMP JUMPDEST PUSH1 0x0 DUP1 PUSH1 0x0 JUMPDEST PUSH1 0x22 SLOAD DUP2 LT ISZERO PUSH2 0x48C6 JUMPI DUP4 PUSH1 0x19 PUSH1 0x9 ADD DUP3 DUP2 SLOAD DUP2 LT PUSH2 0x4868 JUMPI PUSH2 0x4868 PUSH2 0x5FCE JUMP JUMPDEST SWAP1 PUSH1 0x0 MSTORE PUSH1 0x20 PUSH1 0x0 KECCAK256 ADD SLOAD SUB PUSH2 0x4882 JUMPI SWAP4 PUSH1 0x1 SWAP4 POP SWAP2 POP POP JUMP JUMPDEST DUP4 PUSH1 0x19 PUSH1 0x9 ADD DUP3 DUP2 SLOAD DUP2 LT PUSH2 0x4899 JUMPI PUSH2 0x4899 PUSH2 0x5FCE JUMP JUMPDEST SWAP1 PUSH1 0x0 MSTORE PUSH1 0x20 PUSH1 0x0 KECCAK256 ADD SLOAD GT ISZERO PUSH2 0x48B4 JUMPI SWAP4 PUSH1 0x0 SWAP4 POP SWAP2 POP POP JUMP JUMPDEST DUP1 PUSH2 0x48BE DUP2 PUSH2 0x630B JUMP JUMPDEST SWAP2 POP POP PUSH2 0x4847 JUMP JUMPDEST POP POP PUSH1 0x22 SLOAD SWAP3 PUSH1 0x0 SWAP3 POP SWAP1 POP JUMP JUMPDEST PUSH1 0x0 PUSH2 0x48E1 TIMESTAMP PUSH1 0x0 PUSH2 0x50A8 JUMP JUMPDEST DUP3 GT DUP1 ISZERO PUSH2 0xD16 JUMPI POP POP PUSH1 0x0 SWAP1 DUP2 MSTORE PUSH1 0xE PUSH1 0x20 MSTORE PUSH1 0x40 SWAP1 KECCAK256 SLOAD ISZERO SWAP1 JUMP JUMPDEST PUSH1 0x0 PUSH2 0x4909 TIMESTAMP PUSH2 0x4841 JUMP JUMPDEST POP PUSH1 0x22 SLOAD SWAP1 SWAP2 POP PUSH1 0x0 SWAP1 DUP2 SWAP1 DUP4 LT ISZERO PUSH2 0x498B JUMPI PUSH1 0x22 DUP1 SLOAD DUP5 SWAP1 DUP2 LT PUSH2 0x4930 JUMPI PUSH2 0x4930 PUSH2 0x5FCE JUMP JUMPDEST PUSH1 0x0 SWAP2 DUP3 MSTORE PUSH1 0x20 SWAP1 SWAP2 KECCAK256 ADD SLOAD PUSH1 0x22 SLOAD SWAP1 SWAP3 POP PUSH2 0x494D DUP5 PUSH1 0x1 PUSH2 0x6250 JUMP JUMPDEST LT ISZERO PUSH2 0x4982 JUMPI PUSH1 0x22 PUSH2 0x4960 DUP5 PUSH1 0x1 PUSH2 0x6250 JUMP JUMPDEST DUP2 SLOAD DUP2 LT PUSH2 0x4970 JUMPI PUSH2 0x4970 PUSH2 0x5FCE JUMP JUMPDEST SWAP1 PUSH1 0x0 MSTORE PUSH1 0x20 PUSH1 0x0 KECCAK256 ADD SLOAD SWAP1 POP PUSH2 0x4993 JUMP JUMPDEST POP PUSH1 0x21 SLOAD PUSH2 0x4993 JUMP JUMPDEST POP POP PUSH1 0x21 SLOAD PUSH1 0x0 JUMPDEST PUSH1 0x23 SLOAD PUSH2 0x449F SWAP1 DUP4 SWAP1 PUSH2 0x49A6 SWAP1 DUP3 PUSH2 0x6250 JUMP JUMPDEST DUP4 PUSH2 0x51A4 JUMP JUMPDEST PUSH1 0x12 SLOAD PUSH1 0x0 SWAP1 PUSH1 0xFF AND ISZERO PUSH2 0x4A0D JUMPI PUSH1 0x40 MLOAD PUSH3 0x461BCD PUSH1 0xE5 SHL DUP2 MSTORE PUSH1 0x20 PUSH1 0x4 DUP3 ADD MSTORE PUSH1 0x22 PUSH1 0x24 DUP3 ADD MSTORE PUSH32 0x666F72636520666C616720616C7265616479207365742C20636865636B20636F PUSH1 0x44 DUP3 ADD MSTORE PUSH2 0x6465 PUSH1 0xF0 SHL PUSH1 0x64 DUP3 ADD MSTORE PUSH1 0x84 ADD PUSH2 0xD50 JUMP JUMPDEST POP PUSH1 0x12 DUP1 SLOAD PUSH1 0xFF NOT AND PUSH1 0x1 SWAP1 DUP2 OR SWAP1 SWAP2 SSTORE SWAP1 JUMP JUMPDEST PUSH1 0x1 PUSH1 0x1 PUSH1 0xA0 SHL SUB DUP3 AND PUSH2 0x4A81 JUMPI PUSH1 0x40 MLOAD PUSH3 0x461BCD PUSH1 0xE5 SHL DUP2 MSTORE PUSH1 0x20 PUSH1 0x4 DUP3 ADD MSTORE PUSH1 0x21 PUSH1 0x24 DUP3 ADD MSTORE PUSH32 0x45524332303A206275726E2066726F6D20746865207A65726F20616464726573 PUSH1 0x44 DUP3 ADD MSTORE PUSH1 0x73 PUSH1 0xF8 SHL PUSH1 0x64 DUP3 ADD MSTORE PUSH1 0x84 ADD PUSH2 0xD50 JUMP JUMPDEST PUSH2 0x4A8D DUP3 PUSH1 0x0 DUP4 PUSH2 0x4F33 JUMP JUMPDEST PUSH1 0x1 PUSH1 0x1 PUSH1 0xA0 SHL SUB DUP3 AND PUSH1 0x0 SWAP1 DUP2 MSTORE PUSH1 0x5 PUSH1 0x20 MSTORE PUSH1 0x40 SWAP1 KECCAK256 SLOAD DUP2 DUP2 LT ISZERO PUSH2 0x4B01 JUMPI PUSH1 0x40 MLOAD PUSH3 0x461BCD PUSH1 0xE5 SHL DUP2 MSTORE PUSH1 0x20 PUSH1 0x4 DUP3 ADD MSTORE PUSH1 0x22 PUSH1 0x24 DUP3 ADD MSTORE PUSH32 0x45524332303A206275726E20616D6F756E7420657863656564732062616C616E PUSH1 0x44 DUP3 ADD MSTORE PUSH2 0x6365 PUSH1 0xF0 SHL PUSH1 0x64 DUP3 ADD MSTORE PUSH1 0x84 ADD PUSH2 0xD50 JUMP JUMPDEST PUSH1 0x1 PUSH1 0x1 PUSH1 0xA0 SHL SUB DUP4 AND PUSH1 0x0 DUP2 DUP2 MSTORE PUSH1 0x5 PUSH1 0x20 SWAP1 DUP2 MSTORE PUSH1 0x40 DUP1 DUP4 KECCAK256 DUP7 DUP7 SUB SWAP1 SSTORE PUSH1 0x7 DUP1 SLOAD DUP8 SWAP1 SUB SWAP1 SSTORE MLOAD DUP6 DUP2 MSTORE SWAP2 SWAP3 SWAP2 PUSH32 0xDDF252AD1BE2C89B69C2B068FC378DAA952BA7F163C4A11628F55A4DF523B3EF SWAP2 ADD PUSH1 0x40 MLOAD DUP1 SWAP2 SUB SWAP1 LOG3 POP POP POP JUMP JUMPDEST PUSH1 0x0 DUP1 PUSH1 0x0 DUP5 GT PUSH2 0x4BAD JUMPI PUSH1 0x40 MLOAD PUSH3 0x461BCD PUSH1 0xE5 SHL DUP2 MSTORE PUSH1 0x20 PUSH1 0x4 DUP3 ADD MSTORE PUSH1 0x16 PUSH1 0x24 DUP3 ADD MSTORE PUSH22 0x4552433230536E617073686F743A206964206973203 PUSH1 0x54 SHL PUSH1 0x44 DUP3 ADD MSTORE PUSH1 0x64 ADD PUSH2 0xD50 JUMP JUMPDEST PUSH2 0x4BB5 PUSH2 0x51E1 JUMP JUMPDEST DUP5 GT ISZERO PUSH2 0x4C04 JUMPI PUSH1 0x40 MLOAD PUSH3 0x461BCD PUSH1 0xE5 SHL DUP2 MSTORE PUSH1 0x20 PUSH1 0x4 DUP3 ADD MSTORE PUSH1 0x1D PUSH1 0x24 DUP3 ADD MSTORE PUSH32 0x4552433230536E617073686F743A206E6F6E6578697374656E74206964000000 PUSH1 0x44 DUP3 ADD MSTORE PUSH1 0x64 ADD PUSH2 0xD50 JUMP JUMPDEST PUSH1 0x0 PUSH2 0x4C10 DUP5 DUP7 PUSH2 0x51EC JUMP JUMPDEST DUP5 SLOAD SWAP1 SWAP2 POP DUP2 SUB PUSH2 0x4C28 JUMPI PUSH1 0x0 DUP1 SWAP3 POP SWAP3 POP POP PUSH2 0x4C50 JUMP JUMPDEST PUSH1 0x1 DUP5 PUSH1 0x1 ADD DUP3 DUP2 SLOAD DUP2 LT PUSH2 0x4C3F JUMPI PUSH2 0x4C3F PUSH2 0x5FCE JUMP JUMPDEST SWAP1 PUSH1 0x0 MSTORE PUSH1 0x20 PUSH1 0x0 KECCAK256 ADD SLOAD SWAP3 POP SWAP3 POP POP JUMPDEST SWAP3 POP SWAP3 SWAP1 POP JUMP JUMPDEST PUSH1 0x0 PUSH2 0x4C64 TIMESTAMP PUSH1 0x0 PUSH2 0x50A8 JUMP JUMPDEST SWAP1 SWAP2 GT SWAP2 SWAP1 POP JUMP JUMPDEST PUSH1 0x0 PUSH2 0x1567 DUP4 DUP4 PUSH2 0x528D JUMP JUMPDEST PUSH1 0x1 PUSH1 0x1 PUSH1 0xA0 SHL SUB DUP3 AND PUSH2 0x4CCE JUMPI PUSH1 0x40 MLOAD PUSH3 0x461BCD PUSH1 0xE5 SHL DUP2 MSTORE PUSH1 0x20 PUSH1 0x4 DUP3 ADD MSTORE PUSH1 0x1F PUSH1 0x24 DUP3 ADD MSTORE PUSH32 0x45524332303A206D696E7420746F20746865207A65726F206164647265737300 PUSH1 0x44 DUP3 ADD MSTORE PUSH1 0x64 ADD PUSH2 0xD50 JUMP JUMPDEST PUSH2 0x4CDA PUSH1 0x0 DUP4 DUP4 PUSH2 0x4F33 JUMP JUMPDEST DUP1 PUSH1 0x7 PUSH1 0x0 DUP3 DUP3 SLOAD PUSH2 0x4CEC SWAP2 SWAP1 PUSH2 0x6250 JUMP JUMPDEST SWAP1 SWAP2 SSTORE POP POP PUSH1 0x1 PUSH1 0x1 PUSH1 0xA0 SHL SUB DUP3 AND PUSH1 0x0 DUP2 DUP2 MSTORE PUSH1 0x5 PUSH1 0x20 SWAP1 DUP2 MSTORE PUSH1 0x40 DUP1 DUP4 KECCAK256 DUP1 SLOAD DUP7 ADD SWAP1 SSTORE MLOAD DUP5 DUP2 MSTORE PUSH32 0xDDF252AD1BE2C89B69C2B068FC378DAA952BA7F163C4A11628F55A4DF523B3EF SWAP2 ADD PUSH1 0x40 MLOAD DUP1 SWAP2 SUB SWAP1 LOG3 POP POP JUMP JUMPDEST PUSH1 0x0 PUSH2 0xD16 DUP3 SLOAD SWAP1 JUMP JUMPDEST PUSH2 0x4D58 DUP3 PUSH2 0x33F7 JUMP JUMPDEST ISZERO PUSH2 0x4D61 JUMPI POP POP JUMP JUMPDEST PUSH1 0x1 PUSH1 0x1 PUSH1 0xA0 SHL SUB DUP3 DUP2 AND PUSH1 0x0 SWAP1 DUP2 MSTORE PUSH1 0x16 PUSH1 0x20 MSTORE PUSH1 0x40 SWAP1 KECCAK256 PUSH1 0x2 ADD SLOAD AND ISZERO DUP1 ISZERO PUSH2 0x4D97 JUMPI PUSH2 0x4D92 DUP4 DUP4 PUSH1 0x1 PUSH2 0x44A5 JUMP JUMPDEST PUSH2 0x4E00 JUMP JUMPDEST PUSH1 0x1 PUSH1 0x1 PUSH1 0xA0 SHL SUB DUP4 DUP2 AND PUSH1 0x0 SWAP1 DUP2 MSTORE PUSH1 0x16 PUSH1 0x20 MSTORE PUSH1 0x40 SWAP1 KECCAK256 PUSH1 0x2 ADD SLOAD DUP2 AND SWAP1 DUP4 AND EQ PUSH2 0x4DD6 JUMPI PUSH1 0x40 MLOAD PUSH3 0x461BCD PUSH1 0xE5 SHL DUP2 MSTORE PUSH1 0x4 ADD PUSH2 0xD50 SWAP1 PUSH2 0x6397 JUMP JUMPDEST PUSH1 0x1 PUSH1 0x1 PUSH1 0xA0 SHL SUB DUP4 AND PUSH1 0x0 SWAP1 DUP2 MSTORE PUSH1 0x16 PUSH1 0x20 MSTORE PUSH1 0x40 SWAP1 KECCAK256 DUP1 SLOAD PUSH1 0xFF PUSH1 0xA0 SHL NOT AND PUSH1 0x1 PUSH1 0xA0 SHL OR SWAP1 SSTORE JUMPDEST PUSH1 0x40 MLOAD PUSH1 0x1 PUSH1 0x1 PUSH1 0xA0 SHL SUB DUP5 AND DUP2 MSTORE PUSH32 0xF96A35A7272AECCA4E6AC04B9ECBC33E3C2655F1FA104A4604D8F50370E6BEB3 SWAP1 PUSH1 0x20 ADD PUSH1 0x40 MLOAD DUP1 SWAP2 SUB SWAP1 LOG1 POP POP POP JUMP JUMPDEST PUSH1 0x0 PUSH2 0x4E5B PUSH1 0x0 DUP1 MLOAD PUSH1 0x20 PUSH2 0x652E DUP4 CODECOPY DUP2 MLOAD SWAP2 MSTORE CALLER PUSH2 0x275D JUMP JUMPDEST SWAP1 POP SWAP1 JUMP JUMPDEST PUSH2 0x4E6A DUP3 DUP3 PUSH2 0x275D JUMP JUMPDEST ISZERO PUSH2 0x169F JUMPI PUSH1 0x0 DUP3 DUP2 MSTORE PUSH1 0x20 DUP2 DUP2 MSTORE PUSH1 0x40 DUP1 DUP4 KECCAK256 PUSH1 0x1 PUSH1 0x1 PUSH1 0xA0 SHL SUB DUP6 AND DUP1 DUP6 MSTORE SWAP3 MSTORE DUP1 DUP4 KECCAK256 DUP1 SLOAD PUSH1 0xFF NOT AND SWAP1 SSTORE MLOAD CALLER SWAP3 DUP6 SWAP2 PUSH32 0xF6391F5C32D9C69D2A47EA670B442974B53935D1EDC7FD64EB21E047A839171B SWAP2 SWAP1 LOG4 POP POP JUMP JUMPDEST PUSH1 0x0 PUSH2 0x1567 DUP4 PUSH1 0x1 PUSH1 0x1 PUSH1 0xA0 SHL SUB DUP5 AND PUSH2 0x52B7 JUMP JUMPDEST PUSH2 0x4EE4 DUP3 DUP3 PUSH2 0x275D JUMP JUMPDEST PUSH2 0x169F JUMPI PUSH2 0x4EF1 DUP2 PUSH2 0x53AA JUMP JUMPDEST PUSH2 0x4EFC DUP4 PUSH1 0x20 PUSH2 0x53BC JUMP JUMPDEST PUSH1 0x40 MLOAD PUSH1 0x20 ADD PUSH2 0x4F0D SWAP3 SWAP2 SWAP1 PUSH2 0x63E3 JUMP JUMPDEST PUSH1 0x40 DUP1 MLOAD PUSH1 0x1F NOT DUP2 DUP5 SUB ADD DUP2 MSTORE SWAP1 DUP3 SWAP1 MSTORE PUSH3 0x461BCD PUSH1 0xE5 SHL DUP3 MSTORE PUSH2 0xD50 SWAP2 PUSH1 0x4 ADD PUSH2 0x5929 JUMP JUMPDEST PUSH1 0x3 PUSH1 0x18 SLOAD PUSH1 0xFF AND PUSH1 0x4 DUP2 GT ISZERO PUSH2 0x4F4C JUMPI PUSH2 0x4F4C PUSH2 0x5AAA JUMP JUMPDEST SUB PUSH2 0x4F92 JUMPI PUSH1 0x40 MLOAD PUSH3 0x461BCD PUSH1 0xE5 SHL DUP2 MSTORE PUSH1 0x20 PUSH1 0x4 DUP3 ADD MSTORE PUSH1 0x16 PUSH1 0x24 DUP3 ADD MSTORE PUSH22 0x1D1A1948149959DA5CDD195C881A5CC818DB1BDCD959 PUSH1 0x52 SHL PUSH1 0x44 DUP3 ADD MSTORE PUSH1 0x64 ADD PUSH2 0xD50 JUMP JUMPDEST PUSH1 0x1 PUSH1 0x1 PUSH1 0xA0 SHL SUB DUP4 AND PUSH1 0x0 SWAP1 DUP2 MSTORE PUSH1 0x14 PUSH1 0x20 MSTORE PUSH1 0x40 SWAP1 KECCAK256 SLOAD PUSH2 0x4FB6 SWAP1 DUP3 SWAP1 PUSH2 0x6250 JUMP JUMPDEST PUSH2 0x4FBF DUP5 PUSH2 0x2240 JUMP JUMPDEST LT ISZERO PUSH2 0x5004 JUMPI PUSH1 0x40 MLOAD PUSH3 0x461BCD PUSH1 0xE5 SHL DUP2 MSTORE PUSH1 0x20 PUSH1 0x4 DUP3 ADD MSTORE PUSH1 0x14 PUSH1 0x24 DUP3 ADD MSTORE PUSH20 0x496E73756666696369656E742062616C616E6365 PUSH1 0x60 SHL PUSH1 0x44 DUP3 ADD MSTORE PUSH1 0x64 ADD PUSH2 0xD50 JUMP JUMPDEST PUSH2 0x1E7A DUP4 DUP4 DUP4 PUSH2 0x5558 JUMP JUMPDEST PUSH2 0x5019 DUP3 DUP3 PUSH2 0x275D JUMP JUMPDEST PUSH2 0x169F JUMPI PUSH1 0x0 DUP3 DUP2 MSTORE PUSH1 0x20 DUP2 DUP2 MSTORE PUSH1 0x40 DUP1 DUP4 KECCAK256 PUSH1 0x1 PUSH1 0x1 PUSH1 0xA0 SHL SUB DUP6 AND DUP5 MSTORE SWAP1 SWAP2 MSTORE SWAP1 KECCAK256 DUP1 SLOAD PUSH1 0xFF NOT AND PUSH1 0x1 OR SWAP1 SSTORE PUSH2 0x504F CALLER SWAP1 JUMP JUMPDEST PUSH1 0x1 PUSH1 0x1 PUSH1 0xA0 SHL SUB AND DUP2 PUSH1 0x1 PUSH1 0x1 PUSH1 0xA0 SHL SUB AND DUP4 PUSH32 0x2F8788117E7EFF1D82E926EC794901D17C78024A50270940304540A733656F0D PUSH1 0x40 MLOAD PUSH1 0x40 MLOAD DUP1 SWAP2 SUB SWAP1 LOG4 POP POP JUMP JUMPDEST PUSH1 0x0 PUSH2 0x1567 DUP4 PUSH1 0x1 PUSH1 0x1 PUSH1 0xA0 SHL SUB DUP5 AND PUSH2 0x567D JUMP JUMPDEST PUSH1 0x0 DUP1 PUSH2 0x50B8 PUSH3 0x15180 DUP6 PUSH2 0x646E JUMP JUMPDEST SWAP1 POP PUSH2 0x50C4 DUP2 DUP6 PUSH2 0x5FFA JUMP JUMPDEST SWAP2 POP PUSH2 0x50D3 PUSH3 0x15180 DUP5 PUSH2 0x646E JUMP JUMPDEST SWAP1 POP PUSH2 0x27F4 DUP2 DUP4 PUSH2 0x6250 JUMP JUMPDEST PUSH1 0x0 DUP1 PUSH1 0xF SLOAD GT DUP1 ISZERO PUSH2 0x5101 JUMPI POP PUSH1 0x11 SLOAD PUSH1 0x0 SWAP1 DUP2 MSTORE PUSH1 0xE PUSH1 0x20 MSTORE PUSH1 0x40 SWAP1 KECCAK256 SLOAD ISZERO JUMPDEST DUP1 ISZERO PUSH2 0x510F JUMPI POP PUSH1 0xF SLOAD TIMESTAMP LT ISZERO JUMPDEST ISZERO PUSH2 0x519E JUMPI PUSH1 0x0 PUSH2 0x511E PUSH2 0x56CC JUMP JUMPDEST PUSH1 0x11 SLOAD PUSH1 0x0 SWAP1 DUP2 MSTORE PUSH1 0xE PUSH1 0x20 MSTORE PUSH1 0x40 SWAP1 KECCAK256 DUP2 SWAP1 SSTORE PUSH1 0x10 SLOAD SWAP1 SWAP2 POP PUSH2 0x5143 JUMPI PUSH1 0x0 PUSH2 0x5151 JUMP JUMPDEST PUSH2 0x5151 PUSH1 0x10 SLOAD PUSH1 0xF SLOAD PUSH2 0x50A8 JUMP JUMPDEST PUSH1 0xF DUP2 SWAP1 SSTORE PUSH2 0x5161 SWAP1 PUSH1 0x0 PUSH2 0x50A8 JUMP JUMPDEST PUSH1 0x11 DUP2 SWAP1 SSTORE PUSH1 0x10 SLOAD PUSH1 0xF SLOAD PUSH1 0x40 MLOAD SWAP2 SWAP3 SWAP1 SWAP2 PUSH32 0x4D1D74D5CBFC13E02EF05AF3A30D8721E87A00D20BC3DC42198917139944DEF3 SWAP1 PUSH1 0x0 SWAP1 LOG4 SWAP2 SWAP1 POP JUMP JUMPDEST POP PUSH1 0x0 SWAP1 JUMP JUMPDEST PUSH1 0x0 PUSH1 0x11 SLOAD DUP5 EQ PUSH2 0x51BF JUMPI PUSH2 0x51BA DUP5 DUP5 DUP5 PUSH2 0x45F4 JUMP JUMPDEST PUSH2 0x30B8 JUMP JUMPDEST PUSH2 0x51CC PUSH1 0x10 SLOAD PUSH1 0x0 PUSH2 0x50A8 JUMP JUMPDEST DUP3 EQ PUSH2 0x30B8 JUMPI PUSH2 0x30B8 PUSH1 0x11 SLOAD PUSH1 0xF SLOAD DUP5 PUSH2 0x45F4 JUMP JUMPDEST PUSH1 0x0 PUSH2 0x4E5B PUSH1 0xD SLOAD SWAP1 JUMP JUMPDEST DUP2 SLOAD PUSH1 0x0 SWAP1 DUP2 SUB PUSH2 0x51FF JUMPI POP PUSH1 0x0 PUSH2 0xD16 JUMP JUMPDEST DUP3 SLOAD PUSH1 0x0 SWAP1 JUMPDEST DUP1 DUP3 LT ISZERO PUSH2 0x5249 JUMPI PUSH1 0x0 PUSH2 0x5219 DUP4 DUP4 PUSH2 0x5726 JUMP JUMPDEST SWAP1 POP DUP5 PUSH2 0x5226 DUP8 DUP4 PUSH2 0x5741 JUMP JUMPDEST SLOAD GT ISZERO PUSH2 0x5235 JUMPI DUP1 SWAP2 POP PUSH2 0x5243 JUMP JUMPDEST PUSH2 0x5240 DUP2 PUSH1 0x1 PUSH2 0x6250 JUMP JUMPDEST SWAP3 POP JUMPDEST POP PUSH2 0x5205 JUMP JUMPDEST PUSH1 0x0 DUP3 GT DUP1 ISZERO PUSH2 0x526C JUMPI POP DUP4 PUSH2 0x5269 DUP7 PUSH2 0x5264 PUSH1 0x1 DUP7 PUSH2 0x5FFA JUMP JUMPDEST PUSH2 0x5741 JUMP JUMPDEST SLOAD EQ JUMPDEST ISZERO PUSH2 0x5285 JUMPI PUSH2 0x527C PUSH1 0x1 DUP4 PUSH2 0x5FFA JUMP JUMPDEST SWAP3 POP POP POP PUSH2 0xD16 JUMP JUMPDEST POP SWAP1 POP PUSH2 0xD16 JUMP JUMPDEST PUSH1 0x0 DUP3 PUSH1 0x0 ADD DUP3 DUP2 SLOAD DUP2 LT PUSH2 0x52A4 JUMPI PUSH2 0x52A4 PUSH2 0x5FCE JUMP JUMPDEST SWAP1 PUSH1 0x0 MSTORE PUSH1 0x20 PUSH1 0x0 KECCAK256 ADD SLOAD SWAP1 POP SWAP3 SWAP2 POP POP JUMP JUMPDEST PUSH1 0x0 DUP2 DUP2 MSTORE PUSH1 0x1 DUP4 ADD PUSH1 0x20 MSTORE PUSH1 0x40 DUP2 KECCAK256 SLOAD DUP1 ISZERO PUSH2 0x53A0 JUMPI PUSH1 0x0 PUSH2 0x52DB PUSH1 0x1 DUP4 PUSH2 0x5FFA JUMP JUMPDEST DUP6 SLOAD SWAP1 SWAP2 POP PUSH1 0x0 SWAP1 PUSH2 0x52EF SWAP1 PUSH1 0x1 SWAP1 PUSH2 0x5FFA JUMP JUMPDEST SWAP1 POP DUP2 DUP2 EQ PUSH2 0x5354 JUMPI PUSH1 0x0 DUP7 PUSH1 0x0 ADD DUP3 DUP2 SLOAD DUP2 LT PUSH2 0x530F JUMPI PUSH2 0x530F PUSH2 0x5FCE JUMP JUMPDEST SWAP1 PUSH1 0x0 MSTORE PUSH1 0x20 PUSH1 0x0 KECCAK256 ADD SLOAD SWAP1 POP DUP1 DUP8 PUSH1 0x0 ADD DUP5 DUP2 SLOAD DUP2 LT PUSH2 0x5332 JUMPI PUSH2 0x5332 PUSH2 0x5FCE JUMP JUMPDEST PUSH1 0x0 SWAP2 DUP3 MSTORE PUSH1 0x20 DUP1 DUP4 KECCAK256 SWAP1 SWAP2 ADD SWAP3 SWAP1 SWAP3 SSTORE SWAP2 DUP3 MSTORE PUSH1 0x1 DUP9 ADD SWAP1 MSTORE PUSH1 0x40 SWAP1 KECCAK256 DUP4 SWAP1 SSTORE JUMPDEST DUP6 SLOAD DUP7 SWAP1 DUP1 PUSH2 0x5365 JUMPI PUSH2 0x5365 PUSH2 0x6324 JUMP JUMPDEST PUSH1 0x1 SWAP1 SUB DUP2 DUP2 SWAP1 PUSH1 0x0 MSTORE PUSH1 0x20 PUSH1 0x0 KECCAK256 ADD PUSH1 0x0 SWAP1 SSTORE SWAP1 SSTORE DUP6 PUSH1 0x1 ADD PUSH1 0x0 DUP7 DUP2 MSTORE PUSH1 0x20 ADD SWAP1 DUP2 MSTORE PUSH1 0x20 ADD PUSH1 0x0 KECCAK256 PUSH1 0x0 SWAP1 SSTORE PUSH1 0x1 SWAP4 POP POP POP POP PUSH2 0xD16 JUMP JUMPDEST PUSH1 0x0 SWAP2 POP POP PUSH2 0xD16 JUMP JUMPDEST PUSH1 0x60 PUSH2 0xD16 PUSH1 0x1 PUSH1 0x1 PUSH1 0xA0 SHL SUB DUP4 AND PUSH1 0x14 JUMPDEST PUSH1 0x60 PUSH1 0x0 PUSH2 0x53CB DUP4 PUSH1 0x2 PUSH2 0x6482 JUMP JUMPDEST PUSH2 0x53D6 SWAP1 PUSH1 0x2 PUSH2 0x6250 JUMP JUMPDEST PUSH8 0xFFFFFFFFFFFFFFFF DUP2 GT ISZERO PUSH2 0x53EE JUMPI PUSH2 0x53EE PUSH2 0x5966 JUMP JUMPDEST PUSH1 0x40 MLOAD SWAP1 DUP1 DUP3 MSTORE DUP1 PUSH1 0x1F ADD PUSH1 0x1F NOT AND PUSH1 0x20 ADD DUP3 ADD PUSH1 0x40 MSTORE DUP1 ISZERO PUSH2 0x5418 JUMPI PUSH1 0x20 DUP3 ADD DUP2 DUP1 CALLDATASIZE DUP4 CALLDATACOPY ADD SWAP1 POP JUMPDEST POP SWAP1 POP PUSH1 0x3 PUSH1 0xFC SHL DUP2 PUSH1 0x0 DUP2 MLOAD DUP2 LT PUSH2 0x5433 JUMPI PUSH2 0x5433 PUSH2 0x5FCE JUMP JUMPDEST PUSH1 0x20 ADD ADD SWAP1 PUSH1 0x1 PUSH1 0x1 PUSH1 0xF8 SHL SUB NOT AND SWAP1 DUP2 PUSH1 0x0 BYTE SWAP1 MSTORE8 POP PUSH1 0xF PUSH1 0xFB SHL DUP2 PUSH1 0x1 DUP2 MLOAD DUP2 LT PUSH2 0x5462 JUMPI PUSH2 0x5462 PUSH2 0x5FCE JUMP JUMPDEST PUSH1 0x20 ADD ADD SWAP1 PUSH1 0x1 PUSH1 0x1 PUSH1 0xF8 SHL SUB NOT AND SWAP1 DUP2 PUSH1 0x0 BYTE SWAP1 MSTORE8 POP PUSH1 0x0 PUSH2 0x5486 DUP5 PUSH1 0x2 PUSH2 0x6482 JUMP JUMPDEST PUSH2 0x5491 SWAP1 PUSH1 0x1 PUSH2 0x6250 JUMP JUMPDEST SWAP1 POP JUMPDEST PUSH1 0x1 DUP2 GT ISZERO PUSH2 0x5509 JUMPI PUSH16 0x181899199A1A9B1B9C1CB0B131B232B3 PUSH1 0x81 SHL DUP6 PUSH1 0xF AND PUSH1 0x10 DUP2 LT PUSH2 0x54C5 JUMPI PUSH2 0x54C5 PUSH2 0x5FCE JUMP JUMPDEST BYTE PUSH1 0xF8 SHL DUP3 DUP3 DUP2 MLOAD DUP2 LT PUSH2 0x54DB JUMPI PUSH2 0x54DB PUSH2 0x5FCE JUMP JUMPDEST PUSH1 0x20 ADD ADD SWAP1 PUSH1 0x1 PUSH1 0x1 PUSH1 0xF8 SHL SUB NOT AND SWAP1 DUP2 PUSH1 0x0 BYTE SWAP1 MSTORE8 POP PUSH1 0x4 SWAP5 SWAP1 SWAP5 SHR SWAP4 PUSH2 0x5502 DUP2 PUSH2 0x633A JUMP JUMPDEST SWAP1 POP PUSH2 0x5494 JUMP JUMPDEST POP DUP4 ISZERO PUSH2 0x1567 JUMPI PUSH1 0x40 MLOAD PUSH3 0x461BCD PUSH1 0xE5 SHL DUP2 MSTORE PUSH1 0x20 PUSH1 0x4 DUP3 ADD DUP2 SWAP1 MSTORE PUSH1 0x24 DUP3 ADD MSTORE PUSH32 0x537472696E67733A20686578206C656E67746820696E73756666696369656E74 PUSH1 0x44 DUP3 ADD MSTORE PUSH1 0x64 ADD PUSH2 0xD50 JUMP JUMPDEST PUSH1 0x12 SLOAD PUSH1 0xFF AND ISZERO PUSH2 0x5572 JUMPI PUSH1 0x12 DUP1 SLOAD PUSH1 0xFF NOT AND SWAP1 SSTORE PUSH2 0x5669 JUMP JUMPDEST PUSH1 0x0 PUSH1 0xF SLOAD GT PUSH2 0x5602 JUMPI PUSH1 0x40 MLOAD PUSH3 0x461BCD PUSH1 0xE5 SHL DUP2 MSTORE PUSH1 0x20 PUSH1 0x4 DUP3 ADD MSTORE PUSH1 0x4F PUSH1 0x24 DUP3 ADD MSTORE PUSH32 0x746865207265676973746572206973206C6F636B65642062656361757365206E PUSH1 0x44 DUP3 ADD MSTORE PUSH32 0x6F20636F75706F6E206973207072657061726564206F7220746865206D617475 PUSH1 0x64 DUP3 ADD MSTORE PUSH15 0x1C9A5D1E481A5CC81C995858DA1959 PUSH1 0x8A SHL PUSH1 0x84 DUP3 ADD MSTORE PUSH1 0xA4 ADD PUSH2 0xD50 JUMP JUMPDEST PUSH1 0xF SLOAD TIMESTAMP LT PUSH2 0x5669 JUMPI PUSH1 0x0 PUSH1 0x10 SLOAD GT PUSH2 0x5669 JUMPI PUSH1 0x40 MLOAD PUSH3 0x461BCD PUSH1 0xE5 SHL DUP2 MSTORE PUSH1 0x20 PUSH1 0x4 DUP3 ADD MSTORE PUSH1 0x24 DUP1 DUP3 ADD MSTORE PUSH32 0x746865206D61747572697479206375742D6F66662074696D6520686173207061 PUSH1 0x44 DUP3 ADD MSTORE PUSH4 0x1CDCD959 PUSH1 0xE2 SHL PUSH1 0x64 DUP3 ADD MSTORE PUSH1 0x84 ADD PUSH2 0xD50 JUMP JUMPDEST PUSH2 0x5671 PUSH2 0x50DF JUMP JUMPDEST POP PUSH2 0x1E7A DUP4 DUP4 DUP4 PUSH2 0x5752 JUMP JUMPDEST PUSH1 0x0 DUP2 DUP2 MSTORE PUSH1 0x1 DUP4 ADD PUSH1 0x20 MSTORE PUSH1 0x40 DUP2 KECCAK256 SLOAD PUSH2 0x56C4 JUMPI POP DUP2 SLOAD PUSH1 0x1 DUP2 DUP2 ADD DUP5 SSTORE PUSH1 0x0 DUP5 DUP2 MSTORE PUSH1 0x20 DUP1 DUP3 KECCAK256 SWAP1 SWAP4 ADD DUP5 SWAP1 SSTORE DUP5 SLOAD DUP5 DUP3 MSTORE DUP3 DUP7 ADD SWAP1 SWAP4 MSTORE PUSH1 0x40 SWAP1 KECCAK256 SWAP2 SWAP1 SWAP2 SSTORE PUSH2 0xD16 JUMP JUMPDEST POP PUSH1 0x0 PUSH2 0xD16 JUMP JUMPDEST PUSH1 0x0 PUSH2 0x56DC PUSH1 0xD DUP1 SLOAD PUSH1 0x1 ADD SWAP1 SSTORE JUMP JUMPDEST PUSH1 0x0 PUSH2 0x56E6 PUSH2 0x51E1 JUMP JUMPDEST SWAP1 POP PUSH32 0x8030E83B04D87BEF53480E26263266D6CA66863AA8506ACA6F2559D18AA1CB67 DUP2 PUSH1 0x40 MLOAD PUSH2 0x5719 SWAP2 DUP2 MSTORE PUSH1 0x20 ADD SWAP1 JUMP JUMPDEST PUSH1 0x40 MLOAD DUP1 SWAP2 SUB SWAP1 LOG1 SWAP2 SWAP1 POP JUMP JUMPDEST PUSH1 0x0 PUSH2 0x5735 PUSH1 0x2 DUP5 DUP5 XOR PUSH2 0x6499 JUMP JUMPDEST PUSH2 0x1567 SWAP1 DUP5 DUP5 AND PUSH2 0x6250 JUMP JUMPDEST PUSH1 0x0 DUP3 DUP2 MSTORE PUSH1 0x20 DUP2 KECCAK256 DUP3 ADD DUP1 PUSH2 0x27F4 JUMP JUMPDEST PUSH1 0x1 PUSH1 0x1 PUSH1 0xA0 SHL SUB DUP4 AND PUSH2 0x5771 JUMPI PUSH2 0x5769 DUP3 PUSH2 0x5796 JUMP JUMPDEST PUSH2 0x1E7A PUSH2 0x57C0 JUMP JUMPDEST PUSH1 0x1 PUSH1 0x1 PUSH1 0xA0 SHL SUB DUP3 AND PUSH2 0x5788 JUMPI PUSH2 0x5769 DUP4 PUSH2 0x5796 JUMP JUMPDEST PUSH2 0x5791 DUP4 PUSH2 0x5796 JUMP JUMPDEST PUSH2 0x1E7A DUP3 JUMPDEST PUSH1 0x1 PUSH1 0x1 PUSH1 0xA0 SHL SUB DUP2 AND PUSH1 0x0 SWAP1 DUP2 MSTORE PUSH1 0xA PUSH1 0x20 MSTORE PUSH1 0x40 SWAP1 KECCAK256 PUSH2 0xCEE SWAP1 PUSH2 0x57BB DUP4 PUSH2 0x2240 JUMP JUMPDEST PUSH2 0x57D0 JUMP JUMPDEST PUSH2 0x57CE PUSH1 0xB PUSH2 0x57BB PUSH1 0x7 SLOAD SWAP1 JUMP JUMPDEST JUMP JUMPDEST PUSH1 0x0 PUSH2 0x57DA PUSH2 0x51E1 JUMP JUMPDEST SWAP1 POP DUP1 PUSH2 0x57E6 DUP5 PUSH2 0x581A JUMP JUMPDEST LT ISZERO PUSH2 0x1E7A JUMPI DUP3 SLOAD PUSH1 0x1 DUP1 DUP3 ADD DUP6 SSTORE PUSH1 0x0 DUP6 DUP2 MSTORE PUSH1 0x20 DUP1 DUP3 KECCAK256 SWAP1 SWAP4 ADD SWAP4 SWAP1 SWAP4 SSTORE SWAP4 DUP5 ADD DUP1 SLOAD SWAP5 DUP6 ADD DUP2 SSTORE DUP3 MSTORE SWAP1 KECCAK256 SWAP1 SWAP2 ADD SSTORE JUMP JUMPDEST DUP1 SLOAD PUSH1 0x0 SWAP1 DUP2 SUB PUSH2 0x582D JUMPI POP PUSH1 0x0 SWAP2 SWAP1 POP JUMP JUMPDEST DUP2 SLOAD DUP3 SWAP1 PUSH2 0x583D SWAP1 PUSH1 0x1 SWAP1 PUSH2 0x5FFA JUMP JUMPDEST DUP2 SLOAD DUP2 LT PUSH2 0x584D JUMPI PUSH2 0x584D PUSH2 0x5FCE JUMP JUMPDEST SWAP1 PUSH1 0x0 MSTORE PUSH1 0x20 PUSH1 0x0 KECCAK256 ADD SLOAD SWAP1 POP SWAP2 SWAP1 POP JUMP JUMPDEST SWAP2 SWAP1 POP JUMP JUMPDEST DUP1 CALLDATALOAD PUSH1 0x1 PUSH1 0x1 PUSH1 0xA0 SHL SUB DUP2 AND DUP2 EQ PUSH2 0x585F JUMPI PUSH1 0x0 DUP1 REVERT JUMPDEST PUSH1 0x0 PUSH1 0x20 DUP3 DUP5 SUB SLT ISZERO PUSH2 0x588D JUMPI PUSH1 0x0 DUP1 REVERT JUMPDEST PUSH2 0x1567 DUP3 PUSH2 0x5864 JUMP JUMPDEST PUSH1 0x0 PUSH1 0x20 DUP3 DUP5 SUB SLT ISZERO PUSH2 0x58A8 JUMPI PUSH1 0x0 DUP1 REVERT JUMPDEST DUP2 CALLDATALOAD PUSH1 0x1 PUSH1 0x1 PUSH1 0xE0 SHL SUB NOT DUP2 AND DUP2 EQ PUSH2 0x1567 JUMPI PUSH1 0x0 DUP1 REVERT JUMPDEST PUSH1 0x0 PUSH1 0x20 DUP3 DUP5 SUB SLT ISZERO PUSH2 0x58D2 JUMPI PUSH1 0x0 DUP1 REVERT JUMPDEST POP CALLDATALOAD SWAP2 SWAP1 POP JUMP JUMPDEST PUSH1 0x0 JUMPDEST DUP4 DUP2 LT ISZERO PUSH2 0x58F4 JUMPI DUP2 DUP2 ADD MLOAD DUP4 DUP3 ADD MSTORE PUSH1 0x20 ADD PUSH2 0x58DC JUMP JUMPDEST POP POP PUSH1 0x0 SWAP2 ADD MSTORE JUMP JUMPDEST PUSH1 0x0 DUP2 MLOAD DUP1 DUP5 MSTORE PUSH2 0x5915 DUP2 PUSH1 0x20 DUP7 ADD PUSH1 0x20 DUP7 ADD PUSH2 0x58D9 JUMP JUMPDEST PUSH1 0x1F ADD PUSH1 0x1F NOT AND SWAP3 SWAP1 SWAP3 ADD PUSH1 0x20 ADD SWAP3 SWAP2 POP POP JUMP JUMPDEST PUSH1 0x20 DUP2 MSTORE PUSH1 0x0 PUSH2 0x1567 PUSH1 0x20 DUP4 ADD DUP5 PUSH2 0x58FD JUMP JUMPDEST PUSH1 0x0 DUP1 PUSH1 0x40 DUP4 DUP6 SUB SLT ISZERO PUSH2 0x594F JUMPI PUSH1 0x0 DUP1 REVERT JUMPDEST PUSH2 0x5958 DUP4 PUSH2 0x5864 JUMP JUMPDEST SWAP5 PUSH1 0x20 SWAP4 SWAP1 SWAP4 ADD CALLDATALOAD SWAP4 POP POP POP JUMP JUMPDEST PUSH4 0x4E487B71 PUSH1 0xE0 SHL PUSH1 0x0 MSTORE PUSH1 0x41 PUSH1 0x4 MSTORE PUSH1 0x24 PUSH1 0x0 REVERT JUMPDEST PUSH1 0x40 MLOAD PUSH2 0x180 DUP2 ADD PUSH8 0xFFFFFFFFFFFFFFFF DUP2 GT DUP3 DUP3 LT OR ISZERO PUSH2 0x59A0 JUMPI PUSH2 0x59A0 PUSH2 0x5966 JUMP JUMPDEST PUSH1 0x40 MSTORE SWAP1 JUMP JUMPDEST PUSH1 0x0 DUP3 PUSH1 0x1F DUP4 ADD SLT PUSH2 0x59B7 JUMPI PUSH1 0x0 DUP1 REVERT JUMPDEST DUP2 CALLDATALOAD PUSH8 0xFFFFFFFFFFFFFFFF DUP1 DUP3 GT ISZERO PUSH2 0x59D2 JUMPI PUSH2 0x59D2 PUSH2 0x5966 JUMP JUMPDEST PUSH1 0x40 MLOAD PUSH1 0x1F DUP4 ADD PUSH1 0x1F NOT SWAP1 DUP2 AND PUSH1 0x3F ADD AND DUP2 ADD SWAP1 DUP3 DUP3 GT DUP2 DUP4 LT OR ISZERO PUSH2 0x59FA JUMPI PUSH2 0x59FA PUSH2 0x5966 JUMP JUMPDEST DUP2 PUSH1 0x40 MSTORE DUP4 DUP2 MSTORE DUP7 PUSH1 0x20 DUP6 DUP9 ADD ADD GT ISZERO PUSH2 0x5A13 JUMPI PUSH1 0x0 DUP1 REVERT JUMPDEST DUP4 PUSH1 0x20 DUP8 ADD PUSH1 0x20 DUP4 ADD CALLDATACOPY PUSH1 0x0 PUSH1 0x20 DUP6 DUP4 ADD ADD MSTORE DUP1 SWAP5 POP POP POP POP POP SWAP3 SWAP2 POP POP JUMP JUMPDEST PUSH1 0x0 DUP1 PUSH1 0x0 DUP1 PUSH1 0x0 DUP1 PUSH1 0x0 DUP1 PUSH2 0x100 DUP10 DUP12 SUB SLT ISZERO PUSH2 0x5A50 JUMPI PUSH1 0x0 DUP1 REVERT JUMPDEST DUP9 CALLDATALOAD PUSH8 0xFFFFFFFFFFFFFFFF DUP2 GT ISZERO PUSH2 0x5A67 JUMPI PUSH1 0x0 DUP1 REVERT JUMPDEST PUSH2 0x5A73 DUP12 DUP3 DUP13 ADD PUSH2 0x59A6 JUMP JUMPDEST SWAP12 PUSH1 0x20 DUP12 ADD CALLDATALOAD SWAP12 POP PUSH1 0x40 DUP12 ADD CALLDATALOAD SWAP11 PUSH1 0x60 DUP2 ADD CALLDATALOAD SWAP11 POP PUSH1 0x80 DUP2 ADD CALLDATALOAD SWAP10 POP PUSH1 0xA0 DUP2 ADD CALLDATALOAD SWAP9 POP PUSH1 0xC0 DUP2 ADD CALLDATALOAD SWAP8 POP PUSH1 0xE0 ADD CALLDATALOAD SWAP6 POP SWAP4 POP POP POP POP JUMP JUMPDEST PUSH4 0x4E487B71 PUSH1 0xE0 SHL PUSH1 0x0 MSTORE PUSH1 0x21 PUSH1 0x4 MSTORE PUSH1 0x24 PUSH1 0x0 REVERT JUMPDEST PUSH1 0x5 DUP2 LT PUSH2 0xCEE JUMPI PUSH4 0x4E487B71 PUSH1 0xE0 SHL PUSH1 0x0 MSTORE PUSH1 0x21 PUSH1 0x4 MSTORE PUSH1 0x24 PUSH1 0x0 REVERT JUMPDEST PUSH1 0x20 DUP2 ADD PUSH2 0x5AEB DUP4 PUSH2 0x5AC0 JUMP JUMPDEST SWAP2 SWAP1 MSTORE SWAP1 JUMP JUMPDEST PUSH1 0x0 DUP1 PUSH1 0x0 PUSH1 0x60 DUP5 DUP7 SUB SLT ISZERO PUSH2 0x5B06 JUMPI PUSH1 0x0 DUP1 REVERT JUMPDEST PUSH2 0x5B0F DUP5 PUSH2 0x5864 JUMP JUMPDEST SWAP3 POP PUSH2 0x5B1D PUSH1 0x20 DUP6 ADD PUSH2 0x5864 JUMP JUMPDEST SWAP2 POP PUSH1 0x40 DUP5 ADD CALLDATALOAD SWAP1 POP SWAP3 POP SWAP3 POP SWAP3 JUMP JUMPDEST PUSH1 0x0 DUP1 PUSH1 0x40 DUP4 DUP6 SUB SLT ISZERO PUSH2 0x5B40 JUMPI PUSH1 0x0 DUP1 REVERT JUMPDEST DUP3 CALLDATALOAD SWAP2 POP PUSH2 0x5B50 PUSH1 0x20 DUP5 ADD PUSH2 0x5864 JUMP JUMPDEST SWAP1 POP SWAP3 POP SWAP3 SWAP1 POP JUMP JUMPDEST PUSH1 0x0 DUP1 PUSH1 0x40 DUP4 DUP6 SUB SLT ISZERO PUSH2 0x5B6C JUMPI PUSH1 0x0 DUP1 REVERT JUMPDEST POP POP DUP1 CALLDATALOAD SWAP3 PUSH1 0x20 SWAP1 SWAP2 ADD CALLDATALOAD SWAP2 POP JUMP JUMPDEST PUSH1 0x0 DUP1 PUSH1 0x0 PUSH1 0x60 DUP5 DUP7 SUB SLT ISZERO PUSH2 0x5B90 JUMPI PUSH1 0x0 DUP1 REVERT JUMPDEST POP POP DUP2 CALLDATALOAD SWAP4 PUSH1 0x20 DUP4 ADD CALLDATALOAD SWAP4 POP PUSH1 0x40 SWAP1 SWAP3 ADD CALLDATALOAD SWAP2 SWAP1 POP JUMP JUMPDEST PUSH1 0x0 PUSH1 0x20 DUP3 DUP5 SUB SLT ISZERO PUSH2 0x5BB9 JUMPI PUSH1 0x0 DUP1 REVERT JUMPDEST DUP2 CALLDATALOAD PUSH8 0xFFFFFFFFFFFFFFFF DUP2 GT ISZERO PUSH2 0x5BD0 JUMPI PUSH1 0x0 DUP1 REVERT JUMPDEST PUSH2 0x27F4 DUP5 DUP3 DUP6 ADD PUSH2 0x59A6 JUMP JUMPDEST PUSH1 0x0 DUP2 MLOAD DUP1 DUP5 MSTORE PUSH1 0x20 DUP1 DUP6 ADD SWAP5 POP DUP1 DUP5 ADD PUSH1 0x0 JUMPDEST DUP4 DUP2 LT ISZERO PUSH2 0x5C0C JUMPI DUP2 MLOAD DUP8 MSTORE SWAP6 DUP3 ADD SWAP6 SWAP1 DUP3 ADD SWAP1 PUSH1 0x1 ADD PUSH2 0x5BF0 JUMP JUMPDEST POP SWAP5 SWAP6 SWAP5 POP POP POP POP POP JUMP JUMPDEST PUSH1 0x20 DUP2 MSTORE PUSH1 0x0 DUP3 MLOAD PUSH2 0x160 DUP1 PUSH1 0x20 DUP6 ADD MSTORE PUSH2 0x5C36 PUSH2 0x180 DUP6 ADD DUP4 PUSH2 0x58FD JUMP JUMPDEST SWAP2 POP PUSH1 0x20 DUP6 ADD MLOAD PUSH1 0x1F NOT DUP1 DUP7 DUP6 SUB ADD PUSH1 0x40 DUP8 ADD MSTORE PUSH2 0x5C54 DUP5 DUP4 PUSH2 0x58FD JUMP JUMPDEST SWAP4 POP PUSH1 0x40 DUP8 ADD MLOAD PUSH1 0x60 DUP8 ADD MSTORE PUSH1 0x60 DUP8 ADD MLOAD PUSH1 0x80 DUP8 ADD MSTORE PUSH1 0x80 DUP8 ADD MLOAD PUSH1 0xA0 DUP8 ADD MSTORE PUSH1 0xA0 DUP8 ADD MLOAD PUSH1 0xC0 DUP8 ADD MSTORE PUSH1 0xC0 DUP8 ADD MLOAD PUSH1 0xE0 DUP8 ADD MSTORE PUSH1 0xE0 DUP8 ADD MLOAD SWAP2 POP PUSH2 0x100 DUP3 DUP2 DUP9 ADD MSTORE DUP1 DUP9 ADD MLOAD SWAP3 POP POP PUSH2 0x120 DUP3 DUP2 DUP9 ADD MSTORE DUP1 DUP9 ADD MLOAD SWAP3 POP POP PUSH2 0x140 DUP2 DUP8 DUP7 SUB ADD DUP2 DUP9 ADD MSTORE PUSH2 0x5CC3 DUP6 DUP5 PUSH2 0x5BDC JUMP JUMPDEST SWAP8 ADD MLOAD SWAP6 SWAP1 SWAP3 ADD SWAP5 SWAP1 SWAP5 MSTORE POP SWAP3 SWAP4 SWAP3 POP POP POP JUMP JUMPDEST PUSH1 0x20 DUP1 DUP3 MSTORE DUP3 MLOAD DUP3 DUP3 ADD DUP2 SWAP1 MSTORE PUSH1 0x0 SWAP2 SWAP1 DUP5 DUP3 ADD SWAP1 PUSH1 0x40 DUP6 ADD SWAP1 DUP5 JUMPDEST DUP2 DUP2 LT ISZERO PUSH2 0x5D18 JUMPI DUP4 MLOAD PUSH1 0x1 PUSH1 0x1 PUSH1 0xA0 SHL SUB AND DUP4 MSTORE SWAP3 DUP5 ADD SWAP3 SWAP2 DUP5 ADD SWAP2 PUSH1 0x1 ADD PUSH2 0x5CF3 JUMP JUMPDEST POP SWAP1 SWAP7 SWAP6 POP POP POP POP POP POP JUMP JUMPDEST PUSH1 0x0 PUSH1 0x80 DUP3 DUP5 SUB SLT ISZERO PUSH2 0x5D36 JUMPI PUSH1 0x0 DUP1 REVERT JUMPDEST PUSH1 0x40 MLOAD PUSH1 0x80 DUP2 ADD DUP2 DUP2 LT PUSH8 0xFFFFFFFFFFFFFFFF DUP3 GT OR ISZERO PUSH2 0x5D59 JUMPI PUSH2 0x5D59 PUSH2 0x5966 JUMP JUMPDEST DUP1 PUSH1 0x40 MSTORE POP DUP1 SWAP2 POP DUP3 CALLDATALOAD DUP2 MSTORE PUSH1 0x20 DUP4 ADD CALLDATALOAD PUSH1 0x20 DUP3 ADD MSTORE PUSH1 0x40 DUP4 ADD CALLDATALOAD PUSH1 0x40 DUP3 ADD MSTORE PUSH1 0x60 DUP4 ADD CALLDATALOAD PUSH1 0x60 DUP3 ADD MSTORE POP SWAP3 SWAP2 POP POP JUMP JUMPDEST DUP1 CALLDATALOAD PUSH1 0x5 DUP2 LT PUSH2 0x585F JUMPI PUSH1 0x0 DUP1 REVERT JUMPDEST PUSH1 0x0 PUSH2 0x1E0 DUP3 DUP5 SUB SLT ISZERO PUSH2 0x5DAC JUMPI PUSH1 0x0 DUP1 REVERT JUMPDEST PUSH2 0x5DB4 PUSH2 0x597C JUMP JUMPDEST PUSH2 0x5DBD DUP4 PUSH2 0x5864 JUMP JUMPDEST DUP2 MSTORE PUSH2 0x5DCB PUSH1 0x20 DUP5 ADD PUSH2 0x5864 JUMP JUMPDEST PUSH1 0x20 DUP3 ADD MSTORE PUSH1 0x40 DUP4 ADD CALLDATALOAD PUSH1 0x40 DUP3 ADD MSTORE PUSH1 0x60 DUP4 ADD CALLDATALOAD PUSH1 0x60 DUP3 ADD MSTORE PUSH1 0x80 DUP4 ADD CALLDATALOAD PUSH1 0x80 DUP3 ADD MSTORE PUSH1 0xA0 DUP4 ADD CALLDATALOAD PUSH1 0xA0 DUP3 ADD MSTORE PUSH1 0xC0 DUP4 ADD CALLDATALOAD PUSH1 0xC0 DUP3 ADD MSTORE PUSH1 0xE0 DUP4 ADD CALLDATALOAD PUSH1 0xE0 DUP3 ADD MSTORE PUSH2 0x100 DUP1 DUP5 ADD CALLDATALOAD DUP2 DUP4 ADD MSTORE POP PUSH2 0x120 DUP1 DUP5 ADD CALLDATALOAD DUP2 DUP4 ADD MSTORE POP PUSH2 0x140 PUSH2 0x5E33 DUP6 DUP3 DUP7 ADD PUSH2 0x5D24 JUMP JUMPDEST SWAP1 DUP3 ADD MSTORE PUSH2 0x5E44 PUSH2 0x1C0 DUP5 ADD PUSH2 0x5D8A JUMP JUMPDEST PUSH2 0x160 DUP3 ADD MSTORE SWAP4 SWAP3 POP POP POP JUMP JUMPDEST PUSH2 0x5E5A DUP2 PUSH2 0x5AC0 JUMP JUMPDEST SWAP1 MSTORE JUMP JUMPDEST PUSH1 0x0 PUSH2 0x1E0 DUP3 ADD SWAP1 POP PUSH1 0x1 DUP1 PUSH1 0xA0 SHL SUB DUP1 DUP16 AND DUP4 MSTORE DUP1 DUP15 AND PUSH1 0x20 DUP5 ADD MSTORE POP DUP12 PUSH1 0x40 DUP4 ADD MSTORE DUP11 PUSH1 0x60 DUP4 ADD MSTORE DUP10 PUSH1 0x80 DUP4 ADD MSTORE DUP9 PUSH1 0xA0 DUP4 ADD MSTORE DUP8 PUSH1 0xC0 DUP4 ADD MSTORE DUP7 PUSH1 0xE0 DUP4 ADD MSTORE DUP6 PUSH2 0x100 DUP4 ADD MSTORE DUP5 PUSH2 0x120 DUP4 ADD MSTORE DUP4 MLOAD PUSH2 0x140 DUP4 ADD MSTORE PUSH1 0x20 DUP5 ADD MLOAD PUSH2 0x160 DUP4 ADD MSTORE PUSH1 0x40 DUP5 ADD MLOAD PUSH2 0x180 DUP4 ADD MSTORE PUSH1 0x60 DUP5 ADD MLOAD PUSH2 0x1A0 DUP4 ADD MSTORE PUSH2 0x5EE5 PUSH2 0x1C0 DUP4 ADD DUP5 PUSH2 0x5E51 JUMP JUMPDEST SWAP14 SWAP13 POP POP POP POP POP POP POP POP POP POP POP POP POP JUMP JUMPDEST PUSH1 0x0 DUP1 PUSH1 0x40 DUP4 DUP6 SUB SLT ISZERO PUSH2 0x5F09 JUMPI PUSH1 0x0 DUP1 REVERT JUMPDEST PUSH2 0x5F12 DUP4 PUSH2 0x5864 JUMP JUMPDEST SWAP2 POP PUSH1 0x20 DUP4 ADD CALLDATALOAD PUSH8 0xFFFFFFFFFFFFFFFF DUP2 GT ISZERO PUSH2 0x5F2E JUMPI PUSH1 0x0 DUP1 REVERT JUMPDEST PUSH2 0x5F3A DUP6 DUP3 DUP7 ADD PUSH2 0x59A6 JUMP JUMPDEST SWAP2 POP POP SWAP3 POP SWAP3 SWAP1 POP JUMP JUMPDEST PUSH1 0x0 DUP1 PUSH1 0x40 DUP4 DUP6 SUB SLT ISZERO PUSH2 0x5F57 JUMPI PUSH1 0x0 DUP1 REVERT JUMPDEST PUSH2 0x5F60 DUP4 PUSH2 0x5864 JUMP JUMPDEST SWAP2 POP PUSH2 0x5B50 PUSH1 0x20 DUP5 ADD PUSH2 0x5864 JUMP JUMPDEST PUSH1 0x20 DUP1 DUP3 MSTORE PUSH1 0x12 SWAP1 DUP3 ADD MSTORE PUSH18 0x43616C6C6572206D7573742062652043414B PUSH1 0x70 SHL PUSH1 0x40 DUP3 ADD MSTORE PUSH1 0x60 ADD SWAP1 JUMP JUMPDEST PUSH1 0x1 DUP2 DUP2 SHR SWAP1 DUP3 AND DUP1 PUSH2 0x5FAE JUMPI PUSH1 0x7F DUP3 AND SWAP2 POP JUMPDEST PUSH1 0x20 DUP3 LT DUP2 SUB PUSH2 0x34B1 JUMPI PUSH4 0x4E487B71 PUSH1 0xE0 SHL PUSH1 0x0 MSTORE PUSH1 0x22 PUSH1 0x4 MSTORE PUSH1 0x24 PUSH1 0x0 REVERT JUMPDEST PUSH4 0x4E487B71 PUSH1 0xE0 SHL PUSH1 0x0 MSTORE PUSH1 0x32 PUSH1 0x4 MSTORE PUSH1 0x24 PUSH1 0x0 REVERT JUMPDEST PUSH4 0x4E487B71 PUSH1 0xE0 SHL PUSH1 0x0 MSTORE PUSH1 0x11 PUSH1 0x4 MSTORE PUSH1 0x24 PUSH1 0x0 REVERT JUMPDEST DUP2 DUP2 SUB DUP2 DUP2 GT ISZERO PUSH2 0xD16 JUMPI PUSH2 0xD16 PUSH2 0x5FE4 JUMP JUMPDEST PUSH1 0x1F DUP3 GT ISZERO PUSH2 0x1E7A JUMPI PUSH1 0x0 DUP2 DUP2 MSTORE PUSH1 0x20 DUP2 KECCAK256 PUSH1 0x1F DUP6 ADD PUSH1 0x5 SHR DUP2 ADD PUSH1 0x20 DUP7 LT ISZERO PUSH2 0x6034 JUMPI POP DUP1 JUMPDEST PUSH1 0x1F DUP6 ADD PUSH1 0x5 SHR DUP3 ADD SWAP2 POP JUMPDEST DUP2 DUP2 LT ISZERO PUSH2 0x6053 JUMPI DUP3 DUP2 SSTORE PUSH1 0x1 ADD PUSH2 0x6040 JUMP JUMPDEST POP POP POP POP POP POP JUMP JUMPDEST DUP2 MLOAD PUSH8 0xFFFFFFFFFFFFFFFF DUP2 GT ISZERO PUSH2 0x6075 JUMPI PUSH2 0x6075 PUSH2 0x5966 JUMP JUMPDEST PUSH2 0x6089 DUP2 PUSH2 0x6083 DUP5 SLOAD PUSH2 0x5F9A JUMP JUMPDEST DUP5 PUSH2 0x600D JUMP JUMPDEST PUSH1 0x20 DUP1 PUSH1 0x1F DUP4 GT PUSH1 0x1 DUP2 EQ PUSH2 0x60BE JUMPI PUSH1 0x0 DUP5 ISZERO PUSH2 0x60A6 JUMPI POP DUP6 DUP4 ADD MLOAD JUMPDEST PUSH1 0x0 NOT PUSH1 0x3 DUP7 SWAP1 SHL SHR NOT AND PUSH1 0x1 DUP6 SWAP1 SHL OR DUP6 SSTORE PUSH2 0x6053 JUMP JUMPDEST PUSH1 0x0 DUP6 DUP2 MSTORE PUSH1 0x20 DUP2 KECCAK256 PUSH1 0x1F NOT DUP7 AND SWAP2 JUMPDEST DUP3 DUP2 LT ISZERO PUSH2 0x60ED JUMPI DUP9 DUP7 ADD MLOAD DUP3 SSTORE SWAP5 DUP5 ADD SWAP5 PUSH1 0x1 SWAP1 SWAP2 ADD SWAP1 DUP5 ADD PUSH2 0x60CE JUMP JUMPDEST POP DUP6 DUP3 LT ISZERO PUSH2 0x610B JUMPI DUP8 DUP6 ADD MLOAD PUSH1 0x0 NOT PUSH1 0x3 DUP9 SWAP1 SHL PUSH1 0xF8 AND SHR NOT AND DUP2 SSTORE JUMPDEST POP POP POP POP POP PUSH1 0x1 SWAP1 DUP2 SHL ADD SWAP1 SSTORE POP JUMP JUMPDEST PUSH1 0x20 DUP1 DUP3 MSTORE DUP2 DUP2 ADD MSTORE PUSH32 0x5468697320636F6E7472616374206973206E6F742077686974656C6973746564 PUSH1 0x40 DUP3 ADD MSTORE PUSH1 0x60 ADD SWAP1 JUMP JUMPDEST PUSH1 0x0 DUP2 SLOAD PUSH2 0x615D DUP2 PUSH2 0x5F9A JUMP JUMPDEST DUP1 DUP6 MSTORE PUSH1 0x20 PUSH1 0x1 DUP4 DUP2 AND DUP1 ISZERO PUSH2 0x617A JUMPI PUSH1 0x1 DUP2 EQ PUSH2 0x6194 JUMPI PUSH2 0x61C2 JUMP JUMPDEST PUSH1 0xFF NOT DUP6 AND DUP9 DUP5 ADD MSTORE DUP4 ISZERO ISZERO PUSH1 0x5 SHL DUP9 ADD DUP4 ADD SWAP6 POP PUSH2 0x61C2 JUMP JUMPDEST DUP7 PUSH1 0x0 MSTORE DUP3 PUSH1 0x0 KECCAK256 PUSH1 0x0 JUMPDEST DUP6 DUP2 LT ISZERO PUSH2 0x61BA JUMPI DUP2 SLOAD DUP11 DUP3 ADD DUP7 ADD MSTORE SWAP1 DUP4 ADD SWAP1 DUP5 ADD PUSH2 0x619F JUMP JUMPDEST DUP10 ADD DUP5 ADD SWAP7 POP POP JUMPDEST POP POP POP POP POP SWAP3 SWAP2 POP POP JUMP JUMPDEST PUSH1 0x60 DUP2 MSTORE PUSH1 0x0 PUSH2 0x61E0 PUSH1 0x60 DUP4 ADD DUP7 PUSH2 0x6150 JUMP JUMPDEST DUP3 DUP2 SUB PUSH1 0x20 DUP5 ADD MSTORE PUSH2 0x61F2 DUP2 DUP7 PUSH2 0x6150 JUMP JUMPDEST SWAP2 POP POP PUSH2 0x61FE DUP4 PUSH2 0x5AC0 JUMP JUMPDEST DUP3 PUSH1 0x40 DUP4 ADD MSTORE SWAP5 SWAP4 POP POP POP POP JUMP JUMPDEST PUSH1 0x20 DUP1 DUP3 MSTORE PUSH1 0x24 SWAP1 DUP3 ADD MSTORE PUSH32 0x5573652066756E6374696F6E206368616E676541646D696E526F6C6520696E73 PUSH1 0x40 DUP3 ADD MSTORE PUSH4 0x1D195859 PUSH1 0xE2 SHL PUSH1 0x60 DUP3 ADD MSTORE PUSH1 0x80 ADD SWAP1 JUMP JUMPDEST DUP1 DUP3 ADD DUP1 DUP3 GT ISZERO PUSH2 0xD16 JUMPI PUSH2 0xD16 PUSH2 0x5FE4 JUMP JUMPDEST PUSH1 0x20 DUP1 DUP3 MSTORE PUSH1 0x15 SWAP1 DUP3 ADD MSTORE PUSH21 0x10D85B1B195C881B9BDD08185D5D1A1BDC9A5E9959 PUSH1 0x5A SHL PUSH1 0x40 DUP3 ADD MSTORE PUSH1 0x60 ADD SWAP1 JUMP JUMPDEST PUSH1 0x20 DUP1 DUP3 MSTORE PUSH1 0x24 SWAP1 DUP3 ADD MSTORE PUSH32 0x4173736574206E6F74206C6F636B6564206F7220616C72656164792072656C65 PUSH1 0x40 DUP3 ADD MSTORE PUSH4 0x185CD959 PUSH1 0xE2 SHL PUSH1 0x60 DUP3 ADD MSTORE PUSH1 0x80 ADD SWAP1 JUMP JUMPDEST PUSH1 0x0 DUP3 MLOAD PUSH2 0x62E8 DUP2 DUP5 PUSH1 0x20 DUP8 ADD PUSH2 0x58D9 JUMP JUMPDEST SWAP2 SWAP1 SWAP2 ADD SWAP3 SWAP2 POP POP JUMP JUMPDEST PUSH1 0x0 PUSH1 0x20 DUP3 DUP5 SUB SLT ISZERO PUSH2 0x6304 JUMPI PUSH1 0x0 DUP1 REVERT JUMPDEST POP MLOAD SWAP2 SWAP1 POP JUMP JUMPDEST PUSH1 0x0 PUSH1 0x1 DUP3 ADD PUSH2 0x631D JUMPI PUSH2 0x631D PUSH2 0x5FE4 JUMP JUMPDEST POP PUSH1 0x1 ADD SWAP1 JUMP JUMPDEST PUSH4 0x4E487B71 PUSH1 0xE0 SHL PUSH1 0x0 MSTORE PUSH1 0x31 PUSH1 0x4 MSTORE PUSH1 0x24 PUSH1 0x0 REVERT JUMPDEST PUSH1 0x0 DUP2 PUSH2 0x6349 JUMPI PUSH2 0x6349 PUSH2 0x5FE4 JUMP JUMPDEST POP PUSH1 0x0 NOT ADD SWAP1 JUMP JUMPDEST PUSH1 0x20 DUP1 DUP3 MSTORE PUSH1 0x26 SWAP1 DUP3 ADD MSTORE PUSH32 0x596F75206D7573742073657420746865206D696E742072656365697665722061 PUSH1 0x40 DUP3 ADD MSTORE PUSH6 0x646472657373 PUSH1 0xD0 SHL PUSH1 0x60 DUP3 ADD MSTORE PUSH1 0x80 ADD SWAP1 JUMP JUMPDEST PUSH1 0x20 DUP1 DUP3 MSTORE PUSH1 0x2C SWAP1 DUP3 ADD MSTORE PUSH32 0x6F6E6C792074686520637573746F6469616E2063616E20646973616C6C6F7720 PUSH1 0x40 DUP3 ADD MSTORE PUSH12 0x3A34329034B73B32B9BA37B9 PUSH1 0xA1 SHL PUSH1 0x60 DUP3 ADD MSTORE PUSH1 0x80 ADD SWAP1 JUMP JUMPDEST PUSH32 0x416363657373436F6E74726F6C3A206163636F756E7420000000000000000000 DUP2 MSTORE PUSH1 0x0 DUP4 MLOAD PUSH2 0x641B DUP2 PUSH1 0x17 DUP6 ADD PUSH1 0x20 DUP9 ADD PUSH2 0x58D9 JUMP JUMPDEST PUSH17 0x1034B99036B4B9B9B4B733903937B6329 PUSH1 0x7D SHL PUSH1 0x17 SWAP2 DUP5 ADD SWAP2 DUP3 ADD MSTORE DUP4 MLOAD PUSH2 0x644C DUP2 PUSH1 0x28 DUP5 ADD PUSH1 0x20 DUP9 ADD PUSH2 0x58D9 JUMP JUMPDEST ADD PUSH1 0x28 ADD SWAP5 SWAP4 POP POP POP POP JUMP JUMPDEST PUSH4 0x4E487B71 PUSH1 0xE0 SHL PUSH1 0x0 MSTORE PUSH1 0x12 PUSH1 0x4 MSTORE PUSH1 0x24 PUSH1 0x0 REVERT JUMPDEST PUSH1 0x0 DUP3 PUSH2 0x647D JUMPI PUSH2 0x647D PUSH2 0x6458 JUMP JUMPDEST POP MOD SWAP1 JUMP JUMPDEST DUP1 DUP3 MUL DUP2 ISZERO DUP3 DUP3 DIV DUP5 EQ OR PUSH2 0xD16 JUMPI PUSH2 0xD16 PUSH2 0x5FE4 JUMP JUMPDEST PUSH1 0x0 DUP3 PUSH2 0x64A8 JUMPI PUSH2 0x64A8 PUSH2 0x6458 JUMP JUMPDEST POP DIV SWAP1 JUMP INVALID 0xD7 0xAA 0x2D 0xDF LOG4 0xE3 DUP2 SLT DUP3 MUL 0xBF CALLDATASIZE JUMPDEST PUSH31 0xA176F2FCA6CDF2F23C2B0A6F439376958906BA6F588BCDC2DF8426603A466 0xC9 DUP11 0xB1 0x5E PUSH26 0xF7FB7F37B53581CE39C1D01B7249DA2010ACFDA7A262372331CB EXTCODESIZE JUMPI 0xE3 0xF6 BASEFEE 0xF6 RETURNDATACOPY 0xB0 MULMOD LOG4 0x23 LOG2 0xB5 PUSH1 0x2C STATICCALL 0x4F SWAP12 SELFDESTRUCT MLOAD 0xF6 SWAP9 0xAF PUSH3 0xC65280 0xE4 SWAP5 SWAP12 0xCE 0xEC PUSH5 0xB760F3B773 DUP3 OR 0xCB 0xC5 CALLDATASIZE 0xCD 0xFC 0x4C SWAP5 PUSH4 0x676B05C2 0xA7 MSTORE SDIV 0xB8 PC CALLDATASIZE PUSH1 0xBD 0xAD CALLDATACOPY 0x5C 0xC 0xCD 0xE1 BYTE CALL PUSH23 0x68D76A408A9A5E739251B0F7C59870A264697066735822 SLT KECCAK256 0xEE XOR MSTORE8 0xEE EXTCODECOPY 0x4F 0xA5 SMOD 0x2B MULMOD 0xC8 0xB3 PUSH29 0x7C99062BB8393CD26BED9F254151C9167C335D64736F6C634300081300 CALLER 0xA7 MSTORE SDIV 0xB8 PC CALLDATASIZE PUSH1 0xBD 0xAD CALLDATACOPY 0x5C 0xC 0xCD 0xE1 BYTE CALL PUSH23 0x68D76A408A9A5E739251B0F7C598700000000000000000 "},"methodIdentifiers":{"BND_ROLE()":"2682ac91","CAK_ROLE()":"8865f1e2","CST_ROLE()":"1c67a363","DEFAULT_ADMIN_ROLE()":"a217fddf","PAY_ROLE()":"3bf2a9f4","_addressForNewAdmin()":"e336c590","_contractsAllowed(bytes32)":"806ba100","_firstVoterForNewAdmin()":"2f962866","_primaryIssuanceAccount()":"aed054d5","_votesForNewAdmin()":"7dc35505","addCouponDate(uint256)":"7469538a","allowance(address,address)":"dd62ed3e","amountLocked(address)":"f6c788b2","approve(address,uint256)":"095ea7b3","atReturningHash(address)":"a1962183","balanceOf(address)":"70a08231","balanceOfAt(address,uint256)":"4ee2cd7e","balanceOfCoupon(address,uint256)":"07b2d9e3","burn(uint256)":"42966c68","changeAdminRole(address)":"04b8c471","checkIfCouponDateExists(uint256)":"71c41f8a","checkIfMaturityDateExists(uint256)":"d4cdda91","currentCouponDate()":"e5bf6dc8","currentSnapshotDatetime()":"9ef986de","decimals()":"313ce567","decreaseAllowance(address,uint256)":"a457c2d7","delCouponDate(uint256)":"3e7e8713","disableContractFromWhitelist(bytes32)":"d696fb0b","disableInvestorFromWhitelist(address)":"d5c0beeb","enableContractToWhitelist(bytes32)":"d614284a","enableInvestorToWhitelist(address)":"d1ec6de8","forceCancel(bytes32,bytes32,bytes32)":"e09d1f97","forceRelease(bytes32,bytes32,bytes32)":"33a8ad21","getAllInvestors()":"d0a2f2c4","getBondCouponRate()":"39027f7c","getBondData()":"63896d19","getBondUnitValue()":"a7f2f6ec","getCreationDate()":"b90c1dbb","getInvestorListAtCoupon(uint256)":"7cc7bcce","getIssuanceDate()":"2877d473","getRoleAdmin(bytes32)":"248a9ca3","getRoleMember(bytes32,uint256)":"9010d07c","getRoleMemberCount(bytes32)":"ca15c873","grantBndRole(address)":"cc80473c","grantCakRole(address)":"a28f78f8","grantCstRole(address)":"f690c6c5","grantPayRole(address)":"00a9303d","grantRole(bytes32,address)":"2f2ff15d","hasRole(bytes32,address)":"91d14854","increaseAllowance(address,uint256)":"39509351","investorCustodian(address)":"8f92f490","investorsAllowed(address)":"c41251a1","isBnD(address)":"a55234b8","isCAK(address)":"4361f92a","isCallerApprovedSmartContract()":"c2faae59","isContractAllowed(address)":"6f2ddb5f","isCustodian(address)":"35c80c8c","isPay(address)":"e3965d54","lockAsset((address,address,uint256,bytes32,bytes32,bytes32,bytes32,bytes32,uint256,uint256,(bytes32,bytes32,bytes32,bytes32),uint8))":"ab62b444","makeReady()":"dc16722b","mint(uint256)":"a0712d68","name()":"06fdde03","nextSnapshotDatetime()":"eeb4cee9","primaryIssuanceAccount()":"8784ff18","publicMessage(address,string)":"d9a79978","registerAdmin()":"5ab6f71b","release(bytes32,bytes32,bytes32)":"ac8f75c1","renounceRole(bytes32,address)":"36568abe","returnBalanceToPrimaryIssuanceAccount(address)":"abc2cf2a","revertReady()":"d46be608","revokeBndRole(address)":"c1f4250b","revokeCakRole(address)":"8e1305de","revokeCstRole(address)":"222ca340","revokePayRole(address)":"f60d9ea1","revokeRole(bytes32,address)":"d547741f","sellerLocks(bytes32)":"c7725d1b","setBondData(string,uint256,bytes32,uint256,uint256,uint256,uint256,uint256)":"17559df0","setCreationDate(uint256)":"93c39393","setCurrency(bytes32)":"06ec8ca6","setCurrentCouponDate(uint256,uint256)":"3052974c","setExpectedSupply(uint256)":"d58c80b4","setIsinSymbol(string)":"4e0b0dcf","setIssuanceDate(uint256)":"d8eab9a5","setName(string)":"c47f0027","status()":"200d2ed2","supportsInterface(bytes4)":"01ffc9a7","symbol()":"95d89b41","toggleFrozen()":"3e4be639","totalSupply()":"18160ddd","totalSupplyAt(uint256)":"981b24d0","totalSupplyAtCoupon(uint256)":"cf5b3628","transfer(address,uint256)":"a9059cbb","transferFrom(address,address,uint256)":"23b872dd"}}}}}