{"src/RegisterRoleManagement.sol":{"RegisterRoleManagement":{"abi":[{"inputs":[],"stateMutability":"nonpayable","type":"constructor"},{"anonymous":false,"inputs":[{"indexed":true,"internalType":"address","name":"_addressForNewAdmin","type":"address"}],"name":"AdminChanged","type":"event"},{"anonymous":false,"inputs":[{"indexed":true,"internalType":"bytes32","name":"role","type":"bytes32"},{"indexed":true,"internalType":"bytes32","name":"previousAdminRole","type":"bytes32"},{"indexed":true,"internalType":"bytes32","name":"newAdminRole","type":"bytes32"}],"name":"RoleAdminChanged","type":"event"},{"anonymous":false,"inputs":[{"indexed":true,"internalType":"bytes32","name":"role","type":"bytes32"},{"indexed":true,"internalType":"address","name":"account","type":"address"},{"indexed":true,"internalType":"address","name":"sender","type":"address"}],"name":"RoleGranted","type":"event"},{"anonymous":false,"inputs":[{"indexed":true,"internalType":"bytes32","name":"role","type":"bytes32"},{"indexed":true,"internalType":"address","name":"account","type":"address"},{"indexed":true,"internalType":"address","name":"sender","type":"address"}],"name":"RoleRevoked","type":"event"},{"inputs":[],"name":"BND_ROLE","outputs":[{"internalType":"bytes32","name":"","type":"bytes32"}],"stateMutability":"view","type":"function"},{"inputs":[],"name":"CAK_ROLE","outputs":[{"internalType":"bytes32","name":"","type":"bytes32"}],"stateMutability":"view","type":"function"},{"inputs":[],"name":"CST_ROLE","outputs":[{"internalType":"bytes32","name":"","type":"bytes32"}],"stateMutability":"view","type":"function"},{"inputs":[],"name":"DEFAULT_ADMIN_ROLE","outputs":[{"internalType":"bytes32","name":"","type":"bytes32"}],"stateMutability":"view","type":"function"},{"inputs":[],"name":"PAY_ROLE","outputs":[{"internalType":"bytes32","name":"","type":"bytes32"}],"stateMutability":"view","type":"function"},{"inputs":[],"name":"_addressForNewAdmin","outputs":[{"internalType":"address","name":"","type":"address"}],"stateMutability":"view","type":"function"},{"inputs":[],"name":"_firstVoterForNewAdmin","outputs":[{"internalType":"address","name":"","type":"address"}],"stateMutability":"view","type":"function"},{"inputs":[],"name":"_votesForNewAdmin","outputs":[{"internalType":"uint8","name":"","type":"uint8"}],"stateMutability":"view","type":"function"},{"inputs":[{"internalType":"address","name":"account_","type":"address"}],"name":"changeAdminRole","outputs":[],"stateMutability":"nonpayable","type":"function"},{"inputs":[{"internalType":"bytes32","name":"role","type":"bytes32"}],"name":"getRoleAdmin","outputs":[{"internalType":"bytes32","name":"","type":"bytes32"}],"stateMutability":"view","type":"function"},{"inputs":[{"internalType":"bytes32","name":"role","type":"bytes32"},{"internalType":"uint256","name":"index","type":"uint256"}],"name":"getRoleMember","outputs":[{"internalType":"address","name":"","type":"address"}],"stateMutability":"view","type":"function"},{"inputs":[{"internalType":"bytes32","name":"role","type":"bytes32"}],"name":"getRoleMemberCount","outputs":[{"internalType":"uint256","name":"","type":"uint256"}],"stateMutability":"view","type":"function"},{"inputs":[{"internalType":"address","name":"bndAddress_","type":"address"}],"name":"grantBndRole","outputs":[],"stateMutability":"nonpayable","type":"function"},{"inputs":[{"internalType":"address","name":"cakAddress_","type":"address"}],"name":"grantCakRole","outputs":[],"stateMutability":"nonpayable","type":"function"},{"inputs":[{"internalType":"address","name":"cstAddress_","type":"address"}],"name":"grantCstRole","outputs":[],"stateMutability":"nonpayable","type":"function"},{"inputs":[{"internalType":"address","name":"payAddress_","type":"address"}],"name":"grantPayRole","outputs":[],"stateMutability":"nonpayable","type":"function"},{"inputs":[{"internalType":"bytes32","name":"role","type":"bytes32"},{"internalType":"address","name":"account","type":"address"}],"name":"grantRole","outputs":[],"stateMutability":"nonpayable","type":"function"},{"inputs":[{"internalType":"bytes32","name":"role","type":"bytes32"},{"internalType":"address","name":"account","type":"address"}],"name":"hasRole","outputs":[{"internalType":"bool","name":"","type":"bool"}],"stateMutability":"view","type":"function"},{"inputs":[{"internalType":"address","name":"account","type":"address"}],"name":"isBnD","outputs":[{"internalType":"bool","name":"","type":"bool"}],"stateMutability":"view","type":"function"},{"inputs":[{"internalType":"address","name":"account","type":"address"}],"name":"isCAK","outputs":[{"internalType":"bool","name":"","type":"bool"}],"stateMutability":"view","type":"function"},{"inputs":[{"internalType":"address","name":"account","type":"address"}],"name":"isCustodian","outputs":[{"internalType":"bool","name":"","type":"bool"}],"stateMutability":"view","type":"function"},{"inputs":[{"internalType":"address","name":"account","type":"address"}],"name":"isPay","outputs":[{"internalType":"bool","name":"","type":"bool"}],"stateMutability":"view","type":"function"},{"inputs":[],"name":"registerAdmin","outputs":[{"internalType":"address","name":"","type":"address"}],"stateMutability":"view","type":"function"},{"inputs":[{"internalType":"bytes32","name":"role","type":"bytes32"},{"internalType":"address","name":"account","type":"address"}],"name":"renounceRole","outputs":[],"stateMutability":"nonpayable","type":"function"},{"inputs":[{"internalType":"address","name":"bndAddress_","type":"address"}],"name":"revokeBndRole","outputs":[],"stateMutability":"nonpayable","type":"function"},{"inputs":[{"internalType":"address","name":"cakAddress_","type":"address"}],"name":"revokeCakRole","outputs":[],"stateMutability":"nonpayable","type":"function"},{"inputs":[{"internalType":"address","name":"cstAddress_","type":"address"}],"name":"revokeCstRole","outputs":[],"stateMutability":"nonpayable","type":"function"},{"inputs":[{"internalType":"address","name":"payAddress_","type":"address"}],"name":"revokePayRole","outputs":[],"stateMutability":"nonpayable","type":"function"},{"inputs":[{"internalType":"bytes32","name":"role","type":"bytes32"},{"internalType":"address","name":"account","type":"address"}],"name":"revokeRole","outputs":[],"stateMutability":"nonpayable","type":"function"},{"inputs":[{"internalType":"bytes4","name":"interfaceId","type":"bytes4"}],"name":"supportsInterface","outputs":[{"internalType":"bool","name":"","type":"bool"}],"stateMutability":"view","type":"function"}],"evm":{"bytecode":{"linkReferences":{},"object":"60806040523480156200001157600080fd5b506200001f60003362000122565b6200003a6000805160206200140e8339815191528062000132565b600280546001600160a01b031916339081179091556200006b906000805160206200140e8339815191529062000122565b620000a67ff698af62c65280e4949bceec64b760f3b7738217cbc536cdfc4c9463676b05c26000805160206200140e83398151915262000132565b620000e17f6ba6f588bcdc2df8426603a466c98ab15e79f7fb7f37b53581ce39c1d01b72496000805160206200140e83398151915262000132565b6200011c7fd7aa2ddfa4e381128202bf365b7e0a176f2fca6cdf2f23c2b0a6f439376958906000805160206200140e83398151915262000132565b620002ba565b6200012e82826200017d565b5050565b600082815260208190526040808220600101805490849055905190918391839186917fbd79b86ffe0ab8e8776151514217cd7cacd52c909f66475c3af44e129f0b00ff9190a4505050565b620001898282620001a8565b6000828152600160205260409020620001a3908262000248565b505050565b6000828152602081815260408083206001600160a01b038516845290915290205460ff166200012e576000828152602081815260408083206001600160a01b03851684529091529020805460ff19166001179055620002043390565b6001600160a01b0316816001600160a01b0316837f2f8788117e7eff1d82e926ec794901d17c78024a50270940304540a733656f0d60405160405180910390a45050565b60006200025f836001600160a01b03841662000268565b90505b92915050565b6000818152600183016020526040812054620002b15750815460018181018455600084815260208082209093018490558454848252828601909352604090209190915562000262565b50600062000262565b61114480620002ca6000396000f3fe608060405234801561001057600080fd5b50600436106101d95760003560e01c80638865f1e211610104578063c1f4250b116100a2578063e336c59011610071578063e336c59014610429578063e3965d541461043c578063f60d9ea11461044f578063f690c6c51461046257600080fd5b8063c1f4250b146103dd578063ca15c873146103f0578063cc80473c14610403578063d547741f1461041657600080fd5b806391d14854116100de57806391d148541461039c578063a217fddf146103af578063a28f78f8146103b7578063a55234b8146103ca57600080fd5b80638865f1e2146103615780638e1305de146103765780639010d07c1461038957600080fd5b80632f2ff15d1161017c5780633bf2a9f41161014b5780633bf2a9f4146103005780634361f92a146103155780635ab6f71b146103285780637dc355051461033b57600080fd5b80632f2ff15d1461029c5780632f962866146102af57806335c80c8c146102da57806336568abe146102ed57600080fd5b80631c67a363116101b85780631c67a3631461022e578063222ca34014610251578063248a9ca3146102645780632682ac911461028757600080fd5b8062a9303d146101de57806301ffc9a7146101f357806304b8c4711461021b575b600080fd5b6101f16101ec366004610f51565b610475565b005b610206610201366004610f6c565b610490565b60405190151581526020015b60405180910390f35b6101f1610229366004610f51565b6104bb565b6102436000805160206110af83398151915281565b604051908152602001610212565b6101f161025f366004610f51565b6107fa565b610243610272366004610f96565b60009081526020819052604090206001015490565b6102436000805160206110cf83398151915281565b6101f16102aa366004610faf565b610812565b6004546102c2906001600160a01b031681565b6040516001600160a01b039091168152602001610212565b6102066102e8366004610f51565b610947565b6101f16102fb366004610faf565b610961565b61024360008051602061108f83398151915281565b610206610323366004610f51565b6109db565b6002546102c2906001600160a01b031681565b60025461034f90600160a01b900460ff1681565b60405160ff9091168152602001610212565b6102436000805160206110ef83398151915281565b6101f1610384366004610f51565b6109f5565b6102c2610397366004610fdb565b610a0d565b6102066103aa366004610faf565b610a2c565b610243600081565b6101f16103c5366004610f51565b610a55565b6102066103d8366004610f51565b610a6d565b6101f16103eb366004610f51565b610a87565b6102436103fe366004610f96565b610a9f565b6101f1610411366004610f51565b610ab6565b6101f1610424366004610faf565b610ace565b6003546102c2906001600160a01b031681565b61020661044a366004610f51565b610bd8565b6101f161045d366004610f51565b610bf2565b6101f1610470366004610f51565b610c0a565b61048d60008051602061108f83398151915282610812565b50565b60006001600160e01b03198216635a05180f60e01b14806104b557506104b582610c22565b92915050565b6104d36000805160206110ef83398151915233610a2c565b6105195760405162461bcd60e51b815260206004820152601260248201527143616c6c6572206d7573742062652043414b60701b60448201526064015b60405180910390fd5b6002546001600160a01b03908116908216036105835760405162461bcd60e51b8152602060048201526024808201527f4e65772061646d696e206973207468652073616d652061732063757272656e74604482015263206f6e6560e01b6064820152608401610510565b6001600160a01b0381161580156105a65750600254600160a01b900460ff166001145b156105e6576002805460ff60a01b19169055600480546001600160a01b0319908116909155600380549091166001600160a01b0392909216919091179055565b6001600160a01b0381166106565760405162461bcd60e51b815260206004820152603160248201527f5468652070726f706f736564206e65772061646d696e2063616e6e6f7420626560448201527020746865207a65726f206164647265737360781b6064820152608401610510565b600254600160a01b900460ff166000036106ae576002805460ff60a01b1916600160a01b179055600480546001600160a01b03199081163317909155600380546001600160a01b039390931692909116919091179055565b600254600160a01b900460ff1660010361048d576003546001600160a01b038281169116146107075760048054336001600160a01b031991821617909155600380549091166001600160a01b0392909216919091179055565b600454336001600160a01b03909116036107635760405162461bcd60e51b815260206004820152601a60248201527f546869732043414b2068617320616c726561647920766f7465640000000000006044820152606401610510565b60025461077b906000906001600160a01b0316610c57565b600354610793906000906001600160a01b0316610939565b60038054600280546001600160a81b0319166001600160a01b038316908117909155600480546001600160a01b03199081169091559091169091556040517f7ce7ec0b50378fb6c0186ffb5f48325f6593fcb4ca4386f21861af3129188f5c90600090a250565b61048d6000805160206110af83398151915282610ace565b8161082f5760405162461bcd60e51b815260040161051090610ffd565b6000805160206110ef83398151915282036108d55761085c6000805160206110ef83398151915233610a2c565b8061086d575061086d600033610a2c565b6108d05760405162461bcd60e51b815260206004820152602e60248201527f43616c6c6572206d7573742062652043414b206f722041444d494e20746f207360448201526d657420616e6f746865722043414b60901b6064820152608401610510565b610939565b6108ed6000805160206110ef83398151915233610a2c565b6109395760405162461bcd60e51b815260206004820181905260248201527f43616c6c6572206d7573742062652043414b20746f20736574206120726f6c656044820152606401610510565b6109438282610c7e565b5050565b60006104b56000805160206110af83398151915283610a2c565b6001600160a01b03811633146109d15760405162461bcd60e51b815260206004820152602f60248201527f416363657373436f6e74726f6c3a2063616e206f6e6c792072656e6f756e636560448201526e103937b632b9903337b91039b2b63360891b6064820152608401610510565b6109438282610c57565b60006104b56000805160206110ef83398151915283610a2c565b61048d6000805160206110ef83398151915282610ace565b6000828152600160205260408120610a259083610ca0565b9392505050565b6000918252602082815260408084206001600160a01b0393909316845291905290205460ff1690565b61048d6000805160206110ef83398151915282610812565b60006104b56000805160206110cf83398151915283610a2c565b61048d6000805160206110cf83398151915282610ace565b60008181526001602052604081206104b590610cac565b61048d6000805160206110cf83398151915282610812565b81610aeb5760405162461bcd60e51b815260040161051090610ffd565b6000805160206110ef8339815191528203610b6857610b0b600033610a2c565b610b635760405162461bcd60e51b8152602060048201526024808201527f43616c6c6572206d7573742062652041444d494e20746f2072656d6f766520616044820152632043414b60e01b6064820152608401610510565b6109d1565b610b806000805160206110ef83398151915233610a2c565b6109d15760405162461bcd60e51b815260206004820152602360248201527f43616c6c6572206d7573742062652043414b20746f2072656d6f7665206120726044820152626f6c6560e81b6064820152608401610510565b60006104b560008051602061108f83398151915283610a2c565b61048d60008051602061108f83398151915282610ace565b61048d6000805160206110af83398151915282610812565b60006001600160e01b03198216637965db0b60e01b14806104b557506301ffc9a760e01b6001600160e01b03198316146104b5565b610c618282610cb6565b6000828152600160205260409020610c799082610d1b565b505050565b610c888282610d30565b6000828152600160205260409020610c799082610db4565b6000610a258383610dc9565b60006104b5825490565b610cc08282610a2c565b15610943576000828152602081815260408083206001600160a01b0385168085529252808320805460ff1916905551339285917ff6391f5c32d9c69d2a47ea670b442974b53935d1edc7fd64eb21e047a839171b9190a45050565b6000610a25836001600160a01b038416610df3565b610d3a8282610a2c565b610943576000828152602081815260408083206001600160a01b03851684529091529020805460ff19166001179055610d703390565b6001600160a01b0316816001600160a01b0316837f2f8788117e7eff1d82e926ec794901d17c78024a50270940304540a733656f0d60405160405180910390a45050565b6000610a25836001600160a01b038416610ee6565b6000826000018281548110610de057610de0611041565b9060005260206000200154905092915050565b60008181526001830160205260408120548015610edc576000610e17600183611057565b8554909150600090610e2b90600190611057565b9050818114610e90576000866000018281548110610e4b57610e4b611041565b9060005260206000200154905080876000018481548110610e6e57610e6e611041565b6000918252602080832090910192909255918252600188019052604090208390555b8554869080610ea157610ea1611078565b6001900381819060005260206000200160009055905585600101600086815260200190815260200160002060009055600193505050506104b5565b60009150506104b5565b6000818152600183016020526040812054610f2d575081546001818101845560008481526020808220909301849055845484825282860190935260409020919091556104b5565b5060006104b5565b80356001600160a01b0381168114610f4c57600080fd5b919050565b600060208284031215610f6357600080fd5b610a2582610f35565b600060208284031215610f7e57600080fd5b81356001600160e01b031981168114610a2557600080fd5b600060208284031215610fa857600080fd5b5035919050565b60008060408385031215610fc257600080fd5b82359150610fd260208401610f35565b90509250929050565b60008060408385031215610fee57600080fd5b50508035926020909101359150565b60208082526024908201527f5573652066756e6374696f6e206368616e676541646d696e526f6c6520696e736040820152631d19585960e21b606082015260800190565b634e487b7160e01b600052603260045260246000fd5b818103818111156104b557634e487b7160e01b600052601160045260246000fd5b634e487b7160e01b600052603160045260246000fdfed7aa2ddfa4e381128202bf365b7e0a176f2fca6cdf2f23c2b0a6f439376958906ba6f588bcdc2df8426603a466c98ab15e79f7fb7f37b53581ce39c1d01b7249f698af62c65280e4949bceec64b760f3b7738217cbc536cdfc4c9463676b05c2a75205b8583660bdad375c0ccde11af17668d76a408a9a5e739251b0f7c59870a2646970667358221220b2849ddb9fecd6c5fb7dc5dde86550689ca79c0ef92be5bcae12d69634b1a5de64736f6c63430008130033a75205b8583660bdad375c0ccde11af17668d76a408a9a5e739251b0f7c59870","opcodes":"PUSH1 0x80 PUSH1 0x40 MSTORE CALLVALUE DUP1 ISZERO PUSH3 0x11 JUMPI PUSH1 0x0 DUP1 REVERT JUMPDEST POP PUSH3 0x1F PUSH1 0x0 CALLER PUSH3 0x122 JUMP JUMPDEST PUSH3 0x3A PUSH1 0x0 DUP1 MLOAD PUSH1 0x20 PUSH3 0x140E DUP4 CODECOPY DUP2 MLOAD SWAP2 MSTORE DUP1 PUSH3 0x132 JUMP JUMPDEST PUSH1 0x2 DUP1 SLOAD PUSH1 0x1 PUSH1 0x1 PUSH1 0xA0 SHL SUB NOT AND CALLER SWAP1 DUP2 OR SWAP1 SWAP2 SSTORE PUSH3 0x6B SWAP1 PUSH1 0x0 DUP1 MLOAD PUSH1 0x20 PUSH3 0x140E DUP4 CODECOPY DUP2 MLOAD SWAP2 MSTORE SWAP1 PUSH3 0x122 JUMP JUMPDEST PUSH3 0xA6 PUSH32 0xF698AF62C65280E4949BCEEC64B760F3B7738217CBC536CDFC4C9463676B05C2 PUSH1 0x0 DUP1 MLOAD PUSH1 0x20 PUSH3 0x140E DUP4 CODECOPY DUP2 MLOAD SWAP2 MSTORE PUSH3 0x132 JUMP JUMPDEST PUSH3 0xE1 PUSH32 0x6BA6F588BCDC2DF8426603A466C98AB15E79F7FB7F37B53581CE39C1D01B7249 PUSH1 0x0 DUP1 MLOAD PUSH1 0x20 PUSH3 0x140E DUP4 CODECOPY DUP2 MLOAD SWAP2 MSTORE PUSH3 0x132 JUMP JUMPDEST PUSH3 0x11C PUSH32 0xD7AA2DDFA4E381128202BF365B7E0A176F2FCA6CDF2F23C2B0A6F43937695890 PUSH1 0x0 DUP1 MLOAD PUSH1 0x20 PUSH3 0x140E DUP4 CODECOPY DUP2 MLOAD SWAP2 MSTORE PUSH3 0x132 JUMP JUMPDEST PUSH3 0x2BA JUMP JUMPDEST PUSH3 0x12E DUP3 DUP3 PUSH3 0x17D JUMP JUMPDEST POP POP JUMP JUMPDEST PUSH1 0x0 DUP3 DUP2 MSTORE PUSH1 0x20 DUP2 SWAP1 MSTORE PUSH1 0x40 DUP1 DUP3 KECCAK256 PUSH1 0x1 ADD DUP1 SLOAD SWAP1 DUP5 SWAP1 SSTORE SWAP1 MLOAD SWAP1 SWAP2 DUP4 SWAP2 DUP4 SWAP2 DUP7 SWAP2 PUSH32 0xBD79B86FFE0AB8E8776151514217CD7CACD52C909F66475C3AF44E129F0B00FF SWAP2 SWAP1 LOG4 POP POP POP JUMP JUMPDEST PUSH3 0x189 DUP3 DUP3 PUSH3 0x1A8 JUMP JUMPDEST PUSH1 0x0 DUP3 DUP2 MSTORE PUSH1 0x1 PUSH1 0x20 MSTORE PUSH1 0x40 SWAP1 KECCAK256 PUSH3 0x1A3 SWAP1 DUP3 PUSH3 0x248 JUMP JUMPDEST POP POP POP JUMP JUMPDEST PUSH1 0x0 DUP3 DUP2 MSTORE PUSH1 0x20 DUP2 DUP2 MSTORE PUSH1 0x40 DUP1 DUP4 KECCAK256 PUSH1 0x1 PUSH1 0x1 PUSH1 0xA0 SHL SUB DUP6 AND DUP5 MSTORE SWAP1 SWAP2 MSTORE SWAP1 KECCAK256 SLOAD PUSH1 0xFF AND PUSH3 0x12E JUMPI PUSH1 0x0 DUP3 DUP2 MSTORE PUSH1 0x20 DUP2 DUP2 MSTORE PUSH1 0x40 DUP1 DUP4 KECCAK256 PUSH1 0x1 PUSH1 0x1 PUSH1 0xA0 SHL SUB DUP6 AND DUP5 MSTORE SWAP1 SWAP2 MSTORE SWAP1 KECCAK256 DUP1 SLOAD PUSH1 0xFF NOT AND PUSH1 0x1 OR SWAP1 SSTORE PUSH3 0x204 CALLER SWAP1 JUMP JUMPDEST PUSH1 0x1 PUSH1 0x1 PUSH1 0xA0 SHL SUB AND DUP2 PUSH1 0x1 PUSH1 0x1 PUSH1 0xA0 SHL SUB AND DUP4 PUSH32 0x2F8788117E7EFF1D82E926EC794901D17C78024A50270940304540A733656F0D PUSH1 0x40 MLOAD PUSH1 0x40 MLOAD DUP1 SWAP2 SUB SWAP1 LOG4 POP POP JUMP JUMPDEST PUSH1 0x0 PUSH3 0x25F DUP4 PUSH1 0x1 PUSH1 0x1 PUSH1 0xA0 SHL SUB DUP5 AND PUSH3 0x268 JUMP JUMPDEST SWAP1 POP JUMPDEST SWAP3 SWAP2 POP POP JUMP JUMPDEST PUSH1 0x0 DUP2 DUP2 MSTORE PUSH1 0x1 DUP4 ADD PUSH1 0x20 MSTORE PUSH1 0x40 DUP2 KECCAK256 SLOAD PUSH3 0x2B1 JUMPI POP DUP2 SLOAD PUSH1 0x1 DUP2 DUP2 ADD DUP5 SSTORE PUSH1 0x0 DUP5 DUP2 MSTORE PUSH1 0x20 DUP1 DUP3 KECCAK256 SWAP1 SWAP4 ADD DUP5 SWAP1 SSTORE DUP5 SLOAD DUP5 DUP3 MSTORE DUP3 DUP7 ADD SWAP1 SWAP4 MSTORE PUSH1 0x40 SWAP1 KECCAK256 SWAP2 SWAP1 SWAP2 SSTORE PUSH3 0x262 JUMP JUMPDEST POP PUSH1 0x0 PUSH3 0x262 JUMP JUMPDEST PUSH2 0x1144 DUP1 PUSH3 0x2CA PUSH1 0x0 CODECOPY PUSH1 0x0 RETURN INVALID PUSH1 0x80 PUSH1 0x40 MSTORE CALLVALUE DUP1 ISZERO PUSH2 0x10 JUMPI PUSH1 0x0 DUP1 REVERT JUMPDEST POP PUSH1 0x4 CALLDATASIZE LT PUSH2 0x1D9 JUMPI PUSH1 0x0 CALLDATALOAD PUSH1 0xE0 SHR DUP1 PUSH4 0x8865F1E2 GT PUSH2 0x104 JUMPI DUP1 PUSH4 0xC1F4250B GT PUSH2 0xA2 JUMPI DUP1 PUSH4 0xE336C590 GT PUSH2 0x71 JUMPI DUP1 PUSH4 0xE336C590 EQ PUSH2 0x429 JUMPI DUP1 PUSH4 0xE3965D54 EQ PUSH2 0x43C JUMPI DUP1 PUSH4 0xF60D9EA1 EQ PUSH2 0x44F JUMPI DUP1 PUSH4 0xF690C6C5 EQ PUSH2 0x462 JUMPI PUSH1 0x0 DUP1 REVERT JUMPDEST DUP1 PUSH4 0xC1F4250B EQ PUSH2 0x3DD JUMPI DUP1 PUSH4 0xCA15C873 EQ PUSH2 0x3F0 JUMPI DUP1 PUSH4 0xCC80473C EQ PUSH2 0x403 JUMPI DUP1 PUSH4 0xD547741F EQ PUSH2 0x416 JUMPI PUSH1 0x0 DUP1 REVERT JUMPDEST DUP1 PUSH4 0x91D14854 GT PUSH2 0xDE JUMPI DUP1 PUSH4 0x91D14854 EQ PUSH2 0x39C JUMPI DUP1 PUSH4 0xA217FDDF EQ PUSH2 0x3AF JUMPI DUP1 PUSH4 0xA28F78F8 EQ PUSH2 0x3B7 JUMPI DUP1 PUSH4 0xA55234B8 EQ PUSH2 0x3CA JUMPI PUSH1 0x0 DUP1 REVERT JUMPDEST DUP1 PUSH4 0x8865F1E2 EQ PUSH2 0x361 JUMPI DUP1 PUSH4 0x8E1305DE EQ PUSH2 0x376 JUMPI DUP1 PUSH4 0x9010D07C EQ PUSH2 0x389 JUMPI PUSH1 0x0 DUP1 REVERT JUMPDEST DUP1 PUSH4 0x2F2FF15D GT PUSH2 0x17C JUMPI DUP1 PUSH4 0x3BF2A9F4 GT PUSH2 0x14B JUMPI DUP1 PUSH4 0x3BF2A9F4 EQ PUSH2 0x300 JUMPI DUP1 PUSH4 0x4361F92A EQ PUSH2 0x315 JUMPI DUP1 PUSH4 0x5AB6F71B EQ PUSH2 0x328 JUMPI DUP1 PUSH4 0x7DC35505 EQ PUSH2 0x33B JUMPI PUSH1 0x0 DUP1 REVERT JUMPDEST DUP1 PUSH4 0x2F2FF15D EQ PUSH2 0x29C JUMPI DUP1 PUSH4 0x2F962866 EQ PUSH2 0x2AF JUMPI DUP1 PUSH4 0x35C80C8C EQ PUSH2 0x2DA JUMPI DUP1 PUSH4 0x36568ABE EQ PUSH2 0x2ED JUMPI PUSH1 0x0 DUP1 REVERT JUMPDEST DUP1 PUSH4 0x1C67A363 GT PUSH2 0x1B8 JUMPI DUP1 PUSH4 0x1C67A363 EQ PUSH2 0x22E JUMPI DUP1 PUSH4 0x222CA340 EQ PUSH2 0x251 JUMPI DUP1 PUSH4 0x248A9CA3 EQ PUSH2 0x264 JUMPI DUP1 PUSH4 0x2682AC91 EQ PUSH2 0x287 JUMPI PUSH1 0x0 DUP1 REVERT JUMPDEST DUP1 PUSH3 0xA9303D EQ PUSH2 0x1DE JUMPI DUP1 PUSH4 0x1FFC9A7 EQ PUSH2 0x1F3 JUMPI DUP1 PUSH4 0x4B8C471 EQ PUSH2 0x21B JUMPI JUMPDEST PUSH1 0x0 DUP1 REVERT JUMPDEST PUSH2 0x1F1 PUSH2 0x1EC CALLDATASIZE PUSH1 0x4 PUSH2 0xF51 JUMP JUMPDEST PUSH2 0x475 JUMP JUMPDEST STOP JUMPDEST PUSH2 0x206 PUSH2 0x201 CALLDATASIZE PUSH1 0x4 PUSH2 0xF6C JUMP JUMPDEST PUSH2 0x490 JUMP JUMPDEST PUSH1 0x40 MLOAD SWAP1 ISZERO ISZERO DUP2 MSTORE PUSH1 0x20 ADD JUMPDEST PUSH1 0x40 MLOAD DUP1 SWAP2 SUB SWAP1 RETURN JUMPDEST PUSH2 0x1F1 PUSH2 0x229 CALLDATASIZE PUSH1 0x4 PUSH2 0xF51 JUMP JUMPDEST PUSH2 0x4BB JUMP JUMPDEST PUSH2 0x243 PUSH1 0x0 DUP1 MLOAD PUSH1 0x20 PUSH2 0x10AF DUP4 CODECOPY DUP2 MLOAD SWAP2 MSTORE DUP2 JUMP JUMPDEST PUSH1 0x40 MLOAD SWAP1 DUP2 MSTORE PUSH1 0x20 ADD PUSH2 0x212 JUMP JUMPDEST PUSH2 0x1F1 PUSH2 0x25F CALLDATASIZE PUSH1 0x4 PUSH2 0xF51 JUMP JUMPDEST PUSH2 0x7FA JUMP JUMPDEST PUSH2 0x243 PUSH2 0x272 CALLDATASIZE PUSH1 0x4 PUSH2 0xF96 JUMP JUMPDEST PUSH1 0x0 SWAP1 DUP2 MSTORE PUSH1 0x20 DUP2 SWAP1 MSTORE PUSH1 0x40 SWAP1 KECCAK256 PUSH1 0x1 ADD SLOAD SWAP1 JUMP JUMPDEST PUSH2 0x243 PUSH1 0x0 DUP1 MLOAD PUSH1 0x20 PUSH2 0x10CF DUP4 CODECOPY DUP2 MLOAD SWAP2 MSTORE DUP2 JUMP JUMPDEST PUSH2 0x1F1 PUSH2 0x2AA CALLDATASIZE PUSH1 0x4 PUSH2 0xFAF JUMP JUMPDEST PUSH2 0x812 JUMP JUMPDEST PUSH1 0x4 SLOAD PUSH2 0x2C2 SWAP1 PUSH1 0x1 PUSH1 0x1 PUSH1 0xA0 SHL SUB AND DUP2 JUMP JUMPDEST PUSH1 0x40 MLOAD PUSH1 0x1 PUSH1 0x1 PUSH1 0xA0 SHL SUB SWAP1 SWAP2 AND DUP2 MSTORE PUSH1 0x20 ADD PUSH2 0x212 JUMP JUMPDEST PUSH2 0x206 PUSH2 0x2E8 CALLDATASIZE PUSH1 0x4 PUSH2 0xF51 JUMP JUMPDEST PUSH2 0x947 JUMP JUMPDEST PUSH2 0x1F1 PUSH2 0x2FB CALLDATASIZE PUSH1 0x4 PUSH2 0xFAF JUMP JUMPDEST PUSH2 0x961 JUMP JUMPDEST PUSH2 0x243 PUSH1 0x0 DUP1 MLOAD PUSH1 0x20 PUSH2 0x108F DUP4 CODECOPY DUP2 MLOAD SWAP2 MSTORE DUP2 JUMP JUMPDEST PUSH2 0x206 PUSH2 0x323 CALLDATASIZE PUSH1 0x4 PUSH2 0xF51 JUMP JUMPDEST PUSH2 0x9DB JUMP JUMPDEST PUSH1 0x2 SLOAD PUSH2 0x2C2 SWAP1 PUSH1 0x1 PUSH1 0x1 PUSH1 0xA0 SHL SUB AND DUP2 JUMP JUMPDEST PUSH1 0x2 SLOAD PUSH2 0x34F SWAP1 PUSH1 0x1 PUSH1 0xA0 SHL SWAP1 DIV PUSH1 0xFF AND DUP2 JUMP JUMPDEST PUSH1 0x40 MLOAD PUSH1 0xFF SWAP1 SWAP2 AND DUP2 MSTORE PUSH1 0x20 ADD PUSH2 0x212 JUMP JUMPDEST PUSH2 0x243 PUSH1 0x0 DUP1 MLOAD PUSH1 0x20 PUSH2 0x10EF DUP4 CODECOPY DUP2 MLOAD SWAP2 MSTORE DUP2 JUMP JUMPDEST PUSH2 0x1F1 PUSH2 0x384 CALLDATASIZE PUSH1 0x4 PUSH2 0xF51 JUMP JUMPDEST PUSH2 0x9F5 JUMP JUMPDEST PUSH2 0x2C2 PUSH2 0x397 CALLDATASIZE PUSH1 0x4 PUSH2 0xFDB JUMP JUMPDEST PUSH2 0xA0D JUMP JUMPDEST PUSH2 0x206 PUSH2 0x3AA CALLDATASIZE PUSH1 0x4 PUSH2 0xFAF JUMP JUMPDEST PUSH2 0xA2C JUMP JUMPDEST PUSH2 0x243 PUSH1 0x0 DUP2 JUMP JUMPDEST PUSH2 0x1F1 PUSH2 0x3C5 CALLDATASIZE PUSH1 0x4 PUSH2 0xF51 JUMP JUMPDEST PUSH2 0xA55 JUMP JUMPDEST PUSH2 0x206 PUSH2 0x3D8 CALLDATASIZE PUSH1 0x4 PUSH2 0xF51 JUMP JUMPDEST PUSH2 0xA6D JUMP JUMPDEST PUSH2 0x1F1 PUSH2 0x3EB CALLDATASIZE PUSH1 0x4 PUSH2 0xF51 JUMP JUMPDEST PUSH2 0xA87 JUMP JUMPDEST PUSH2 0x243 PUSH2 0x3FE CALLDATASIZE PUSH1 0x4 PUSH2 0xF96 JUMP JUMPDEST PUSH2 0xA9F JUMP JUMPDEST PUSH2 0x1F1 PUSH2 0x411 CALLDATASIZE PUSH1 0x4 PUSH2 0xF51 JUMP JUMPDEST PUSH2 0xAB6 JUMP JUMPDEST PUSH2 0x1F1 PUSH2 0x424 CALLDATASIZE PUSH1 0x4 PUSH2 0xFAF JUMP JUMPDEST PUSH2 0xACE JUMP JUMPDEST PUSH1 0x3 SLOAD PUSH2 0x2C2 SWAP1 PUSH1 0x1 PUSH1 0x1 PUSH1 0xA0 SHL SUB AND DUP2 JUMP JUMPDEST PUSH2 0x206 PUSH2 0x44A CALLDATASIZE PUSH1 0x4 PUSH2 0xF51 JUMP JUMPDEST PUSH2 0xBD8 JUMP JUMPDEST PUSH2 0x1F1 PUSH2 0x45D CALLDATASIZE PUSH1 0x4 PUSH2 0xF51 JUMP JUMPDEST PUSH2 0xBF2 JUMP JUMPDEST PUSH2 0x1F1 PUSH2 0x470 CALLDATASIZE PUSH1 0x4 PUSH2 0xF51 JUMP JUMPDEST PUSH2 0xC0A JUMP JUMPDEST PUSH2 0x48D PUSH1 0x0 DUP1 MLOAD PUSH1 0x20 PUSH2 0x108F DUP4 CODECOPY DUP2 MLOAD SWAP2 MSTORE DUP3 PUSH2 0x812 JUMP JUMPDEST POP JUMP JUMPDEST PUSH1 0x0 PUSH1 0x1 PUSH1 0x1 PUSH1 0xE0 SHL SUB NOT DUP3 AND PUSH4 0x5A05180F PUSH1 0xE0 SHL EQ DUP1 PUSH2 0x4B5 JUMPI POP PUSH2 0x4B5 DUP3 PUSH2 0xC22 JUMP JUMPDEST SWAP3 SWAP2 POP POP JUMP JUMPDEST PUSH2 0x4D3 PUSH1 0x0 DUP1 MLOAD PUSH1 0x20 PUSH2 0x10EF DUP4 CODECOPY DUP2 MLOAD SWAP2 MSTORE CALLER PUSH2 0xA2C JUMP JUMPDEST PUSH2 0x519 JUMPI PUSH1 0x40 MLOAD PUSH3 0x461BCD PUSH1 0xE5 SHL DUP2 MSTORE PUSH1 0x20 PUSH1 0x4 DUP3 ADD MSTORE PUSH1 0x12 PUSH1 0x24 DUP3 ADD MSTORE PUSH18 0x43616C6C6572206D7573742062652043414B PUSH1 0x70 SHL PUSH1 0x44 DUP3 ADD MSTORE PUSH1 0x64 ADD JUMPDEST PUSH1 0x40 MLOAD DUP1 SWAP2 SUB SWAP1 REVERT JUMPDEST PUSH1 0x2 SLOAD PUSH1 0x1 PUSH1 0x1 PUSH1 0xA0 SHL SUB SWAP1 DUP2 AND SWAP1 DUP3 AND SUB PUSH2 0x583 JUMPI PUSH1 0x40 MLOAD PUSH3 0x461BCD PUSH1 0xE5 SHL DUP2 MSTORE PUSH1 0x20 PUSH1 0x4 DUP3 ADD MSTORE PUSH1 0x24 DUP1 DUP3 ADD MSTORE PUSH32 0x4E65772061646D696E206973207468652073616D652061732063757272656E74 PUSH1 0x44 DUP3 ADD MSTORE PUSH4 0x206F6E65 PUSH1 0xE0 SHL PUSH1 0x64 DUP3 ADD MSTORE PUSH1 0x84 ADD PUSH2 0x510 JUMP JUMPDEST PUSH1 0x1 PUSH1 0x1 PUSH1 0xA0 SHL SUB DUP2 AND ISZERO DUP1 ISZERO PUSH2 0x5A6 JUMPI POP PUSH1 0x2 SLOAD PUSH1 0x1 PUSH1 0xA0 SHL SWAP1 DIV PUSH1 0xFF AND PUSH1 0x1 EQ JUMPDEST ISZERO PUSH2 0x5E6 JUMPI PUSH1 0x2 DUP1 SLOAD PUSH1 0xFF PUSH1 0xA0 SHL NOT AND SWAP1 SSTORE PUSH1 0x4 DUP1 SLOAD PUSH1 0x1 PUSH1 0x1 PUSH1 0xA0 SHL SUB NOT SWAP1 DUP2 AND SWAP1 SWAP2 SSTORE PUSH1 0x3 DUP1 SLOAD SWAP1 SWAP2 AND PUSH1 0x1 PUSH1 0x1 PUSH1 0xA0 SHL SUB SWAP3 SWAP1 SWAP3 AND SWAP2 SWAP1 SWAP2 OR SWAP1 SSTORE JUMP JUMPDEST PUSH1 0x1 PUSH1 0x1 PUSH1 0xA0 SHL SUB DUP2 AND PUSH2 0x656 JUMPI PUSH1 0x40 MLOAD PUSH3 0x461BCD PUSH1 0xE5 SHL DUP2 MSTORE PUSH1 0x20 PUSH1 0x4 DUP3 ADD MSTORE PUSH1 0x31 PUSH1 0x24 DUP3 ADD MSTORE PUSH32 0x5468652070726F706F736564206E65772061646D696E2063616E6E6F74206265 PUSH1 0x44 DUP3 ADD MSTORE PUSH17 0x20746865207A65726F2061646472657373 PUSH1 0x78 SHL PUSH1 0x64 DUP3 ADD MSTORE PUSH1 0x84 ADD PUSH2 0x510 JUMP JUMPDEST PUSH1 0x2 SLOAD PUSH1 0x1 PUSH1 0xA0 SHL SWAP1 DIV PUSH1 0xFF AND PUSH1 0x0 SUB PUSH2 0x6AE JUMPI PUSH1 0x2 DUP1 SLOAD PUSH1 0xFF PUSH1 0xA0 SHL NOT AND PUSH1 0x1 PUSH1 0xA0 SHL OR SWAP1 SSTORE PUSH1 0x4 DUP1 SLOAD PUSH1 0x1 PUSH1 0x1 PUSH1 0xA0 SHL SUB NOT SWAP1 DUP2 AND CALLER OR SWAP1 SWAP2 SSTORE PUSH1 0x3 DUP1 SLOAD PUSH1 0x1 PUSH1 0x1 PUSH1 0xA0 SHL SUB SWAP4 SWAP1 SWAP4 AND SWAP3 SWAP1 SWAP2 AND SWAP2 SWAP1 SWAP2 OR SWAP1 SSTORE JUMP JUMPDEST PUSH1 0x2 SLOAD PUSH1 0x1 PUSH1 0xA0 SHL SWAP1 DIV PUSH1 0xFF AND PUSH1 0x1 SUB PUSH2 0x48D JUMPI PUSH1 0x3 SLOAD PUSH1 0x1 PUSH1 0x1 PUSH1 0xA0 SHL SUB DUP3 DUP2 AND SWAP2 AND EQ PUSH2 0x707 JUMPI PUSH1 0x4 DUP1 SLOAD CALLER PUSH1 0x1 PUSH1 0x1 PUSH1 0xA0 SHL SUB NOT SWAP2 DUP3 AND OR SWAP1 SWAP2 SSTORE PUSH1 0x3 DUP1 SLOAD SWAP1 SWAP2 AND PUSH1 0x1 PUSH1 0x1 PUSH1 0xA0 SHL SUB SWAP3 SWAP1 SWAP3 AND SWAP2 SWAP1 SWAP2 OR SWAP1 SSTORE JUMP JUMPDEST PUSH1 0x4 SLOAD CALLER PUSH1 0x1 PUSH1 0x1 PUSH1 0xA0 SHL SUB SWAP1 SWAP2 AND SUB PUSH2 0x763 JUMPI PUSH1 0x40 MLOAD PUSH3 0x461BCD PUSH1 0xE5 SHL DUP2 MSTORE PUSH1 0x20 PUSH1 0x4 DUP3 ADD MSTORE PUSH1 0x1A PUSH1 0x24 DUP3 ADD MSTORE PUSH32 0x546869732043414B2068617320616C726561647920766F746564000000000000 PUSH1 0x44 DUP3 ADD MSTORE PUSH1 0x64 ADD PUSH2 0x510 JUMP JUMPDEST PUSH1 0x2 SLOAD PUSH2 0x77B SWAP1 PUSH1 0x0 SWAP1 PUSH1 0x1 PUSH1 0x1 PUSH1 0xA0 SHL SUB AND PUSH2 0xC57 JUMP JUMPDEST PUSH1 0x3 SLOAD PUSH2 0x793 SWAP1 PUSH1 0x0 SWAP1 PUSH1 0x1 PUSH1 0x1 PUSH1 0xA0 SHL SUB AND PUSH2 0x939 JUMP JUMPDEST PUSH1 0x3 DUP1 SLOAD PUSH1 0x2 DUP1 SLOAD PUSH1 0x1 PUSH1 0x1 PUSH1 0xA8 SHL SUB NOT AND PUSH1 0x1 PUSH1 0x1 PUSH1 0xA0 SHL SUB DUP4 AND SWAP1 DUP2 OR SWAP1 SWAP2 SSTORE PUSH1 0x4 DUP1 SLOAD PUSH1 0x1 PUSH1 0x1 PUSH1 0xA0 SHL SUB NOT SWAP1 DUP2 AND SWAP1 SWAP2 SSTORE SWAP1 SWAP2 AND SWAP1 SWAP2 SSTORE PUSH1 0x40 MLOAD PUSH32 0x7CE7EC0B50378FB6C0186FFB5F48325F6593FCB4CA4386F21861AF3129188F5C SWAP1 PUSH1 0x0 SWAP1 LOG2 POP JUMP JUMPDEST PUSH2 0x48D PUSH1 0x0 DUP1 MLOAD PUSH1 0x20 PUSH2 0x10AF DUP4 CODECOPY DUP2 MLOAD SWAP2 MSTORE DUP3 PUSH2 0xACE JUMP JUMPDEST DUP2 PUSH2 0x82F JUMPI PUSH1 0x40 MLOAD PUSH3 0x461BCD PUSH1 0xE5 SHL DUP2 MSTORE PUSH1 0x4 ADD PUSH2 0x510 SWAP1 PUSH2 0xFFD JUMP JUMPDEST PUSH1 0x0 DUP1 MLOAD PUSH1 0x20 PUSH2 0x10EF DUP4 CODECOPY DUP2 MLOAD SWAP2 MSTORE DUP3 SUB PUSH2 0x8D5 JUMPI PUSH2 0x85C PUSH1 0x0 DUP1 MLOAD PUSH1 0x20 PUSH2 0x10EF DUP4 CODECOPY DUP2 MLOAD SWAP2 MSTORE CALLER PUSH2 0xA2C JUMP JUMPDEST DUP1 PUSH2 0x86D JUMPI POP PUSH2 0x86D PUSH1 0x0 CALLER PUSH2 0xA2C JUMP JUMPDEST PUSH2 0x8D0 JUMPI PUSH1 0x40 MLOAD PUSH3 0x461BCD PUSH1 0xE5 SHL DUP2 MSTORE PUSH1 0x20 PUSH1 0x4 DUP3 ADD MSTORE PUSH1 0x2E PUSH1 0x24 DUP3 ADD MSTORE PUSH32 0x43616C6C6572206D7573742062652043414B206F722041444D494E20746F2073 PUSH1 0x44 DUP3 ADD MSTORE PUSH14 0x657420616E6F746865722043414B PUSH1 0x90 SHL PUSH1 0x64 DUP3 ADD MSTORE PUSH1 0x84 ADD PUSH2 0x510 JUMP JUMPDEST PUSH2 0x939 JUMP JUMPDEST PUSH2 0x8ED PUSH1 0x0 DUP1 MLOAD PUSH1 0x20 PUSH2 0x10EF DUP4 CODECOPY DUP2 MLOAD SWAP2 MSTORE CALLER PUSH2 0xA2C JUMP JUMPDEST PUSH2 0x939 JUMPI PUSH1 0x40 MLOAD PUSH3 0x461BCD PUSH1 0xE5 SHL DUP2 MSTORE PUSH1 0x20 PUSH1 0x4 DUP3 ADD DUP2 SWAP1 MSTORE PUSH1 0x24 DUP3 ADD MSTORE PUSH32 0x43616C6C6572206D7573742062652043414B20746F20736574206120726F6C65 PUSH1 0x44 DUP3 ADD MSTORE PUSH1 0x64 ADD PUSH2 0x510 JUMP JUMPDEST PUSH2 0x943 DUP3 DUP3 PUSH2 0xC7E JUMP JUMPDEST POP POP JUMP JUMPDEST PUSH1 0x0 PUSH2 0x4B5 PUSH1 0x0 DUP1 MLOAD PUSH1 0x20 PUSH2 0x10AF DUP4 CODECOPY DUP2 MLOAD SWAP2 MSTORE DUP4 PUSH2 0xA2C JUMP JUMPDEST PUSH1 0x1 PUSH1 0x1 PUSH1 0xA0 SHL SUB DUP2 AND CALLER EQ PUSH2 0x9D1 JUMPI PUSH1 0x40 MLOAD PUSH3 0x461BCD PUSH1 0xE5 SHL DUP2 MSTORE PUSH1 0x20 PUSH1 0x4 DUP3 ADD MSTORE PUSH1 0x2F PUSH1 0x24 DUP3 ADD MSTORE PUSH32 0x416363657373436F6E74726F6C3A2063616E206F6E6C792072656E6F756E6365 PUSH1 0x44 DUP3 ADD MSTORE PUSH15 0x103937B632B9903337B91039B2B633 PUSH1 0x89 SHL PUSH1 0x64 DUP3 ADD MSTORE PUSH1 0x84 ADD PUSH2 0x510 JUMP JUMPDEST PUSH2 0x943 DUP3 DUP3 PUSH2 0xC57 JUMP JUMPDEST PUSH1 0x0 PUSH2 0x4B5 PUSH1 0x0 DUP1 MLOAD PUSH1 0x20 PUSH2 0x10EF DUP4 CODECOPY DUP2 MLOAD SWAP2 MSTORE DUP4 PUSH2 0xA2C JUMP JUMPDEST PUSH2 0x48D PUSH1 0x0 DUP1 MLOAD PUSH1 0x20 PUSH2 0x10EF DUP4 CODECOPY DUP2 MLOAD SWAP2 MSTORE DUP3 PUSH2 0xACE JUMP JUMPDEST PUSH1 0x0 DUP3 DUP2 MSTORE PUSH1 0x1 PUSH1 0x20 MSTORE PUSH1 0x40 DUP2 KECCAK256 PUSH2 0xA25 SWAP1 DUP4 PUSH2 0xCA0 JUMP JUMPDEST SWAP4 SWAP3 POP POP POP JUMP JUMPDEST PUSH1 0x0 SWAP2 DUP3 MSTORE PUSH1 0x20 DUP3 DUP2 MSTORE PUSH1 0x40 DUP1 DUP5 KECCAK256 PUSH1 0x1 PUSH1 0x1 PUSH1 0xA0 SHL SUB SWAP4 SWAP1 SWAP4 AND DUP5 MSTORE SWAP2 SWAP1 MSTORE SWAP1 KECCAK256 SLOAD PUSH1 0xFF AND SWAP1 JUMP JUMPDEST PUSH2 0x48D PUSH1 0x0 DUP1 MLOAD PUSH1 0x20 PUSH2 0x10EF DUP4 CODECOPY DUP2 MLOAD SWAP2 MSTORE DUP3 PUSH2 0x812 JUMP JUMPDEST PUSH1 0x0 PUSH2 0x4B5 PUSH1 0x0 DUP1 MLOAD PUSH1 0x20 PUSH2 0x10CF DUP4 CODECOPY DUP2 MLOAD SWAP2 MSTORE DUP4 PUSH2 0xA2C JUMP JUMPDEST PUSH2 0x48D PUSH1 0x0 DUP1 MLOAD PUSH1 0x20 PUSH2 0x10CF DUP4 CODECOPY DUP2 MLOAD SWAP2 MSTORE DUP3 PUSH2 0xACE JUMP JUMPDEST PUSH1 0x0 DUP2 DUP2 MSTORE PUSH1 0x1 PUSH1 0x20 MSTORE PUSH1 0x40 DUP2 KECCAK256 PUSH2 0x4B5 SWAP1 PUSH2 0xCAC JUMP JUMPDEST PUSH2 0x48D PUSH1 0x0 DUP1 MLOAD PUSH1 0x20 PUSH2 0x10CF DUP4 CODECOPY DUP2 MLOAD SWAP2 MSTORE DUP3 PUSH2 0x812 JUMP JUMPDEST DUP2 PUSH2 0xAEB JUMPI PUSH1 0x40 MLOAD PUSH3 0x461BCD PUSH1 0xE5 SHL DUP2 MSTORE PUSH1 0x4 ADD PUSH2 0x510 SWAP1 PUSH2 0xFFD JUMP JUMPDEST PUSH1 0x0 DUP1 MLOAD PUSH1 0x20 PUSH2 0x10EF DUP4 CODECOPY DUP2 MLOAD SWAP2 MSTORE DUP3 SUB PUSH2 0xB68 JUMPI PUSH2 0xB0B PUSH1 0x0 CALLER PUSH2 0xA2C JUMP JUMPDEST PUSH2 0xB63 JUMPI PUSH1 0x40 MLOAD PUSH3 0x461BCD PUSH1 0xE5 SHL DUP2 MSTORE PUSH1 0x20 PUSH1 0x4 DUP3 ADD MSTORE PUSH1 0x24 DUP1 DUP3 ADD MSTORE PUSH32 0x43616C6C6572206D7573742062652041444D494E20746F2072656D6F76652061 PUSH1 0x44 DUP3 ADD MSTORE PUSH4 0x2043414B PUSH1 0xE0 SHL PUSH1 0x64 DUP3 ADD MSTORE PUSH1 0x84 ADD PUSH2 0x510 JUMP JUMPDEST PUSH2 0x9D1 JUMP JUMPDEST PUSH2 0xB80 PUSH1 0x0 DUP1 MLOAD PUSH1 0x20 PUSH2 0x10EF DUP4 CODECOPY DUP2 MLOAD SWAP2 MSTORE CALLER PUSH2 0xA2C JUMP JUMPDEST PUSH2 0x9D1 JUMPI PUSH1 0x40 MLOAD PUSH3 0x461BCD PUSH1 0xE5 SHL DUP2 MSTORE PUSH1 0x20 PUSH1 0x4 DUP3 ADD MSTORE PUSH1 0x23 PUSH1 0x24 DUP3 ADD MSTORE PUSH32 0x43616C6C6572206D7573742062652043414B20746F2072656D6F766520612072 PUSH1 0x44 DUP3 ADD MSTORE PUSH3 0x6F6C65 PUSH1 0xE8 SHL PUSH1 0x64 DUP3 ADD MSTORE PUSH1 0x84 ADD PUSH2 0x510 JUMP JUMPDEST PUSH1 0x0 PUSH2 0x4B5 PUSH1 0x0 DUP1 MLOAD PUSH1 0x20 PUSH2 0x108F DUP4 CODECOPY DUP2 MLOAD SWAP2 MSTORE DUP4 PUSH2 0xA2C JUMP JUMPDEST PUSH2 0x48D PUSH1 0x0 DUP1 MLOAD PUSH1 0x20 PUSH2 0x108F DUP4 CODECOPY DUP2 MLOAD SWAP2 MSTORE DUP3 PUSH2 0xACE JUMP JUMPDEST PUSH2 0x48D PUSH1 0x0 DUP1 MLOAD PUSH1 0x20 PUSH2 0x10AF DUP4 CODECOPY DUP2 MLOAD SWAP2 MSTORE DUP3 PUSH2 0x812 JUMP JUMPDEST PUSH1 0x0 PUSH1 0x1 PUSH1 0x1 PUSH1 0xE0 SHL SUB NOT DUP3 AND PUSH4 0x7965DB0B PUSH1 0xE0 SHL EQ DUP1 PUSH2 0x4B5 JUMPI POP PUSH4 0x1FFC9A7 PUSH1 0xE0 SHL PUSH1 0x1 PUSH1 0x1 PUSH1 0xE0 SHL SUB NOT DUP4 AND EQ PUSH2 0x4B5 JUMP JUMPDEST PUSH2 0xC61 DUP3 DUP3 PUSH2 0xCB6 JUMP JUMPDEST PUSH1 0x0 DUP3 DUP2 MSTORE PUSH1 0x1 PUSH1 0x20 MSTORE PUSH1 0x40 SWAP1 KECCAK256 PUSH2 0xC79 SWAP1 DUP3 PUSH2 0xD1B JUMP JUMPDEST POP POP POP JUMP JUMPDEST PUSH2 0xC88 DUP3 DUP3 PUSH2 0xD30 JUMP JUMPDEST PUSH1 0x0 DUP3 DUP2 MSTORE PUSH1 0x1 PUSH1 0x20 MSTORE PUSH1 0x40 SWAP1 KECCAK256 PUSH2 0xC79 SWAP1 DUP3 PUSH2 0xDB4 JUMP JUMPDEST PUSH1 0x0 PUSH2 0xA25 DUP4 DUP4 PUSH2 0xDC9 JUMP JUMPDEST PUSH1 0x0 PUSH2 0x4B5 DUP3 SLOAD SWAP1 JUMP JUMPDEST PUSH2 0xCC0 DUP3 DUP3 PUSH2 0xA2C JUMP JUMPDEST ISZERO PUSH2 0x943 JUMPI PUSH1 0x0 DUP3 DUP2 MSTORE PUSH1 0x20 DUP2 DUP2 MSTORE PUSH1 0x40 DUP1 DUP4 KECCAK256 PUSH1 0x1 PUSH1 0x1 PUSH1 0xA0 SHL SUB DUP6 AND DUP1 DUP6 MSTORE SWAP3 MSTORE DUP1 DUP4 KECCAK256 DUP1 SLOAD PUSH1 0xFF NOT AND SWAP1 SSTORE MLOAD CALLER SWAP3 DUP6 SWAP2 PUSH32 0xF6391F5C32D9C69D2A47EA670B442974B53935D1EDC7FD64EB21E047A839171B SWAP2 SWAP1 LOG4 POP POP JUMP JUMPDEST PUSH1 0x0 PUSH2 0xA25 DUP4 PUSH1 0x1 PUSH1 0x1 PUSH1 0xA0 SHL SUB DUP5 AND PUSH2 0xDF3 JUMP JUMPDEST PUSH2 0xD3A DUP3 DUP3 PUSH2 0xA2C JUMP JUMPDEST PUSH2 0x943 JUMPI PUSH1 0x0 DUP3 DUP2 MSTORE PUSH1 0x20 DUP2 DUP2 MSTORE PUSH1 0x40 DUP1 DUP4 KECCAK256 PUSH1 0x1 PUSH1 0x1 PUSH1 0xA0 SHL SUB DUP6 AND DUP5 MSTORE SWAP1 SWAP2 MSTORE SWAP1 KECCAK256 DUP1 SLOAD PUSH1 0xFF NOT AND PUSH1 0x1 OR SWAP1 SSTORE PUSH2 0xD70 CALLER SWAP1 JUMP JUMPDEST PUSH1 0x1 PUSH1 0x1 PUSH1 0xA0 SHL SUB AND DUP2 PUSH1 0x1 PUSH1 0x1 PUSH1 0xA0 SHL SUB AND DUP4 PUSH32 0x2F8788117E7EFF1D82E926EC794901D17C78024A50270940304540A733656F0D PUSH1 0x40 MLOAD PUSH1 0x40 MLOAD DUP1 SWAP2 SUB SWAP1 LOG4 POP POP JUMP JUMPDEST PUSH1 0x0 PUSH2 0xA25 DUP4 PUSH1 0x1 PUSH1 0x1 PUSH1 0xA0 SHL SUB DUP5 AND PUSH2 0xEE6 JUMP JUMPDEST PUSH1 0x0 DUP3 PUSH1 0x0 ADD DUP3 DUP2 SLOAD DUP2 LT PUSH2 0xDE0 JUMPI PUSH2 0xDE0 PUSH2 0x1041 JUMP JUMPDEST SWAP1 PUSH1 0x0 MSTORE PUSH1 0x20 PUSH1 0x0 KECCAK256 ADD SLOAD SWAP1 POP SWAP3 SWAP2 POP POP JUMP JUMPDEST PUSH1 0x0 DUP2 DUP2 MSTORE PUSH1 0x1 DUP4 ADD PUSH1 0x20 MSTORE PUSH1 0x40 DUP2 KECCAK256 SLOAD DUP1 ISZERO PUSH2 0xEDC JUMPI PUSH1 0x0 PUSH2 0xE17 PUSH1 0x1 DUP4 PUSH2 0x1057 JUMP JUMPDEST DUP6 SLOAD SWAP1 SWAP2 POP PUSH1 0x0 SWAP1 PUSH2 0xE2B SWAP1 PUSH1 0x1 SWAP1 PUSH2 0x1057 JUMP JUMPDEST SWAP1 POP DUP2 DUP2 EQ PUSH2 0xE90 JUMPI PUSH1 0x0 DUP7 PUSH1 0x0 ADD DUP3 DUP2 SLOAD DUP2 LT PUSH2 0xE4B JUMPI PUSH2 0xE4B PUSH2 0x1041 JUMP JUMPDEST SWAP1 PUSH1 0x0 MSTORE PUSH1 0x20 PUSH1 0x0 KECCAK256 ADD SLOAD SWAP1 POP DUP1 DUP8 PUSH1 0x0 ADD DUP5 DUP2 SLOAD DUP2 LT PUSH2 0xE6E JUMPI PUSH2 0xE6E PUSH2 0x1041 JUMP JUMPDEST PUSH1 0x0 SWAP2 DUP3 MSTORE PUSH1 0x20 DUP1 DUP4 KECCAK256 SWAP1 SWAP2 ADD SWAP3 SWAP1 SWAP3 SSTORE SWAP2 DUP3 MSTORE PUSH1 0x1 DUP9 ADD SWAP1 MSTORE PUSH1 0x40 SWAP1 KECCAK256 DUP4 SWAP1 SSTORE JUMPDEST DUP6 SLOAD DUP7 SWAP1 DUP1 PUSH2 0xEA1 JUMPI PUSH2 0xEA1 PUSH2 0x1078 JUMP JUMPDEST PUSH1 0x1 SWAP1 SUB DUP2 DUP2 SWAP1 PUSH1 0x0 MSTORE PUSH1 0x20 PUSH1 0x0 KECCAK256 ADD PUSH1 0x0 SWAP1 SSTORE SWAP1 SSTORE DUP6 PUSH1 0x1 ADD PUSH1 0x0 DUP7 DUP2 MSTORE PUSH1 0x20 ADD SWAP1 DUP2 MSTORE PUSH1 0x20 ADD PUSH1 0x0 KECCAK256 PUSH1 0x0 SWAP1 SSTORE PUSH1 0x1 SWAP4 POP POP POP POP PUSH2 0x4B5 JUMP JUMPDEST PUSH1 0x0 SWAP2 POP POP PUSH2 0x4B5 JUMP JUMPDEST PUSH1 0x0 DUP2 DUP2 MSTORE PUSH1 0x1 DUP4 ADD PUSH1 0x20 MSTORE PUSH1 0x40 DUP2 KECCAK256 SLOAD PUSH2 0xF2D JUMPI POP DUP2 SLOAD PUSH1 0x1 DUP2 DUP2 ADD DUP5 SSTORE PUSH1 0x0 DUP5 DUP2 MSTORE PUSH1 0x20 DUP1 DUP3 KECCAK256 SWAP1 SWAP4 ADD DUP5 SWAP1 SSTORE DUP5 SLOAD DUP5 DUP3 MSTORE DUP3 DUP7 ADD SWAP1 SWAP4 MSTORE PUSH1 0x40 SWAP1 KECCAK256 SWAP2 SWAP1 SWAP2 SSTORE PUSH2 0x4B5 JUMP JUMPDEST POP PUSH1 0x0 PUSH2 0x4B5 JUMP JUMPDEST DUP1 CALLDATALOAD PUSH1 0x1 PUSH1 0x1 PUSH1 0xA0 SHL SUB DUP2 AND DUP2 EQ PUSH2 0xF4C JUMPI PUSH1 0x0 DUP1 REVERT JUMPDEST SWAP2 SWAP1 POP JUMP JUMPDEST PUSH1 0x0 PUSH1 0x20 DUP3 DUP5 SUB SLT ISZERO PUSH2 0xF63 JUMPI PUSH1 0x0 DUP1 REVERT JUMPDEST PUSH2 0xA25 DUP3 PUSH2 0xF35 JUMP JUMPDEST PUSH1 0x0 PUSH1 0x20 DUP3 DUP5 SUB SLT ISZERO PUSH2 0xF7E JUMPI PUSH1 0x0 DUP1 REVERT JUMPDEST DUP2 CALLDATALOAD PUSH1 0x1 PUSH1 0x1 PUSH1 0xE0 SHL SUB NOT DUP2 AND DUP2 EQ PUSH2 0xA25 JUMPI PUSH1 0x0 DUP1 REVERT JUMPDEST PUSH1 0x0 PUSH1 0x20 DUP3 DUP5 SUB SLT ISZERO PUSH2 0xFA8 JUMPI PUSH1 0x0 DUP1 REVERT JUMPDEST POP CALLDATALOAD SWAP2 SWAP1 POP JUMP JUMPDEST PUSH1 0x0 DUP1 PUSH1 0x40 DUP4 DUP6 SUB SLT ISZERO PUSH2 0xFC2 JUMPI PUSH1 0x0 DUP1 REVERT JUMPDEST DUP3 CALLDATALOAD SWAP2 POP PUSH2 0xFD2 PUSH1 0x20 DUP5 ADD PUSH2 0xF35 JUMP JUMPDEST SWAP1 POP SWAP3 POP SWAP3 SWAP1 POP JUMP JUMPDEST PUSH1 0x0 DUP1 PUSH1 0x40 DUP4 DUP6 SUB SLT ISZERO PUSH2 0xFEE JUMPI PUSH1 0x0 DUP1 REVERT JUMPDEST POP POP DUP1 CALLDATALOAD SWAP3 PUSH1 0x20 SWAP1 SWAP2 ADD CALLDATALOAD SWAP2 POP JUMP JUMPDEST PUSH1 0x20 DUP1 DUP3 MSTORE PUSH1 0x24 SWAP1 DUP3 ADD MSTORE PUSH32 0x5573652066756E6374696F6E206368616E676541646D696E526F6C6520696E73 PUSH1 0x40 DUP3 ADD MSTORE PUSH4 0x1D195859 PUSH1 0xE2 SHL PUSH1 0x60 DUP3 ADD MSTORE PUSH1 0x80 ADD SWAP1 JUMP JUMPDEST PUSH4 0x4E487B71 PUSH1 0xE0 SHL PUSH1 0x0 MSTORE PUSH1 0x32 PUSH1 0x4 MSTORE PUSH1 0x24 PUSH1 0x0 REVERT JUMPDEST DUP2 DUP2 SUB DUP2 DUP2 GT ISZERO PUSH2 0x4B5 JUMPI PUSH4 0x4E487B71 PUSH1 0xE0 SHL PUSH1 0x0 MSTORE PUSH1 0x11 PUSH1 0x4 MSTORE PUSH1 0x24 PUSH1 0x0 REVERT JUMPDEST PUSH4 0x4E487B71 PUSH1 0xE0 SHL PUSH1 0x0 MSTORE PUSH1 0x31 PUSH1 0x4 MSTORE PUSH1 0x24 PUSH1 0x0 REVERT INVALID 0xD7 0xAA 0x2D 0xDF LOG4 0xE3 DUP2 SLT DUP3 MUL 0xBF CALLDATASIZE JUMPDEST PUSH31 0xA176F2FCA6CDF2F23C2B0A6F439376958906BA6F588BCDC2DF8426603A466 0xC9 DUP11 0xB1 0x5E PUSH26 0xF7FB7F37B53581CE39C1D01B7249F698AF62C65280E4949BCEEC PUSH5 0xB760F3B773 DUP3 OR 0xCB 0xC5 CALLDATASIZE 0xCD 0xFC 0x4C SWAP5 PUSH4 0x676B05C2 0xA7 MSTORE SDIV 0xB8 PC CALLDATASIZE PUSH1 0xBD 0xAD CALLDATACOPY 0x5C 0xC 0xCD 0xE1 BYTE CALL PUSH23 0x68D76A408A9A5E739251B0F7C59870A264697066735822 SLT KECCAK256 0xB2 DUP5 SWAP14 0xDB SWAP16 0xEC 0xD6 0xC5 0xFB PUSH30 0xC5DDE86550689CA79C0EF92BE5BCAE12D69634B1A5DE64736F6C63430008 SGT STOP CALLER 0xA7 MSTORE SDIV 0xB8 PC CALLDATASIZE PUSH1 0xBD 0xAD CALLDATACOPY 0x5C 0xC 0xCD 0xE1 BYTE CALL PUSH23 0x68D76A408A9A5E739251B0F7C598700000000000000000 "},"methodIdentifiers":{"BND_ROLE()":"2682ac91","CAK_ROLE()":"8865f1e2","CST_ROLE()":"1c67a363","DEFAULT_ADMIN_ROLE()":"a217fddf","PAY_ROLE()":"3bf2a9f4","_addressForNewAdmin()":"e336c590","_firstVoterForNewAdmin()":"2f962866","_votesForNewAdmin()":"7dc35505","changeAdminRole(address)":"04b8c471","getRoleAdmin(bytes32)":"248a9ca3","getRoleMember(bytes32,uint256)":"9010d07c","getRoleMemberCount(bytes32)":"ca15c873","grantBndRole(address)":"cc80473c","grantCakRole(address)":"a28f78f8","grantCstRole(address)":"f690c6c5","grantPayRole(address)":"00a9303d","grantRole(bytes32,address)":"2f2ff15d","hasRole(bytes32,address)":"91d14854","isBnD(address)":"a55234b8","isCAK(address)":"4361f92a","isCustodian(address)":"35c80c8c","isPay(address)":"e3965d54","registerAdmin()":"5ab6f71b","renounceRole(bytes32,address)":"36568abe","revokeBndRole(address)":"c1f4250b","revokeCakRole(address)":"8e1305de","revokeCstRole(address)":"222ca340","revokePayRole(address)":"f60d9ea1","revokeRole(bytes32,address)":"d547741f","supportsInterface(bytes4)":"01ffc9a7"}}}}}