{"src/SmartContractAccessManagement.sol":{"SmartContractAccessManagement":{"abi":[{"anonymous":false,"inputs":[{"indexed":false,"internalType":"bytes32","name":"contractHash","type":"bytes32"}],"name":"DisableContract","type":"event"},{"anonymous":false,"inputs":[{"indexed":false,"internalType":"bytes32","name":"contractHash","type":"bytes32"}],"name":"EnableContract","type":"event"},{"inputs":[{"internalType":"bytes32","name":"","type":"bytes32"}],"name":"_contractsAllowed","outputs":[{"internalType":"bool","name":"","type":"bool"}],"stateMutability":"view","type":"function"},{"inputs":[{"internalType":"address","name":"addr_","type":"address"}],"name":"atReturningHash","outputs":[{"internalType":"bytes32","name":"hash","type":"bytes32"}],"stateMutability":"view","type":"function"},{"inputs":[{"internalType":"bytes32","name":"contractHash_","type":"bytes32"}],"name":"disableContractFromWhitelist","outputs":[],"stateMutability":"nonpayable","type":"function"},{"inputs":[{"internalType":"bytes32","name":"contractHash_","type":"bytes32"}],"name":"enableContractToWhitelist","outputs":[],"stateMutability":"nonpayable","type":"function"},{"inputs":[],"name":"isCallerApprovedSmartContract","outputs":[{"internalType":"bool","name":"","type":"bool"}],"stateMutability":"view","type":"function"},{"inputs":[{"internalType":"address","name":"contractAddress_","type":"address"}],"name":"isContractAllowed","outputs":[{"internalType":"bool","name":"","type":"bool"}],"stateMutability":"view","type":"function"}],"evm":{"bytecode":{"linkReferences":{},"object":"608060405234801561001057600080fd5b50610297806100206000396000f3fe608060405234801561001057600080fd5b50600436106100625760003560e01c80636f2ddb5f14610067578063806ba1001461008f578063a1962183146100b2578063c2faae59146100d3578063d614284a146100db578063d696fb0b146100f0575b600080fd5b61007a610075366004610218565b610103565b60405190151581526020015b60405180910390f35b61007a61009d366004610248565b60006020819052908152604090205460ff1681565b6100c56100c0366004610218565b610128565b604051908152602001610086565b61007a610159565b6100ee6100e9366004610248565b61017d565b005b6100ee6100fe366004610248565b6101d3565b60008061010f83610128565b60009081526020819052604090205460ff169392505050565b60408051603f833b908101601f19168201909252818152600091808360208401863c50805160209091012092915050565b60008061016533610128565b60009081526020819052604090205460ff1692915050565b60008181526020819052604090819020805460ff19166001179055517fbaf2f827de189827a9b5ea8781dbbffcad675a367dccaad8b9ada866795598d7906101c89083815260200190565b60405180910390a150565b60008181526020818152604091829020805460ff1916905590518281527f2876b9bd97a638025f28a0d50cb5f3cd9e5c0b85624fb7ee15267149452c2d7491016101c8565b60006020828403121561022a57600080fd5b81356001600160a01b038116811461024157600080fd5b9392505050565b60006020828403121561025a57600080fd5b503591905056fea2646970667358221220d6c8a513428ca1af6038e3c09a9e7c152aecb9908f905e866e1de9a0bf7c318f64736f6c63430008130033","opcodes":"PUSH1 0x80 PUSH1 0x40 MSTORE CALLVALUE DUP1 ISZERO PUSH2 0x10 JUMPI PUSH1 0x0 DUP1 REVERT JUMPDEST POP PUSH2 0x297 DUP1 PUSH2 0x20 PUSH1 0x0 CODECOPY PUSH1 0x0 RETURN INVALID PUSH1 0x80 PUSH1 0x40 MSTORE CALLVALUE DUP1 ISZERO PUSH2 0x10 JUMPI PUSH1 0x0 DUP1 REVERT JUMPDEST POP PUSH1 0x4 CALLDATASIZE LT PUSH2 0x62 JUMPI PUSH1 0x0 CALLDATALOAD PUSH1 0xE0 SHR DUP1 PUSH4 0x6F2DDB5F EQ PUSH2 0x67 JUMPI DUP1 PUSH4 0x806BA100 EQ PUSH2 0x8F JUMPI DUP1 PUSH4 0xA1962183 EQ PUSH2 0xB2 JUMPI DUP1 PUSH4 0xC2FAAE59 EQ PUSH2 0xD3 JUMPI DUP1 PUSH4 0xD614284A EQ PUSH2 0xDB JUMPI DUP1 PUSH4 0xD696FB0B EQ PUSH2 0xF0 JUMPI JUMPDEST PUSH1 0x0 DUP1 REVERT JUMPDEST PUSH2 0x7A PUSH2 0x75 CALLDATASIZE PUSH1 0x4 PUSH2 0x218 JUMP JUMPDEST PUSH2 0x103 JUMP JUMPDEST PUSH1 0x40 MLOAD SWAP1 ISZERO ISZERO DUP2 MSTORE PUSH1 0x20 ADD JUMPDEST PUSH1 0x40 MLOAD DUP1 SWAP2 SUB SWAP1 RETURN JUMPDEST PUSH2 0x7A PUSH2 0x9D CALLDATASIZE PUSH1 0x4 PUSH2 0x248 JUMP JUMPDEST PUSH1 0x0 PUSH1 0x20 DUP2 SWAP1 MSTORE SWAP1 DUP2 MSTORE PUSH1 0x40 SWAP1 KECCAK256 SLOAD PUSH1 0xFF AND DUP2 JUMP JUMPDEST PUSH2 0xC5 PUSH2 0xC0 CALLDATASIZE PUSH1 0x4 PUSH2 0x218 JUMP JUMPDEST PUSH2 0x128 JUMP JUMPDEST PUSH1 0x40 MLOAD SWAP1 DUP2 MSTORE PUSH1 0x20 ADD PUSH2 0x86 JUMP JUMPDEST PUSH2 0x7A PUSH2 0x159 JUMP JUMPDEST PUSH2 0xEE PUSH2 0xE9 CALLDATASIZE PUSH1 0x4 PUSH2 0x248 JUMP JUMPDEST PUSH2 0x17D JUMP JUMPDEST STOP JUMPDEST PUSH2 0xEE PUSH2 0xFE CALLDATASIZE PUSH1 0x4 PUSH2 0x248 JUMP JUMPDEST PUSH2 0x1D3 JUMP JUMPDEST PUSH1 0x0 DUP1 PUSH2 0x10F DUP4 PUSH2 0x128 JUMP JUMPDEST PUSH1 0x0 SWAP1 DUP2 MSTORE PUSH1 0x20 DUP2 SWAP1 MSTORE PUSH1 0x40 SWAP1 KECCAK256 SLOAD PUSH1 0xFF AND SWAP4 SWAP3 POP POP POP JUMP JUMPDEST PUSH1 0x40 DUP1 MLOAD PUSH1 0x3F DUP4 EXTCODESIZE SWAP1 DUP2 ADD PUSH1 0x1F NOT AND DUP3 ADD SWAP1 SWAP3 MSTORE DUP2 DUP2 MSTORE PUSH1 0x0 SWAP2 DUP1 DUP4 PUSH1 0x20 DUP5 ADD DUP7 EXTCODECOPY POP DUP1 MLOAD PUSH1 0x20 SWAP1 SWAP2 ADD KECCAK256 SWAP3 SWAP2 POP POP JUMP JUMPDEST PUSH1 0x0 DUP1 PUSH2 0x165 CALLER PUSH2 0x128 JUMP JUMPDEST PUSH1 0x0 SWAP1 DUP2 MSTORE PUSH1 0x20 DUP2 SWAP1 MSTORE PUSH1 0x40 SWAP1 KECCAK256 SLOAD PUSH1 0xFF AND SWAP3 SWAP2 POP POP JUMP JUMPDEST PUSH1 0x0 DUP2 DUP2 MSTORE PUSH1 0x20 DUP2 SWAP1 MSTORE PUSH1 0x40 SWAP1 DUP2 SWAP1 KECCAK256 DUP1 SLOAD PUSH1 0xFF NOT AND PUSH1 0x1 OR SWAP1 SSTORE MLOAD PUSH32 0xBAF2F827DE189827A9B5EA8781DBBFFCAD675A367DCCAAD8B9ADA866795598D7 SWAP1 PUSH2 0x1C8 SWAP1 DUP4 DUP2 MSTORE PUSH1 0x20 ADD SWAP1 JUMP JUMPDEST PUSH1 0x40 MLOAD DUP1 SWAP2 SUB SWAP1 LOG1 POP JUMP JUMPDEST PUSH1 0x0 DUP2 DUP2 MSTORE PUSH1 0x20 DUP2 DUP2 MSTORE PUSH1 0x40 SWAP2 DUP3 SWAP1 KECCAK256 DUP1 SLOAD PUSH1 0xFF NOT AND SWAP1 SSTORE SWAP1 MLOAD DUP3 DUP2 MSTORE PUSH32 0x2876B9BD97A638025F28A0D50CB5F3CD9E5C0B85624FB7EE15267149452C2D74 SWAP2 ADD PUSH2 0x1C8 JUMP JUMPDEST PUSH1 0x0 PUSH1 0x20 DUP3 DUP5 SUB SLT ISZERO PUSH2 0x22A JUMPI PUSH1 0x0 DUP1 REVERT JUMPDEST DUP2 CALLDATALOAD PUSH1 0x1 PUSH1 0x1 PUSH1 0xA0 SHL SUB DUP2 AND DUP2 EQ PUSH2 0x241 JUMPI PUSH1 0x0 DUP1 REVERT JUMPDEST SWAP4 SWAP3 POP POP POP JUMP JUMPDEST PUSH1 0x0 PUSH1 0x20 DUP3 DUP5 SUB SLT ISZERO PUSH2 0x25A JUMPI PUSH1 0x0 DUP1 REVERT JUMPDEST POP CALLDATALOAD SWAP2 SWAP1 POP JUMP INVALID LOG2 PUSH5 0x6970667358 0x22 SLT KECCAK256 0xD6 0xC8 0xA5 SGT TIMESTAMP DUP13 LOG1 0xAF PUSH1 0x38 0xE3 0xC0 SWAP11 SWAP15 PUSH29 0x152AECB9908F905E866E1DE9A0BF7C318F64736F6C6343000813003300 "},"methodIdentifiers":{"_contractsAllowed(bytes32)":"806ba100","atReturningHash(address)":"a1962183","disableContractFromWhitelist(bytes32)":"d696fb0b","enableContractToWhitelist(bytes32)":"d614284a","isCallerApprovedSmartContract()":"c2faae59","isContractAllowed(address)":"6f2ddb5f"}}}}}