{"contracts/trade/bilateral/BilateralTrade.sol":{"BilateralTrade":{"abi":[{"inputs":[{"internalType":"contract IRegister","name":"_register","type":"address"},{"internalType":"address","name":"_buyer","type":"address"},{"internalType":"address","name":"_forwarder","type":"address"}],"stateMutability":"nonpayable","type":"constructor"},{"inputs":[],"name":"ReentrancyGuardReentrantCall","type":"error"},{"anonymous":false,"inputs":[{"indexed":true,"internalType":"address","name":"seller","type":"address"},{"indexed":true,"internalType":"address","name":"buyer","type":"address"},{"indexed":true,"internalType":"enum ITrade.Status","name":"status","type":"uint8"},{"indexed":false,"internalType":"uint256","name":"quantity","type":"uint256"}],"name":"NotifyTrade","type":"event"},{"inputs":[],"name":"approve","outputs":[{"internalType":"enum ITrade.Status","name":"","type":"uint8"}],"stateMutability":"nonpayable","type":"function"},{"inputs":[],"name":"buyerAccount","outputs":[{"internalType":"address","name":"","type":"address"}],"stateMutability":"view","type":"function"},{"inputs":[],"name":"details","outputs":[{"internalType":"uint256","name":"quantity","type":"uint256"},{"internalType":"address","name":"buyer","type":"address"},{"internalType":"uint256","name":"tradeDate","type":"uint256"},{"internalType":"uint256","name":"valueDate","type":"uint256"},{"internalType":"uint256","name":"price","type":"uint256"}],"stateMutability":"view","type":"function"},{"inputs":[],"name":"executeTransfer","outputs":[{"internalType":"bool","name":"","type":"bool"}],"stateMutability":"nonpayable","type":"function"},{"inputs":[],"name":"getDetails","outputs":[{"components":[{"internalType":"uint256","name":"quantity","type":"uint256"},{"internalType":"address","name":"buyer","type":"address"},{"internalType":"uint256","name":"tradeDate","type":"uint256"},{"internalType":"uint256","name":"valueDate","type":"uint256"},{"internalType":"uint256","name":"price","type":"uint256"}],"internalType":"struct ITrade.TradeDetail","name":"","type":"tuple"}],"stateMutability":"view","type":"function"},{"inputs":[{"internalType":"address","name":"forwarder","type":"address"}],"name":"isTrustedForwarder","outputs":[{"internalType":"bool","name":"","type":"bool"}],"stateMutability":"view","type":"function"},{"inputs":[],"name":"paymentID","outputs":[{"internalType":"bytes8","name":"","type":"bytes8"}],"stateMutability":"view","type":"function"},{"inputs":[],"name":"register","outputs":[{"internalType":"contract IRegister","name":"","type":"address"}],"stateMutability":"view","type":"function"},{"inputs":[],"name":"reject","outputs":[],"stateMutability":"nonpayable","type":"function"},{"inputs":[],"name":"sellerAccount","outputs":[{"internalType":"address","name":"","type":"address"}],"stateMutability":"view","type":"function"},{"inputs":[{"components":[{"internalType":"uint256","name":"quantity","type":"uint256"},{"internalType":"address","name":"buyer","type":"address"},{"internalType":"uint256","name":"tradeDate","type":"uint256"},{"internalType":"uint256","name":"valueDate","type":"uint256"},{"internalType":"uint256","name":"price","type":"uint256"}],"internalType":"struct ITrade.TradeDetail","name":"_details","type":"tuple"}],"name":"setDetails","outputs":[],"stateMutability":"nonpayable","type":"function"},{"inputs":[],"name":"status","outputs":[{"internalType":"enum ITrade.Status","name":"","type":"uint8"}],"stateMutability":"view","type":"function"},{"inputs":[],"name":"trustedForwarder","outputs":[{"internalType":"address","name":"","type":"address"}],"stateMutability":"view","type":"function"}],"evm":{"bytecode":{"linkReferences":{},"object":"60a060405234801562000010575f80fd5b5060405162001541380380620015418339810160408190526200003391620003cc565b6001600160a01b0380821660805260015f55831663c41251a16200005662000334565b6040516001600160e01b031960e084901b1681526001600160a01b039091166004820152602401602060405180830381865afa15801562000099573d5f803e3d5ffd5b505050506040513d601f19601f82011682018060405250810190620000bf91906200041d565b806200014857506001600160a01b03831663a55234b8620000df62000334565b6040516001600160e01b031960e084901b1681526001600160a01b039091166004820152602401602060405180830381865afa15801562000122573d5f803e3d5ffd5b505050506040513d601f19601f820116820180604052508101906200014891906200041d565b6200019a5760405162461bcd60e51b815260206004820152601f60248201527f53656e646572206d75737420626520612076616c696420696e766573746f720060448201526064015b60405180910390fd5b60405163c41251a160e01b81526001600160a01b03838116600483015284169063c41251a190602401602060405180830381865afa158015620001df573d5f803e3d5ffd5b505050506040513d601f19601f820116820180604052508101906200020591906200041d565b620002535760405162461bcd60e51b815260206004820152601e60248201527f4275796572206d75737420626520612076616c696420696e766573746f720000604482015260640162000191565b600180546001600160a01b0319166001600160a01b0385161790556200027862000334565b600280546001600160a01b03199081166001600160a01b0393841617909155600480549091169184169190911790556001805460ff60a01b191690819055600160a01b900460ff166005811115620002d457620002d462000445565b6001600160a01b038316620002e862000334565b6001600160a01b03167fb04efa95c2e317d8afba4237350a971f1ce59ef6fbbf2eb3f1a7e3f3f106a8f45f6040516200032391815260200190565b60405180910390a4505050620004d9565b5f36601462000343336200038e565b8015620003505750808210155b1562000386575f3662000364838562000459565b620003719282906200047f565b6200037c91620004a8565b60601c9250505090565b339250505090565b5f6200039960805190565b6001600160a01b0316826001600160a01b0316149050919050565b6001600160a01b0381168114620003c9575f80fd5b50565b5f805f60608486031215620003df575f80fd5b8351620003ec81620003b4565b6020850151909350620003ff81620003b4565b60408501519092506200041281620003b4565b809150509250925092565b5f602082840312156200042e575f80fd5b815180151581146200043e575f80fd5b9392505050565b634e487b7160e01b5f52602160045260245ffd5b818103818111156200047957634e487b7160e01b5f52601160045260245ffd5b92915050565b5f80858511156200048e575f80fd5b838611156200049b575f80fd5b5050820193919092039150565b6001600160601b03198135818116916014851015620004d15780818660140360031b1b83161692505b505092915050565b608051611041620005005f395f81816101c80152818161020a0152610dc901526110415ff3fe608060405234801561000f575f80fd5b50600436106100da575f3560e01c8063565974d311610088578063835d2d2e11610063578063835d2d2e1461022e578063b787cfe614610236578063d84ffb4114610249578063fbbf93a01461027c575f80fd5b8063565974d314610165578063572b6c05146101b85780637da0a87714610208575f80fd5b8063200d2ed2116100b8578063200d2ed214610136578063489147d71461014a5780634dc415de1461015b575f80fd5b806310547851146100de57806312424e3f1461010e5780631aa3a00814610123575b5f80fd5b6002546100f1906001600160a01b031681565b6040516001600160a01b0390911681526020015b60405180910390f35b6101166102ce565b6040516101059190610e8b565b6001546100f1906001600160a01b031681565b60015461011690600160a01b900460ff1681565b6004546001600160a01b03166100f1565b610163610574565b005b60035460045460055460065460075461018894936001600160a01b031692919085565b604080519586526001600160a01b039094166020860152928401919091526060830152608082015260a001610105565b6101f86101c6366004610ecc565b7f00000000000000000000000000000000000000000000000000000000000000006001600160a01b0390811691161490565b6040519015158152602001610105565b7f00000000000000000000000000000000000000000000000000000000000000006100f1565b6101f86107af565b610163610244366004610eec565b610a6a565b6040517fffffffffffffffff0000000000000000000000000000000000000000000000003060c01b168152602001610105565b610284610d4f565b60405161010591905f60a082019050825182526001600160a01b03602084015116602083015260408301516040830152606083015160608301526080830151608083015292915050565b6002545f906001600160a01b03166102e4610dc3565b6001600160a01b031614801561031657505f600154600160a01b900460ff16600581111561031457610314610e77565b145b156104a15760035461036f5760405162461bcd60e51b815260206004820152601460248201527f7175616e74697479206e6f7420646566696e656400000000000000000000000060448201526064015b60405180910390fd5b6005546103be5760405162461bcd60e51b815260206004820152601660248201527f74726164652064617465206e6f7420646566696e6564000000000000000000006044820152606401610366565b60065461040d5760405162461bcd60e51b815260206004820152601660248201527f76616c75652064617465206e6f7420646566696e6564000000000000000000006044820152606401610366565b60018054819060ff60a01b1916600160a01b825b0217905550600154600160a01b900460ff16600581111561044457610444610e77565b6004546002546003546040519081526001600160a01b0392831692909116907fb04efa95c2e317d8afba4237350a971f1ce59ef6fbbf2eb3f1a7e3f3f106a8f49060200160405180910390a450600154600160a01b900460ff1690565b6004546001600160a01b03166104b5610dc3565b6001600160a01b03161480156104e7575060018054600160a01b900460ff1660058111156104e5576104e5610e77565b145b1561050657600180546003919060ff60a01b1916600160a01b83610421565b60405162461bcd60e51b815260206004820152603360248201527f7468652074726164652063616e6e6f7420626520617070726f76656420696e2060448201527f746869732063757272656e7420737461747573000000000000000000000000006064820152608401610366565b6002600154600160a01b900460ff16600581111561059457610594610e77565b036105e15760405162461bcd60e51b815260206004820152601660248201527f547261646520616c72656164792072656a6563746564000000000000000000006044820152606401610366565b6002546001600160a01b03166105f5610dc3565b6001600160a01b031614801561062957506004600154600160a01b900460ff16600581111561062657610626610e77565b14155b156106b557600180546002919060ff60a01b1916600160a01b835b0217905550600154600160a01b900460ff16600581111561066757610667610e77565b6004546002546003546040519081526001600160a01b0392831692909116907fb04efa95c2e317d8afba4237350a971f1ce59ef6fbbf2eb3f1a7e3f3f106a8f49060200160405180910390a4565b6004546001600160a01b03166106c9610dc3565b6001600160a01b0316148015610722575060018054600160a01b900460ff1660058111156106f9576106f9610e77565b148061072257506003600154600160a01b900460ff16600581111561072057610720610e77565b145b1561074157600180546002919060ff60a01b1916600160a01b83610644565b60405162461bcd60e51b815260206004820152603360248201527f7468652074726164652063616e6e6f742062652072656a656374656420696e2060448201527f746869732063757272656e7420737461747573000000000000000000000000006064820152608401610366565b5f6107b8610e36565b6002546001600160a01b03166107cc610dc3565b6001600160a01b0316146108485760405162461bcd60e51b815260206004820152603560248201527f4f6e6c79207468652073656c6c65722063616e20636f6e6669726d207468652060448201527f7061796d656e74206f6e207468697320747261646500000000000000000000006064820152608401610366565b6003600154600160a01b900460ff16600581111561086857610868610e77565b146108db5760405162461bcd60e51b815260206004820152602e60248201527f546865207472616465206d75737420626520616363657074656420627920746860448201527f65206275796572206265666f72650000000000000000000000000000000000006064820152608401610366565b600180547404000000000000000000000000000000000000000060ff60a01b19821617909155600254600480546003546040517f23b872dd0000000000000000000000000000000000000000000000000000000081526001600160a01b0394851693810193909352908316602483015260448201525f9291909116906323b872dd906064016020604051808303815f875af115801561097c573d5f803e3d5ffd5b505050506040513d601f19601f820116820180604052508101906109a09190610f6b565b9050806109ef5760405162461bcd60e51b815260206004820152601760248201527f746865207472616e7366657220686173206661696c65640000000000000000006044820152606401610366565b600154600160a01b900460ff166005811115610a0d57610a0d610e77565b6004546002546003546040519081526001600160a01b0392831692909116907fb04efa95c2e317d8afba4237350a971f1ce59ef6fbbf2eb3f1a7e3f3f106a8f49060200160405180910390a46001915050610a6760015f55565b90565b6002546001600160a01b0316610a7e610dc3565b6001600160a01b031614610afa5760405162461bcd60e51b815260206004820152602560248201527f4f6e6c79207468652073656c6c65722063616e2075706461746520746869732060448201527f74726164650000000000000000000000000000000000000000000000000000006064820152608401610366565b5f600154600160a01b900460ff166005811115610b1957610b19610e77565b14610b8c5760405162461bcd60e51b815260206004820152603660248201527f43616e6e6f74206368616e6765207468652074726164652064657461696c732060448201527f756e6c65737320696e20647261667420737461747573000000000000000000006064820152608401610366565b60015460208201516040517fc41251a10000000000000000000000000000000000000000000000000000000081526001600160a01b03918216600482015291169063c41251a190602401602060405180830381865afa158015610bf1573d5f803e3d5ffd5b505050506040513d601f19601f82011682018060405250810190610c159190610f6b565b610c875760405162461bcd60e51b815260206004820152603760248201527f4275796572206d75737420626520612076616c696420696e766573746f72206560448201527f76656e206f6e206368616e67696e672064657461696c730000000000000000006064820152608401610366565b80516003556020810151600480547fffffffffffffffffffffffff0000000000000000000000000000000000000000166001600160a01b039092169190911790556040810151600590815560608201516006556080820151600755600154600160a01b900460ff1690811115610cff57610cff610e77565b60208281015160025484516040519081526001600160a01b039283169392909116917fb04efa95c2e317d8afba4237350a971f1ce59ef6fbbf2eb3f1a7e3f3f106a8f4910160405180910390a450565b610d856040518060a001604052805f81526020015f6001600160a01b031681526020015f81526020015f81526020015f81525090565b506040805160a08101825260035481526004546001600160a01b03166020820152600554918101919091526006546060820152600754608082015290565b5f3660147f00000000000000000000000000000000000000000000000000000000000000006001600160a01b031633148015610dff5750808210155b15610e2e575f36610e108385610f8a565b610e1b928290610faf565b610e2491610fd6565b60601c9250505090565b339250505090565b60025f5403610e71576040517f3ee5aeb500000000000000000000000000000000000000000000000000000000815260040160405180910390fd5b60025f55565b634e487b7160e01b5f52602160045260245ffd5b6020810160068310610eab57634e487b7160e01b5f52602160045260245ffd5b91905290565b80356001600160a01b0381168114610ec7575f80fd5b919050565b5f60208284031215610edc575f80fd5b610ee582610eb1565b9392505050565b5f60a08284031215610efc575f80fd5b60405160a0810181811067ffffffffffffffff82111715610f2b57634e487b7160e01b5f52604160045260245ffd5b60405282358152610f3e60208401610eb1565b60208201526040830135604082015260608301356060820152608083013560808201528091505092915050565b5f60208284031215610f7b575f80fd5b81518015158114610ee5575f80fd5b81810381811115610fa957634e487b7160e01b5f52601160045260245ffd5b92915050565b5f8085851115610fbd575f80fd5b83861115610fc9575f80fd5b5050820193919092039150565b6bffffffffffffffffffffffff1981358181169160148510156110035780818660140360031b1b83161692505b50509291505056fea26469706673582212205cff731553c0976d2088a326f50835757331c370021439cf93a070decbb285e764736f6c63430008140033","opcodes":"PUSH1 0xA0 PUSH1 0x40 MSTORE CALLVALUE DUP1 ISZERO PUSH3 0x10 JUMPI PUSH0 DUP1 REVERT JUMPDEST POP PUSH1 0x40 MLOAD PUSH3 0x1541 CODESIZE SUB DUP1 PUSH3 0x1541 DUP4 CODECOPY DUP2 ADD PUSH1 0x40 DUP2 SWAP1 MSTORE PUSH3 0x33 SWAP2 PUSH3 0x3CC JUMP JUMPDEST PUSH1 0x1 PUSH1 0x1 PUSH1 0xA0 SHL SUB DUP1 DUP3 AND PUSH1 0x80 MSTORE PUSH1 0x1 PUSH0 SSTORE DUP4 AND PUSH4 0xC41251A1 PUSH3 0x56 PUSH3 0x334 JUMP JUMPDEST PUSH1 0x40 MLOAD PUSH1 0x1 PUSH1 0x1 PUSH1 0xE0 SHL SUB NOT PUSH1 0xE0 DUP5 SWAP1 SHL AND DUP2 MSTORE PUSH1 0x1 PUSH1 0x1 PUSH1 0xA0 SHL SUB SWAP1 SWAP2 AND PUSH1 0x4 DUP3 ADD MSTORE PUSH1 0x24 ADD PUSH1 0x20 PUSH1 0x40 MLOAD DUP1 DUP4 SUB DUP2 DUP7 GAS STATICCALL ISZERO DUP1 ISZERO PUSH3 0x99 JUMPI RETURNDATASIZE PUSH0 DUP1 RETURNDATACOPY RETURNDATASIZE PUSH0 REVERT JUMPDEST POP POP POP POP PUSH1 0x40 MLOAD RETURNDATASIZE PUSH1 0x1F NOT PUSH1 0x1F DUP3 ADD AND DUP3 ADD DUP1 PUSH1 0x40 MSTORE POP DUP2 ADD SWAP1 PUSH3 0xBF SWAP2 SWAP1 PUSH3 0x41D JUMP JUMPDEST DUP1 PUSH3 0x148 JUMPI POP PUSH1 0x1 PUSH1 0x1 PUSH1 0xA0 SHL SUB DUP4 AND PUSH4 0xA55234B8 PUSH3 0xDF PUSH3 0x334 JUMP JUMPDEST PUSH1 0x40 MLOAD PUSH1 0x1 PUSH1 0x1 PUSH1 0xE0 SHL SUB NOT PUSH1 0xE0 DUP5 SWAP1 SHL AND DUP2 MSTORE PUSH1 0x1 PUSH1 0x1 PUSH1 0xA0 SHL SUB SWAP1 SWAP2 AND PUSH1 0x4 DUP3 ADD MSTORE PUSH1 0x24 ADD PUSH1 0x20 PUSH1 0x40 MLOAD DUP1 DUP4 SUB DUP2 DUP7 GAS STATICCALL ISZERO DUP1 ISZERO PUSH3 0x122 JUMPI RETURNDATASIZE PUSH0 DUP1 RETURNDATACOPY RETURNDATASIZE PUSH0 REVERT JUMPDEST POP POP POP POP PUSH1 0x40 MLOAD RETURNDATASIZE PUSH1 0x1F NOT PUSH1 0x1F DUP3 ADD AND DUP3 ADD DUP1 PUSH1 0x40 MSTORE POP DUP2 ADD SWAP1 PUSH3 0x148 SWAP2 SWAP1 PUSH3 0x41D JUMP JUMPDEST PUSH3 0x19A JUMPI PUSH1 0x40 MLOAD PUSH3 0x461BCD PUSH1 0xE5 SHL DUP2 MSTORE PUSH1 0x20 PUSH1 0x4 DUP3 ADD MSTORE PUSH1 0x1F PUSH1 0x24 DUP3 ADD MSTORE PUSH32 0x53656E646572206D75737420626520612076616C696420696E766573746F7200 PUSH1 0x44 DUP3 ADD MSTORE PUSH1 0x64 ADD JUMPDEST PUSH1 0x40 MLOAD DUP1 SWAP2 SUB SWAP1 REVERT JUMPDEST PUSH1 0x40 MLOAD PUSH4 0xC41251A1 PUSH1 0xE0 SHL DUP2 MSTORE PUSH1 0x1 PUSH1 0x1 PUSH1 0xA0 SHL SUB DUP4 DUP2 AND PUSH1 0x4 DUP4 ADD MSTORE DUP5 AND SWAP1 PUSH4 0xC41251A1 SWAP1 PUSH1 0x24 ADD PUSH1 0x20 PUSH1 0x40 MLOAD DUP1 DUP4 SUB DUP2 DUP7 GAS STATICCALL ISZERO DUP1 ISZERO PUSH3 0x1DF JUMPI RETURNDATASIZE PUSH0 DUP1 RETURNDATACOPY RETURNDATASIZE PUSH0 REVERT JUMPDEST POP POP POP POP PUSH1 0x40 MLOAD RETURNDATASIZE PUSH1 0x1F NOT PUSH1 0x1F DUP3 ADD AND DUP3 ADD DUP1 PUSH1 0x40 MSTORE POP DUP2 ADD SWAP1 PUSH3 0x205 SWAP2 SWAP1 PUSH3 0x41D JUMP JUMPDEST PUSH3 0x253 JUMPI PUSH1 0x40 MLOAD PUSH3 0x461BCD PUSH1 0xE5 SHL DUP2 MSTORE PUSH1 0x20 PUSH1 0x4 DUP3 ADD MSTORE PUSH1 0x1E PUSH1 0x24 DUP3 ADD MSTORE PUSH32 0x4275796572206D75737420626520612076616C696420696E766573746F720000 PUSH1 0x44 DUP3 ADD MSTORE PUSH1 0x64 ADD PUSH3 0x191 JUMP JUMPDEST PUSH1 0x1 DUP1 SLOAD PUSH1 0x1 PUSH1 0x1 PUSH1 0xA0 SHL SUB NOT AND PUSH1 0x1 PUSH1 0x1 PUSH1 0xA0 SHL SUB DUP6 AND OR SWAP1 SSTORE PUSH3 0x278 PUSH3 0x334 JUMP JUMPDEST PUSH1 0x2 DUP1 SLOAD PUSH1 0x1 PUSH1 0x1 PUSH1 0xA0 SHL SUB NOT SWAP1 DUP2 AND PUSH1 0x1 PUSH1 0x1 PUSH1 0xA0 SHL SUB SWAP4 DUP5 AND OR SWAP1 SWAP2 SSTORE PUSH1 0x4 DUP1 SLOAD SWAP1 SWAP2 AND SWAP2 DUP5 AND SWAP2 SWAP1 SWAP2 OR SWAP1 SSTORE PUSH1 0x1 DUP1 SLOAD PUSH1 0xFF PUSH1 0xA0 SHL NOT AND SWAP1 DUP2 SWAP1 SSTORE PUSH1 0x1 PUSH1 0xA0 SHL SWAP1 DIV PUSH1 0xFF AND PUSH1 0x5 DUP2 GT ISZERO PUSH3 0x2D4 JUMPI PUSH3 0x2D4 PUSH3 0x445 JUMP JUMPDEST PUSH1 0x1 PUSH1 0x1 PUSH1 0xA0 SHL SUB DUP4 AND PUSH3 0x2E8 PUSH3 0x334 JUMP JUMPDEST PUSH1 0x1 PUSH1 0x1 PUSH1 0xA0 SHL SUB AND PUSH32 0xB04EFA95C2E317D8AFBA4237350A971F1CE59EF6FBBF2EB3F1A7E3F3F106A8F4 PUSH0 PUSH1 0x40 MLOAD PUSH3 0x323 SWAP2 DUP2 MSTORE PUSH1 0x20 ADD SWAP1 JUMP JUMPDEST PUSH1 0x40 MLOAD DUP1 SWAP2 SUB SWAP1 LOG4 POP POP POP PUSH3 0x4D9 JUMP JUMPDEST PUSH0 CALLDATASIZE PUSH1 0x14 PUSH3 0x343 CALLER PUSH3 0x38E JUMP JUMPDEST DUP1 ISZERO PUSH3 0x350 JUMPI POP DUP1 DUP3 LT ISZERO JUMPDEST ISZERO PUSH3 0x386 JUMPI PUSH0 CALLDATASIZE PUSH3 0x364 DUP4 DUP6 PUSH3 0x459 JUMP JUMPDEST PUSH3 0x371 SWAP3 DUP3 SWAP1 PUSH3 0x47F JUMP JUMPDEST PUSH3 0x37C SWAP2 PUSH3 0x4A8 JUMP JUMPDEST PUSH1 0x60 SHR SWAP3 POP POP POP SWAP1 JUMP JUMPDEST CALLER SWAP3 POP POP POP SWAP1 JUMP JUMPDEST PUSH0 PUSH3 0x399 PUSH1 0x80 MLOAD SWAP1 JUMP JUMPDEST PUSH1 0x1 PUSH1 0x1 PUSH1 0xA0 SHL SUB AND DUP3 PUSH1 0x1 PUSH1 0x1 PUSH1 0xA0 SHL SUB AND EQ SWAP1 POP SWAP2 SWAP1 POP JUMP JUMPDEST PUSH1 0x1 PUSH1 0x1 PUSH1 0xA0 SHL SUB DUP2 AND DUP2 EQ PUSH3 0x3C9 JUMPI PUSH0 DUP1 REVERT JUMPDEST POP JUMP JUMPDEST PUSH0 DUP1 PUSH0 PUSH1 0x60 DUP5 DUP7 SUB SLT ISZERO PUSH3 0x3DF JUMPI PUSH0 DUP1 REVERT JUMPDEST DUP4 MLOAD PUSH3 0x3EC DUP2 PUSH3 0x3B4 JUMP JUMPDEST PUSH1 0x20 DUP6 ADD MLOAD SWAP1 SWAP4 POP PUSH3 0x3FF DUP2 PUSH3 0x3B4 JUMP JUMPDEST PUSH1 0x40 DUP6 ADD MLOAD SWAP1 SWAP3 POP PUSH3 0x412 DUP2 PUSH3 0x3B4 JUMP JUMPDEST DUP1 SWAP2 POP POP SWAP3 POP SWAP3 POP SWAP3 JUMP JUMPDEST PUSH0 PUSH1 0x20 DUP3 DUP5 SUB SLT ISZERO PUSH3 0x42E JUMPI PUSH0 DUP1 REVERT JUMPDEST DUP2 MLOAD DUP1 ISZERO ISZERO DUP2 EQ PUSH3 0x43E JUMPI PUSH0 DUP1 REVERT JUMPDEST SWAP4 SWAP3 POP POP POP JUMP JUMPDEST PUSH4 0x4E487B71 PUSH1 0xE0 SHL PUSH0 MSTORE PUSH1 0x21 PUSH1 0x4 MSTORE PUSH1 0x24 PUSH0 REVERT JUMPDEST DUP2 DUP2 SUB DUP2 DUP2 GT ISZERO PUSH3 0x479 JUMPI PUSH4 0x4E487B71 PUSH1 0xE0 SHL PUSH0 MSTORE PUSH1 0x11 PUSH1 0x4 MSTORE PUSH1 0x24 PUSH0 REVERT JUMPDEST SWAP3 SWAP2 POP POP JUMP JUMPDEST PUSH0 DUP1 DUP6 DUP6 GT ISZERO PUSH3 0x48E JUMPI PUSH0 DUP1 REVERT JUMPDEST DUP4 DUP7 GT ISZERO PUSH3 0x49B JUMPI PUSH0 DUP1 REVERT JUMPDEST POP POP DUP3 ADD SWAP4 SWAP2 SWAP1 SWAP3 SUB SWAP2 POP JUMP JUMPDEST PUSH1 0x1 PUSH1 0x1 PUSH1 0x60 SHL SUB NOT DUP2 CALLDATALOAD DUP2 DUP2 AND SWAP2 PUSH1 0x14 DUP6 LT ISZERO PUSH3 0x4D1 JUMPI DUP1 DUP2 DUP7 PUSH1 0x14 SUB PUSH1 0x3 SHL SHL DUP4 AND AND SWAP3 POP JUMPDEST POP POP SWAP3 SWAP2 POP POP JUMP JUMPDEST PUSH1 0x80 MLOAD PUSH2 0x1041 PUSH3 0x500 PUSH0 CODECOPY PUSH0 DUP2 DUP2 PUSH2 0x1C8 ADD MSTORE DUP2 DUP2 PUSH2 0x20A ADD MSTORE PUSH2 0xDC9 ADD MSTORE PUSH2 0x1041 PUSH0 RETURN INVALID PUSH1 0x80 PUSH1 0x40 MSTORE CALLVALUE DUP1 ISZERO PUSH2 0xF JUMPI PUSH0 DUP1 REVERT JUMPDEST POP PUSH1 0x4 CALLDATASIZE LT PUSH2 0xDA JUMPI PUSH0 CALLDATALOAD PUSH1 0xE0 SHR DUP1 PUSH4 0x565974D3 GT PUSH2 0x88 JUMPI DUP1 PUSH4 0x835D2D2E GT PUSH2 0x63 JUMPI DUP1 PUSH4 0x835D2D2E EQ PUSH2 0x22E JUMPI DUP1 PUSH4 0xB787CFE6 EQ PUSH2 0x236 JUMPI DUP1 PUSH4 0xD84FFB41 EQ PUSH2 0x249 JUMPI DUP1 PUSH4 0xFBBF93A0 EQ PUSH2 0x27C JUMPI PUSH0 DUP1 REVERT JUMPDEST DUP1 PUSH4 0x565974D3 EQ PUSH2 0x165 JUMPI DUP1 PUSH4 0x572B6C05 EQ PUSH2 0x1B8 JUMPI DUP1 PUSH4 0x7DA0A877 EQ PUSH2 0x208 JUMPI PUSH0 DUP1 REVERT JUMPDEST DUP1 PUSH4 0x200D2ED2 GT PUSH2 0xB8 JUMPI DUP1 PUSH4 0x200D2ED2 EQ PUSH2 0x136 JUMPI DUP1 PUSH4 0x489147D7 EQ PUSH2 0x14A JUMPI DUP1 PUSH4 0x4DC415DE EQ PUSH2 0x15B JUMPI PUSH0 DUP1 REVERT JUMPDEST DUP1 PUSH4 0x10547851 EQ PUSH2 0xDE JUMPI DUP1 PUSH4 0x12424E3F EQ PUSH2 0x10E JUMPI DUP1 PUSH4 0x1AA3A008 EQ PUSH2 0x123 JUMPI JUMPDEST PUSH0 DUP1 REVERT JUMPDEST PUSH1 0x2 SLOAD PUSH2 0xF1 SWAP1 PUSH1 0x1 PUSH1 0x1 PUSH1 0xA0 SHL SUB AND DUP2 JUMP JUMPDEST PUSH1 0x40 MLOAD PUSH1 0x1 PUSH1 0x1 PUSH1 0xA0 SHL SUB SWAP1 SWAP2 AND DUP2 MSTORE PUSH1 0x20 ADD JUMPDEST PUSH1 0x40 MLOAD DUP1 SWAP2 SUB SWAP1 RETURN JUMPDEST PUSH2 0x116 PUSH2 0x2CE JUMP JUMPDEST PUSH1 0x40 MLOAD PUSH2 0x105 SWAP2 SWAP1 PUSH2 0xE8B JUMP JUMPDEST PUSH1 0x1 SLOAD PUSH2 0xF1 SWAP1 PUSH1 0x1 PUSH1 0x1 PUSH1 0xA0 SHL SUB AND DUP2 JUMP JUMPDEST PUSH1 0x1 SLOAD PUSH2 0x116 SWAP1 PUSH1 0x1 PUSH1 0xA0 SHL SWAP1 DIV PUSH1 0xFF AND DUP2 JUMP JUMPDEST PUSH1 0x4 SLOAD PUSH1 0x1 PUSH1 0x1 PUSH1 0xA0 SHL SUB AND PUSH2 0xF1 JUMP JUMPDEST PUSH2 0x163 PUSH2 0x574 JUMP JUMPDEST STOP JUMPDEST PUSH1 0x3 SLOAD PUSH1 0x4 SLOAD PUSH1 0x5 SLOAD PUSH1 0x6 SLOAD PUSH1 0x7 SLOAD PUSH2 0x188 SWAP5 SWAP4 PUSH1 0x1 PUSH1 0x1 PUSH1 0xA0 SHL SUB AND SWAP3 SWAP2 SWAP1 DUP6 JUMP JUMPDEST PUSH1 0x40 DUP1 MLOAD SWAP6 DUP7 MSTORE PUSH1 0x1 PUSH1 0x1 PUSH1 0xA0 SHL SUB SWAP1 SWAP5 AND PUSH1 0x20 DUP7 ADD MSTORE SWAP3 DUP5 ADD SWAP2 SWAP1 SWAP2 MSTORE PUSH1 0x60 DUP4 ADD MSTORE PUSH1 0x80 DUP3 ADD MSTORE PUSH1 0xA0 ADD PUSH2 0x105 JUMP JUMPDEST PUSH2 0x1F8 PUSH2 0x1C6 CALLDATASIZE PUSH1 0x4 PUSH2 0xECC JUMP JUMPDEST PUSH32 0x0 PUSH1 0x1 PUSH1 0x1 PUSH1 0xA0 SHL SUB SWAP1 DUP2 AND SWAP2 AND EQ SWAP1 JUMP JUMPDEST PUSH1 0x40 MLOAD SWAP1 ISZERO ISZERO DUP2 MSTORE PUSH1 0x20 ADD PUSH2 0x105 JUMP JUMPDEST PUSH32 0x0 PUSH2 0xF1 JUMP JUMPDEST PUSH2 0x1F8 PUSH2 0x7AF JUMP JUMPDEST PUSH2 0x163 PUSH2 0x244 CALLDATASIZE PUSH1 0x4 PUSH2 0xEEC JUMP JUMPDEST PUSH2 0xA6A JUMP JUMPDEST PUSH1 0x40 MLOAD PUSH32 0xFFFFFFFFFFFFFFFF000000000000000000000000000000000000000000000000 ADDRESS PUSH1 0xC0 SHL AND DUP2 MSTORE PUSH1 0x20 ADD PUSH2 0x105 JUMP JUMPDEST PUSH2 0x284 PUSH2 0xD4F JUMP JUMPDEST PUSH1 0x40 MLOAD PUSH2 0x105 SWAP2 SWAP1 PUSH0 PUSH1 0xA0 DUP3 ADD SWAP1 POP DUP3 MLOAD DUP3 MSTORE PUSH1 0x1 PUSH1 0x1 PUSH1 0xA0 SHL SUB PUSH1 0x20 DUP5 ADD MLOAD AND PUSH1 0x20 DUP4 ADD MSTORE PUSH1 0x40 DUP4 ADD MLOAD PUSH1 0x40 DUP4 ADD MSTORE PUSH1 0x60 DUP4 ADD MLOAD PUSH1 0x60 DUP4 ADD MSTORE PUSH1 0x80 DUP4 ADD MLOAD PUSH1 0x80 DUP4 ADD MSTORE SWAP3 SWAP2 POP POP JUMP JUMPDEST PUSH1 0x2 SLOAD PUSH0 SWAP1 PUSH1 0x1 PUSH1 0x1 PUSH1 0xA0 SHL SUB AND PUSH2 0x2E4 PUSH2 0xDC3 JUMP JUMPDEST PUSH1 0x1 PUSH1 0x1 PUSH1 0xA0 SHL SUB AND EQ DUP1 ISZERO PUSH2 0x316 JUMPI POP PUSH0 PUSH1 0x1 SLOAD PUSH1 0x1 PUSH1 0xA0 SHL SWAP1 DIV PUSH1 0xFF AND PUSH1 0x5 DUP2 GT ISZERO PUSH2 0x314 JUMPI PUSH2 0x314 PUSH2 0xE77 JUMP JUMPDEST EQ JUMPDEST ISZERO PUSH2 0x4A1 JUMPI PUSH1 0x3 SLOAD PUSH2 0x36F JUMPI PUSH1 0x40 MLOAD PUSH3 0x461BCD PUSH1 0xE5 SHL DUP2 MSTORE PUSH1 0x20 PUSH1 0x4 DUP3 ADD MSTORE PUSH1 0x14 PUSH1 0x24 DUP3 ADD MSTORE PUSH32 0x7175616E74697479206E6F7420646566696E6564000000000000000000000000 PUSH1 0x44 DUP3 ADD MSTORE PUSH1 0x64 ADD JUMPDEST PUSH1 0x40 MLOAD DUP1 SWAP2 SUB SWAP1 REVERT JUMPDEST PUSH1 0x5 SLOAD PUSH2 0x3BE JUMPI PUSH1 0x40 MLOAD PUSH3 0x461BCD PUSH1 0xE5 SHL DUP2 MSTORE PUSH1 0x20 PUSH1 0x4 DUP3 ADD MSTORE PUSH1 0x16 PUSH1 0x24 DUP3 ADD MSTORE PUSH32 0x74726164652064617465206E6F7420646566696E656400000000000000000000 PUSH1 0x44 DUP3 ADD MSTORE PUSH1 0x64 ADD PUSH2 0x366 JUMP JUMPDEST PUSH1 0x6 SLOAD PUSH2 0x40D JUMPI PUSH1 0x40 MLOAD PUSH3 0x461BCD PUSH1 0xE5 SHL DUP2 MSTORE PUSH1 0x20 PUSH1 0x4 DUP3 ADD MSTORE PUSH1 0x16 PUSH1 0x24 DUP3 ADD MSTORE PUSH32 0x76616C75652064617465206E6F7420646566696E656400000000000000000000 PUSH1 0x44 DUP3 ADD MSTORE PUSH1 0x64 ADD PUSH2 0x366 JUMP JUMPDEST PUSH1 0x1 DUP1 SLOAD DUP2 SWAP1 PUSH1 0xFF PUSH1 0xA0 SHL NOT AND PUSH1 0x1 PUSH1 0xA0 SHL DUP3 JUMPDEST MUL OR SWAP1 SSTORE POP PUSH1 0x1 SLOAD PUSH1 0x1 PUSH1 0xA0 SHL SWAP1 DIV PUSH1 0xFF AND PUSH1 0x5 DUP2 GT ISZERO PUSH2 0x444 JUMPI PUSH2 0x444 PUSH2 0xE77 JUMP JUMPDEST PUSH1 0x4 SLOAD PUSH1 0x2 SLOAD PUSH1 0x3 SLOAD PUSH1 0x40 MLOAD SWAP1 DUP2 MSTORE PUSH1 0x1 PUSH1 0x1 PUSH1 0xA0 SHL SUB SWAP3 DUP4 AND SWAP3 SWAP1 SWAP2 AND SWAP1 PUSH32 0xB04EFA95C2E317D8AFBA4237350A971F1CE59EF6FBBF2EB3F1A7E3F3F106A8F4 SWAP1 PUSH1 0x20 ADD PUSH1 0x40 MLOAD DUP1 SWAP2 SUB SWAP1 LOG4 POP PUSH1 0x1 SLOAD PUSH1 0x1 PUSH1 0xA0 SHL SWAP1 DIV PUSH1 0xFF AND SWAP1 JUMP JUMPDEST PUSH1 0x4 SLOAD PUSH1 0x1 PUSH1 0x1 PUSH1 0xA0 SHL SUB AND PUSH2 0x4B5 PUSH2 0xDC3 JUMP JUMPDEST PUSH1 0x1 PUSH1 0x1 PUSH1 0xA0 SHL SUB AND EQ DUP1 ISZERO PUSH2 0x4E7 JUMPI POP PUSH1 0x1 DUP1 SLOAD PUSH1 0x1 PUSH1 0xA0 SHL SWAP1 DIV PUSH1 0xFF AND PUSH1 0x5 DUP2 GT ISZERO PUSH2 0x4E5 JUMPI PUSH2 0x4E5 PUSH2 0xE77 JUMP JUMPDEST EQ JUMPDEST ISZERO PUSH2 0x506 JUMPI PUSH1 0x1 DUP1 SLOAD PUSH1 0x3 SWAP2 SWAP1 PUSH1 0xFF PUSH1 0xA0 SHL NOT AND PUSH1 0x1 PUSH1 0xA0 SHL DUP4 PUSH2 0x421 JUMP JUMPDEST PUSH1 0x40 MLOAD PUSH3 0x461BCD PUSH1 0xE5 SHL DUP2 MSTORE PUSH1 0x20 PUSH1 0x4 DUP3 ADD MSTORE PUSH1 0x33 PUSH1 0x24 DUP3 ADD MSTORE PUSH32 0x7468652074726164652063616E6E6F7420626520617070726F76656420696E20 PUSH1 0x44 DUP3 ADD MSTORE PUSH32 0x746869732063757272656E742073746174757300000000000000000000000000 PUSH1 0x64 DUP3 ADD MSTORE PUSH1 0x84 ADD PUSH2 0x366 JUMP JUMPDEST PUSH1 0x2 PUSH1 0x1 SLOAD PUSH1 0x1 PUSH1 0xA0 SHL SWAP1 DIV PUSH1 0xFF AND PUSH1 0x5 DUP2 GT ISZERO PUSH2 0x594 JUMPI PUSH2 0x594 PUSH2 0xE77 JUMP JUMPDEST SUB PUSH2 0x5E1 JUMPI PUSH1 0x40 MLOAD PUSH3 0x461BCD PUSH1 0xE5 SHL DUP2 MSTORE PUSH1 0x20 PUSH1 0x4 DUP3 ADD MSTORE PUSH1 0x16 PUSH1 0x24 DUP3 ADD MSTORE PUSH32 0x547261646520616C72656164792072656A656374656400000000000000000000 PUSH1 0x44 DUP3 ADD MSTORE PUSH1 0x64 ADD PUSH2 0x366 JUMP JUMPDEST PUSH1 0x2 SLOAD PUSH1 0x1 PUSH1 0x1 PUSH1 0xA0 SHL SUB AND PUSH2 0x5F5 PUSH2 0xDC3 JUMP JUMPDEST PUSH1 0x1 PUSH1 0x1 PUSH1 0xA0 SHL SUB AND EQ DUP1 ISZERO PUSH2 0x629 JUMPI POP PUSH1 0x4 PUSH1 0x1 SLOAD PUSH1 0x1 PUSH1 0xA0 SHL SWAP1 DIV PUSH1 0xFF AND PUSH1 0x5 DUP2 GT ISZERO PUSH2 0x626 JUMPI PUSH2 0x626 PUSH2 0xE77 JUMP JUMPDEST EQ ISZERO JUMPDEST ISZERO PUSH2 0x6B5 JUMPI PUSH1 0x1 DUP1 SLOAD PUSH1 0x2 SWAP2 SWAP1 PUSH1 0xFF PUSH1 0xA0 SHL NOT AND PUSH1 0x1 PUSH1 0xA0 SHL DUP4 JUMPDEST MUL OR SWAP1 SSTORE POP PUSH1 0x1 SLOAD PUSH1 0x1 PUSH1 0xA0 SHL SWAP1 DIV PUSH1 0xFF AND PUSH1 0x5 DUP2 GT ISZERO PUSH2 0x667 JUMPI PUSH2 0x667 PUSH2 0xE77 JUMP JUMPDEST PUSH1 0x4 SLOAD PUSH1 0x2 SLOAD PUSH1 0x3 SLOAD PUSH1 0x40 MLOAD SWAP1 DUP2 MSTORE PUSH1 0x1 PUSH1 0x1 PUSH1 0xA0 SHL SUB SWAP3 DUP4 AND SWAP3 SWAP1 SWAP2 AND SWAP1 PUSH32 0xB04EFA95C2E317D8AFBA4237350A971F1CE59EF6FBBF2EB3F1A7E3F3F106A8F4 SWAP1 PUSH1 0x20 ADD PUSH1 0x40 MLOAD DUP1 SWAP2 SUB SWAP1 LOG4 JUMP JUMPDEST PUSH1 0x4 SLOAD PUSH1 0x1 PUSH1 0x1 PUSH1 0xA0 SHL SUB AND PUSH2 0x6C9 PUSH2 0xDC3 JUMP JUMPDEST PUSH1 0x1 PUSH1 0x1 PUSH1 0xA0 SHL SUB AND EQ DUP1 ISZERO PUSH2 0x722 JUMPI POP PUSH1 0x1 DUP1 SLOAD PUSH1 0x1 PUSH1 0xA0 SHL SWAP1 DIV PUSH1 0xFF AND PUSH1 0x5 DUP2 GT ISZERO PUSH2 0x6F9 JUMPI PUSH2 0x6F9 PUSH2 0xE77 JUMP JUMPDEST EQ DUP1 PUSH2 0x722 JUMPI POP PUSH1 0x3 PUSH1 0x1 SLOAD PUSH1 0x1 PUSH1 0xA0 SHL SWAP1 DIV PUSH1 0xFF AND PUSH1 0x5 DUP2 GT ISZERO PUSH2 0x720 JUMPI PUSH2 0x720 PUSH2 0xE77 JUMP JUMPDEST EQ JUMPDEST ISZERO PUSH2 0x741 JUMPI PUSH1 0x1 DUP1 SLOAD PUSH1 0x2 SWAP2 SWAP1 PUSH1 0xFF PUSH1 0xA0 SHL NOT AND PUSH1 0x1 PUSH1 0xA0 SHL DUP4 PUSH2 0x644 JUMP JUMPDEST PUSH1 0x40 MLOAD PUSH3 0x461BCD PUSH1 0xE5 SHL DUP2 MSTORE PUSH1 0x20 PUSH1 0x4 DUP3 ADD MSTORE PUSH1 0x33 PUSH1 0x24 DUP3 ADD MSTORE PUSH32 0x7468652074726164652063616E6E6F742062652072656A656374656420696E20 PUSH1 0x44 DUP3 ADD MSTORE PUSH32 0x746869732063757272656E742073746174757300000000000000000000000000 PUSH1 0x64 DUP3 ADD MSTORE PUSH1 0x84 ADD PUSH2 0x366 JUMP JUMPDEST PUSH0 PUSH2 0x7B8 PUSH2 0xE36 JUMP JUMPDEST PUSH1 0x2 SLOAD PUSH1 0x1 PUSH1 0x1 PUSH1 0xA0 SHL SUB AND PUSH2 0x7CC PUSH2 0xDC3 JUMP JUMPDEST PUSH1 0x1 PUSH1 0x1 PUSH1 0xA0 SHL SUB AND EQ PUSH2 0x848 JUMPI PUSH1 0x40 MLOAD PUSH3 0x461BCD PUSH1 0xE5 SHL DUP2 MSTORE PUSH1 0x20 PUSH1 0x4 DUP3 ADD MSTORE PUSH1 0x35 PUSH1 0x24 DUP3 ADD MSTORE PUSH32 0x4F6E6C79207468652073656C6C65722063616E20636F6E6669726D2074686520 PUSH1 0x44 DUP3 ADD MSTORE PUSH32 0x7061796D656E74206F6E20746869732074726164650000000000000000000000 PUSH1 0x64 DUP3 ADD MSTORE PUSH1 0x84 ADD PUSH2 0x366 JUMP JUMPDEST PUSH1 0x3 PUSH1 0x1 SLOAD PUSH1 0x1 PUSH1 0xA0 SHL SWAP1 DIV PUSH1 0xFF AND PUSH1 0x5 DUP2 GT ISZERO PUSH2 0x868 JUMPI PUSH2 0x868 PUSH2 0xE77 JUMP JUMPDEST EQ PUSH2 0x8DB JUMPI PUSH1 0x40 MLOAD PUSH3 0x461BCD PUSH1 0xE5 SHL DUP2 MSTORE PUSH1 0x20 PUSH1 0x4 DUP3 ADD MSTORE PUSH1 0x2E PUSH1 0x24 DUP3 ADD MSTORE PUSH32 0x546865207472616465206D757374206265206163636570746564206279207468 PUSH1 0x44 DUP3 ADD MSTORE PUSH32 0x65206275796572206265666F7265000000000000000000000000000000000000 PUSH1 0x64 DUP3 ADD MSTORE PUSH1 0x84 ADD PUSH2 0x366 JUMP JUMPDEST PUSH1 0x1 DUP1 SLOAD PUSH21 0x40000000000000000000000000000000000000000 PUSH1 0xFF PUSH1 0xA0 SHL NOT DUP3 AND OR SWAP1 SWAP2 SSTORE PUSH1 0x2 SLOAD PUSH1 0x4 DUP1 SLOAD PUSH1 0x3 SLOAD PUSH1 0x40 MLOAD PUSH32 0x23B872DD00000000000000000000000000000000000000000000000000000000 DUP2 MSTORE PUSH1 0x1 PUSH1 0x1 PUSH1 0xA0 SHL SUB SWAP5 DUP6 AND SWAP4 DUP2 ADD SWAP4 SWAP1 SWAP4 MSTORE SWAP1 DUP4 AND PUSH1 0x24 DUP4 ADD MSTORE PUSH1 0x44 DUP3 ADD MSTORE PUSH0 SWAP3 SWAP2 SWAP1 SWAP2 AND SWAP1 PUSH4 0x23B872DD SWAP1 PUSH1 0x64 ADD PUSH1 0x20 PUSH1 0x40 MLOAD DUP1 DUP4 SUB DUP2 PUSH0 DUP8 GAS CALL ISZERO DUP1 ISZERO PUSH2 0x97C JUMPI RETURNDATASIZE PUSH0 DUP1 RETURNDATACOPY RETURNDATASIZE PUSH0 REVERT JUMPDEST POP POP POP POP PUSH1 0x40 MLOAD RETURNDATASIZE PUSH1 0x1F NOT PUSH1 0x1F DUP3 ADD AND DUP3 ADD DUP1 PUSH1 0x40 MSTORE POP DUP2 ADD SWAP1 PUSH2 0x9A0 SWAP2 SWAP1 PUSH2 0xF6B JUMP JUMPDEST SWAP1 POP DUP1 PUSH2 0x9EF JUMPI PUSH1 0x40 MLOAD PUSH3 0x461BCD PUSH1 0xE5 SHL DUP2 MSTORE PUSH1 0x20 PUSH1 0x4 DUP3 ADD MSTORE PUSH1 0x17 PUSH1 0x24 DUP3 ADD MSTORE PUSH32 0x746865207472616E7366657220686173206661696C6564000000000000000000 PUSH1 0x44 DUP3 ADD MSTORE PUSH1 0x64 ADD PUSH2 0x366 JUMP JUMPDEST PUSH1 0x1 SLOAD PUSH1 0x1 PUSH1 0xA0 SHL SWAP1 DIV PUSH1 0xFF AND PUSH1 0x5 DUP2 GT ISZERO PUSH2 0xA0D JUMPI PUSH2 0xA0D PUSH2 0xE77 JUMP JUMPDEST PUSH1 0x4 SLOAD PUSH1 0x2 SLOAD PUSH1 0x3 SLOAD PUSH1 0x40 MLOAD SWAP1 DUP2 MSTORE PUSH1 0x1 PUSH1 0x1 PUSH1 0xA0 SHL SUB SWAP3 DUP4 AND SWAP3 SWAP1 SWAP2 AND SWAP1 PUSH32 0xB04EFA95C2E317D8AFBA4237350A971F1CE59EF6FBBF2EB3F1A7E3F3F106A8F4 SWAP1 PUSH1 0x20 ADD PUSH1 0x40 MLOAD DUP1 SWAP2 SUB SWAP1 LOG4 PUSH1 0x1 SWAP2 POP POP PUSH2 0xA67 PUSH1 0x1 PUSH0 SSTORE JUMP JUMPDEST SWAP1 JUMP JUMPDEST PUSH1 0x2 SLOAD PUSH1 0x1 PUSH1 0x1 PUSH1 0xA0 SHL SUB AND PUSH2 0xA7E PUSH2 0xDC3 JUMP JUMPDEST PUSH1 0x1 PUSH1 0x1 PUSH1 0xA0 SHL SUB AND EQ PUSH2 0xAFA JUMPI PUSH1 0x40 MLOAD PUSH3 0x461BCD PUSH1 0xE5 SHL DUP2 MSTORE PUSH1 0x20 PUSH1 0x4 DUP3 ADD MSTORE PUSH1 0x25 PUSH1 0x24 DUP3 ADD MSTORE PUSH32 0x4F6E6C79207468652073656C6C65722063616E20757064617465207468697320 PUSH1 0x44 DUP3 ADD MSTORE PUSH32 0x7472616465000000000000000000000000000000000000000000000000000000 PUSH1 0x64 DUP3 ADD MSTORE PUSH1 0x84 ADD PUSH2 0x366 JUMP JUMPDEST PUSH0 PUSH1 0x1 SLOAD PUSH1 0x1 PUSH1 0xA0 SHL SWAP1 DIV PUSH1 0xFF AND PUSH1 0x5 DUP2 GT ISZERO PUSH2 0xB19 JUMPI PUSH2 0xB19 PUSH2 0xE77 JUMP JUMPDEST EQ PUSH2 0xB8C JUMPI PUSH1 0x40 MLOAD PUSH3 0x461BCD PUSH1 0xE5 SHL DUP2 MSTORE PUSH1 0x20 PUSH1 0x4 DUP3 ADD MSTORE PUSH1 0x36 PUSH1 0x24 DUP3 ADD MSTORE PUSH32 0x43616E6E6F74206368616E6765207468652074726164652064657461696C7320 PUSH1 0x44 DUP3 ADD MSTORE PUSH32 0x756E6C65737320696E2064726166742073746174757300000000000000000000 PUSH1 0x64 DUP3 ADD MSTORE PUSH1 0x84 ADD PUSH2 0x366 JUMP JUMPDEST PUSH1 0x1 SLOAD PUSH1 0x20 DUP3 ADD MLOAD PUSH1 0x40 MLOAD PUSH32 0xC41251A100000000000000000000000000000000000000000000000000000000 DUP2 MSTORE PUSH1 0x1 PUSH1 0x1 PUSH1 0xA0 SHL SUB SWAP2 DUP3 AND PUSH1 0x4 DUP3 ADD MSTORE SWAP2 AND SWAP1 PUSH4 0xC41251A1 SWAP1 PUSH1 0x24 ADD PUSH1 0x20 PUSH1 0x40 MLOAD DUP1 DUP4 SUB DUP2 DUP7 GAS STATICCALL ISZERO DUP1 ISZERO PUSH2 0xBF1 JUMPI RETURNDATASIZE PUSH0 DUP1 RETURNDATACOPY RETURNDATASIZE PUSH0 REVERT JUMPDEST POP POP POP POP PUSH1 0x40 MLOAD RETURNDATASIZE PUSH1 0x1F NOT PUSH1 0x1F DUP3 ADD AND DUP3 ADD DUP1 PUSH1 0x40 MSTORE POP DUP2 ADD SWAP1 PUSH2 0xC15 SWAP2 SWAP1 PUSH2 0xF6B JUMP JUMPDEST PUSH2 0xC87 JUMPI PUSH1 0x40 MLOAD PUSH3 0x461BCD PUSH1 0xE5 SHL DUP2 MSTORE PUSH1 0x20 PUSH1 0x4 DUP3 ADD MSTORE PUSH1 0x37 PUSH1 0x24 DUP3 ADD MSTORE PUSH32 0x4275796572206D75737420626520612076616C696420696E766573746F722065 PUSH1 0x44 DUP3 ADD MSTORE PUSH32 0x76656E206F6E206368616E67696E672064657461696C73000000000000000000 PUSH1 0x64 DUP3 ADD MSTORE PUSH1 0x84 ADD PUSH2 0x366 JUMP JUMPDEST DUP1 MLOAD PUSH1 0x3 SSTORE PUSH1 0x20 DUP2 ADD MLOAD PUSH1 0x4 DUP1 SLOAD PUSH32 0xFFFFFFFFFFFFFFFFFFFFFFFF0000000000000000000000000000000000000000 AND PUSH1 0x1 PUSH1 0x1 PUSH1 0xA0 SHL SUB SWAP1 SWAP3 AND SWAP2 SWAP1 SWAP2 OR SWAP1 SSTORE PUSH1 0x40 DUP2 ADD MLOAD PUSH1 0x5 SWAP1 DUP2 SSTORE PUSH1 0x60 DUP3 ADD MLOAD PUSH1 0x6 SSTORE PUSH1 0x80 DUP3 ADD MLOAD PUSH1 0x7 SSTORE PUSH1 0x1 SLOAD PUSH1 0x1 PUSH1 0xA0 SHL SWAP1 DIV PUSH1 0xFF AND SWAP1 DUP2 GT ISZERO PUSH2 0xCFF JUMPI PUSH2 0xCFF PUSH2 0xE77 JUMP JUMPDEST PUSH1 0x20 DUP3 DUP2 ADD MLOAD PUSH1 0x2 SLOAD DUP5 MLOAD PUSH1 0x40 MLOAD SWAP1 DUP2 MSTORE PUSH1 0x1 PUSH1 0x1 PUSH1 0xA0 SHL SUB SWAP3 DUP4 AND SWAP4 SWAP3 SWAP1 SWAP2 AND SWAP2 PUSH32 0xB04EFA95C2E317D8AFBA4237350A971F1CE59EF6FBBF2EB3F1A7E3F3F106A8F4 SWAP2 ADD PUSH1 0x40 MLOAD DUP1 SWAP2 SUB SWAP1 LOG4 POP JUMP JUMPDEST PUSH2 0xD85 PUSH1 0x40 MLOAD DUP1 PUSH1 0xA0 ADD PUSH1 0x40 MSTORE DUP1 PUSH0 DUP2 MSTORE PUSH1 0x20 ADD PUSH0 PUSH1 0x1 PUSH1 0x1 PUSH1 0xA0 SHL SUB AND DUP2 MSTORE PUSH1 0x20 ADD PUSH0 DUP2 MSTORE PUSH1 0x20 ADD PUSH0 DUP2 MSTORE PUSH1 0x20 ADD PUSH0 DUP2 MSTORE POP SWAP1 JUMP JUMPDEST POP PUSH1 0x40 DUP1 MLOAD PUSH1 0xA0 DUP2 ADD DUP3 MSTORE PUSH1 0x3 SLOAD DUP2 MSTORE PUSH1 0x4 SLOAD PUSH1 0x1 PUSH1 0x1 PUSH1 0xA0 SHL SUB AND PUSH1 0x20 DUP3 ADD MSTORE PUSH1 0x5 SLOAD SWAP2 DUP2 ADD SWAP2 SWAP1 SWAP2 MSTORE PUSH1 0x6 SLOAD PUSH1 0x60 DUP3 ADD MSTORE PUSH1 0x7 SLOAD PUSH1 0x80 DUP3 ADD MSTORE SWAP1 JUMP JUMPDEST PUSH0 CALLDATASIZE PUSH1 0x14 PUSH32 0x0 PUSH1 0x1 PUSH1 0x1 PUSH1 0xA0 SHL SUB AND CALLER EQ DUP1 ISZERO PUSH2 0xDFF JUMPI POP DUP1 DUP3 LT ISZERO JUMPDEST ISZERO PUSH2 0xE2E JUMPI PUSH0 CALLDATASIZE PUSH2 0xE10 DUP4 DUP6 PUSH2 0xF8A JUMP JUMPDEST PUSH2 0xE1B SWAP3 DUP3 SWAP1 PUSH2 0xFAF JUMP JUMPDEST PUSH2 0xE24 SWAP2 PUSH2 0xFD6 JUMP JUMPDEST PUSH1 0x60 SHR SWAP3 POP POP POP SWAP1 JUMP JUMPDEST CALLER SWAP3 POP POP POP SWAP1 JUMP JUMPDEST PUSH1 0x2 PUSH0 SLOAD SUB PUSH2 0xE71 JUMPI PUSH1 0x40 MLOAD PUSH32 0x3EE5AEB500000000000000000000000000000000000000000000000000000000 DUP2 MSTORE PUSH1 0x4 ADD PUSH1 0x40 MLOAD DUP1 SWAP2 SUB SWAP1 REVERT JUMPDEST PUSH1 0x2 PUSH0 SSTORE JUMP JUMPDEST PUSH4 0x4E487B71 PUSH1 0xE0 SHL PUSH0 MSTORE PUSH1 0x21 PUSH1 0x4 MSTORE PUSH1 0x24 PUSH0 REVERT JUMPDEST PUSH1 0x20 DUP2 ADD PUSH1 0x6 DUP4 LT PUSH2 0xEAB JUMPI PUSH4 0x4E487B71 PUSH1 0xE0 SHL PUSH0 MSTORE PUSH1 0x21 PUSH1 0x4 MSTORE PUSH1 0x24 PUSH0 REVERT JUMPDEST SWAP2 SWAP1 MSTORE SWAP1 JUMP JUMPDEST DUP1 CALLDATALOAD PUSH1 0x1 PUSH1 0x1 PUSH1 0xA0 SHL SUB DUP2 AND DUP2 EQ PUSH2 0xEC7 JUMPI PUSH0 DUP1 REVERT JUMPDEST SWAP2 SWAP1 POP JUMP JUMPDEST PUSH0 PUSH1 0x20 DUP3 DUP5 SUB SLT ISZERO PUSH2 0xEDC JUMPI PUSH0 DUP1 REVERT JUMPDEST PUSH2 0xEE5 DUP3 PUSH2 0xEB1 JUMP JUMPDEST SWAP4 SWAP3 POP POP POP JUMP JUMPDEST PUSH0 PUSH1 0xA0 DUP3 DUP5 SUB SLT ISZERO PUSH2 0xEFC JUMPI PUSH0 DUP1 REVERT JUMPDEST PUSH1 0x40 MLOAD PUSH1 0xA0 DUP2 ADD DUP2 DUP2 LT PUSH8 0xFFFFFFFFFFFFFFFF DUP3 GT OR ISZERO PUSH2 0xF2B JUMPI PUSH4 0x4E487B71 PUSH1 0xE0 SHL PUSH0 MSTORE PUSH1 0x41 PUSH1 0x4 MSTORE PUSH1 0x24 PUSH0 REVERT JUMPDEST PUSH1 0x40 MSTORE DUP3 CALLDATALOAD DUP2 MSTORE PUSH2 0xF3E PUSH1 0x20 DUP5 ADD PUSH2 0xEB1 JUMP JUMPDEST PUSH1 0x20 DUP3 ADD MSTORE PUSH1 0x40 DUP4 ADD CALLDATALOAD PUSH1 0x40 DUP3 ADD MSTORE PUSH1 0x60 DUP4 ADD CALLDATALOAD PUSH1 0x60 DUP3 ADD MSTORE PUSH1 0x80 DUP4 ADD CALLDATALOAD PUSH1 0x80 DUP3 ADD MSTORE DUP1 SWAP2 POP POP SWAP3 SWAP2 POP POP JUMP JUMPDEST PUSH0 PUSH1 0x20 DUP3 DUP5 SUB SLT ISZERO PUSH2 0xF7B JUMPI PUSH0 DUP1 REVERT JUMPDEST DUP2 MLOAD DUP1 ISZERO ISZERO DUP2 EQ PUSH2 0xEE5 JUMPI PUSH0 DUP1 REVERT JUMPDEST DUP2 DUP2 SUB DUP2 DUP2 GT ISZERO PUSH2 0xFA9 JUMPI PUSH4 0x4E487B71 PUSH1 0xE0 SHL PUSH0 MSTORE PUSH1 0x11 PUSH1 0x4 MSTORE PUSH1 0x24 PUSH0 REVERT JUMPDEST SWAP3 SWAP2 POP POP JUMP JUMPDEST PUSH0 DUP1 DUP6 DUP6 GT ISZERO PUSH2 0xFBD JUMPI PUSH0 DUP1 REVERT JUMPDEST DUP4 DUP7 GT ISZERO PUSH2 0xFC9 JUMPI PUSH0 DUP1 REVERT JUMPDEST POP POP DUP3 ADD SWAP4 SWAP2 SWAP1 SWAP3 SUB SWAP2 POP JUMP JUMPDEST PUSH12 0xFFFFFFFFFFFFFFFFFFFFFFFF NOT DUP2 CALLDATALOAD DUP2 DUP2 AND SWAP2 PUSH1 0x14 DUP6 LT ISZERO PUSH2 0x1003 JUMPI DUP1 DUP2 DUP7 PUSH1 0x14 SUB PUSH1 0x3 SHL SHL DUP4 AND AND SWAP3 POP JUMPDEST POP POP SWAP3 SWAP2 POP POP JUMP INVALID LOG2 PUSH5 0x6970667358 0x22 SLT KECCAK256 0x5C SELFDESTRUCT PUSH20 0x1553C0976D2088A326F50835757331C370021439 0xCF SWAP4 LOG0 PUSH17 0xDECBB285E764736F6C6343000814003300 "},"methodIdentifiers":{"approve()":"12424e3f","buyerAccount()":"489147d7","details()":"565974d3","executeTransfer()":"835d2d2e","getDetails()":"fbbf93a0","isTrustedForwarder(address)":"572b6c05","paymentID()":"d84ffb41","register()":"1aa3a008","reject()":"4dc415de","sellerAccount()":"10547851","setDetails((uint256,address,uint256,uint256,uint256))":"b787cfe6","status()":"200d2ed2","trustedForwarder()":"7da0a877"}}}}}