{"contracts/register/coupon/redemption/Redemption.sol":{"Redemption":{"abi":[{"inputs":[{"internalType":"address","name":"_registerContract","type":"address"},{"internalType":"uint256","name":"_maturityDate","type":"uint256"},{"internalType":"uint256","name":"_nbDays","type":"uint256"},{"internalType":"uint256","name":"_recordDate","type":"uint256"},{"internalType":"uint256","name":"_cutOfTime","type":"uint256"}],"stateMutability":"nonpayable","type":"constructor"},{"inputs":[],"name":"ReentrancyGuardReentrantCall","type":"error"},{"anonymous":false,"inputs":[{"indexed":true,"internalType":"contract IRegister","name":"register","type":"address"},{"indexed":true,"internalType":"uint256","name":"couponDate","type":"uint256"},{"indexed":true,"internalType":"enum ICoupon.CouponStatus","name":"status","type":"uint8"}],"name":"CouponChanged","type":"event"},{"anonymous":false,"inputs":[{"indexed":true,"internalType":"contract IRegister","name":"register","type":"address"},{"indexed":true,"internalType":"uint256","name":"couponDate","type":"uint256"},{"indexed":true,"internalType":"address","name":"investor","type":"address"},{"indexed":false,"internalType":"enum ICoupon.PaymentStatus","name":"status","type":"uint8"},{"indexed":false,"internalType":"enum ICoupon.PaymentStatus","name":"previousStatus","type":"uint8"}],"name":"CouponPaymentStatusChanged","type":"event"},{"anonymous":false,"inputs":[{"indexed":true,"internalType":"contract IRegister","name":"register","type":"address"},{"indexed":true,"internalType":"uint256","name":"couponDate","type":"uint256"},{"indexed":true,"internalType":"enum ICoupon.CouponStatus","name":"status","type":"uint8"}],"name":"RedemptionChanged","type":"event"},{"anonymous":false,"inputs":[{"indexed":true,"internalType":"contract IRegister","name":"register","type":"address"},{"indexed":true,"internalType":"uint256","name":"couponDate","type":"uint256"},{"indexed":true,"internalType":"address","name":"investor","type":"address"},{"indexed":false,"internalType":"enum ICoupon.PaymentStatus","name":"status","type":"uint8"},{"indexed":false,"internalType":"enum ICoupon.PaymentStatus","name":"previousStatus","type":"uint8"}],"name":"RedemptionPaymentStatusChanged","type":"event"},{"inputs":[],"name":"couponDate","outputs":[{"internalType":"uint256","name":"","type":"uint256"}],"stateMutability":"view","type":"function"},{"inputs":[],"name":"cutOfTime","outputs":[{"internalType":"uint256","name":"","type":"uint256"}],"stateMutability":"view","type":"function"},{"inputs":[{"internalType":"address","name":"_investor","type":"address"}],"name":"getInvestorPayments","outputs":[{"internalType":"enum ICoupon.PaymentStatus","name":"","type":"uint8"}],"stateMutability":"view","type":"function"},{"inputs":[{"internalType":"address","name":"_investor","type":"address"}],"name":"getInvestorRedemptionPayments","outputs":[{"internalType":"enum ICoupon.PaymentStatus","name":"","type":"uint8"}],"stateMutability":"view","type":"function"},{"inputs":[{"internalType":"address","name":"_investor","type":"address"}],"name":"getMaturityAmountForInvestor","outputs":[{"internalType":"uint256","name":"paymentAmount","type":"uint256"}],"stateMutability":"view","type":"function"},{"inputs":[{"internalType":"address","name":"_investor","type":"address"}],"name":"getPaymentAmountForInvestor","outputs":[{"internalType":"uint256","name":"paymentAmount","type":"uint256"}],"stateMutability":"view","type":"function"},{"inputs":[],"name":"getTotalMaturityAmount","outputs":[{"internalType":"uint256","name":"paymentAmount","type":"uint256"}],"stateMutability":"view","type":"function"},{"inputs":[],"name":"getTotalPaymentAmount","outputs":[{"internalType":"uint256","name":"paymentAmount","type":"uint256"}],"stateMutability":"view","type":"function"},{"inputs":[{"internalType":"address","name":"","type":"address"}],"name":"investorPayments","outputs":[{"internalType":"enum ICoupon.PaymentStatus","name":"","type":"uint8"}],"stateMutability":"view","type":"function"},{"inputs":[{"internalType":"address","name":"","type":"address"}],"name":"investorRedemptionPayments","outputs":[{"internalType":"enum ICoupon.PaymentStatus","name":"","type":"uint8"}],"stateMutability":"view","type":"function"},{"inputs":[],"name":"nbDays","outputs":[{"internalType":"uint256","name":"","type":"uint256"}],"stateMutability":"view","type":"function"},{"inputs":[],"name":"payingAgent","outputs":[{"internalType":"address","name":"","type":"address"}],"stateMutability":"view","type":"function"},{"inputs":[{"internalType":"address","name":"_investor","type":"address"}],"name":"paymentIdForInvest","outputs":[{"internalType":"bytes8","name":"","type":"bytes8"}],"stateMutability":"view","type":"function"},{"inputs":[{"internalType":"address","name":"_investor","type":"address"}],"name":"paymentIdRedemptionForInvest","outputs":[{"internalType":"bytes8","name":"","type":"bytes8"}],"stateMutability":"view","type":"function"},{"inputs":[],"name":"recordDate","outputs":[{"internalType":"uint256","name":"","type":"uint256"}],"stateMutability":"view","type":"function"},{"inputs":[],"name":"register","outputs":[{"internalType":"contract IRegister","name":"","type":"address"}],"stateMutability":"view","type":"function"},{"inputs":[],"name":"rejectCoupon","outputs":[],"stateMutability":"nonpayable","type":"function"},{"inputs":[{"internalType":"uint256","name":"_recordDate","type":"uint256"},{"internalType":"uint256","name":"_cutOfTime","type":"uint256"}],"name":"setCutOffTime","outputs":[],"stateMutability":"nonpayable","type":"function"},{"inputs":[],"name":"setDateAsCurrentCoupon","outputs":[],"stateMutability":"nonpayable","type":"function"},{"inputs":[{"internalType":"uint256","name":"_nbDays","type":"uint256"}],"name":"setNbDays","outputs":[],"stateMutability":"nonpayable","type":"function"},{"inputs":[],"name":"status","outputs":[{"internalType":"enum ICoupon.CouponStatus","name":"","type":"uint8"}],"stateMutability":"view","type":"function"},{"inputs":[{"internalType":"address","name":"_investor","type":"address"}],"name":"toggleCouponPayment","outputs":[],"stateMutability":"nonpayable","type":"function"},{"inputs":[{"internalType":"address","name":"_investor","type":"address"}],"name":"toggleRedemptionPayment","outputs":[],"stateMutability":"nonpayable","type":"function"}],"evm":{"bytecode":{"linkReferences":{},"object":"608060405234801562000010575f80fd5b50604051620025ff380380620025ff8339810160408190526200003391620003d3565b60015f55600780546001600160a01b0387166001600160a01b0319918216811790925560088054909116821790556040516338e5975560e21b8152336004820152869186918691869186919063e3965d5490602401602060405180830381865afa158015620000a4573d5f803e3d5ffd5b505050506040513d601f19601f82011682018060405250810190620000ca919062000425565b6200012e5760405162461bcd60e51b815260206004820152602960248201527f53656e646572206d757374206265206120506179696e672063616c63756c61746044820152681a5bdb881859d95b9d60ba1b60648201526084015b60405180910390fd5b6007546040516338e20fc560e11b8152600481018690526001600160a01b03909116906371c41f8a906024016020604051808303815f875af115801562000177573d5f803e3d5ffd5b505050506040513d601f19601f820116820180604052508101906200019d919062000425565b620001eb5760405162461bcd60e51b815260206004820152601f60248201527f7468697320636f75706f6e4461746520646f6573206e6f742065786973747300604482015260640162000125565b600184905560028390556200020462015180836200044d565b6200021090836200046d565b6003556200022262015180826200044d565b6004908155600580546001600160a01b031916331790556008805460ff60a01b191690819055600160a01b900460ff169081111562000265576200026562000493565b6001546007546040516001600160a01b03909116907fee1a084aa36acdbc1c32f808f87c6ef8ae26d4ad59293c32244b1b72466bb760905f90a4505060075460405163d4cdda9160e01b8152600481018990526001600160a01b03909116935063d4cdda91925060240190506020604051808303815f875af1158015620002ee573d5f803e3d5ffd5b505050506040513d601f19601f8201168201806040525081019062000314919062000425565b6200036d5760405162461bcd60e51b815260206004820152602260248201527f74686973206d61747572697479204461746520646f6573206e6f742065786973604482015261747360f01b606482015260840162000125565b600854600160a01b900460ff1660048111156200038e576200038e62000493565b6001546007546040516001600160a01b03909116907f6f3decef32bc5575fa4154c177d28de83ad12af68ef61bf36ad7c5be081654df905f90a45050505050620004a7565b5f805f805f60a08688031215620003e8575f80fd5b85516001600160a01b0381168114620003ff575f80fd5b602087015160408801516060890151608090990151929a91995097965090945092505050565b5f6020828403121562000436575f80fd5b8151801515811462000446575f80fd5b9392505050565b5f826200046857634e487b7160e01b5f52601260045260245ffd5b500690565b818103818111156200048d57634e487b7160e01b5f52601160045260245ffd5b92915050565b634e487b7160e01b5f52602160045260245ffd5b61214a80620004b55f395ff3fe608060405234801561000f575f80fd5b5060043610610184575f3560e01c806384cd8c86116100dd578063d64c058711610088578063f4bcf20911610063578063f4bcf2091461038c578063f68a3ab414610394578063fd3b4442146103a7575f80fd5b8063d64c05871461033b578063d927a6061461034e578063e505222b14610379575f80fd5b8063b77fea01116100b8578063b77fea01146102fd578063c4fa96b014610310578063ccc5d7e914610319575f80fd5b806384cd8c86146102ca57806386d49f77146102ec5780639d5d5fa4146102f5575f80fd5b8063532e91cc1161013d5780636969a06f116101185780636969a06f1461029a57806369fb125e146102a45780637c610024146102b7575f80fd5b8063532e91cc146102305780635e4795a914610274578063683fffd514610287575f80fd5b8063200d2ed21161016d578063200d2ed2146101f057806323bfa0f01461021157806350cc453214610227575f80fd5b80631aa3a008146101885780631dd5fc63146101b8575b5f80fd5b60075461019b906001600160a01b031681565b6040516001600160a01b0390911681526020015b60405180910390f35b6101e36101c6366004611f6e565b6001600160a01b03165f908152600a602052604090205460ff1690565b6040516101af9190611fb8565b60085461020490600160a01b900460ff1681565b6040516101af9190611fcc565b6102196103b0565b6040519081526020016101af565b61021960035481565b61024361023e366004611f6e565b610551565b6040517fffffffffffffffff00000000000000000000000000000000000000000000000090911681526020016101af565b60055461019b906001600160a01b031681565b610219610295366004611f6e565b61059b565b6102a2610699565b005b6102196102b2366004611f6e565b610a62565b6102a26102c5366004611fe6565b610c08565b6101e36102d8366004611f6e565b600a6020525f908152604090205460ff1681565b61021960025481565b610219610d75565b6102a261030b366004611f6e565b610e77565b61021960015481565b6101e3610327366004611f6e565b60096020525f908152604090205460ff1681565b6102a2610349366004611f6e565b611689565b6101e361035c366004611f6e565b6001600160a01b03165f9081526009602052604090205460ff1690565b610243610387366004611f6e565b611be7565b6102a2611c3e565b6102a26103a2366004611ffd565b611d83565b61021960045481565b5f8060075f9054906101000a90046001600160a01b03166001600160a01b031663a7f2f6ec6040518163ffffffff1660e01b8152600401602060405180830381865afa158015610402573d5f803e3d5ffd5b505050506040513d601f19601f82011682018060405250810190610426919061201d565b90505f60075f9054906101000a90046001600160a01b03166001600160a01b03166339027f7c6040518163ffffffff1660e01b8152600401602060405180830381865afa158015610479573d5f803e3d5ffd5b505050506040513d601f19601f8201168201806040525081019061049d919061201d565b90505f60075f9054906101000a90046001600160a01b03166001600160a01b03166318160ddd6040518163ffffffff1660e01b8152600401602060405180830381865afa1580156104f0573d5f803e3d5ffd5b505050506040513d601f19601f82011682018060405250810190610514919061201d565b90505f61016860025484848761052a9190612048565b6105349190612048565b61053e9190612048565b6105489190612073565b95945050505050565b6040516bffffffffffffffffffffffff1930606090811b8216602084015283901b1660348201525f906048015b604051602081830303815290604052805190602001209050919050565b5f8060075f9054906101000a90046001600160a01b03166001600160a01b031663a7f2f6ec6040518163ffffffff1660e01b8152600401602060405180830381865afa1580156105ed573d5f803e3d5ffd5b505050506040513d601f19601f82011682018060405250810190610611919061201d565b6008546001546040516307b2d9e360e01b81526001600160a01b03878116600483015260248201929092529293505f929116906307b2d9e390604401602060405180830381865afa158015610668573d5f803e3d5ffd5b505050506040513d601f19601f8201168201806040525081019061068c919061201d565b90505f6105488284612048565b6106a1611f19565b6007546040516338e5975560e21b81523360048201526001600160a01b039091169063e3965d5490602401602060405180830381865afa1580156106e7573d5f803e3d5ffd5b505050506040513d601f19601f8201168201806040525081019061070b9190612086565b61076e5760405162461bcd60e51b815260206004820152602960248201527f53656e646572206d757374206265206120506179696e672063616c63756c61746044820152681a5bdb881859d95b9d60ba1b60648201526084015b60405180910390fd5b5f600854600160a01b900460ff16600481111561078d5761078d611f90565b1461080e5760405162461bcd60e51b8152602060048201526044602482018190527f54686520636f75706f6e20646174652063616e206265206d6f64696669656420908201527f6f6e6c792069662074686520636f6e74726163742073746174757320697320446064820152631c98599d60e21b608482015260a401610765565b6007546001546040517f71c41f8a0000000000000000000000000000000000000000000000000000000081526001600160a01b03909216916371c41f8a9161085c9160040190815260200190565b6020604051808303815f875af1158015610878573d5f803e3d5ffd5b505050506040513d601f19601f8201168201806040525081019061089c9190612086565b6108e85760405162461bcd60e51b815260206004820152601f60248201527f7468697320636f75706f6e4461746520646f6573206e6f7420657869737473006044820152606401610765565b6007546001546004546003546001600160a01b0390931692633052974c9291610910916120a5565b6040517fffffffff0000000000000000000000000000000000000000000000000000000060e085901b168152600481019290925260248201526044015f604051808303815f87803b158015610963575f80fd5b505af1158015610975573d5f803e3d5ffd5b5050505060085f9054906101000a90046001600160a01b03166001600160a01b0316639ef986de6040518163ffffffff1660e01b8152600401602060405180830381865afa1580156109c9573d5f803e3d5ffd5b505050506040513d601f19601f820116820180604052508101906109ed919061201d565b6006556008805460ff60a01b1916600160a01b90811791829055900460ff166004811115610a1d57610a1d611f90565b6001546007546040516001600160a01b03909116907fee1a084aa36acdbc1c32f808f87c6ef8ae26d4ad59293c32244b1b72466bb760905f90a4610a6060015f55565b565b5f8060075f9054906101000a90046001600160a01b03166001600160a01b031663a7f2f6ec6040518163ffffffff1660e01b8152600401602060405180830381865afa158015610ab4573d5f803e3d5ffd5b505050506040513d601f19601f82011682018060405250810190610ad8919061201d565b90505f60075f9054906101000a90046001600160a01b03166001600160a01b03166339027f7c6040518163ffffffff1660e01b8152600401602060405180830381865afa158015610b2b573d5f803e3d5ffd5b505050506040513d601f19601f82011682018060405250810190610b4f919061201d565b6008546001546040516307b2d9e360e01b81526001600160a01b03888116600483015260248201929092529293505f929116906307b2d9e390604401602060405180830381865afa158015610ba6573d5f803e3d5ffd5b505050506040513d601f19601f82011682018060405250810190610bca919061201d565b90505f610168600254848487610be09190612048565b610bea9190612048565b610bf49190612048565b610bfe9190612073565b9695505050505050565b6007546040516338e5975560e21b81523360048201526001600160a01b039091169063e3965d5490602401602060405180830381865afa158015610c4e573d5f803e3d5ffd5b505050506040513d601f19601f82011682018060405250810190610c729190612086565b610cd05760405162461bcd60e51b815260206004820152602960248201527f53656e646572206d757374206265206120506179696e672063616c63756c61746044820152681a5bdb881859d95b9d60ba1b6064820152608401610765565b5f600854600160a01b900460ff166004811115610cef57610cef611f90565b14610d705760405162461bcd60e51b8152602060048201526044602482018190527f54686520636f75706f6e20646174652063616e206265206d6f64696669656420908201527f6f6e6c792069662074686520636f6e74726163742073746174757320697320446064820152631c98599d60e21b608482015260a401610765565b600255565b5f8060075f9054906101000a90046001600160a01b03166001600160a01b031663a7f2f6ec6040518163ffffffff1660e01b8152600401602060405180830381865afa158015610dc7573d5f803e3d5ffd5b505050506040513d601f19601f82011682018060405250810190610deb919061201d565b90505f60075f9054906101000a90046001600160a01b03166001600160a01b03166318160ddd6040518163ffffffff1660e01b8152600401602060405180830381865afa158015610e3e573d5f803e3d5ffd5b505050506040513d601f19601f82011682018060405250810190610e62919061201d565b90505f610e6f8284612048565b949350505050565b610e7f611f19565b60075460405163c41251a160e01b81526001600160a01b0383811660048301529091169063c41251a190602401602060405180830381865afa158015610ec7573d5f803e3d5ffd5b505050506040513d601f19601f82011682018060405250810190610eeb9190612086565b610f375760405162461bcd60e51b815260206004820152601c60248201527f5468697320696e766573746f72206973206e6f7420616c6c6f776564000000006044820152606401610765565b6001600854600160a01b900460ff166004811115610f5757610f57611f90565b14610fca5760405162461bcd60e51b815260206004820152602c60248201527f54686520737461747573206f662074686520526564656d7074696f6e2073686f60448201527f756c6420626520526561647900000000000000000000000000000000000000006064820152608401610765565b6001600160a01b038181165f908152600a6020526040908190205460075491516321b0fc9560e11b815233600482015260ff909116929190911690634361f92a90602401602060405180830381865afa158015611029573d5f803e3d5ffd5b505050506040513d601f19601f8201168201806040525081019061104d9190612086565b1561136e576001600160a01b0382165f908152600a602052604081205460ff16600281111561107e5761107e611f90565b036112a05760065442116110fa5760405162461bcd60e51b815260206004820152602760248201527f746865206d6174757269747920637574206f662074696d6520686173206e6f7460448201527f20706173736564000000000000000000000000000000000000000000000000006064820152608401610765565b6001600160a01b038281165f818152600a6020526040808220805460ff1916600117905560075490517f70a082310000000000000000000000000000000000000000000000000000000081526004810193909352909216906370a0823190602401602060405180830381865afa158015611176573d5f803e3d5ffd5b505050506040513d601f19601f8201168201806040525081019061119a919061201d565b9050801561129a576007546040517fabc2cf2a0000000000000000000000000000000000000000000000000000000081526001600160a01b0385811660048301529091169063abc2cf2a906024016020604051808303815f875af1158015611204573d5f803e3d5ffd5b505050506040513d601f19601f820116820180604052508101906112289190612086565b61129a5760405162461bcd60e51b815260206004820152602260248201527f72657475726e2062616c616e636520657870656374656420627574206661696c60448201527f65640000000000000000000000000000000000000000000000000000000000006064820152608401610765565b50611619565b60016001600160a01b0383165f908152600a602052604090205460ff1660028111156112ce576112ce611f90565b036112fe576001600160a01b0382165f908152600a60205260408120805460ff19166001835b0217905550611619565b6040805162461bcd60e51b81526020600482015260248101919091527f54686520737461747573206f66207468697320696e766573746f72277320706160448201527f796d656e742073686f756c642062652050616964206f7220546f4265506169646064820152608401610765565b600754604051630d72032360e21b81523360048201526001600160a01b03909116906335c80c8c90602401602060405180830381865afa1580156113b4573d5f803e3d5ffd5b505050506040513d601f19601f820116820180604052508101906113d89190612086565b156115ab576007546040516308f92f4960e41b81526001600160a01b03848116600483015233921690638f92f49090602401602060405180830381865afa158015611425573d5f803e3d5ffd5b505050506040513d601f19601f8201168201806040525081019061144991906120b8565b6001600160a01b0316146114ae5760405162461bcd60e51b815260206004820152602660248201527f596f7520617265206e6f7420637573746f6469616e206f66207468697320696e6044820152653b32b9ba37b960d11b6064820152608401610765565b60016001600160a01b0383165f908152600a602052604090205460ff1660028111156114dc576114dc611f90565b03611508576001600160a01b0382165f908152600a60205260409020805460ff19166002179055611619565b60026001600160a01b0383165f908152600a602052604090205460ff16600281111561153657611536611f90565b03611563576001600160a01b0382165f908152600a6020526040902080546001919060ff191682806112f4565b60405162461bcd60e51b815260206004820152601d60248201527f496e76616c696420436f75706f6e207061796d656e74207374617475730000006044820152606401610765565b60405162461bcd60e51b815260206004820152603260248201527f73656e646572206d7573742062652043656e7472616c204163636f756e74204b60448201527f6565706572206f7220437573746f6469616e00000000000000000000000000006064820152608401610765565b6001546007546001600160a01b038085165f818152600a602052604090819020549051919493909216917f5015a18308d4635883292e9e27e8d94d9fc784749d47aa7f18d6f3ad2ad97e73916116749160ff169087906120d3565b60405180910390a45061168660015f55565b50565b60075460405163c41251a160e01b81526001600160a01b0383811660048301529091169063c41251a190602401602060405180830381865afa1580156116d1573d5f803e3d5ffd5b505050506040513d601f19601f820116820180604052508101906116f59190612086565b6117415760405162461bcd60e51b815260206004820152601c60248201527f5468697320696e766573746f72206973206e6f7420616c6c6f776564000000006044820152606401610765565b6001600854600160a01b900460ff16600481111561176157611761611f90565b146117d45760405162461bcd60e51b815260206004820152602860248201527f54686520737461747573206f662074686520636f75706f6e2073686f756c642060448201527f62652052656164790000000000000000000000000000000000000000000000006064820152608401610765565b6001600160a01b038181165f90815260096020526040908190205460075491516321b0fc9560e11b815233600482015260ff909116929190911690634361f92a90602401602060405180830381865afa158015611833573d5f803e3d5ffd5b505050506040513d601f19601f820116820180604052508101906118579190612086565b15611989576001600160a01b0382165f9081526009602052604081205460ff16600281111561188857611888611f90565b036119325760065442116119045760405162461bcd60e51b815260206004820152602560248201527f74686520636f75706f6e20637574206f662074696d6520686173206e6f74207060448201527f61737365640000000000000000000000000000000000000000000000000000006064820152608401610765565b6001600160a01b0382165f90815260096020526040902080546001919060ff191682805b0217905550611b80565b60016001600160a01b0383165f9081526009602052604090205460ff16600281111561196057611960611f90565b036112fe576001600160a01b0382165f908152600960205260409020805460ff19169055611b80565b600754604051630d72032360e21b81523360048201526001600160a01b03909116906335c80c8c90602401602060405180830381865afa1580156119cf573d5f803e3d5ffd5b505050506040513d601f19601f820116820180604052508101906119f39190612086565b156115ab576007546040516308f92f4960e41b81526001600160a01b03848116600483015233921690638f92f49090602401602060405180830381865afa158015611a40573d5f803e3d5ffd5b505050506040513d601f19601f82011682018060405250810190611a6491906120b8565b6001600160a01b031614611ac95760405162461bcd60e51b815260206004820152602660248201527f596f7520617265206e6f7420637573746f6469616e206f66207468697320696e6044820152653b32b9ba37b960d11b6064820152608401610765565b60016001600160a01b0383165f9081526009602052604090205460ff166002811115611af757611af7611f90565b03611b25576001600160a01b0382165f90815260096020526040902080546002919060ff1916600183611928565b60026001600160a01b0383165f9081526009602052604090205460ff166002811115611b5357611b53611f90565b03611563576001600160a01b0382165f90815260096020526040902080546001919060ff19168280611928565b6001546007546001600160a01b038085165f8181526009602052604090819020549051919493909216917f71a813fb36e2b43b4fcd5b541937f3501c4bb733759aa470d700efb9b7fd5b1491611bdb9160ff169087906120d3565b60405180910390a45050565b6040516bffffffffffffffffffffffff1930606090811b8216602084015283901b1660348201527f726564656d7074696f6e0000000000000000000000000000000000000000000060488201525f9060520161057e565b6007546040516338e5975560e21b81523360048201526001600160a01b039091169063e3965d5490602401602060405180830381865afa158015611c84573d5f803e3d5ffd5b505050506040513d601f19601f82011682018060405250810190611ca89190612086565b611d065760405162461bcd60e51b815260206004820152602960248201527f53656e646572206d757374206265206120506179696e672063616c63756c61746044820152681a5bdb881859d95b9d60ba1b6064820152608401610765565b6008805460ff60a01b1916740200000000000000000000000000000000000000001790819055600160a01b900460ff166004811115611d4757611d47611f90565b6001546007546040516001600160a01b03909116907fee1a084aa36acdbc1c32f808f87c6ef8ae26d4ad59293c32244b1b72466bb760905f90a4565b6007546040516338e5975560e21b81523360048201526001600160a01b039091169063e3965d5490602401602060405180830381865afa158015611dc9573d5f803e3d5ffd5b505050506040513d601f19601f82011682018060405250810190611ded9190612086565b611e4b5760405162461bcd60e51b815260206004820152602960248201527f53656e646572206d757374206265206120506179696e672063616c63756c61746044820152681a5bdb881859d95b9d60ba1b6064820152608401610765565b5f600854600160a01b900460ff166004811115611e6a57611e6a611f90565b14611eeb5760405162461bcd60e51b8152602060048201526044602482018190527f54686520636f75706f6e20646174652063616e206265206d6f64696669656420908201527f6f6e6c792069662074686520636f6e74726163742073746174757320697320446064820152631c98599d60e21b608482015260a401610765565b611ef862015180836120ee565b611f029083612101565b600355611f1262015180826120ee565b6004555050565b60025f5403611f54576040517f3ee5aeb500000000000000000000000000000000000000000000000000000000815260040160405180910390fd5b60025f55565b6001600160a01b0381168114611686575f80fd5b5f60208284031215611f7e575f80fd5b8135611f8981611f5a565b9392505050565b634e487b7160e01b5f52602160045260245ffd5b60038110611fb457611fb4611f90565b9052565b60208101611fc68284611fa4565b92915050565b6020810160058310611fe057611fe0611f90565b91905290565b5f60208284031215611ff6575f80fd5b5035919050565b5f806040838503121561200e575f80fd5b50508035926020909101359150565b5f6020828403121561202d575f80fd5b5051919050565b634e487b7160e01b5f52601160045260245ffd5b8082028115828204841417611fc657611fc6612034565b634e487b7160e01b5f52601260045260245ffd5b5f826120815761208161205f565b500490565b5f60208284031215612096575f80fd5b81518015158114611f89575f80fd5b80820180821115611fc657611fc6612034565b5f602082840312156120c8575f80fd5b8151611f8981611f5a565b604081016120e18285611fa4565b611f896020830184611fa4565b5f826120fc576120fc61205f565b500690565b81810381811115611fc657611fc661203456fea2646970667358221220b88ba58abde1c2ddc26363961c49303757dda0b49dbd06e1c4c7be725efe719464736f6c63430008140033","opcodes":"PUSH1 0x80 PUSH1 0x40 MSTORE CALLVALUE DUP1 ISZERO PUSH3 0x10 JUMPI PUSH0 DUP1 REVERT JUMPDEST POP PUSH1 0x40 MLOAD PUSH3 0x25FF CODESIZE SUB DUP1 PUSH3 0x25FF DUP4 CODECOPY DUP2 ADD PUSH1 0x40 DUP2 SWAP1 MSTORE PUSH3 0x33 SWAP2 PUSH3 0x3D3 JUMP JUMPDEST PUSH1 0x1 PUSH0 SSTORE PUSH1 0x7 DUP1 SLOAD PUSH1 0x1 PUSH1 0x1 PUSH1 0xA0 SHL SUB DUP8 AND PUSH1 0x1 PUSH1 0x1 PUSH1 0xA0 SHL SUB NOT SWAP2 DUP3 AND DUP2 OR SWAP1 SWAP3 SSTORE PUSH1 0x8 DUP1 SLOAD SWAP1 SWAP2 AND DUP3 OR SWAP1 SSTORE PUSH1 0x40 MLOAD PUSH4 0x38E59755 PUSH1 0xE2 SHL DUP2 MSTORE CALLER PUSH1 0x4 DUP3 ADD MSTORE DUP7 SWAP2 DUP7 SWAP2 DUP7 SWAP2 DUP7 SWAP2 DUP7 SWAP2 SWAP1 PUSH4 0xE3965D54 SWAP1 PUSH1 0x24 ADD PUSH1 0x20 PUSH1 0x40 MLOAD DUP1 DUP4 SUB DUP2 DUP7 GAS STATICCALL ISZERO DUP1 ISZERO PUSH3 0xA4 JUMPI RETURNDATASIZE PUSH0 DUP1 RETURNDATACOPY RETURNDATASIZE PUSH0 REVERT JUMPDEST POP POP POP POP PUSH1 0x40 MLOAD RETURNDATASIZE PUSH1 0x1F NOT PUSH1 0x1F DUP3 ADD AND DUP3 ADD DUP1 PUSH1 0x40 MSTORE POP DUP2 ADD SWAP1 PUSH3 0xCA SWAP2 SWAP1 PUSH3 0x425 JUMP JUMPDEST PUSH3 0x12E JUMPI PUSH1 0x40 MLOAD PUSH3 0x461BCD PUSH1 0xE5 SHL DUP2 MSTORE PUSH1 0x20 PUSH1 0x4 DUP3 ADD MSTORE PUSH1 0x29 PUSH1 0x24 DUP3 ADD MSTORE PUSH32 0x53656E646572206D757374206265206120506179696E672063616C63756C6174 PUSH1 0x44 DUP3 ADD MSTORE PUSH9 0x1A5BDB881859D95B9D PUSH1 0xBA SHL PUSH1 0x64 DUP3 ADD MSTORE PUSH1 0x84 ADD JUMPDEST PUSH1 0x40 MLOAD DUP1 SWAP2 SUB SWAP1 REVERT JUMPDEST PUSH1 0x7 SLOAD PUSH1 0x40 MLOAD PUSH4 0x38E20FC5 PUSH1 0xE1 SHL DUP2 MSTORE PUSH1 0x4 DUP2 ADD DUP7 SWAP1 MSTORE PUSH1 0x1 PUSH1 0x1 PUSH1 0xA0 SHL SUB SWAP1 SWAP2 AND SWAP1 PUSH4 0x71C41F8A SWAP1 PUSH1 0x24 ADD PUSH1 0x20 PUSH1 0x40 MLOAD DUP1 DUP4 SUB DUP2 PUSH0 DUP8 GAS CALL ISZERO DUP1 ISZERO PUSH3 0x177 JUMPI RETURNDATASIZE PUSH0 DUP1 RETURNDATACOPY RETURNDATASIZE PUSH0 REVERT JUMPDEST POP POP POP POP PUSH1 0x40 MLOAD RETURNDATASIZE PUSH1 0x1F NOT PUSH1 0x1F DUP3 ADD AND DUP3 ADD DUP1 PUSH1 0x40 MSTORE POP DUP2 ADD SWAP1 PUSH3 0x19D SWAP2 SWAP1 PUSH3 0x425 JUMP JUMPDEST PUSH3 0x1EB JUMPI PUSH1 0x40 MLOAD PUSH3 0x461BCD PUSH1 0xE5 SHL DUP2 MSTORE PUSH1 0x20 PUSH1 0x4 DUP3 ADD MSTORE PUSH1 0x1F PUSH1 0x24 DUP3 ADD MSTORE PUSH32 0x7468697320636F75706F6E4461746520646F6573206E6F742065786973747300 PUSH1 0x44 DUP3 ADD MSTORE PUSH1 0x64 ADD PUSH3 0x125 JUMP JUMPDEST PUSH1 0x1 DUP5 SWAP1 SSTORE PUSH1 0x2 DUP4 SWAP1 SSTORE PUSH3 0x204 PUSH3 0x15180 DUP4 PUSH3 0x44D JUMP JUMPDEST PUSH3 0x210 SWAP1 DUP4 PUSH3 0x46D JUMP JUMPDEST PUSH1 0x3 SSTORE PUSH3 0x222 PUSH3 0x15180 DUP3 PUSH3 0x44D JUMP JUMPDEST PUSH1 0x4 SWAP1 DUP2 SSTORE PUSH1 0x5 DUP1 SLOAD PUSH1 0x1 PUSH1 0x1 PUSH1 0xA0 SHL SUB NOT AND CALLER OR SWAP1 SSTORE PUSH1 0x8 DUP1 SLOAD PUSH1 0xFF PUSH1 0xA0 SHL NOT AND SWAP1 DUP2 SWAP1 SSTORE PUSH1 0x1 PUSH1 0xA0 SHL SWAP1 DIV PUSH1 0xFF AND SWAP1 DUP2 GT ISZERO PUSH3 0x265 JUMPI PUSH3 0x265 PUSH3 0x493 JUMP JUMPDEST PUSH1 0x1 SLOAD PUSH1 0x7 SLOAD PUSH1 0x40 MLOAD PUSH1 0x1 PUSH1 0x1 PUSH1 0xA0 SHL SUB SWAP1 SWAP2 AND SWAP1 PUSH32 0xEE1A084AA36ACDBC1C32F808F87C6EF8AE26D4AD59293C32244B1B72466BB760 SWAP1 PUSH0 SWAP1 LOG4 POP POP PUSH1 0x7 SLOAD PUSH1 0x40 MLOAD PUSH4 0xD4CDDA91 PUSH1 0xE0 SHL DUP2 MSTORE PUSH1 0x4 DUP2 ADD DUP10 SWAP1 MSTORE PUSH1 0x1 PUSH1 0x1 PUSH1 0xA0 SHL SUB SWAP1 SWAP2 AND SWAP4 POP PUSH4 0xD4CDDA91 SWAP3 POP PUSH1 0x24 ADD SWAP1 POP PUSH1 0x20 PUSH1 0x40 MLOAD DUP1 DUP4 SUB DUP2 PUSH0 DUP8 GAS CALL ISZERO DUP1 ISZERO PUSH3 0x2EE JUMPI RETURNDATASIZE PUSH0 DUP1 RETURNDATACOPY RETURNDATASIZE PUSH0 REVERT JUMPDEST POP POP POP POP PUSH1 0x40 MLOAD RETURNDATASIZE PUSH1 0x1F NOT PUSH1 0x1F DUP3 ADD AND DUP3 ADD DUP1 PUSH1 0x40 MSTORE POP DUP2 ADD SWAP1 PUSH3 0x314 SWAP2 SWAP1 PUSH3 0x425 JUMP JUMPDEST PUSH3 0x36D JUMPI PUSH1 0x40 MLOAD PUSH3 0x461BCD PUSH1 0xE5 SHL DUP2 MSTORE PUSH1 0x20 PUSH1 0x4 DUP3 ADD MSTORE PUSH1 0x22 PUSH1 0x24 DUP3 ADD MSTORE PUSH32 0x74686973206D61747572697479204461746520646F6573206E6F742065786973 PUSH1 0x44 DUP3 ADD MSTORE PUSH2 0x7473 PUSH1 0xF0 SHL PUSH1 0x64 DUP3 ADD MSTORE PUSH1 0x84 ADD PUSH3 0x125 JUMP JUMPDEST PUSH1 0x8 SLOAD PUSH1 0x1 PUSH1 0xA0 SHL SWAP1 DIV PUSH1 0xFF AND PUSH1 0x4 DUP2 GT ISZERO PUSH3 0x38E JUMPI PUSH3 0x38E PUSH3 0x493 JUMP JUMPDEST PUSH1 0x1 SLOAD PUSH1 0x7 SLOAD PUSH1 0x40 MLOAD PUSH1 0x1 PUSH1 0x1 PUSH1 0xA0 SHL SUB SWAP1 SWAP2 AND SWAP1 PUSH32 0x6F3DECEF32BC5575FA4154C177D28DE83AD12AF68EF61BF36AD7C5BE081654DF SWAP1 PUSH0 SWAP1 LOG4 POP POP POP POP POP PUSH3 0x4A7 JUMP JUMPDEST PUSH0 DUP1 PUSH0 DUP1 PUSH0 PUSH1 0xA0 DUP7 DUP9 SUB SLT ISZERO PUSH3 0x3E8 JUMPI PUSH0 DUP1 REVERT JUMPDEST DUP6 MLOAD PUSH1 0x1 PUSH1 0x1 PUSH1 0xA0 SHL SUB DUP2 AND DUP2 EQ PUSH3 0x3FF JUMPI PUSH0 DUP1 REVERT JUMPDEST PUSH1 0x20 DUP8 ADD MLOAD PUSH1 0x40 DUP9 ADD MLOAD PUSH1 0x60 DUP10 ADD MLOAD PUSH1 0x80 SWAP1 SWAP10 ADD MLOAD SWAP3 SWAP11 SWAP2 SWAP10 POP SWAP8 SWAP7 POP SWAP1 SWAP5 POP SWAP3 POP POP POP JUMP JUMPDEST PUSH0 PUSH1 0x20 DUP3 DUP5 SUB SLT ISZERO PUSH3 0x436 JUMPI PUSH0 DUP1 REVERT JUMPDEST DUP2 MLOAD DUP1 ISZERO ISZERO DUP2 EQ PUSH3 0x446 JUMPI PUSH0 DUP1 REVERT JUMPDEST SWAP4 SWAP3 POP POP POP JUMP JUMPDEST PUSH0 DUP3 PUSH3 0x468 JUMPI PUSH4 0x4E487B71 PUSH1 0xE0 SHL PUSH0 MSTORE PUSH1 0x12 PUSH1 0x4 MSTORE PUSH1 0x24 PUSH0 REVERT JUMPDEST POP MOD SWAP1 JUMP JUMPDEST DUP2 DUP2 SUB DUP2 DUP2 GT ISZERO PUSH3 0x48D JUMPI PUSH4 0x4E487B71 PUSH1 0xE0 SHL PUSH0 MSTORE PUSH1 0x11 PUSH1 0x4 MSTORE PUSH1 0x24 PUSH0 REVERT JUMPDEST SWAP3 SWAP2 POP POP JUMP JUMPDEST PUSH4 0x4E487B71 PUSH1 0xE0 SHL PUSH0 MSTORE PUSH1 0x21 PUSH1 0x4 MSTORE PUSH1 0x24 PUSH0 REVERT JUMPDEST PUSH2 0x214A DUP1 PUSH3 0x4B5 PUSH0 CODECOPY PUSH0 RETURN INVALID PUSH1 0x80 PUSH1 0x40 MSTORE CALLVALUE DUP1 ISZERO PUSH2 0xF JUMPI PUSH0 DUP1 REVERT JUMPDEST POP PUSH1 0x4 CALLDATASIZE LT PUSH2 0x184 JUMPI PUSH0 CALLDATALOAD PUSH1 0xE0 SHR DUP1 PUSH4 0x84CD8C86 GT PUSH2 0xDD JUMPI DUP1 PUSH4 0xD64C0587 GT PUSH2 0x88 JUMPI DUP1 PUSH4 0xF4BCF209 GT PUSH2 0x63 JUMPI DUP1 PUSH4 0xF4BCF209 EQ PUSH2 0x38C JUMPI DUP1 PUSH4 0xF68A3AB4 EQ PUSH2 0x394 JUMPI DUP1 PUSH4 0xFD3B4442 EQ PUSH2 0x3A7 JUMPI PUSH0 DUP1 REVERT JUMPDEST DUP1 PUSH4 0xD64C0587 EQ PUSH2 0x33B JUMPI DUP1 PUSH4 0xD927A606 EQ PUSH2 0x34E JUMPI DUP1 PUSH4 0xE505222B EQ PUSH2 0x379 JUMPI PUSH0 DUP1 REVERT JUMPDEST DUP1 PUSH4 0xB77FEA01 GT PUSH2 0xB8 JUMPI DUP1 PUSH4 0xB77FEA01 EQ PUSH2 0x2FD JUMPI DUP1 PUSH4 0xC4FA96B0 EQ PUSH2 0x310 JUMPI DUP1 PUSH4 0xCCC5D7E9 EQ PUSH2 0x319 JUMPI PUSH0 DUP1 REVERT JUMPDEST DUP1 PUSH4 0x84CD8C86 EQ PUSH2 0x2CA JUMPI DUP1 PUSH4 0x86D49F77 EQ PUSH2 0x2EC JUMPI DUP1 PUSH4 0x9D5D5FA4 EQ PUSH2 0x2F5 JUMPI PUSH0 DUP1 REVERT JUMPDEST DUP1 PUSH4 0x532E91CC GT PUSH2 0x13D JUMPI DUP1 PUSH4 0x6969A06F GT PUSH2 0x118 JUMPI DUP1 PUSH4 0x6969A06F EQ PUSH2 0x29A JUMPI DUP1 PUSH4 0x69FB125E EQ PUSH2 0x2A4 JUMPI DUP1 PUSH4 0x7C610024 EQ PUSH2 0x2B7 JUMPI PUSH0 DUP1 REVERT JUMPDEST DUP1 PUSH4 0x532E91CC EQ PUSH2 0x230 JUMPI DUP1 PUSH4 0x5E4795A9 EQ PUSH2 0x274 JUMPI DUP1 PUSH4 0x683FFFD5 EQ PUSH2 0x287 JUMPI PUSH0 DUP1 REVERT JUMPDEST DUP1 PUSH4 0x200D2ED2 GT PUSH2 0x16D JUMPI DUP1 PUSH4 0x200D2ED2 EQ PUSH2 0x1F0 JUMPI DUP1 PUSH4 0x23BFA0F0 EQ PUSH2 0x211 JUMPI DUP1 PUSH4 0x50CC4532 EQ PUSH2 0x227 JUMPI PUSH0 DUP1 REVERT JUMPDEST DUP1 PUSH4 0x1AA3A008 EQ PUSH2 0x188 JUMPI DUP1 PUSH4 0x1DD5FC63 EQ PUSH2 0x1B8 JUMPI JUMPDEST PUSH0 DUP1 REVERT JUMPDEST PUSH1 0x7 SLOAD PUSH2 0x19B SWAP1 PUSH1 0x1 PUSH1 0x1 PUSH1 0xA0 SHL SUB AND DUP2 JUMP JUMPDEST PUSH1 0x40 MLOAD PUSH1 0x1 PUSH1 0x1 PUSH1 0xA0 SHL SUB SWAP1 SWAP2 AND DUP2 MSTORE PUSH1 0x20 ADD JUMPDEST PUSH1 0x40 MLOAD DUP1 SWAP2 SUB SWAP1 RETURN JUMPDEST PUSH2 0x1E3 PUSH2 0x1C6 CALLDATASIZE PUSH1 0x4 PUSH2 0x1F6E JUMP JUMPDEST PUSH1 0x1 PUSH1 0x1 PUSH1 0xA0 SHL SUB AND PUSH0 SWAP1 DUP2 MSTORE PUSH1 0xA PUSH1 0x20 MSTORE PUSH1 0x40 SWAP1 KECCAK256 SLOAD PUSH1 0xFF AND SWAP1 JUMP JUMPDEST PUSH1 0x40 MLOAD PUSH2 0x1AF SWAP2 SWAP1 PUSH2 0x1FB8 JUMP JUMPDEST PUSH1 0x8 SLOAD PUSH2 0x204 SWAP1 PUSH1 0x1 PUSH1 0xA0 SHL SWAP1 DIV PUSH1 0xFF AND DUP2 JUMP JUMPDEST PUSH1 0x40 MLOAD PUSH2 0x1AF SWAP2 SWAP1 PUSH2 0x1FCC JUMP JUMPDEST PUSH2 0x219 PUSH2 0x3B0 JUMP JUMPDEST PUSH1 0x40 MLOAD SWAP1 DUP2 MSTORE PUSH1 0x20 ADD PUSH2 0x1AF JUMP JUMPDEST PUSH2 0x219 PUSH1 0x3 SLOAD DUP2 JUMP JUMPDEST PUSH2 0x243 PUSH2 0x23E CALLDATASIZE PUSH1 0x4 PUSH2 0x1F6E JUMP JUMPDEST PUSH2 0x551 JUMP JUMPDEST PUSH1 0x40 MLOAD PUSH32 0xFFFFFFFFFFFFFFFF000000000000000000000000000000000000000000000000 SWAP1 SWAP2 AND DUP2 MSTORE PUSH1 0x20 ADD PUSH2 0x1AF JUMP JUMPDEST PUSH1 0x5 SLOAD PUSH2 0x19B SWAP1 PUSH1 0x1 PUSH1 0x1 PUSH1 0xA0 SHL SUB AND DUP2 JUMP JUMPDEST PUSH2 0x219 PUSH2 0x295 CALLDATASIZE PUSH1 0x4 PUSH2 0x1F6E JUMP JUMPDEST PUSH2 0x59B JUMP JUMPDEST PUSH2 0x2A2 PUSH2 0x699 JUMP JUMPDEST STOP JUMPDEST PUSH2 0x219 PUSH2 0x2B2 CALLDATASIZE PUSH1 0x4 PUSH2 0x1F6E JUMP JUMPDEST PUSH2 0xA62 JUMP JUMPDEST PUSH2 0x2A2 PUSH2 0x2C5 CALLDATASIZE PUSH1 0x4 PUSH2 0x1FE6 JUMP JUMPDEST PUSH2 0xC08 JUMP JUMPDEST PUSH2 0x1E3 PUSH2 0x2D8 CALLDATASIZE PUSH1 0x4 PUSH2 0x1F6E JUMP JUMPDEST PUSH1 0xA PUSH1 0x20 MSTORE PUSH0 SWAP1 DUP2 MSTORE PUSH1 0x40 SWAP1 KECCAK256 SLOAD PUSH1 0xFF AND DUP2 JUMP JUMPDEST PUSH2 0x219 PUSH1 0x2 SLOAD DUP2 JUMP JUMPDEST PUSH2 0x219 PUSH2 0xD75 JUMP JUMPDEST PUSH2 0x2A2 PUSH2 0x30B CALLDATASIZE PUSH1 0x4 PUSH2 0x1F6E JUMP JUMPDEST PUSH2 0xE77 JUMP JUMPDEST PUSH2 0x219 PUSH1 0x1 SLOAD DUP2 JUMP JUMPDEST PUSH2 0x1E3 PUSH2 0x327 CALLDATASIZE PUSH1 0x4 PUSH2 0x1F6E JUMP JUMPDEST PUSH1 0x9 PUSH1 0x20 MSTORE PUSH0 SWAP1 DUP2 MSTORE PUSH1 0x40 SWAP1 KECCAK256 SLOAD PUSH1 0xFF AND DUP2 JUMP JUMPDEST PUSH2 0x2A2 PUSH2 0x349 CALLDATASIZE PUSH1 0x4 PUSH2 0x1F6E JUMP JUMPDEST PUSH2 0x1689 JUMP JUMPDEST PUSH2 0x1E3 PUSH2 0x35C CALLDATASIZE PUSH1 0x4 PUSH2 0x1F6E JUMP JUMPDEST PUSH1 0x1 PUSH1 0x1 PUSH1 0xA0 SHL SUB AND PUSH0 SWAP1 DUP2 MSTORE PUSH1 0x9 PUSH1 0x20 MSTORE PUSH1 0x40 SWAP1 KECCAK256 SLOAD PUSH1 0xFF AND SWAP1 JUMP JUMPDEST PUSH2 0x243 PUSH2 0x387 CALLDATASIZE PUSH1 0x4 PUSH2 0x1F6E JUMP JUMPDEST PUSH2 0x1BE7 JUMP JUMPDEST PUSH2 0x2A2 PUSH2 0x1C3E JUMP JUMPDEST PUSH2 0x2A2 PUSH2 0x3A2 CALLDATASIZE PUSH1 0x4 PUSH2 0x1FFD JUMP JUMPDEST PUSH2 0x1D83 JUMP JUMPDEST PUSH2 0x219 PUSH1 0x4 SLOAD DUP2 JUMP JUMPDEST PUSH0 DUP1 PUSH1 0x7 PUSH0 SWAP1 SLOAD SWAP1 PUSH2 0x100 EXP SWAP1 DIV PUSH1 0x1 PUSH1 0x1 PUSH1 0xA0 SHL SUB AND PUSH1 0x1 PUSH1 0x1 PUSH1 0xA0 SHL SUB AND PUSH4 0xA7F2F6EC PUSH1 0x40 MLOAD DUP2 PUSH4 0xFFFFFFFF AND PUSH1 0xE0 SHL DUP2 MSTORE PUSH1 0x4 ADD PUSH1 0x20 PUSH1 0x40 MLOAD DUP1 DUP4 SUB DUP2 DUP7 GAS STATICCALL ISZERO DUP1 ISZERO PUSH2 0x402 JUMPI RETURNDATASIZE PUSH0 DUP1 RETURNDATACOPY RETURNDATASIZE PUSH0 REVERT JUMPDEST POP POP POP POP PUSH1 0x40 MLOAD RETURNDATASIZE PUSH1 0x1F NOT PUSH1 0x1F DUP3 ADD AND DUP3 ADD DUP1 PUSH1 0x40 MSTORE POP DUP2 ADD SWAP1 PUSH2 0x426 SWAP2 SWAP1 PUSH2 0x201D JUMP JUMPDEST SWAP1 POP PUSH0 PUSH1 0x7 PUSH0 SWAP1 SLOAD SWAP1 PUSH2 0x100 EXP SWAP1 DIV PUSH1 0x1 PUSH1 0x1 PUSH1 0xA0 SHL SUB AND PUSH1 0x1 PUSH1 0x1 PUSH1 0xA0 SHL SUB AND PUSH4 0x39027F7C PUSH1 0x40 MLOAD DUP2 PUSH4 0xFFFFFFFF AND PUSH1 0xE0 SHL DUP2 MSTORE PUSH1 0x4 ADD PUSH1 0x20 PUSH1 0x40 MLOAD DUP1 DUP4 SUB DUP2 DUP7 GAS STATICCALL ISZERO DUP1 ISZERO PUSH2 0x479 JUMPI RETURNDATASIZE PUSH0 DUP1 RETURNDATACOPY RETURNDATASIZE PUSH0 REVERT JUMPDEST POP POP POP POP PUSH1 0x40 MLOAD RETURNDATASIZE PUSH1 0x1F NOT PUSH1 0x1F DUP3 ADD AND DUP3 ADD DUP1 PUSH1 0x40 MSTORE POP DUP2 ADD SWAP1 PUSH2 0x49D SWAP2 SWAP1 PUSH2 0x201D JUMP JUMPDEST SWAP1 POP PUSH0 PUSH1 0x7 PUSH0 SWAP1 SLOAD SWAP1 PUSH2 0x100 EXP SWAP1 DIV PUSH1 0x1 PUSH1 0x1 PUSH1 0xA0 SHL SUB AND PUSH1 0x1 PUSH1 0x1 PUSH1 0xA0 SHL SUB AND PUSH4 0x18160DDD PUSH1 0x40 MLOAD DUP2 PUSH4 0xFFFFFFFF AND PUSH1 0xE0 SHL DUP2 MSTORE PUSH1 0x4 ADD PUSH1 0x20 PUSH1 0x40 MLOAD DUP1 DUP4 SUB DUP2 DUP7 GAS STATICCALL ISZERO DUP1 ISZERO PUSH2 0x4F0 JUMPI RETURNDATASIZE PUSH0 DUP1 RETURNDATACOPY RETURNDATASIZE PUSH0 REVERT JUMPDEST POP POP POP POP PUSH1 0x40 MLOAD RETURNDATASIZE PUSH1 0x1F NOT PUSH1 0x1F DUP3 ADD AND DUP3 ADD DUP1 PUSH1 0x40 MSTORE POP DUP2 ADD SWAP1 PUSH2 0x514 SWAP2 SWAP1 PUSH2 0x201D JUMP JUMPDEST SWAP1 POP PUSH0 PUSH2 0x168 PUSH1 0x2 SLOAD DUP5 DUP5 DUP8 PUSH2 0x52A SWAP2 SWAP1 PUSH2 0x2048 JUMP JUMPDEST PUSH2 0x534 SWAP2 SWAP1 PUSH2 0x2048 JUMP JUMPDEST PUSH2 0x53E SWAP2 SWAP1 PUSH2 0x2048 JUMP JUMPDEST PUSH2 0x548 SWAP2 SWAP1 PUSH2 0x2073 JUMP JUMPDEST SWAP6 SWAP5 POP POP POP POP POP JUMP JUMPDEST PUSH1 0x40 MLOAD PUSH12 0xFFFFFFFFFFFFFFFFFFFFFFFF NOT ADDRESS PUSH1 0x60 SWAP1 DUP2 SHL DUP3 AND PUSH1 0x20 DUP5 ADD MSTORE DUP4 SWAP1 SHL AND PUSH1 0x34 DUP3 ADD MSTORE PUSH0 SWAP1 PUSH1 0x48 ADD JUMPDEST PUSH1 0x40 MLOAD PUSH1 0x20 DUP2 DUP4 SUB SUB DUP2 MSTORE SWAP1 PUSH1 0x40 MSTORE DUP1 MLOAD SWAP1 PUSH1 0x20 ADD KECCAK256 SWAP1 POP SWAP2 SWAP1 POP JUMP JUMPDEST PUSH0 DUP1 PUSH1 0x7 PUSH0 SWAP1 SLOAD SWAP1 PUSH2 0x100 EXP SWAP1 DIV PUSH1 0x1 PUSH1 0x1 PUSH1 0xA0 SHL SUB AND PUSH1 0x1 PUSH1 0x1 PUSH1 0xA0 SHL SUB AND PUSH4 0xA7F2F6EC PUSH1 0x40 MLOAD DUP2 PUSH4 0xFFFFFFFF AND PUSH1 0xE0 SHL DUP2 MSTORE PUSH1 0x4 ADD PUSH1 0x20 PUSH1 0x40 MLOAD DUP1 DUP4 SUB DUP2 DUP7 GAS STATICCALL ISZERO DUP1 ISZERO PUSH2 0x5ED JUMPI RETURNDATASIZE PUSH0 DUP1 RETURNDATACOPY RETURNDATASIZE PUSH0 REVERT JUMPDEST POP POP POP POP PUSH1 0x40 MLOAD RETURNDATASIZE PUSH1 0x1F NOT PUSH1 0x1F DUP3 ADD AND DUP3 ADD DUP1 PUSH1 0x40 MSTORE POP DUP2 ADD SWAP1 PUSH2 0x611 SWAP2 SWAP1 PUSH2 0x201D JUMP JUMPDEST PUSH1 0x8 SLOAD PUSH1 0x1 SLOAD PUSH1 0x40 MLOAD PUSH4 0x7B2D9E3 PUSH1 0xE0 SHL DUP2 MSTORE PUSH1 0x1 PUSH1 0x1 PUSH1 0xA0 SHL SUB DUP8 DUP2 AND PUSH1 0x4 DUP4 ADD MSTORE PUSH1 0x24 DUP3 ADD SWAP3 SWAP1 SWAP3 MSTORE SWAP3 SWAP4 POP PUSH0 SWAP3 SWAP2 AND SWAP1 PUSH4 0x7B2D9E3 SWAP1 PUSH1 0x44 ADD PUSH1 0x20 PUSH1 0x40 MLOAD DUP1 DUP4 SUB DUP2 DUP7 GAS STATICCALL ISZERO DUP1 ISZERO PUSH2 0x668 JUMPI RETURNDATASIZE PUSH0 DUP1 RETURNDATACOPY RETURNDATASIZE PUSH0 REVERT JUMPDEST POP POP POP POP PUSH1 0x40 MLOAD RETURNDATASIZE PUSH1 0x1F NOT PUSH1 0x1F DUP3 ADD AND DUP3 ADD DUP1 PUSH1 0x40 MSTORE POP DUP2 ADD SWAP1 PUSH2 0x68C SWAP2 SWAP1 PUSH2 0x201D JUMP JUMPDEST SWAP1 POP PUSH0 PUSH2 0x548 DUP3 DUP5 PUSH2 0x2048 JUMP JUMPDEST PUSH2 0x6A1 PUSH2 0x1F19 JUMP JUMPDEST PUSH1 0x7 SLOAD PUSH1 0x40 MLOAD PUSH4 0x38E59755 PUSH1 0xE2 SHL DUP2 MSTORE CALLER PUSH1 0x4 DUP3 ADD MSTORE PUSH1 0x1 PUSH1 0x1 PUSH1 0xA0 SHL SUB SWAP1 SWAP2 AND SWAP1 PUSH4 0xE3965D54 SWAP1 PUSH1 0x24 ADD PUSH1 0x20 PUSH1 0x40 MLOAD DUP1 DUP4 SUB DUP2 DUP7 GAS STATICCALL ISZERO DUP1 ISZERO PUSH2 0x6E7 JUMPI RETURNDATASIZE PUSH0 DUP1 RETURNDATACOPY RETURNDATASIZE PUSH0 REVERT JUMPDEST POP POP POP POP PUSH1 0x40 MLOAD RETURNDATASIZE PUSH1 0x1F NOT PUSH1 0x1F DUP3 ADD AND DUP3 ADD DUP1 PUSH1 0x40 MSTORE POP DUP2 ADD SWAP1 PUSH2 0x70B SWAP2 SWAP1 PUSH2 0x2086 JUMP JUMPDEST PUSH2 0x76E JUMPI PUSH1 0x40 MLOAD PUSH3 0x461BCD PUSH1 0xE5 SHL DUP2 MSTORE PUSH1 0x20 PUSH1 0x4 DUP3 ADD MSTORE PUSH1 0x29 PUSH1 0x24 DUP3 ADD MSTORE PUSH32 0x53656E646572206D757374206265206120506179696E672063616C63756C6174 PUSH1 0x44 DUP3 ADD MSTORE PUSH9 0x1A5BDB881859D95B9D PUSH1 0xBA SHL PUSH1 0x64 DUP3 ADD MSTORE PUSH1 0x84 ADD JUMPDEST PUSH1 0x40 MLOAD DUP1 SWAP2 SUB SWAP1 REVERT JUMPDEST PUSH0 PUSH1 0x8 SLOAD PUSH1 0x1 PUSH1 0xA0 SHL SWAP1 DIV PUSH1 0xFF AND PUSH1 0x4 DUP2 GT ISZERO PUSH2 0x78D JUMPI PUSH2 0x78D PUSH2 0x1F90 JUMP JUMPDEST EQ PUSH2 0x80E JUMPI PUSH1 0x40 MLOAD PUSH3 0x461BCD PUSH1 0xE5 SHL DUP2 MSTORE PUSH1 0x20 PUSH1 0x4 DUP3 ADD MSTORE PUSH1 0x44 PUSH1 0x24 DUP3 ADD DUP2 SWAP1 MSTORE PUSH32 0x54686520636F75706F6E20646174652063616E206265206D6F64696669656420 SWAP1 DUP3 ADD MSTORE PUSH32 0x6F6E6C792069662074686520636F6E7472616374207374617475732069732044 PUSH1 0x64 DUP3 ADD MSTORE PUSH4 0x1C98599D PUSH1 0xE2 SHL PUSH1 0x84 DUP3 ADD MSTORE PUSH1 0xA4 ADD PUSH2 0x765 JUMP JUMPDEST PUSH1 0x7 SLOAD PUSH1 0x1 SLOAD PUSH1 0x40 MLOAD PUSH32 0x71C41F8A00000000000000000000000000000000000000000000000000000000 DUP2 MSTORE PUSH1 0x1 PUSH1 0x1 PUSH1 0xA0 SHL SUB SWAP1 SWAP3 AND SWAP2 PUSH4 0x71C41F8A SWAP2 PUSH2 0x85C SWAP2 PUSH1 0x4 ADD SWAP1 DUP2 MSTORE PUSH1 0x20 ADD SWAP1 JUMP JUMPDEST PUSH1 0x20 PUSH1 0x40 MLOAD DUP1 DUP4 SUB DUP2 PUSH0 DUP8 GAS CALL ISZERO DUP1 ISZERO PUSH2 0x878 JUMPI RETURNDATASIZE PUSH0 DUP1 RETURNDATACOPY RETURNDATASIZE PUSH0 REVERT JUMPDEST POP POP POP POP PUSH1 0x40 MLOAD RETURNDATASIZE PUSH1 0x1F NOT PUSH1 0x1F DUP3 ADD AND DUP3 ADD DUP1 PUSH1 0x40 MSTORE POP DUP2 ADD SWAP1 PUSH2 0x89C SWAP2 SWAP1 PUSH2 0x2086 JUMP JUMPDEST PUSH2 0x8E8 JUMPI PUSH1 0x40 MLOAD PUSH3 0x461BCD PUSH1 0xE5 SHL DUP2 MSTORE PUSH1 0x20 PUSH1 0x4 DUP3 ADD MSTORE PUSH1 0x1F PUSH1 0x24 DUP3 ADD MSTORE PUSH32 0x7468697320636F75706F6E4461746520646F6573206E6F742065786973747300 PUSH1 0x44 DUP3 ADD MSTORE PUSH1 0x64 ADD PUSH2 0x765 JUMP JUMPDEST PUSH1 0x7 SLOAD PUSH1 0x1 SLOAD PUSH1 0x4 SLOAD PUSH1 0x3 SLOAD PUSH1 0x1 PUSH1 0x1 PUSH1 0xA0 SHL SUB SWAP1 SWAP4 AND SWAP3 PUSH4 0x3052974C SWAP3 SWAP2 PUSH2 0x910 SWAP2 PUSH2 0x20A5 JUMP JUMPDEST PUSH1 0x40 MLOAD PUSH32 0xFFFFFFFF00000000000000000000000000000000000000000000000000000000 PUSH1 0xE0 DUP6 SWAP1 SHL AND DUP2 MSTORE PUSH1 0x4 DUP2 ADD SWAP3 SWAP1 SWAP3 MSTORE PUSH1 0x24 DUP3 ADD MSTORE PUSH1 0x44 ADD PUSH0 PUSH1 0x40 MLOAD DUP1 DUP4 SUB DUP2 PUSH0 DUP8 DUP1 EXTCODESIZE ISZERO DUP1 ISZERO PUSH2 0x963 JUMPI PUSH0 DUP1 REVERT JUMPDEST POP GAS CALL ISZERO DUP1 ISZERO PUSH2 0x975 JUMPI RETURNDATASIZE PUSH0 DUP1 RETURNDATACOPY RETURNDATASIZE PUSH0 REVERT JUMPDEST POP POP POP POP PUSH1 0x8 PUSH0 SWAP1 SLOAD SWAP1 PUSH2 0x100 EXP SWAP1 DIV PUSH1 0x1 PUSH1 0x1 PUSH1 0xA0 SHL SUB AND PUSH1 0x1 PUSH1 0x1 PUSH1 0xA0 SHL SUB AND PUSH4 0x9EF986DE PUSH1 0x40 MLOAD DUP2 PUSH4 0xFFFFFFFF AND PUSH1 0xE0 SHL DUP2 MSTORE PUSH1 0x4 ADD PUSH1 0x20 PUSH1 0x40 MLOAD DUP1 DUP4 SUB DUP2 DUP7 GAS STATICCALL ISZERO DUP1 ISZERO PUSH2 0x9C9 JUMPI RETURNDATASIZE PUSH0 DUP1 RETURNDATACOPY RETURNDATASIZE PUSH0 REVERT JUMPDEST POP POP POP POP PUSH1 0x40 MLOAD RETURNDATASIZE PUSH1 0x1F NOT PUSH1 0x1F DUP3 ADD AND DUP3 ADD DUP1 PUSH1 0x40 MSTORE POP DUP2 ADD SWAP1 PUSH2 0x9ED SWAP2 SWAP1 PUSH2 0x201D JUMP JUMPDEST PUSH1 0x6 SSTORE PUSH1 0x8 DUP1 SLOAD PUSH1 0xFF PUSH1 0xA0 SHL NOT AND PUSH1 0x1 PUSH1 0xA0 SHL SWAP1 DUP2 OR SWAP2 DUP3 SWAP1 SSTORE SWAP1 DIV PUSH1 0xFF AND PUSH1 0x4 DUP2 GT ISZERO PUSH2 0xA1D JUMPI PUSH2 0xA1D PUSH2 0x1F90 JUMP JUMPDEST PUSH1 0x1 SLOAD PUSH1 0x7 SLOAD PUSH1 0x40 MLOAD PUSH1 0x1 PUSH1 0x1 PUSH1 0xA0 SHL SUB SWAP1 SWAP2 AND SWAP1 PUSH32 0xEE1A084AA36ACDBC1C32F808F87C6EF8AE26D4AD59293C32244B1B72466BB760 SWAP1 PUSH0 SWAP1 LOG4 PUSH2 0xA60 PUSH1 0x1 PUSH0 SSTORE JUMP JUMPDEST JUMP JUMPDEST PUSH0 DUP1 PUSH1 0x7 PUSH0 SWAP1 SLOAD SWAP1 PUSH2 0x100 EXP SWAP1 DIV PUSH1 0x1 PUSH1 0x1 PUSH1 0xA0 SHL SUB AND PUSH1 0x1 PUSH1 0x1 PUSH1 0xA0 SHL SUB AND PUSH4 0xA7F2F6EC PUSH1 0x40 MLOAD DUP2 PUSH4 0xFFFFFFFF AND PUSH1 0xE0 SHL DUP2 MSTORE PUSH1 0x4 ADD PUSH1 0x20 PUSH1 0x40 MLOAD DUP1 DUP4 SUB DUP2 DUP7 GAS STATICCALL ISZERO DUP1 ISZERO PUSH2 0xAB4 JUMPI RETURNDATASIZE PUSH0 DUP1 RETURNDATACOPY RETURNDATASIZE PUSH0 REVERT JUMPDEST POP POP POP POP PUSH1 0x40 MLOAD RETURNDATASIZE PUSH1 0x1F NOT PUSH1 0x1F DUP3 ADD AND DUP3 ADD DUP1 PUSH1 0x40 MSTORE POP DUP2 ADD SWAP1 PUSH2 0xAD8 SWAP2 SWAP1 PUSH2 0x201D JUMP JUMPDEST SWAP1 POP PUSH0 PUSH1 0x7 PUSH0 SWAP1 SLOAD SWAP1 PUSH2 0x100 EXP SWAP1 DIV PUSH1 0x1 PUSH1 0x1 PUSH1 0xA0 SHL SUB AND PUSH1 0x1 PUSH1 0x1 PUSH1 0xA0 SHL SUB AND PUSH4 0x39027F7C PUSH1 0x40 MLOAD DUP2 PUSH4 0xFFFFFFFF AND PUSH1 0xE0 SHL DUP2 MSTORE PUSH1 0x4 ADD PUSH1 0x20 PUSH1 0x40 MLOAD DUP1 DUP4 SUB DUP2 DUP7 GAS STATICCALL ISZERO DUP1 ISZERO PUSH2 0xB2B JUMPI RETURNDATASIZE PUSH0 DUP1 RETURNDATACOPY RETURNDATASIZE PUSH0 REVERT JUMPDEST POP POP POP POP PUSH1 0x40 MLOAD RETURNDATASIZE PUSH1 0x1F NOT PUSH1 0x1F DUP3 ADD AND DUP3 ADD DUP1 PUSH1 0x40 MSTORE POP DUP2 ADD SWAP1 PUSH2 0xB4F SWAP2 SWAP1 PUSH2 0x201D JUMP JUMPDEST PUSH1 0x8 SLOAD PUSH1 0x1 SLOAD PUSH1 0x40 MLOAD PUSH4 0x7B2D9E3 PUSH1 0xE0 SHL DUP2 MSTORE PUSH1 0x1 PUSH1 0x1 PUSH1 0xA0 SHL SUB DUP9 DUP2 AND PUSH1 0x4 DUP4 ADD MSTORE PUSH1 0x24 DUP3 ADD SWAP3 SWAP1 SWAP3 MSTORE SWAP3 SWAP4 POP PUSH0 SWAP3 SWAP2 AND SWAP1 PUSH4 0x7B2D9E3 SWAP1 PUSH1 0x44 ADD PUSH1 0x20 PUSH1 0x40 MLOAD DUP1 DUP4 SUB DUP2 DUP7 GAS STATICCALL ISZERO DUP1 ISZERO PUSH2 0xBA6 JUMPI RETURNDATASIZE PUSH0 DUP1 RETURNDATACOPY RETURNDATASIZE PUSH0 REVERT JUMPDEST POP POP POP POP PUSH1 0x40 MLOAD RETURNDATASIZE PUSH1 0x1F NOT PUSH1 0x1F DUP3 ADD AND DUP3 ADD DUP1 PUSH1 0x40 MSTORE POP DUP2 ADD SWAP1 PUSH2 0xBCA SWAP2 SWAP1 PUSH2 0x201D JUMP JUMPDEST SWAP1 POP PUSH0 PUSH2 0x168 PUSH1 0x2 SLOAD DUP5 DUP5 DUP8 PUSH2 0xBE0 SWAP2 SWAP1 PUSH2 0x2048 JUMP JUMPDEST PUSH2 0xBEA SWAP2 SWAP1 PUSH2 0x2048 JUMP JUMPDEST PUSH2 0xBF4 SWAP2 SWAP1 PUSH2 0x2048 JUMP JUMPDEST PUSH2 0xBFE SWAP2 SWAP1 PUSH2 0x2073 JUMP JUMPDEST SWAP7 SWAP6 POP POP POP POP POP POP JUMP JUMPDEST PUSH1 0x7 SLOAD PUSH1 0x40 MLOAD PUSH4 0x38E59755 PUSH1 0xE2 SHL DUP2 MSTORE CALLER PUSH1 0x4 DUP3 ADD MSTORE PUSH1 0x1 PUSH1 0x1 PUSH1 0xA0 SHL SUB SWAP1 SWAP2 AND SWAP1 PUSH4 0xE3965D54 SWAP1 PUSH1 0x24 ADD PUSH1 0x20 PUSH1 0x40 MLOAD DUP1 DUP4 SUB DUP2 DUP7 GAS STATICCALL ISZERO DUP1 ISZERO PUSH2 0xC4E JUMPI RETURNDATASIZE PUSH0 DUP1 RETURNDATACOPY RETURNDATASIZE PUSH0 REVERT JUMPDEST POP POP POP POP PUSH1 0x40 MLOAD RETURNDATASIZE PUSH1 0x1F NOT PUSH1 0x1F DUP3 ADD AND DUP3 ADD DUP1 PUSH1 0x40 MSTORE POP DUP2 ADD SWAP1 PUSH2 0xC72 SWAP2 SWAP1 PUSH2 0x2086 JUMP JUMPDEST PUSH2 0xCD0 JUMPI PUSH1 0x40 MLOAD PUSH3 0x461BCD PUSH1 0xE5 SHL DUP2 MSTORE PUSH1 0x20 PUSH1 0x4 DUP3 ADD MSTORE PUSH1 0x29 PUSH1 0x24 DUP3 ADD MSTORE PUSH32 0x53656E646572206D757374206265206120506179696E672063616C63756C6174 PUSH1 0x44 DUP3 ADD MSTORE PUSH9 0x1A5BDB881859D95B9D PUSH1 0xBA SHL PUSH1 0x64 DUP3 ADD MSTORE PUSH1 0x84 ADD PUSH2 0x765 JUMP JUMPDEST PUSH0 PUSH1 0x8 SLOAD PUSH1 0x1 PUSH1 0xA0 SHL SWAP1 DIV PUSH1 0xFF AND PUSH1 0x4 DUP2 GT ISZERO PUSH2 0xCEF JUMPI PUSH2 0xCEF PUSH2 0x1F90 JUMP JUMPDEST EQ PUSH2 0xD70 JUMPI PUSH1 0x40 MLOAD PUSH3 0x461BCD PUSH1 0xE5 SHL DUP2 MSTORE PUSH1 0x20 PUSH1 0x4 DUP3 ADD MSTORE PUSH1 0x44 PUSH1 0x24 DUP3 ADD DUP2 SWAP1 MSTORE PUSH32 0x54686520636F75706F6E20646174652063616E206265206D6F64696669656420 SWAP1 DUP3 ADD MSTORE PUSH32 0x6F6E6C792069662074686520636F6E7472616374207374617475732069732044 PUSH1 0x64 DUP3 ADD MSTORE PUSH4 0x1C98599D PUSH1 0xE2 SHL PUSH1 0x84 DUP3 ADD MSTORE PUSH1 0xA4 ADD PUSH2 0x765 JUMP JUMPDEST PUSH1 0x2 SSTORE JUMP JUMPDEST PUSH0 DUP1 PUSH1 0x7 PUSH0 SWAP1 SLOAD SWAP1 PUSH2 0x100 EXP SWAP1 DIV PUSH1 0x1 PUSH1 0x1 PUSH1 0xA0 SHL SUB AND PUSH1 0x1 PUSH1 0x1 PUSH1 0xA0 SHL SUB AND PUSH4 0xA7F2F6EC PUSH1 0x40 MLOAD DUP2 PUSH4 0xFFFFFFFF AND PUSH1 0xE0 SHL DUP2 MSTORE PUSH1 0x4 ADD PUSH1 0x20 PUSH1 0x40 MLOAD DUP1 DUP4 SUB DUP2 DUP7 GAS STATICCALL ISZERO DUP1 ISZERO PUSH2 0xDC7 JUMPI RETURNDATASIZE PUSH0 DUP1 RETURNDATACOPY RETURNDATASIZE PUSH0 REVERT JUMPDEST POP POP POP POP PUSH1 0x40 MLOAD RETURNDATASIZE PUSH1 0x1F NOT PUSH1 0x1F DUP3 ADD AND DUP3 ADD DUP1 PUSH1 0x40 MSTORE POP DUP2 ADD SWAP1 PUSH2 0xDEB SWAP2 SWAP1 PUSH2 0x201D JUMP JUMPDEST SWAP1 POP PUSH0 PUSH1 0x7 PUSH0 SWAP1 SLOAD SWAP1 PUSH2 0x100 EXP SWAP1 DIV PUSH1 0x1 PUSH1 0x1 PUSH1 0xA0 SHL SUB AND PUSH1 0x1 PUSH1 0x1 PUSH1 0xA0 SHL SUB AND PUSH4 0x18160DDD PUSH1 0x40 MLOAD DUP2 PUSH4 0xFFFFFFFF AND PUSH1 0xE0 SHL DUP2 MSTORE PUSH1 0x4 ADD PUSH1 0x20 PUSH1 0x40 MLOAD DUP1 DUP4 SUB DUP2 DUP7 GAS STATICCALL ISZERO DUP1 ISZERO PUSH2 0xE3E JUMPI RETURNDATASIZE PUSH0 DUP1 RETURNDATACOPY RETURNDATASIZE PUSH0 REVERT JUMPDEST POP POP POP POP PUSH1 0x40 MLOAD RETURNDATASIZE PUSH1 0x1F NOT PUSH1 0x1F DUP3 ADD AND DUP3 ADD DUP1 PUSH1 0x40 MSTORE POP DUP2 ADD SWAP1 PUSH2 0xE62 SWAP2 SWAP1 PUSH2 0x201D JUMP JUMPDEST SWAP1 POP PUSH0 PUSH2 0xE6F DUP3 DUP5 PUSH2 0x2048 JUMP JUMPDEST SWAP5 SWAP4 POP POP POP POP JUMP JUMPDEST PUSH2 0xE7F PUSH2 0x1F19 JUMP JUMPDEST PUSH1 0x7 SLOAD PUSH1 0x40 MLOAD PUSH4 0xC41251A1 PUSH1 0xE0 SHL DUP2 MSTORE PUSH1 0x1 PUSH1 0x1 PUSH1 0xA0 SHL SUB DUP4 DUP2 AND PUSH1 0x4 DUP4 ADD MSTORE SWAP1 SWAP2 AND SWAP1 PUSH4 0xC41251A1 SWAP1 PUSH1 0x24 ADD PUSH1 0x20 PUSH1 0x40 MLOAD DUP1 DUP4 SUB DUP2 DUP7 GAS STATICCALL ISZERO DUP1 ISZERO PUSH2 0xEC7 JUMPI RETURNDATASIZE PUSH0 DUP1 RETURNDATACOPY RETURNDATASIZE PUSH0 REVERT JUMPDEST POP POP POP POP PUSH1 0x40 MLOAD RETURNDATASIZE PUSH1 0x1F NOT PUSH1 0x1F DUP3 ADD AND DUP3 ADD DUP1 PUSH1 0x40 MSTORE POP DUP2 ADD SWAP1 PUSH2 0xEEB SWAP2 SWAP1 PUSH2 0x2086 JUMP JUMPDEST PUSH2 0xF37 JUMPI PUSH1 0x40 MLOAD PUSH3 0x461BCD PUSH1 0xE5 SHL DUP2 MSTORE PUSH1 0x20 PUSH1 0x4 DUP3 ADD MSTORE PUSH1 0x1C PUSH1 0x24 DUP3 ADD MSTORE PUSH32 0x5468697320696E766573746F72206973206E6F7420616C6C6F77656400000000 PUSH1 0x44 DUP3 ADD MSTORE PUSH1 0x64 ADD PUSH2 0x765 JUMP JUMPDEST PUSH1 0x1 PUSH1 0x8 SLOAD PUSH1 0x1 PUSH1 0xA0 SHL SWAP1 DIV PUSH1 0xFF AND PUSH1 0x4 DUP2 GT ISZERO PUSH2 0xF57 JUMPI PUSH2 0xF57 PUSH2 0x1F90 JUMP JUMPDEST EQ PUSH2 0xFCA JUMPI PUSH1 0x40 MLOAD PUSH3 0x461BCD PUSH1 0xE5 SHL DUP2 MSTORE PUSH1 0x20 PUSH1 0x4 DUP3 ADD MSTORE PUSH1 0x2C PUSH1 0x24 DUP3 ADD MSTORE PUSH32 0x54686520737461747573206F662074686520526564656D7074696F6E2073686F PUSH1 0x44 DUP3 ADD MSTORE PUSH32 0x756C642062652052656164790000000000000000000000000000000000000000 PUSH1 0x64 DUP3 ADD MSTORE PUSH1 0x84 ADD PUSH2 0x765 JUMP JUMPDEST PUSH1 0x1 PUSH1 0x1 PUSH1 0xA0 SHL SUB DUP2 DUP2 AND PUSH0 SWAP1 DUP2 MSTORE PUSH1 0xA PUSH1 0x20 MSTORE PUSH1 0x40 SWAP1 DUP2 SWAP1 KECCAK256 SLOAD PUSH1 0x7 SLOAD SWAP2 MLOAD PUSH4 0x21B0FC95 PUSH1 0xE1 SHL DUP2 MSTORE CALLER PUSH1 0x4 DUP3 ADD MSTORE PUSH1 0xFF SWAP1 SWAP2 AND SWAP3 SWAP2 SWAP1 SWAP2 AND SWAP1 PUSH4 0x4361F92A SWAP1 PUSH1 0x24 ADD PUSH1 0x20 PUSH1 0x40 MLOAD DUP1 DUP4 SUB DUP2 DUP7 GAS STATICCALL ISZERO DUP1 ISZERO PUSH2 0x1029 JUMPI RETURNDATASIZE PUSH0 DUP1 RETURNDATACOPY RETURNDATASIZE PUSH0 REVERT JUMPDEST POP POP POP POP PUSH1 0x40 MLOAD RETURNDATASIZE PUSH1 0x1F NOT PUSH1 0x1F DUP3 ADD AND DUP3 ADD DUP1 PUSH1 0x40 MSTORE POP DUP2 ADD SWAP1 PUSH2 0x104D SWAP2 SWAP1 PUSH2 0x2086 JUMP JUMPDEST ISZERO PUSH2 0x136E JUMPI PUSH1 0x1 PUSH1 0x1 PUSH1 0xA0 SHL SUB DUP3 AND PUSH0 SWAP1 DUP2 MSTORE PUSH1 0xA PUSH1 0x20 MSTORE PUSH1 0x40 DUP2 KECCAK256 SLOAD PUSH1 0xFF AND PUSH1 0x2 DUP2 GT ISZERO PUSH2 0x107E JUMPI PUSH2 0x107E PUSH2 0x1F90 JUMP JUMPDEST SUB PUSH2 0x12A0 JUMPI PUSH1 0x6 SLOAD TIMESTAMP GT PUSH2 0x10FA JUMPI PUSH1 0x40 MLOAD PUSH3 0x461BCD PUSH1 0xE5 SHL DUP2 MSTORE PUSH1 0x20 PUSH1 0x4 DUP3 ADD MSTORE PUSH1 0x27 PUSH1 0x24 DUP3 ADD MSTORE PUSH32 0x746865206D6174757269747920637574206F662074696D6520686173206E6F74 PUSH1 0x44 DUP3 ADD MSTORE PUSH32 0x2070617373656400000000000000000000000000000000000000000000000000 PUSH1 0x64 DUP3 ADD MSTORE PUSH1 0x84 ADD PUSH2 0x765 JUMP JUMPDEST PUSH1 0x1 PUSH1 0x1 PUSH1 0xA0 SHL SUB DUP3 DUP2 AND PUSH0 DUP2 DUP2 MSTORE PUSH1 0xA PUSH1 0x20 MSTORE PUSH1 0x40 DUP1 DUP3 KECCAK256 DUP1 SLOAD PUSH1 0xFF NOT AND PUSH1 0x1 OR SWAP1 SSTORE PUSH1 0x7 SLOAD SWAP1 MLOAD PUSH32 0x70A0823100000000000000000000000000000000000000000000000000000000 DUP2 MSTORE PUSH1 0x4 DUP2 ADD SWAP4 SWAP1 SWAP4 MSTORE SWAP1 SWAP3 AND SWAP1 PUSH4 0x70A08231 SWAP1 PUSH1 0x24 ADD PUSH1 0x20 PUSH1 0x40 MLOAD DUP1 DUP4 SUB DUP2 DUP7 GAS STATICCALL ISZERO DUP1 ISZERO PUSH2 0x1176 JUMPI RETURNDATASIZE PUSH0 DUP1 RETURNDATACOPY RETURNDATASIZE PUSH0 REVERT JUMPDEST POP POP POP POP PUSH1 0x40 MLOAD RETURNDATASIZE PUSH1 0x1F NOT PUSH1 0x1F DUP3 ADD AND DUP3 ADD DUP1 PUSH1 0x40 MSTORE POP DUP2 ADD SWAP1 PUSH2 0x119A SWAP2 SWAP1 PUSH2 0x201D JUMP JUMPDEST SWAP1 POP DUP1 ISZERO PUSH2 0x129A JUMPI PUSH1 0x7 SLOAD PUSH1 0x40 MLOAD PUSH32 0xABC2CF2A00000000000000000000000000000000000000000000000000000000 DUP2 MSTORE PUSH1 0x1 PUSH1 0x1 PUSH1 0xA0 SHL SUB DUP6 DUP2 AND PUSH1 0x4 DUP4 ADD MSTORE SWAP1 SWAP2 AND SWAP1 PUSH4 0xABC2CF2A SWAP1 PUSH1 0x24 ADD PUSH1 0x20 PUSH1 0x40 MLOAD DUP1 DUP4 SUB DUP2 PUSH0 DUP8 GAS CALL ISZERO DUP1 ISZERO PUSH2 0x1204 JUMPI RETURNDATASIZE PUSH0 DUP1 RETURNDATACOPY RETURNDATASIZE PUSH0 REVERT JUMPDEST POP POP POP POP PUSH1 0x40 MLOAD RETURNDATASIZE PUSH1 0x1F NOT PUSH1 0x1F DUP3 ADD AND DUP3 ADD DUP1 PUSH1 0x40 MSTORE POP DUP2 ADD SWAP1 PUSH2 0x1228 SWAP2 SWAP1 PUSH2 0x2086 JUMP JUMPDEST PUSH2 0x129A JUMPI PUSH1 0x40 MLOAD PUSH3 0x461BCD PUSH1 0xE5 SHL DUP2 MSTORE PUSH1 0x20 PUSH1 0x4 DUP3 ADD MSTORE PUSH1 0x22 PUSH1 0x24 DUP3 ADD MSTORE PUSH32 0x72657475726E2062616C616E636520657870656374656420627574206661696C PUSH1 0x44 DUP3 ADD MSTORE PUSH32 0x6564000000000000000000000000000000000000000000000000000000000000 PUSH1 0x64 DUP3 ADD MSTORE PUSH1 0x84 ADD PUSH2 0x765 JUMP JUMPDEST POP PUSH2 0x1619 JUMP JUMPDEST PUSH1 0x1 PUSH1 0x1 PUSH1 0x1 PUSH1 0xA0 SHL SUB DUP4 AND PUSH0 SWAP1 DUP2 MSTORE PUSH1 0xA PUSH1 0x20 MSTORE PUSH1 0x40 SWAP1 KECCAK256 SLOAD PUSH1 0xFF AND PUSH1 0x2 DUP2 GT ISZERO PUSH2 0x12CE JUMPI PUSH2 0x12CE PUSH2 0x1F90 JUMP JUMPDEST SUB PUSH2 0x12FE JUMPI PUSH1 0x1 PUSH1 0x1 PUSH1 0xA0 SHL SUB DUP3 AND PUSH0 SWAP1 DUP2 MSTORE PUSH1 0xA PUSH1 0x20 MSTORE PUSH1 0x40 DUP2 KECCAK256 DUP1 SLOAD PUSH1 0xFF NOT AND PUSH1 0x1 DUP4 JUMPDEST MUL OR SWAP1 SSTORE POP PUSH2 0x1619 JUMP JUMPDEST PUSH1 0x40 DUP1 MLOAD PUSH3 0x461BCD PUSH1 0xE5 SHL DUP2 MSTORE PUSH1 0x20 PUSH1 0x4 DUP3 ADD MSTORE PUSH1 0x24 DUP2 ADD SWAP2 SWAP1 SWAP2 MSTORE PUSH32 0x54686520737461747573206F66207468697320696E766573746F722773207061 PUSH1 0x44 DUP3 ADD MSTORE PUSH32 0x796D656E742073686F756C642062652050616964206F7220546F426550616964 PUSH1 0x64 DUP3 ADD MSTORE PUSH1 0x84 ADD PUSH2 0x765 JUMP JUMPDEST PUSH1 0x7 SLOAD PUSH1 0x40 MLOAD PUSH4 0xD720323 PUSH1 0xE2 SHL DUP2 MSTORE CALLER PUSH1 0x4 DUP3 ADD MSTORE PUSH1 0x1 PUSH1 0x1 PUSH1 0xA0 SHL SUB SWAP1 SWAP2 AND SWAP1 PUSH4 0x35C80C8C SWAP1 PUSH1 0x24 ADD PUSH1 0x20 PUSH1 0x40 MLOAD DUP1 DUP4 SUB DUP2 DUP7 GAS STATICCALL ISZERO DUP1 ISZERO PUSH2 0x13B4 JUMPI RETURNDATASIZE PUSH0 DUP1 RETURNDATACOPY RETURNDATASIZE PUSH0 REVERT JUMPDEST POP POP POP POP PUSH1 0x40 MLOAD RETURNDATASIZE PUSH1 0x1F NOT PUSH1 0x1F DUP3 ADD AND DUP3 ADD DUP1 PUSH1 0x40 MSTORE POP DUP2 ADD SWAP1 PUSH2 0x13D8 SWAP2 SWAP1 PUSH2 0x2086 JUMP JUMPDEST ISZERO PUSH2 0x15AB JUMPI PUSH1 0x7 SLOAD PUSH1 0x40 MLOAD PUSH4 0x8F92F49 PUSH1 0xE4 SHL DUP2 MSTORE PUSH1 0x1 PUSH1 0x1 PUSH1 0xA0 SHL SUB DUP5 DUP2 AND PUSH1 0x4 DUP4 ADD MSTORE CALLER SWAP3 AND SWAP1 PUSH4 0x8F92F490 SWAP1 PUSH1 0x24 ADD PUSH1 0x20 PUSH1 0x40 MLOAD DUP1 DUP4 SUB DUP2 DUP7 GAS STATICCALL ISZERO DUP1 ISZERO PUSH2 0x1425 JUMPI RETURNDATASIZE PUSH0 DUP1 RETURNDATACOPY RETURNDATASIZE PUSH0 REVERT JUMPDEST POP POP POP POP PUSH1 0x40 MLOAD RETURNDATASIZE PUSH1 0x1F NOT PUSH1 0x1F DUP3 ADD AND DUP3 ADD DUP1 PUSH1 0x40 MSTORE POP DUP2 ADD SWAP1 PUSH2 0x1449 SWAP2 SWAP1 PUSH2 0x20B8 JUMP JUMPDEST PUSH1 0x1 PUSH1 0x1 PUSH1 0xA0 SHL SUB AND EQ PUSH2 0x14AE JUMPI PUSH1 0x40 MLOAD PUSH3 0x461BCD PUSH1 0xE5 SHL DUP2 MSTORE PUSH1 0x20 PUSH1 0x4 DUP3 ADD MSTORE PUSH1 0x26 PUSH1 0x24 DUP3 ADD MSTORE PUSH32 0x596F7520617265206E6F7420637573746F6469616E206F66207468697320696E PUSH1 0x44 DUP3 ADD MSTORE PUSH6 0x3B32B9BA37B9 PUSH1 0xD1 SHL PUSH1 0x64 DUP3 ADD MSTORE PUSH1 0x84 ADD PUSH2 0x765 JUMP JUMPDEST PUSH1 0x1 PUSH1 0x1 PUSH1 0x1 PUSH1 0xA0 SHL SUB DUP4 AND PUSH0 SWAP1 DUP2 MSTORE PUSH1 0xA PUSH1 0x20 MSTORE PUSH1 0x40 SWAP1 KECCAK256 SLOAD PUSH1 0xFF AND PUSH1 0x2 DUP2 GT ISZERO PUSH2 0x14DC JUMPI PUSH2 0x14DC PUSH2 0x1F90 JUMP JUMPDEST SUB PUSH2 0x1508 JUMPI PUSH1 0x1 PUSH1 0x1 PUSH1 0xA0 SHL SUB DUP3 AND PUSH0 SWAP1 DUP2 MSTORE PUSH1 0xA PUSH1 0x20 MSTORE PUSH1 0x40 SWAP1 KECCAK256 DUP1 SLOAD PUSH1 0xFF NOT AND PUSH1 0x2 OR SWAP1 SSTORE PUSH2 0x1619 JUMP JUMPDEST PUSH1 0x2 PUSH1 0x1 PUSH1 0x1 PUSH1 0xA0 SHL SUB DUP4 AND PUSH0 SWAP1 DUP2 MSTORE PUSH1 0xA PUSH1 0x20 MSTORE PUSH1 0x40 SWAP1 KECCAK256 SLOAD PUSH1 0xFF AND PUSH1 0x2 DUP2 GT ISZERO PUSH2 0x1536 JUMPI PUSH2 0x1536 PUSH2 0x1F90 JUMP JUMPDEST SUB PUSH2 0x1563 JUMPI PUSH1 0x1 PUSH1 0x1 PUSH1 0xA0 SHL SUB DUP3 AND PUSH0 SWAP1 DUP2 MSTORE PUSH1 0xA PUSH1 0x20 MSTORE PUSH1 0x40 SWAP1 KECCAK256 DUP1 SLOAD PUSH1 0x1 SWAP2 SWAP1 PUSH1 0xFF NOT AND DUP3 DUP1 PUSH2 0x12F4 JUMP JUMPDEST PUSH1 0x40 MLOAD PUSH3 0x461BCD PUSH1 0xE5 SHL DUP2 MSTORE PUSH1 0x20 PUSH1 0x4 DUP3 ADD MSTORE PUSH1 0x1D PUSH1 0x24 DUP3 ADD MSTORE PUSH32 0x496E76616C696420436F75706F6E207061796D656E7420737461747573000000 PUSH1 0x44 DUP3 ADD MSTORE PUSH1 0x64 ADD PUSH2 0x765 JUMP JUMPDEST PUSH1 0x40 MLOAD PUSH3 0x461BCD PUSH1 0xE5 SHL DUP2 MSTORE PUSH1 0x20 PUSH1 0x4 DUP3 ADD MSTORE PUSH1 0x32 PUSH1 0x24 DUP3 ADD MSTORE PUSH32 0x73656E646572206D7573742062652043656E7472616C204163636F756E74204B PUSH1 0x44 DUP3 ADD MSTORE PUSH32 0x6565706572206F7220437573746F6469616E0000000000000000000000000000 PUSH1 0x64 DUP3 ADD MSTORE PUSH1 0x84 ADD PUSH2 0x765 JUMP JUMPDEST PUSH1 0x1 SLOAD PUSH1 0x7 SLOAD PUSH1 0x1 PUSH1 0x1 PUSH1 0xA0 SHL SUB DUP1 DUP6 AND PUSH0 DUP2 DUP2 MSTORE PUSH1 0xA PUSH1 0x20 MSTORE PUSH1 0x40 SWAP1 DUP2 SWAP1 KECCAK256 SLOAD SWAP1 MLOAD SWAP2 SWAP5 SWAP4 SWAP1 SWAP3 AND SWAP2 PUSH32 0x5015A18308D4635883292E9E27E8D94D9FC784749D47AA7F18D6F3AD2AD97E73 SWAP2 PUSH2 0x1674 SWAP2 PUSH1 0xFF AND SWAP1 DUP8 SWAP1 PUSH2 0x20D3 JUMP JUMPDEST PUSH1 0x40 MLOAD DUP1 SWAP2 SUB SWAP1 LOG4 POP PUSH2 0x1686 PUSH1 0x1 PUSH0 SSTORE JUMP JUMPDEST POP JUMP JUMPDEST PUSH1 0x7 SLOAD PUSH1 0x40 MLOAD PUSH4 0xC41251A1 PUSH1 0xE0 SHL DUP2 MSTORE PUSH1 0x1 PUSH1 0x1 PUSH1 0xA0 SHL SUB DUP4 DUP2 AND PUSH1 0x4 DUP4 ADD MSTORE SWAP1 SWAP2 AND SWAP1 PUSH4 0xC41251A1 SWAP1 PUSH1 0x24 ADD PUSH1 0x20 PUSH1 0x40 MLOAD DUP1 DUP4 SUB DUP2 DUP7 GAS STATICCALL ISZERO DUP1 ISZERO PUSH2 0x16D1 JUMPI RETURNDATASIZE PUSH0 DUP1 RETURNDATACOPY RETURNDATASIZE PUSH0 REVERT JUMPDEST POP POP POP POP PUSH1 0x40 MLOAD RETURNDATASIZE PUSH1 0x1F NOT PUSH1 0x1F DUP3 ADD AND DUP3 ADD DUP1 PUSH1 0x40 MSTORE POP DUP2 ADD SWAP1 PUSH2 0x16F5 SWAP2 SWAP1 PUSH2 0x2086 JUMP JUMPDEST PUSH2 0x1741 JUMPI PUSH1 0x40 MLOAD PUSH3 0x461BCD PUSH1 0xE5 SHL DUP2 MSTORE PUSH1 0x20 PUSH1 0x4 DUP3 ADD MSTORE PUSH1 0x1C PUSH1 0x24 DUP3 ADD MSTORE PUSH32 0x5468697320696E766573746F72206973206E6F7420616C6C6F77656400000000 PUSH1 0x44 DUP3 ADD MSTORE PUSH1 0x64 ADD PUSH2 0x765 JUMP JUMPDEST PUSH1 0x1 PUSH1 0x8 SLOAD PUSH1 0x1 PUSH1 0xA0 SHL SWAP1 DIV PUSH1 0xFF AND PUSH1 0x4 DUP2 GT ISZERO PUSH2 0x1761 JUMPI PUSH2 0x1761 PUSH2 0x1F90 JUMP JUMPDEST EQ PUSH2 0x17D4 JUMPI PUSH1 0x40 MLOAD PUSH3 0x461BCD PUSH1 0xE5 SHL DUP2 MSTORE PUSH1 0x20 PUSH1 0x4 DUP3 ADD MSTORE PUSH1 0x28 PUSH1 0x24 DUP3 ADD MSTORE PUSH32 0x54686520737461747573206F662074686520636F75706F6E2073686F756C6420 PUSH1 0x44 DUP3 ADD MSTORE PUSH32 0x6265205265616479000000000000000000000000000000000000000000000000 PUSH1 0x64 DUP3 ADD MSTORE PUSH1 0x84 ADD PUSH2 0x765 JUMP JUMPDEST PUSH1 0x1 PUSH1 0x1 PUSH1 0xA0 SHL SUB DUP2 DUP2 AND PUSH0 SWAP1 DUP2 MSTORE PUSH1 0x9 PUSH1 0x20 MSTORE PUSH1 0x40 SWAP1 DUP2 SWAP1 KECCAK256 SLOAD PUSH1 0x7 SLOAD SWAP2 MLOAD PUSH4 0x21B0FC95 PUSH1 0xE1 SHL DUP2 MSTORE CALLER PUSH1 0x4 DUP3 ADD MSTORE PUSH1 0xFF SWAP1 SWAP2 AND SWAP3 SWAP2 SWAP1 SWAP2 AND SWAP1 PUSH4 0x4361F92A SWAP1 PUSH1 0x24 ADD PUSH1 0x20 PUSH1 0x40 MLOAD DUP1 DUP4 SUB DUP2 DUP7 GAS STATICCALL ISZERO DUP1 ISZERO PUSH2 0x1833 JUMPI RETURNDATASIZE PUSH0 DUP1 RETURNDATACOPY RETURNDATASIZE PUSH0 REVERT JUMPDEST POP POP POP POP PUSH1 0x40 MLOAD RETURNDATASIZE PUSH1 0x1F NOT PUSH1 0x1F DUP3 ADD AND DUP3 ADD DUP1 PUSH1 0x40 MSTORE POP DUP2 ADD SWAP1 PUSH2 0x1857 SWAP2 SWAP1 PUSH2 0x2086 JUMP JUMPDEST ISZERO PUSH2 0x1989 JUMPI PUSH1 0x1 PUSH1 0x1 PUSH1 0xA0 SHL SUB DUP3 AND PUSH0 SWAP1 DUP2 MSTORE PUSH1 0x9 PUSH1 0x20 MSTORE PUSH1 0x40 DUP2 KECCAK256 SLOAD PUSH1 0xFF AND PUSH1 0x2 DUP2 GT ISZERO PUSH2 0x1888 JUMPI PUSH2 0x1888 PUSH2 0x1F90 JUMP JUMPDEST SUB PUSH2 0x1932 JUMPI PUSH1 0x6 SLOAD TIMESTAMP GT PUSH2 0x1904 JUMPI PUSH1 0x40 MLOAD PUSH3 0x461BCD PUSH1 0xE5 SHL DUP2 MSTORE PUSH1 0x20 PUSH1 0x4 DUP3 ADD MSTORE PUSH1 0x25 PUSH1 0x24 DUP3 ADD MSTORE PUSH32 0x74686520636F75706F6E20637574206F662074696D6520686173206E6F742070 PUSH1 0x44 DUP3 ADD MSTORE PUSH32 0x6173736564000000000000000000000000000000000000000000000000000000 PUSH1 0x64 DUP3 ADD MSTORE PUSH1 0x84 ADD PUSH2 0x765 JUMP JUMPDEST PUSH1 0x1 PUSH1 0x1 PUSH1 0xA0 SHL SUB DUP3 AND PUSH0 SWAP1 DUP2 MSTORE PUSH1 0x9 PUSH1 0x20 MSTORE PUSH1 0x40 SWAP1 KECCAK256 DUP1 SLOAD PUSH1 0x1 SWAP2 SWAP1 PUSH1 0xFF NOT AND DUP3 DUP1 JUMPDEST MUL OR SWAP1 SSTORE POP PUSH2 0x1B80 JUMP JUMPDEST PUSH1 0x1 PUSH1 0x1 PUSH1 0x1 PUSH1 0xA0 SHL SUB DUP4 AND PUSH0 SWAP1 DUP2 MSTORE PUSH1 0x9 PUSH1 0x20 MSTORE PUSH1 0x40 SWAP1 KECCAK256 SLOAD PUSH1 0xFF AND PUSH1 0x2 DUP2 GT ISZERO PUSH2 0x1960 JUMPI PUSH2 0x1960 PUSH2 0x1F90 JUMP JUMPDEST SUB PUSH2 0x12FE JUMPI PUSH1 0x1 PUSH1 0x1 PUSH1 0xA0 SHL SUB DUP3 AND PUSH0 SWAP1 DUP2 MSTORE PUSH1 0x9 PUSH1 0x20 MSTORE PUSH1 0x40 SWAP1 KECCAK256 DUP1 SLOAD PUSH1 0xFF NOT AND SWAP1 SSTORE PUSH2 0x1B80 JUMP JUMPDEST PUSH1 0x7 SLOAD PUSH1 0x40 MLOAD PUSH4 0xD720323 PUSH1 0xE2 SHL DUP2 MSTORE CALLER PUSH1 0x4 DUP3 ADD MSTORE PUSH1 0x1 PUSH1 0x1 PUSH1 0xA0 SHL SUB SWAP1 SWAP2 AND SWAP1 PUSH4 0x35C80C8C SWAP1 PUSH1 0x24 ADD PUSH1 0x20 PUSH1 0x40 MLOAD DUP1 DUP4 SUB DUP2 DUP7 GAS STATICCALL ISZERO DUP1 ISZERO PUSH2 0x19CF JUMPI RETURNDATASIZE PUSH0 DUP1 RETURNDATACOPY RETURNDATASIZE PUSH0 REVERT JUMPDEST POP POP POP POP PUSH1 0x40 MLOAD RETURNDATASIZE PUSH1 0x1F NOT PUSH1 0x1F DUP3 ADD AND DUP3 ADD DUP1 PUSH1 0x40 MSTORE POP DUP2 ADD SWAP1 PUSH2 0x19F3 SWAP2 SWAP1 PUSH2 0x2086 JUMP JUMPDEST ISZERO PUSH2 0x15AB JUMPI PUSH1 0x7 SLOAD PUSH1 0x40 MLOAD PUSH4 0x8F92F49 PUSH1 0xE4 SHL DUP2 MSTORE PUSH1 0x1 PUSH1 0x1 PUSH1 0xA0 SHL SUB DUP5 DUP2 AND PUSH1 0x4 DUP4 ADD MSTORE CALLER SWAP3 AND SWAP1 PUSH4 0x8F92F490 SWAP1 PUSH1 0x24 ADD PUSH1 0x20 PUSH1 0x40 MLOAD DUP1 DUP4 SUB DUP2 DUP7 GAS STATICCALL ISZERO DUP1 ISZERO PUSH2 0x1A40 JUMPI RETURNDATASIZE PUSH0 DUP1 RETURNDATACOPY RETURNDATASIZE PUSH0 REVERT JUMPDEST POP POP POP POP PUSH1 0x40 MLOAD RETURNDATASIZE PUSH1 0x1F NOT PUSH1 0x1F DUP3 ADD AND DUP3 ADD DUP1 PUSH1 0x40 MSTORE POP DUP2 ADD SWAP1 PUSH2 0x1A64 SWAP2 SWAP1 PUSH2 0x20B8 JUMP JUMPDEST PUSH1 0x1 PUSH1 0x1 PUSH1 0xA0 SHL SUB AND EQ PUSH2 0x1AC9 JUMPI PUSH1 0x40 MLOAD PUSH3 0x461BCD PUSH1 0xE5 SHL DUP2 MSTORE PUSH1 0x20 PUSH1 0x4 DUP3 ADD MSTORE PUSH1 0x26 PUSH1 0x24 DUP3 ADD MSTORE PUSH32 0x596F7520617265206E6F7420637573746F6469616E206F66207468697320696E PUSH1 0x44 DUP3 ADD MSTORE PUSH6 0x3B32B9BA37B9 PUSH1 0xD1 SHL PUSH1 0x64 DUP3 ADD MSTORE PUSH1 0x84 ADD PUSH2 0x765 JUMP JUMPDEST PUSH1 0x1 PUSH1 0x1 PUSH1 0x1 PUSH1 0xA0 SHL SUB DUP4 AND PUSH0 SWAP1 DUP2 MSTORE PUSH1 0x9 PUSH1 0x20 MSTORE PUSH1 0x40 SWAP1 KECCAK256 SLOAD PUSH1 0xFF AND PUSH1 0x2 DUP2 GT ISZERO PUSH2 0x1AF7 JUMPI PUSH2 0x1AF7 PUSH2 0x1F90 JUMP JUMPDEST SUB PUSH2 0x1B25 JUMPI PUSH1 0x1 PUSH1 0x1 PUSH1 0xA0 SHL SUB DUP3 AND PUSH0 SWAP1 DUP2 MSTORE PUSH1 0x9 PUSH1 0x20 MSTORE PUSH1 0x40 SWAP1 KECCAK256 DUP1 SLOAD PUSH1 0x2 SWAP2 SWAP1 PUSH1 0xFF NOT AND PUSH1 0x1 DUP4 PUSH2 0x1928 JUMP JUMPDEST PUSH1 0x2 PUSH1 0x1 PUSH1 0x1 PUSH1 0xA0 SHL SUB DUP4 AND PUSH0 SWAP1 DUP2 MSTORE PUSH1 0x9 PUSH1 0x20 MSTORE PUSH1 0x40 SWAP1 KECCAK256 SLOAD PUSH1 0xFF AND PUSH1 0x2 DUP2 GT ISZERO PUSH2 0x1B53 JUMPI PUSH2 0x1B53 PUSH2 0x1F90 JUMP JUMPDEST SUB PUSH2 0x1563 JUMPI PUSH1 0x1 PUSH1 0x1 PUSH1 0xA0 SHL SUB DUP3 AND PUSH0 SWAP1 DUP2 MSTORE PUSH1 0x9 PUSH1 0x20 MSTORE PUSH1 0x40 SWAP1 KECCAK256 DUP1 SLOAD PUSH1 0x1 SWAP2 SWAP1 PUSH1 0xFF NOT AND DUP3 DUP1 PUSH2 0x1928 JUMP JUMPDEST PUSH1 0x1 SLOAD PUSH1 0x7 SLOAD PUSH1 0x1 PUSH1 0x1 PUSH1 0xA0 SHL SUB DUP1 DUP6 AND PUSH0 DUP2 DUP2 MSTORE PUSH1 0x9 PUSH1 0x20 MSTORE PUSH1 0x40 SWAP1 DUP2 SWAP1 KECCAK256 SLOAD SWAP1 MLOAD SWAP2 SWAP5 SWAP4 SWAP1 SWAP3 AND SWAP2 PUSH32 0x71A813FB36E2B43B4FCD5B541937F3501C4BB733759AA470D700EFB9B7FD5B14 SWAP2 PUSH2 0x1BDB SWAP2 PUSH1 0xFF AND SWAP1 DUP8 SWAP1 PUSH2 0x20D3 JUMP JUMPDEST PUSH1 0x40 MLOAD DUP1 SWAP2 SUB SWAP1 LOG4 POP POP JUMP JUMPDEST PUSH1 0x40 MLOAD PUSH12 0xFFFFFFFFFFFFFFFFFFFFFFFF NOT ADDRESS PUSH1 0x60 SWAP1 DUP2 SHL DUP3 AND PUSH1 0x20 DUP5 ADD MSTORE DUP4 SWAP1 SHL AND PUSH1 0x34 DUP3 ADD MSTORE PUSH32 0x726564656D7074696F6E00000000000000000000000000000000000000000000 PUSH1 0x48 DUP3 ADD MSTORE PUSH0 SWAP1 PUSH1 0x52 ADD PUSH2 0x57E JUMP JUMPDEST PUSH1 0x7 SLOAD PUSH1 0x40 MLOAD PUSH4 0x38E59755 PUSH1 0xE2 SHL DUP2 MSTORE CALLER PUSH1 0x4 DUP3 ADD MSTORE PUSH1 0x1 PUSH1 0x1 PUSH1 0xA0 SHL SUB SWAP1 SWAP2 AND SWAP1 PUSH4 0xE3965D54 SWAP1 PUSH1 0x24 ADD PUSH1 0x20 PUSH1 0x40 MLOAD DUP1 DUP4 SUB DUP2 DUP7 GAS STATICCALL ISZERO DUP1 ISZERO PUSH2 0x1C84 JUMPI RETURNDATASIZE PUSH0 DUP1 RETURNDATACOPY RETURNDATASIZE PUSH0 REVERT JUMPDEST POP POP POP POP PUSH1 0x40 MLOAD RETURNDATASIZE PUSH1 0x1F NOT PUSH1 0x1F DUP3 ADD AND DUP3 ADD DUP1 PUSH1 0x40 MSTORE POP DUP2 ADD SWAP1 PUSH2 0x1CA8 SWAP2 SWAP1 PUSH2 0x2086 JUMP JUMPDEST PUSH2 0x1D06 JUMPI PUSH1 0x40 MLOAD PUSH3 0x461BCD PUSH1 0xE5 SHL DUP2 MSTORE PUSH1 0x20 PUSH1 0x4 DUP3 ADD MSTORE PUSH1 0x29 PUSH1 0x24 DUP3 ADD MSTORE PUSH32 0x53656E646572206D757374206265206120506179696E672063616C63756C6174 PUSH1 0x44 DUP3 ADD MSTORE PUSH9 0x1A5BDB881859D95B9D PUSH1 0xBA SHL PUSH1 0x64 DUP3 ADD MSTORE PUSH1 0x84 ADD PUSH2 0x765 JUMP JUMPDEST PUSH1 0x8 DUP1 SLOAD PUSH1 0xFF PUSH1 0xA0 SHL NOT AND PUSH21 0x20000000000000000000000000000000000000000 OR SWAP1 DUP2 SWAP1 SSTORE PUSH1 0x1 PUSH1 0xA0 SHL SWAP1 DIV PUSH1 0xFF AND PUSH1 0x4 DUP2 GT ISZERO PUSH2 0x1D47 JUMPI PUSH2 0x1D47 PUSH2 0x1F90 JUMP JUMPDEST PUSH1 0x1 SLOAD PUSH1 0x7 SLOAD PUSH1 0x40 MLOAD PUSH1 0x1 PUSH1 0x1 PUSH1 0xA0 SHL SUB SWAP1 SWAP2 AND SWAP1 PUSH32 0xEE1A084AA36ACDBC1C32F808F87C6EF8AE26D4AD59293C32244B1B72466BB760 SWAP1 PUSH0 SWAP1 LOG4 JUMP JUMPDEST PUSH1 0x7 SLOAD PUSH1 0x40 MLOAD PUSH4 0x38E59755 PUSH1 0xE2 SHL DUP2 MSTORE CALLER PUSH1 0x4 DUP3 ADD MSTORE PUSH1 0x1 PUSH1 0x1 PUSH1 0xA0 SHL SUB SWAP1 SWAP2 AND SWAP1 PUSH4 0xE3965D54 SWAP1 PUSH1 0x24 ADD PUSH1 0x20 PUSH1 0x40 MLOAD DUP1 DUP4 SUB DUP2 DUP7 GAS STATICCALL ISZERO DUP1 ISZERO PUSH2 0x1DC9 JUMPI RETURNDATASIZE PUSH0 DUP1 RETURNDATACOPY RETURNDATASIZE PUSH0 REVERT JUMPDEST POP POP POP POP PUSH1 0x40 MLOAD RETURNDATASIZE PUSH1 0x1F NOT PUSH1 0x1F DUP3 ADD AND DUP3 ADD DUP1 PUSH1 0x40 MSTORE POP DUP2 ADD SWAP1 PUSH2 0x1DED SWAP2 SWAP1 PUSH2 0x2086 JUMP JUMPDEST PUSH2 0x1E4B JUMPI PUSH1 0x40 MLOAD PUSH3 0x461BCD PUSH1 0xE5 SHL DUP2 MSTORE PUSH1 0x20 PUSH1 0x4 DUP3 ADD MSTORE PUSH1 0x29 PUSH1 0x24 DUP3 ADD MSTORE PUSH32 0x53656E646572206D757374206265206120506179696E672063616C63756C6174 PUSH1 0x44 DUP3 ADD MSTORE PUSH9 0x1A5BDB881859D95B9D PUSH1 0xBA SHL PUSH1 0x64 DUP3 ADD MSTORE PUSH1 0x84 ADD PUSH2 0x765 JUMP JUMPDEST PUSH0 PUSH1 0x8 SLOAD PUSH1 0x1 PUSH1 0xA0 SHL SWAP1 DIV PUSH1 0xFF AND PUSH1 0x4 DUP2 GT ISZERO PUSH2 0x1E6A JUMPI PUSH2 0x1E6A PUSH2 0x1F90 JUMP JUMPDEST EQ PUSH2 0x1EEB JUMPI PUSH1 0x40 MLOAD PUSH3 0x461BCD PUSH1 0xE5 SHL DUP2 MSTORE PUSH1 0x20 PUSH1 0x4 DUP3 ADD MSTORE PUSH1 0x44 PUSH1 0x24 DUP3 ADD DUP2 SWAP1 MSTORE PUSH32 0x54686520636F75706F6E20646174652063616E206265206D6F64696669656420 SWAP1 DUP3 ADD MSTORE PUSH32 0x6F6E6C792069662074686520636F6E7472616374207374617475732069732044 PUSH1 0x64 DUP3 ADD MSTORE PUSH4 0x1C98599D PUSH1 0xE2 SHL PUSH1 0x84 DUP3 ADD MSTORE PUSH1 0xA4 ADD PUSH2 0x765 JUMP JUMPDEST PUSH2 0x1EF8 PUSH3 0x15180 DUP4 PUSH2 0x20EE JUMP JUMPDEST PUSH2 0x1F02 SWAP1 DUP4 PUSH2 0x2101 JUMP JUMPDEST PUSH1 0x3 SSTORE PUSH2 0x1F12 PUSH3 0x15180 DUP3 PUSH2 0x20EE JUMP JUMPDEST PUSH1 0x4 SSTORE POP POP JUMP JUMPDEST PUSH1 0x2 PUSH0 SLOAD SUB PUSH2 0x1F54 JUMPI PUSH1 0x40 MLOAD PUSH32 0x3EE5AEB500000000000000000000000000000000000000000000000000000000 DUP2 MSTORE PUSH1 0x4 ADD PUSH1 0x40 MLOAD DUP1 SWAP2 SUB SWAP1 REVERT JUMPDEST PUSH1 0x2 PUSH0 SSTORE JUMP JUMPDEST PUSH1 0x1 PUSH1 0x1 PUSH1 0xA0 SHL SUB DUP2 AND DUP2 EQ PUSH2 0x1686 JUMPI PUSH0 DUP1 REVERT JUMPDEST PUSH0 PUSH1 0x20 DUP3 DUP5 SUB SLT ISZERO PUSH2 0x1F7E JUMPI PUSH0 DUP1 REVERT JUMPDEST DUP2 CALLDATALOAD PUSH2 0x1F89 DUP2 PUSH2 0x1F5A JUMP JUMPDEST SWAP4 SWAP3 POP POP POP JUMP JUMPDEST PUSH4 0x4E487B71 PUSH1 0xE0 SHL PUSH0 MSTORE PUSH1 0x21 PUSH1 0x4 MSTORE PUSH1 0x24 PUSH0 REVERT JUMPDEST PUSH1 0x3 DUP2 LT PUSH2 0x1FB4 JUMPI PUSH2 0x1FB4 PUSH2 0x1F90 JUMP JUMPDEST SWAP1 MSTORE JUMP JUMPDEST PUSH1 0x20 DUP2 ADD PUSH2 0x1FC6 DUP3 DUP5 PUSH2 0x1FA4 JUMP JUMPDEST SWAP3 SWAP2 POP POP JUMP JUMPDEST PUSH1 0x20 DUP2 ADD PUSH1 0x5 DUP4 LT PUSH2 0x1FE0 JUMPI PUSH2 0x1FE0 PUSH2 0x1F90 JUMP JUMPDEST SWAP2 SWAP1 MSTORE SWAP1 JUMP JUMPDEST PUSH0 PUSH1 0x20 DUP3 DUP5 SUB SLT ISZERO PUSH2 0x1FF6 JUMPI PUSH0 DUP1 REVERT JUMPDEST POP CALLDATALOAD SWAP2 SWAP1 POP JUMP JUMPDEST PUSH0 DUP1 PUSH1 0x40 DUP4 DUP6 SUB SLT ISZERO PUSH2 0x200E JUMPI PUSH0 DUP1 REVERT JUMPDEST POP POP DUP1 CALLDATALOAD SWAP3 PUSH1 0x20 SWAP1 SWAP2 ADD CALLDATALOAD SWAP2 POP JUMP JUMPDEST PUSH0 PUSH1 0x20 DUP3 DUP5 SUB SLT ISZERO PUSH2 0x202D JUMPI PUSH0 DUP1 REVERT JUMPDEST POP MLOAD SWAP2 SWAP1 POP JUMP JUMPDEST PUSH4 0x4E487B71 PUSH1 0xE0 SHL PUSH0 MSTORE PUSH1 0x11 PUSH1 0x4 MSTORE PUSH1 0x24 PUSH0 REVERT JUMPDEST DUP1 DUP3 MUL DUP2 ISZERO DUP3 DUP3 DIV DUP5 EQ OR PUSH2 0x1FC6 JUMPI PUSH2 0x1FC6 PUSH2 0x2034 JUMP JUMPDEST PUSH4 0x4E487B71 PUSH1 0xE0 SHL PUSH0 MSTORE PUSH1 0x12 PUSH1 0x4 MSTORE PUSH1 0x24 PUSH0 REVERT JUMPDEST PUSH0 DUP3 PUSH2 0x2081 JUMPI PUSH2 0x2081 PUSH2 0x205F JUMP JUMPDEST POP DIV SWAP1 JUMP JUMPDEST PUSH0 PUSH1 0x20 DUP3 DUP5 SUB SLT ISZERO PUSH2 0x2096 JUMPI PUSH0 DUP1 REVERT JUMPDEST DUP2 MLOAD DUP1 ISZERO ISZERO DUP2 EQ PUSH2 0x1F89 JUMPI PUSH0 DUP1 REVERT JUMPDEST DUP1 DUP3 ADD DUP1 DUP3 GT ISZERO PUSH2 0x1FC6 JUMPI PUSH2 0x1FC6 PUSH2 0x2034 JUMP JUMPDEST PUSH0 PUSH1 0x20 DUP3 DUP5 SUB SLT ISZERO PUSH2 0x20C8 JUMPI PUSH0 DUP1 REVERT JUMPDEST DUP2 MLOAD PUSH2 0x1F89 DUP2 PUSH2 0x1F5A JUMP JUMPDEST PUSH1 0x40 DUP2 ADD PUSH2 0x20E1 DUP3 DUP6 PUSH2 0x1FA4 JUMP JUMPDEST PUSH2 0x1F89 PUSH1 0x20 DUP4 ADD DUP5 PUSH2 0x1FA4 JUMP JUMPDEST PUSH0 DUP3 PUSH2 0x20FC JUMPI PUSH2 0x20FC PUSH2 0x205F JUMP JUMPDEST POP MOD SWAP1 JUMP JUMPDEST DUP2 DUP2 SUB DUP2 DUP2 GT ISZERO PUSH2 0x1FC6 JUMPI PUSH2 0x1FC6 PUSH2 0x2034 JUMP INVALID LOG2 PUSH5 0x6970667358 0x22 SLT KECCAK256 0xB8 DUP12 0xA5 DUP11 0xBD 0xE1 0xC2 0xDD 0xC2 PUSH4 0x63961C49 ADDRESS CALLDATACOPY JUMPI 0xDD LOG0 0xB4 SWAP14 0xBD MOD 0xE1 0xC4 0xC7 0xBE PUSH19 0x5EFE719464736F6C6343000814003300000000 "},"methodIdentifiers":{"couponDate()":"c4fa96b0","cutOfTime()":"fd3b4442","getInvestorPayments(address)":"d927a606","getInvestorRedemptionPayments(address)":"1dd5fc63","getMaturityAmountForInvestor(address)":"683fffd5","getPaymentAmountForInvestor(address)":"69fb125e","getTotalMaturityAmount()":"9d5d5fa4","getTotalPaymentAmount()":"23bfa0f0","investorPayments(address)":"ccc5d7e9","investorRedemptionPayments(address)":"84cd8c86","nbDays()":"86d49f77","payingAgent()":"5e4795a9","paymentIdForInvest(address)":"532e91cc","paymentIdRedemptionForInvest(address)":"e505222b","recordDate()":"50cc4532","register()":"1aa3a008","rejectCoupon()":"f4bcf209","setCutOffTime(uint256,uint256)":"f68a3ab4","setDateAsCurrentCoupon()":"6969a06f","setNbDays(uint256)":"7c610024","status()":"200d2ed2","toggleCouponPayment(address)":"d64c0587","toggleRedemptionPayment(address)":"b77fea01"}}}}}