{
  "_format": "hh-sol-artifact-1",
  "contractName": "DiamondInit",
  "sourceName": "contracts/diamond/upgradeInitializers/DiamondInit.sol",
  "abi": [
    {
      "inputs": [],
      "name": "init",
      "outputs": [],
      "stateMutability": "nonpayable",
      "type": "function"
    }
  ],
  "bytecode": "0x608060405234801561000f575f80fd5b506101878061001d5f395ff3fe608060405234801561000f575f80fd5b5060043610610029575f3560e01c8063e1c7392a1461002d575b5f80fd5b61014f7fc8fcad8db84d3cc18b4c41d551ea0ee66dd599cde068d998e57d5e09332c131f6020527f699d9daa71b280d05a152715774afa0a81a312594b2d731d6b0b2552b7d6f69f8054600160ff1991821681179092557ff97e938d8af42f52387bb74b8b526fda8f184cc2aa534340a8d75a88fbecc77580548216831790557f65d510a5d8f7ef134ec444f7f34ee808c8eeb5177cdfd16be0c40fe1ab43369580548216831790557f5622121b47b8cd0120c4efe45dd5483242f54a3d49bd7679be565d47694918c380548216831790557f36372b07000000000000000000000000000000000000000000000000000000005f527f3fe8eca8c4732bba1a1e2dc171c7ce69438f01336042ef4c335fc2fa5a98e00280549091169091179055565b00fea264697066735822122095cc2ec1d0c0b73d05b4e2dd9831562bb035433502c167b6f8a04ed4e5a3eed964736f6c63430008140033",
  "linkReferences": {},
  "deployedLinkReferences": {}
}