{
  "_format": "hh-sol-artifact-1",
  "contractName": "CouponSnapshotManagement",
  "sourceName": "contracts/register/snapshot/CouponSnapshotManagement.sol",
  "abi": [
    {
      "inputs": [],
      "name": "ERC20Base__ApproveFromZeroAddress",
      "type": "error"
    },
    {
      "inputs": [],
      "name": "ERC20Base__ApproveToZeroAddress",
      "type": "error"
    },
    {
      "inputs": [],
      "name": "ERC20Base__BurnExceedsBalance",
      "type": "error"
    },
    {
      "inputs": [],
      "name": "ERC20Base__BurnFromZeroAddress",
      "type": "error"
    },
    {
      "inputs": [],
      "name": "ERC20Base__InsufficientAllowance",
      "type": "error"
    },
    {
      "inputs": [],
      "name": "ERC20Base__MintToZeroAddress",
      "type": "error"
    },
    {
      "inputs": [],
      "name": "ERC20Base__TransferExceedsBalance",
      "type": "error"
    },
    {
      "inputs": [],
      "name": "ERC20Base__TransferFromZeroAddress",
      "type": "error"
    },
    {
      "inputs": [],
      "name": "ERC20Base__TransferToZeroAddress",
      "type": "error"
    },
    {
      "inputs": [],
      "name": "ERC20Snapshot__SnapshotIdDoesNotExists",
      "type": "error"
    },
    {
      "inputs": [],
      "name": "ERC20Snapshot__SnapshotIdIsZero",
      "type": "error"
    },
    {
      "inputs": [],
      "name": "EnumerableSet__IndexOutOfBounds",
      "type": "error"
    },
    {
      "inputs": [],
      "name": "ReentrancyGuard__ReentrantCall",
      "type": "error"
    },
    {
      "inputs": [],
      "name": "UintUtils__InsufficientHexLength",
      "type": "error"
    },
    {
      "anonymous": false,
      "inputs": [
        {
          "indexed": true,
          "internalType": "address",
          "name": "_addressForNewAdmin",
          "type": "address"
        }
      ],
      "name": "AdminChanged",
      "type": "event"
    },
    {
      "anonymous": false,
      "inputs": [
        {
          "indexed": true,
          "internalType": "address",
          "name": "owner",
          "type": "address"
        },
        {
          "indexed": true,
          "internalType": "address",
          "name": "spender",
          "type": "address"
        },
        {
          "indexed": false,
          "internalType": "uint256",
          "name": "value",
          "type": "uint256"
        }
      ],
      "name": "Approval",
      "type": "event"
    },
    {
      "anonymous": false,
      "inputs": [
        {
          "indexed": true,
          "internalType": "bytes32",
          "name": "txId",
          "type": "bytes32"
        },
        {
          "indexed": true,
          "internalType": "address",
          "name": "from",
          "type": "address"
        },
        {
          "indexed": true,
          "internalType": "address",
          "name": "to",
          "type": "address"
        },
        {
          "indexed": false,
          "internalType": "bytes32",
          "name": "hL",
          "type": "bytes32"
        },
        {
          "indexed": false,
          "internalType": "enum ICouponSnapshotManagementInternal.LStatus",
          "name": "status",
          "type": "uint8"
        }
      ],
      "name": "AssetHTLC",
      "type": "event"
    },
    {
      "anonymous": false,
      "inputs": [
        {
          "indexed": false,
          "internalType": "bytes32",
          "name": "contractHash",
          "type": "bytes32"
        }
      ],
      "name": "DisableContract",
      "type": "event"
    },
    {
      "anonymous": false,
      "inputs": [
        {
          "indexed": false,
          "internalType": "address",
          "name": "investor",
          "type": "address"
        }
      ],
      "name": "DisableInvestor",
      "type": "event"
    },
    {
      "anonymous": false,
      "inputs": [
        {
          "indexed": false,
          "internalType": "bytes32",
          "name": "contractHash",
          "type": "bytes32"
        }
      ],
      "name": "EnableContract",
      "type": "event"
    },
    {
      "anonymous": false,
      "inputs": [
        {
          "indexed": false,
          "internalType": "address",
          "name": "investor",
          "type": "address"
        }
      ],
      "name": "EnableInvestor",
      "type": "event"
    },
    {
      "anonymous": false,
      "inputs": [
        {
          "indexed": false,
          "internalType": "uint64",
          "name": "version",
          "type": "uint64"
        }
      ],
      "name": "Initialized",
      "type": "event"
    },
    {
      "anonymous": false,
      "inputs": [
        {
          "indexed": true,
          "internalType": "address",
          "name": "creator",
          "type": "address"
        },
        {
          "indexed": false,
          "internalType": "string",
          "name": "name",
          "type": "string"
        },
        {
          "indexed": false,
          "internalType": "string",
          "name": "isin",
          "type": "string"
        }
      ],
      "name": "NewBondDrafted",
      "type": "event"
    },
    {
      "anonymous": false,
      "inputs": [
        {
          "indexed": true,
          "internalType": "address",
          "name": "sender",
          "type": "address"
        },
        {
          "indexed": true,
          "internalType": "address",
          "name": "target",
          "type": "address"
        },
        {
          "indexed": false,
          "internalType": "string",
          "name": "message",
          "type": "string"
        }
      ],
      "name": "PublicMessage",
      "type": "event"
    },
    {
      "anonymous": false,
      "inputs": [
        {
          "indexed": true,
          "internalType": "address",
          "name": "emiter",
          "type": "address"
        },
        {
          "indexed": false,
          "internalType": "string",
          "name": "name",
          "type": "string"
        },
        {
          "indexed": false,
          "internalType": "string",
          "name": "isin",
          "type": "string"
        },
        {
          "indexed": false,
          "internalType": "enum IRegisterMetadataInternal.Status",
          "name": "status",
          "type": "uint8"
        }
      ],
      "name": "RegisterStatusChanged",
      "type": "event"
    },
    {
      "anonymous": false,
      "inputs": [
        {
          "indexed": true,
          "internalType": "bytes32",
          "name": "role",
          "type": "bytes32"
        },
        {
          "indexed": true,
          "internalType": "bytes32",
          "name": "previousAdminRole",
          "type": "bytes32"
        },
        {
          "indexed": true,
          "internalType": "bytes32",
          "name": "newAdminRole",
          "type": "bytes32"
        }
      ],
      "name": "RoleAdminChanged",
      "type": "event"
    },
    {
      "anonymous": false,
      "inputs": [
        {
          "indexed": true,
          "internalType": "bytes32",
          "name": "role",
          "type": "bytes32"
        },
        {
          "indexed": true,
          "internalType": "address",
          "name": "account",
          "type": "address"
        },
        {
          "indexed": true,
          "internalType": "address",
          "name": "sender",
          "type": "address"
        }
      ],
      "name": "RoleGranted",
      "type": "event"
    },
    {
      "anonymous": false,
      "inputs": [
        {
          "indexed": true,
          "internalType": "bytes32",
          "name": "role",
          "type": "bytes32"
        },
        {
          "indexed": true,
          "internalType": "address",
          "name": "account",
          "type": "address"
        },
        {
          "indexed": true,
          "internalType": "address",
          "name": "sender",
          "type": "address"
        }
      ],
      "name": "RoleRevoked",
      "type": "event"
    },
    {
      "anonymous": false,
      "inputs": [
        {
          "indexed": false,
          "internalType": "uint256",
          "name": "id",
          "type": "uint256"
        }
      ],
      "name": "Snapshot",
      "type": "event"
    },
    {
      "anonymous": false,
      "inputs": [
        {
          "indexed": true,
          "internalType": "uint256",
          "name": "couponDate",
          "type": "uint256"
        },
        {
          "indexed": true,
          "internalType": "uint256",
          "name": "currentTimestamp",
          "type": "uint256"
        },
        {
          "indexed": true,
          "internalType": "uint256",
          "name": "nextTimestamp",
          "type": "uint256"
        }
      ],
      "name": "SnapshotTimestampChange",
      "type": "event"
    },
    {
      "anonymous": false,
      "inputs": [
        {
          "indexed": true,
          "internalType": "address",
          "name": "from",
          "type": "address"
        },
        {
          "indexed": true,
          "internalType": "address",
          "name": "to",
          "type": "address"
        },
        {
          "indexed": false,
          "internalType": "uint256",
          "name": "value",
          "type": "uint256"
        }
      ],
      "name": "Transfer",
      "type": "event"
    },
    {
      "anonymous": false,
      "inputs": [
        {
          "indexed": true,
          "internalType": "address",
          "name": "toBeAdded",
          "type": "address"
        }
      ],
      "name": "WalletAddedToWhitelist",
      "type": "event"
    },
    {
      "anonymous": false,
      "inputs": [
        {
          "indexed": true,
          "internalType": "address",
          "name": "toBeDeleted",
          "type": "address"
        }
      ],
      "name": "WalletDeletedFromWhitelist",
      "type": "event"
    },
    {
      "inputs": [],
      "name": "BND_ROLE",
      "outputs": [
        {
          "internalType": "bytes32",
          "name": "",
          "type": "bytes32"
        }
      ],
      "stateMutability": "view",
      "type": "function"
    },
    {
      "inputs": [],
      "name": "CAK_ROLE",
      "outputs": [
        {
          "internalType": "bytes32",
          "name": "",
          "type": "bytes32"
        }
      ],
      "stateMutability": "view",
      "type": "function"
    },
    {
      "inputs": [],
      "name": "CST_ROLE",
      "outputs": [
        {
          "internalType": "bytes32",
          "name": "",
          "type": "bytes32"
        }
      ],
      "stateMutability": "view",
      "type": "function"
    },
    {
      "inputs": [],
      "name": "PAY_ROLE",
      "outputs": [
        {
          "internalType": "bytes32",
          "name": "",
          "type": "bytes32"
        }
      ],
      "stateMutability": "view",
      "type": "function"
    },
    {
      "inputs": [
        {
          "internalType": "uint256",
          "name": "_couponDate",
          "type": "uint256"
        }
      ],
      "name": "_totalSupplyAtCoupon",
      "outputs": [
        {
          "internalType": "uint256",
          "name": "",
          "type": "uint256"
        }
      ],
      "stateMutability": "view",
      "type": "function"
    },
    {
      "inputs": [
        {
          "internalType": "address",
          "name": "holder",
          "type": "address"
        },
        {
          "internalType": "address",
          "name": "spender",
          "type": "address"
        }
      ],
      "name": "allowance",
      "outputs": [
        {
          "internalType": "uint256",
          "name": "",
          "type": "uint256"
        }
      ],
      "stateMutability": "view",
      "type": "function"
    },
    {
      "inputs": [
        {
          "internalType": "address",
          "name": "",
          "type": "address"
        },
        {
          "internalType": "uint256",
          "name": "",
          "type": "uint256"
        }
      ],
      "name": "approve",
      "outputs": [
        {
          "internalType": "bool",
          "name": "",
          "type": "bool"
        }
      ],
      "stateMutability": "nonpayable",
      "type": "function"
    },
    {
      "inputs": [
        {
          "internalType": "address",
          "name": "account",
          "type": "address"
        }
      ],
      "name": "balanceOf",
      "outputs": [
        {
          "internalType": "uint256",
          "name": "",
          "type": "uint256"
        }
      ],
      "stateMutability": "view",
      "type": "function"
    },
    {
      "inputs": [
        {
          "internalType": "address",
          "name": "account",
          "type": "address"
        },
        {
          "internalType": "uint256",
          "name": "snapshotId",
          "type": "uint256"
        }
      ],
      "name": "balanceOfAt",
      "outputs": [
        {
          "internalType": "uint256",
          "name": "",
          "type": "uint256"
        }
      ],
      "stateMutability": "view",
      "type": "function"
    },
    {
      "inputs": [
        {
          "internalType": "address",
          "name": "account",
          "type": "address"
        },
        {
          "internalType": "uint256",
          "name": "_couponDate",
          "type": "uint256"
        }
      ],
      "name": "balanceOfCoupon",
      "outputs": [
        {
          "internalType": "uint256",
          "name": "",
          "type": "uint256"
        }
      ],
      "stateMutability": "view",
      "type": "function"
    },
    {
      "inputs": [
        {
          "internalType": "uint256",
          "name": "amount_",
          "type": "uint256"
        }
      ],
      "name": "burn",
      "outputs": [],
      "stateMutability": "nonpayable",
      "type": "function"
    },
    {
      "inputs": [],
      "name": "currentCouponDate",
      "outputs": [
        {
          "internalType": "uint256",
          "name": "",
          "type": "uint256"
        }
      ],
      "stateMutability": "view",
      "type": "function"
    },
    {
      "inputs": [],
      "name": "currentSnapshotDatetime",
      "outputs": [
        {
          "internalType": "uint256",
          "name": "",
          "type": "uint256"
        }
      ],
      "stateMutability": "view",
      "type": "function"
    },
    {
      "inputs": [],
      "name": "decimals",
      "outputs": [
        {
          "internalType": "uint8",
          "name": "",
          "type": "uint8"
        }
      ],
      "stateMutability": "view",
      "type": "function"
    },
    {
      "inputs": [
        {
          "internalType": "address",
          "name": "",
          "type": "address"
        },
        {
          "internalType": "uint256",
          "name": "",
          "type": "uint256"
        }
      ],
      "name": "decreaseAllowance",
      "outputs": [
        {
          "internalType": "bool",
          "name": "",
          "type": "bool"
        }
      ],
      "stateMutability": "nonpayable",
      "type": "function"
    },
    {
      "inputs": [
        {
          "internalType": "uint256",
          "name": "CouponDate",
          "type": "uint256"
        }
      ],
      "name": "getInvestorListAtCoupon",
      "outputs": [
        {
          "internalType": "address[]",
          "name": "",
          "type": "address[]"
        }
      ],
      "stateMutability": "view",
      "type": "function"
    },
    {
      "inputs": [
        {
          "internalType": "bytes32",
          "name": "role",
          "type": "bytes32"
        }
      ],
      "name": "getRoleAdmin",
      "outputs": [
        {
          "internalType": "bytes32",
          "name": "",
          "type": "bytes32"
        }
      ],
      "stateMutability": "view",
      "type": "function"
    },
    {
      "inputs": [
        {
          "internalType": "bytes32",
          "name": "role",
          "type": "bytes32"
        },
        {
          "internalType": "uint256",
          "name": "index",
          "type": "uint256"
        }
      ],
      "name": "getRoleMember",
      "outputs": [
        {
          "internalType": "address",
          "name": "",
          "type": "address"
        }
      ],
      "stateMutability": "view",
      "type": "function"
    },
    {
      "inputs": [
        {
          "internalType": "bytes32",
          "name": "role",
          "type": "bytes32"
        }
      ],
      "name": "getRoleMemberCount",
      "outputs": [
        {
          "internalType": "uint256",
          "name": "",
          "type": "uint256"
        }
      ],
      "stateMutability": "view",
      "type": "function"
    },
    {
      "inputs": [
        {
          "internalType": "bytes32",
          "name": "role",
          "type": "bytes32"
        },
        {
          "internalType": "address",
          "name": "account",
          "type": "address"
        }
      ],
      "name": "grantRole",
      "outputs": [],
      "stateMutability": "nonpayable",
      "type": "function"
    },
    {
      "inputs": [
        {
          "internalType": "bytes32",
          "name": "role",
          "type": "bytes32"
        },
        {
          "internalType": "address",
          "name": "account",
          "type": "address"
        }
      ],
      "name": "hasRole",
      "outputs": [
        {
          "internalType": "bool",
          "name": "",
          "type": "bool"
        }
      ],
      "stateMutability": "view",
      "type": "function"
    },
    {
      "inputs": [
        {
          "internalType": "address",
          "name": "",
          "type": "address"
        },
        {
          "internalType": "uint256",
          "name": "",
          "type": "uint256"
        }
      ],
      "name": "increaseAllowance",
      "outputs": [
        {
          "internalType": "bool",
          "name": "",
          "type": "bool"
        }
      ],
      "stateMutability": "nonpayable",
      "type": "function"
    },
    {
      "inputs": [
        {
          "internalType": "address",
          "name": "forwarder",
          "type": "address"
        }
      ],
      "name": "isTrustedForwarder",
      "outputs": [
        {
          "internalType": "bool",
          "name": "",
          "type": "bool"
        }
      ],
      "stateMutability": "view",
      "type": "function"
    },
    {
      "inputs": [
        {
          "internalType": "address",
          "name": "from",
          "type": "address"
        },
        {
          "internalType": "address",
          "name": "to",
          "type": "address"
        },
        {
          "internalType": "uint256",
          "name": "amount",
          "type": "uint256"
        },
        {
          "internalType": "bytes32",
          "name": "txId",
          "type": "bytes32"
        },
        {
          "internalType": "bytes32",
          "name": "hL",
          "type": "bytes32"
        },
        {
          "internalType": "bytes32",
          "name": "hR",
          "type": "bytes32"
        },
        {
          "internalType": "bytes32",
          "name": "hC",
          "type": "bytes32"
        },
        {
          "internalType": "uint256",
          "name": "pDate",
          "type": "uint256"
        },
        {
          "internalType": "uint256",
          "name": "dDate",
          "type": "uint256"
        },
        {
          "internalType": "bytes32",
          "name": "proof",
          "type": "bytes32"
        }
      ],
      "name": "lock",
      "outputs": [],
      "stateMutability": "nonpayable",
      "type": "function"
    },
    {
      "inputs": [
        {
          "internalType": "uint256",
          "name": "amount_",
          "type": "uint256"
        }
      ],
      "name": "mint",
      "outputs": [],
      "stateMutability": "nonpayable",
      "type": "function"
    },
    {
      "inputs": [],
      "name": "name",
      "outputs": [
        {
          "internalType": "string",
          "name": "",
          "type": "string"
        }
      ],
      "stateMutability": "view",
      "type": "function"
    },
    {
      "inputs": [],
      "name": "nextSnapshotDatetime",
      "outputs": [
        {
          "internalType": "uint256",
          "name": "",
          "type": "uint256"
        }
      ],
      "stateMutability": "view",
      "type": "function"
    },
    {
      "inputs": [
        {
          "internalType": "bytes32",
          "name": "txId",
          "type": "bytes32"
        },
        {
          "internalType": "bytes32",
          "name": "secret",
          "type": "bytes32"
        },
        {
          "internalType": "bytes32",
          "name": "proof",
          "type": "bytes32"
        },
        {
          "internalType": "enum ICouponSnapshotManagementInternal.LStatus",
          "name": "status_",
          "type": "uint8"
        }
      ],
      "name": "release",
      "outputs": [],
      "stateMutability": "nonpayable",
      "type": "function"
    },
    {
      "inputs": [
        {
          "internalType": "bytes32",
          "name": "role",
          "type": "bytes32"
        }
      ],
      "name": "renounceRole",
      "outputs": [],
      "stateMutability": "nonpayable",
      "type": "function"
    },
    {
      "inputs": [
        {
          "internalType": "bytes32",
          "name": "role",
          "type": "bytes32"
        },
        {
          "internalType": "address",
          "name": "account",
          "type": "address"
        }
      ],
      "name": "revokeRole",
      "outputs": [],
      "stateMutability": "nonpayable",
      "type": "function"
    },
    {
      "inputs": [],
      "name": "symbol",
      "outputs": [
        {
          "internalType": "string",
          "name": "",
          "type": "string"
        }
      ],
      "stateMutability": "view",
      "type": "function"
    },
    {
      "inputs": [],
      "name": "totalSupply",
      "outputs": [
        {
          "internalType": "uint256",
          "name": "",
          "type": "uint256"
        }
      ],
      "stateMutability": "view",
      "type": "function"
    },
    {
      "inputs": [
        {
          "internalType": "uint256",
          "name": "snapshotId",
          "type": "uint256"
        }
      ],
      "name": "totalSupplyAt",
      "outputs": [
        {
          "internalType": "uint256",
          "name": "",
          "type": "uint256"
        }
      ],
      "stateMutability": "view",
      "type": "function"
    },
    {
      "inputs": [
        {
          "internalType": "uint256",
          "name": "_couponDate",
          "type": "uint256"
        }
      ],
      "name": "totalSupplyAtCoupon",
      "outputs": [
        {
          "internalType": "uint256",
          "name": "",
          "type": "uint256"
        }
      ],
      "stateMutability": "view",
      "type": "function"
    },
    {
      "inputs": [
        {
          "internalType": "address",
          "name": "",
          "type": "address"
        },
        {
          "internalType": "uint256",
          "name": "",
          "type": "uint256"
        }
      ],
      "name": "transfer",
      "outputs": [
        {
          "internalType": "bool",
          "name": "",
          "type": "bool"
        }
      ],
      "stateMutability": "nonpayable",
      "type": "function"
    },
    {
      "inputs": [
        {
          "internalType": "address",
          "name": "from_",
          "type": "address"
        },
        {
          "internalType": "address",
          "name": "to_",
          "type": "address"
        },
        {
          "internalType": "uint256",
          "name": "amount_",
          "type": "uint256"
        }
      ],
      "name": "transferFrom",
      "outputs": [
        {
          "internalType": "bool",
          "name": "",
          "type": "bool"
        }
      ],
      "stateMutability": "nonpayable",
      "type": "function"
    },
    {
      "inputs": [],
      "name": "trustedForwarder",
      "outputs": [
        {
          "internalType": "address",
          "name": "",
          "type": "address"
        }
      ],
      "stateMutability": "view",
      "type": "function"
    }
  ],
  "bytecode": "0x608060405234801561001057600080fd5b506137e7806100206000396000f3fe608060405234801561001057600080fd5b50600436106102775760003560e01c80637c5d728a116101605780639ef986de116100d8578063cf5b36281161008c578063dd62ed3e11610071578063dd62ed3e14610582578063e5bf6dc814610595578063eeb4cee91461059d57600080fd5b8063cf5b36281461055c578063d547741f1461056f57600080fd5b8063a457c2d7116100bd578063a457c2d714610523578063a9059cbb14610536578063ca15c8731461054957600080fd5b80639ef986de14610508578063a0712d681461051057600080fd5b80638bb9c5bf1161012f57806391d148541161011457806391d14854146104da57806395d89b41146104ed578063981b24d0146104f557600080fd5b80638bb9c5bf146104b45780639010d07c146104c757600080fd5b80637c5d728a146104355780637cc7bcce146104485780637da0a877146104685780638865f1e21461048d57600080fd5b80632f2ff15d116101f35780633e0abded116101c25780634ee2cd7e116101a75780634ee2cd7e146103fc578063572b6c051461040f57806370a082311461042257600080fd5b80633e0abded146103d657806342966c68146103e957600080fd5b80632f2ff15d1461036f578063313ce56714610382578063395093511461039c5780633bf2a9f4146103af57600080fd5b806318160ddd1161024a57806323b872dd1161022f57806323b872dd14610322578063248a9ca3146103355780632682ac911461034857600080fd5b806318160ddd146102f35780631c67a363146102fb57600080fd5b806306fdde031461027c578063074790791461029a57806307b2d9e3146102af578063095ea7b3146102d0575b600080fd5b6102846105a5565b6040516102919190613250565b60405180910390f35b6102ad6102a836600461329f565b6105b4565b005b6102c26102bd366004613319565b6105d2565b604051908152602001610291565b6102e36102de366004613319565b6105e7565b6040519015158152602001610291565b6102c2610637565b6102c27f6ba6f588bcdc2df8426603a466c98ab15e79f7fb7f37b53581ce39c1d01b724981565b6102e3610330366004613343565b610661565b6102c261034336600461337f565b610678565b6102c27ff698af62c65280e4949bceec64b760f3b7738217cbc536cdfc4c9463676b05c281565b6102ad61037d366004613398565b6106ae565b61038a6106f7565b60405160ff9091168152602001610291565b6102e36103aa366004613319565b610724565b6102c27fd7aa2ddfa4e381128202bf365b7e0a176f2fca6cdf2f23c2b0a6f4393769589081565b6102c26103e436600461337f565b61076f565b6102ad6103f736600461337f565b6107fd565b6102c261040a366004613319565b610811565b6102e361041d3660046133c4565b61081d565b6102c26104303660046133c4565b610834565b6102ad6104433660046133df565b610871565b61045b61045636600461337f565b610883565b6040516102919190613424565b6000546001600160a01b03165b6040516001600160a01b039091168152602001610291565b6102c27fa75205b8583660bdad375c0ccde11af17668d76a408a9a5e739251b0f7c5987081565b6102ad6104c236600461337f565b61088e565b6104756104d5366004613471565b610897565b6102e36104e8366004613398565b6108a3565b6102846108af565b6102c261050336600461337f565b6108b9565b6102c26108c4565b6102ad61051e36600461337f565b6108ee565b6102e3610531366004613319565b6108f7565b6102e3610544366004613319565b610942565b6102c261055736600461337f565b61098d565b6102c261056a36600461337f565b610998565b6102ad61057d366004613398565b6109a3565b6102c2610590366004613493565b6109e7565b6102c2610a33565b6102c2610a5d565b60606105af610a87565b905090565b6105c68a8a8a8a8a8a8a8a8a8a610b38565b50505050505050505050565b60006105de8383610f2e565b90505b92915050565b60405162461bcd60e51b815260206004820152601360248201527f617070726f76652069732064697361626c65640000000000000000000000000060448201526000906064015b60405180910390fd5b60006105af7fbbbdc1476a0878f2ef9a893c81f5b6f6ea1b3acaf18ff47ccb69cd4267d50c885490565b600061066e848484610fd4565b90505b9392505050565b60008181527f2e59e4c2e927cdddbb64e181e0668d9a0fa70dd88f94d999cd87d5496a20da6260205260408120600201546105e1565b60008281527f2e59e4c2e927cdddbb64e181e0668d9a0fa70dd88f94d999cd87d5496a20da6260205260409020600201546106e881611445565b6106f28383611456565b505050565b60006105af7f8c998f45074727a62053813302c526655913012298b223f931495bf68495bf685460ff1690565b60405162461bcd60e51b815260206004820152601d60248201527f696e637265617365416c6c6f77616e63652069732064697361626c6564000000604482015260009060640161062e565b60008181527f95d8298a3d25370298f52eb5e4c2caa68ca2492c02741ad9ada9443a021d759160205260408120547f95d8298a3d25370298f52eb5e4c2caa68ca2492c02741ad9ada9443a021d758d9080156107d6576107ce81611617565b949350505050565b7fbbbdc1476a0878f2ef9a893c81f5b6f6ea1b3acaf18ff47ccb69cd4267d50c88546107ce565b61080e610808611675565b8261167f565b50565b60006105de83836117bd565b600080546001600160a01b038381169116146105e1565b6001600160a01b03811660009081527fbbbdc1476a0878f2ef9a893c81f5b6f6ea1b3acaf18ff47ccb69cd4267d50c8660205260408120546105e1565b61087d84848484611855565b50505050565b60606105e182611c33565b61080e81611e19565b60006105de8383611e2a565b60006105de8383611e61565b60606105af611e98565b60006105e182611617565b60006105af7f95d8298a3d25370298f52eb5e4c2caa68ca2492c02741ad9ada9443a021d758d5490565b61080e81611ec9565b60405162461bcd60e51b815260206004820152601d60248201527f6465637265617365416c6c6f77616e63652069732064697361626c6564000000604482015260009060640161062e565b60405162461bcd60e51b815260206004820152601460248201527f7472616e736665722069732064697361626c6564000000000000000000000000604482015260009060640161062e565b60006105e182612018565b60006105e18261076f565b60008281527f2e59e4c2e927cdddbb64e181e0668d9a0fa70dd88f94d999cd87d5496a20da6260205260409020600201546109dd81611445565b6106f2838361204e565b6001600160a01b0380831660009081527fbbbdc1476a0878f2ef9a893c81f5b6f6ea1b3acaf18ff47ccb69cd4267d50c87602090815260408083209385168352929052908120546105de565b60006105af7f95d8298a3d25370298f52eb5e4c2caa68ca2492c02741ad9ada9443a021d758f5490565b60006105af7f95d8298a3d25370298f52eb5e4c2caa68ca2492c02741ad9ada9443a021d758e5490565b60607f8c998f45074727a62053813302c526655913012298b223f931495bf68495bf668054610ab5906134bd565b80601f0160208091040260200160405190810160405280929190818152602001828054610ae1906134bd565b8015610b2e5780601f10610b0357610100808354040283529160200191610b2e565b820191906000526020600020905b815481529060010190602001808311610b1157829003601f168201915b5050505050905090565b610b627fa75205b8583660bdad375c0ccde11af17668d76a408a9a5e739251b0f7c5987033611e61565b80610b925750610b927ff698af62c65280e4949bceec64b760f3b7738217cbc536cdfc4c9463676b05c233611e61565b80610bd257503360009081527f332cf6b129284e49df93f4be38bb1959bb5fa7d7d0ce3d4ad668f566f35f6fd56020526040902054600160a01b900460ff165b80610be15750610be1336121f9565b610c1d5760405162461bcd60e51b815260206004820152600d60248201526c1058d8d95cdcc811195b9a5959609a1b604482015260640161062e565b60008781527f95d8298a3d25370298f52eb5e4c2caa68ca2492c02741ad9ada9443a021d759360205260408120600a01547f95d8298a3d25370298f52eb5e4c2caa68ca2492c02741ad9ada9443a021d758d9160ff90911690816004811115610c8857610c886134f7565b148015610cf057506001600160a01b038c166000908152600583016020526040902054610cb5908b613523565b6001600160a01b038d1660009081527fbbbdc1476a0878f2ef9a893c81f5b6f6ea1b3acaf18ff47ccb69cd4267d50c86602052604090205410155b8015610cfb57504285115b8015610d075750848410155b610d535760405162461bcd60e51b815260206004820152600c60248201527f496e76616c696420646174650000000000000000000000000000000000000000604482015260640161062e565b6001600160a01b038c166000908152600583016020526040812080548c9290610d7d908490613523565b925050819055506040518061016001604052808d6001600160a01b031681526020018c6001600160a01b031681526020018b81526020018a815260200189815260200188815260200187815260200186815260200185815260200184815260200160016004811115610df157610df16134f7565b905260008a815260068085016020908152604092839020845181546001600160a01b0391821673ffffffffffffffffffffffffffffffffffffffff199182161783559286015160018084018054929093169190941617905592840151600284015560608401516003840155608084015160048085019190915560a0850151600585015560c08501519284019290925560e0840151600784015561010084015160088401556101208401516009840155610140840151600a840180549193909260ff1990921691908490811115610ec957610ec96134f7565b02179055509050508a6001600160a01b03168c6001600160a01b03168a7f04534360b58fb9f50d72d53f647fb2bba1ea9367c2dfebc1a40179968b6e043b8b6001604051610f18929190613554565b60405180910390a4505050505050505050505050565b60008181527f95d8298a3d25370298f52eb5e4c2caa68ca2492c02741ad9ada9443a021d759160205260408120547f95d8298a3d25370298f52eb5e4c2caa68ca2492c02741ad9ada9443a021d758d908015610f9757610f8e85826117bd565b925050506105e1565b6001600160a01b03851660009081527fbbbdc1476a0878f2ef9a893c81f5b6f6ea1b3acaf18ff47ccb69cd4267d50c866020526040902054610f8e565b60007fe02854d75ca0f6b56099fb1e1546a75ef76f441f4e6082f2e3cbb1e8dc5591a06110217fa75205b8583660bdad375c0ccde11af17668d76a408a9a5e739251b0f7c5987033611e61565b1561103c57611031858585612240565b506001915050610671565b611045336121f9565b6110915760405162461bcd60e51b815260206004820181905260248201527f5468697320636f6e7472616374206973206e6f742077686974656c6973746564604482015260640161062e565b6004815460ff1660048111156110a9576110a96134f7565b0361111c5760405162461bcd60e51b815260206004820152603360248201527f4e6f207472616e736665722063616e20626520646f6e65207768656e2074686560448201527f2072656769737465722069732046726f7a656e00000000000000000000000000606482015260840161062e565b6001815460ff166004811115611134576111346134f7565b14801561116657506111667ff698af62c65280e4949bceec64b760f3b7738217cbc536cdfc4c9463676b05c285611e61565b80156111815750600c8101546001600160a01b038681169116145b156112d8578054600260ff19909116811782557f332cf6b129284e49df93f4be38bb1959bb5fa7d7d0ce3d4ad668f566f35f6fd4805460018181019092557f3b5a704516de56a4fa30eb29b0bf899a47de4e07d715ffde30cee9d593da4416810180546001600160a01b03891673ffffffffffffffffffffffffffffffffffffffff19918216811790925560008281527f332cf6b129284e49df93f4be38bb1959bb5fa7d7d0ce3d4ad668f566f35f6fd56020526040902093840192909255825493830180549092169091557fffffffffffffffffffffff000000000000000000000000000000000000000000909216909117905561127e611675565b81546040516001600160a01b0392909216917fda2010acfda7a262372331cb3b57e3f648f63eb009a423a2b5602cfa4f9bff51916112cb916001860191600287019160ff90911690613615565b60405180910390a261143a565b611320846001600160a01b031660009081527f332cf6b129284e49df93f4be38bb1959bb5fa7d7d0ce3d4ad668f566f35f6fd56020526040902054600160a01b900460ff1690565b15156001146113715760405162461bcd60e51b815260206004820152601b60248201527f546865207265636569766572206973206e6f7420616c6c6f7765640000000000604482015260640161062e565b6113b9856001600160a01b031660009081527f332cf6b129284e49df93f4be38bb1959bb5fa7d7d0ce3d4ad668f566f35f6fd56020526040902054600160a01b900460ff1690565b1515600114806113ee57506113ee7ff698af62c65280e4949bceec64b760f3b7738217cbc536cdfc4c9463676b05c286611e61565b61143a5760405162461bcd60e51b815260206004820152601960248201527f5468652073656e646572206973206e6f7420616c6c6f77656400000000000000604482015260640161062e565b611031858585612240565b61080e81611451611675565b6123d9565b816114b45760405162461bcd60e51b8152602060048201526024808201527f5573652066756e6374696f6e206368616e676541646d696e526f6c6520696e736044820152631d19585960e21b606482015260840161062e565b611609565b7fa75205b8583660bdad375c0ccde11af17668d76a408a9a5e739251b0f7c5987082036115915761150c7fa75205b8583660bdad375c0ccde11af17668d76a408a9a5e739251b0f7c59870611507611675565b611e61565b8061151f575061151f6000611507611675565b6114af5760405162461bcd60e51b815260206004820152602e60248201527f43616c6c6572206d7573742062652043414b206f722041444d494e20746f207360448201527f657420616e6f746865722043414b000000000000000000000000000000000000606482015260840161062e565b6115bd7fa75205b8583660bdad375c0ccde11af17668d76a408a9a5e739251b0f7c59870611507611675565b6116095760405162461bcd60e51b815260206004820181905260248201527f43616c6c6572206d7573742062652043414b20746f20736574206120726f6c65604482015260640161062e565b611613828261243b565b5050565b60008080611645847fcd7a55ef023eb5931cc022a9bdc64cb5b46c3a6e53bcaa84915eea6084f1c7b56124bf565b9150915081610671577fbbbdc1476a0878f2ef9a893c81f5b6f6ea1b3acaf18ff47ccb69cd4267d50c88546107ce565b60006105af6125ce565b6001600160a01b0382166116bf576040517ff1e2c4ee00000000000000000000000000000000000000000000000000000000815260040160405180910390fd5b6116cb82600083612601565b6001600160a01b03821660009081527fbbbdc1476a0878f2ef9a893c81f5b6f6ea1b3acaf18ff47ccb69cd4267d50c86602081905260409091205480831115611740576040517fb1d35b2300000000000000000000000000000000000000000000000000000000815260040160405180910390fd5b6001600160a01b03841660009081526020839052604081208483039055600283018054859290611771908490613654565b90915550506040518381526000906001600160a01b038616907fddf252ad1be2c89b69c2b068fc378daa952ba7f163c4a11628f55a4df523b3ef9060200160405180910390a350505050565b60008080611804847fcd7a55ef023eb5931cc022a9bdc64cb5b46c3a6e53bcaa84915eea6084f1c7b46001600160a01b0388166000908152602091909152604090206124bf565b915091508161184a576001600160a01b03851660009081527fbbbdc1476a0878f2ef9a893c81f5b6f6ea1b3acaf18ff47ccb69cd4267d50c86602052604090205461184c565b805b95945050505050565b61187f7fa75205b8583660bdad375c0ccde11af17668d76a408a9a5e739251b0f7c5987033611e61565b806118af57506118af7ff698af62c65280e4949bceec64b760f3b7738217cbc536cdfc4c9463676b05c233611e61565b806118ef57503360009081527f332cf6b129284e49df93f4be38bb1959bb5fa7d7d0ce3d4ad668f566f35f6fd56020526040902054600160a01b900460ff165b806118fe57506118fe336121f9565b61193a5760405162461bcd60e51b815260206004820152600d60248201526c1058d8d95cdcc811195b9a5959609a1b604482015260640161062e565b60008481527f95d8298a3d25370298f52eb5e4c2caa68ca2492c02741ad9ada9443a021d759360205260409020600a8101547f95d8298a3d25370298f52eb5e4c2caa68ca2492c02741ad9ada9443a021d758d919060019060ff1660048111156119a6576119a66134f7565b146119f35760405162461bcd60e51b815260206004820152600e60248201527f496e76616c696420537461747573000000000000000000000000000000000000604482015260640161062e565b6000806002856004811115611a0a57611a0a6134f7565b03611a1d57505060048101546000611a6d565b6003856004811115611a3157611a316134f7565b03611a4757505060058101546008820154611a6d565b6004856004811115611a5b57611a5b6134f7565b03611a6d575050600681015460078201545b81600288604051602001611a8391815260200190565b60408051601f1981840301815290829052611a9d91613667565b602060405180830381855afa158015611aba573d6000803e3d6000fd5b5050506040513d601f19601f82011682018060405250810190611add9190613683565b148015611ae957508042115b611b355760405162461bcd60e51b815260206004820152600e60248201527f496e76616c696420536563726574000000000000000000000000000000000000604482015260640161062e565b600a8301805486919060ff19166001836004811115611b5657611b566134f7565b021790555060098301869055600283015483546001600160a01b0316600090815260058601602052604081208054909190611b92908490613654565b9091555060049050856004811115611bac57611bac6134f7565b14611bd657825460018401546002850154611bd4926001600160a01b03908116921690612240565b505b600183015483546040516001600160a01b0392831692909116908a907f04534360b58fb9f50d72d53f647fb2bba1ea9367c2dfebc1a40179968b6e043b90611c21908c908b90613554565b60405180910390a45050505050505050565b7f332cf6b129284e49df93f4be38bb1959bb5fa7d7d0ce3d4ad668f566f35f6fd480546060919060009067ffffffffffffffff811115611c7557611c7561369c565b604051908082528060200260200182016040528015611c9e578160200160208202803683370190505b5090506000805b8354811015611d66576000611ce3856000018381548110611cc857611cc86136b2565b6000918252602090912001546001600160a01b031688610f2e565b1115611d5457836000018181548110611cfe57611cfe6136b2565b9060005260206000200160009054906101000a90046001600160a01b0316838381518110611d2e57611d2e6136b2565b6001600160a01b039092166020928302919091019091015281611d50816136c8565b9250505b80611d5e816136c8565b915050611ca5565b5060008167ffffffffffffffff811115611d8257611d8261369c565b604051908082528060200260200182016040528015611dab578160200160208202803683370190505b50905060005b82811015611e0f57838181518110611dcb57611dcb6136b2565b6020026020010151828281518110611de557611de56136b2565b6001600160a01b039092166020928302919091019091015280611e07816136c8565b915050611db1565b5095945050505050565b61080e81611e25611675565b61204e565b60008281527f2e59e4c2e927cdddbb64e181e0668d9a0fa70dd88f94d999cd87d5496a20da62602052604081206105de90836128b2565b60008281527f2e59e4c2e927cdddbb64e181e0668d9a0fa70dd88f94d999cd87d5496a20da62602052604081206105de90836128be565b60607f8c998f45074727a62053813302c526655913012298b223f931495bf68495bf666001018054610ab5906134bd565b611ef57fa75205b8583660bdad375c0ccde11af17668d76a408a9a5e739251b0f7c59870611507611675565b611f415760405162461bcd60e51b815260206004820152601260248201527f43616c6c6572206d7573742062652043414b0000000000000000000000000000604482015260640161062e565b7fe02854d75ca0f6b56099fb1e1546a75ef76f441f4e6082f2e3cbb1e8dc5591ac547fe02854d75ca0f6b56099fb1e1546a75ef76f441f4e6082f2e3cbb1e8dc5591a0906001600160a01b03166120005760405162461bcd60e51b815260206004820152602660248201527f596f75206d7573742073657420746865206d696e74207265636569766572206160448201527f6464726573730000000000000000000000000000000000000000000000000000606482015260840161062e565b600c810154611613906001600160a01b0316836128e0565b60008181527f2e59e4c2e927cdddbb64e181e0668d9a0fa70dd88f94d999cd87d5496a20da62602052604081206105e1906129f9565b816120a75760405162461bcd60e51b8152602060048201526024808201527f5573652066756e6374696f6e206368616e676541646d696e526f6c6520696e736044820152631d19585960e21b606482015260840161062e565b7fa75205b8583660bdad375c0ccde11af17668d76a408a9a5e739251b0f7c598708203612151576120db6000611507611675565b61214c5760405162461bcd60e51b8152602060048201526024808201527f43616c6c6572206d7573742062652041444d494e20746f2072656d6f7665206160448201527f2043414b00000000000000000000000000000000000000000000000000000000606482015260840161062e565b6121ef565b61217d7fa75205b8583660bdad375c0ccde11af17668d76a408a9a5e739251b0f7c59870611507611675565b6121ef5760405162461bcd60e51b815260206004820152602360248201527f43616c6c6572206d7573742062652043414b20746f2072656d6f76652061207260448201527f6f6c650000000000000000000000000000000000000000000000000000000000606482015260840161062e565b6116138282612a03565b60007f3ab46f175c5f1d1c97765e87ec0d68e6241fafc1b077d060ce0c29744cd3616d8161222684612a87565b600090815260209290925250604090205460ff1692915050565b60006001600160a01b038416612282576040517f68551d5f00000000000000000000000000000000000000000000000000000000815260040160405180910390fd5b6001600160a01b0383166122c2576040517f8289914400000000000000000000000000000000000000000000000000000000815260040160405180910390fd5b6122cd848484612601565b6001600160a01b03841660009081527fbbbdc1476a0878f2ef9a893c81f5b6f6ea1b3acaf18ff47ccb69cd4267d50c86602081905260409091205480841115612342576040517f7183160b00000000000000000000000000000000000000000000000000000000815260040160405180910390fd5b6001600160a01b03808716600090815260208490526040808220878503905591871681529081208054869290612379908490613523565b92505081905550846001600160a01b0316866001600160a01b03167fddf252ad1be2c89b69c2b068fc378daa952ba7f163c4a11628f55a4df523b3ef866040516123c591815260200190565b60405180910390a350600195945050505050565b6123e38282611e61565b611613576123f9816001600160a01b0316612ab8565b612404836020612aca565b6040516020016124159291906136e1565b60408051601f198184030181529082905262461bcd60e51b825261062e91600401613250565b60008281527f2e59e4c2e927cdddbb64e181e0668d9a0fa70dd88f94d999cd87d5496a20da62602052604090206124729082612c7b565b5061247b611675565b6001600160a01b0316816001600160a01b0316837f2f8788117e7eff1d82e926ec794901d17c78024a50270940304540a733656f0d60405160405180910390a45050565b600080836000036124fc576040517f6e6ae24700000000000000000000000000000000000000000000000000000000815260040160405180910390fd5b7fcd7a55ef023eb5931cc022a9bdc64cb5b46c3a6e53bcaa84915eea6084f1c7b7547fcd7a55ef023eb5931cc022a9bdc64cb5b46c3a6e53bcaa84915eea6084f1c7b490851115612579576040517f3609372a00000000000000000000000000000000000000000000000000000000815260040160405180910390fd5b60006125858587612c90565b8554909150810361259e576000809350935050506125c7565b60018560010182815481106125b5576125b56136b2565b90600052602060002001549350935050505b9250929050565b600080546001600160a01b0316331480156125ea575060143610155b156125fc575060131936013560601c90565b503390565b60037fe02854d75ca0f6b56099fb1e1546a75ef76f441f4e6082f2e3cbb1e8dc5591a05460ff166004811115612639576126396134f7565b036126865760405162461bcd60e51b815260206004820152601660248201527f74686520526567697374657220697320636c6f73656400000000000000000000604482015260640161062e565b7f95d8298a3d25370298f52eb5e4c2caa68ca2492c02741ad9ada9443a021d758d6001600160a01b038416158061271957506001600160a01b03841660009081526005820160205260409020546126de908390613523565b6001600160a01b03851660009081527fbbbdc1476a0878f2ef9a893c81f5b6f6ea1b3acaf18ff47ccb69cd4267d50c86602052604090205410155b6127655760405162461bcd60e51b815260206004820152600c60248201527f4173736574204c6f636b65640000000000000000000000000000000000000000604482015260640161062e565b600381015460ff16156127835760038101805460ff1916905561289e565b805461281d5760405162461bcd60e51b815260206004820152604f60248201527f746865207265676973746572206973206c6f636b65642062656361757365206e60448201527f6f20636f75706f6e206973207072657061726564206f7220746865206d61747560648201527f7269747920697320726561636865640000000000000000000000000000000000608482015260a40161062e565b8054421061289e57600081600101541161289e5760405162461bcd60e51b8152602060048201526024808201527f746865206d61747572697479206375742d6f66662074696d652068617320706160448201527f7373656400000000000000000000000000000000000000000000000000000000606482015260840161062e565b6128a6612d3c565b5061087d848484612e34565b60006105de8383612e7c565b6001600160a01b038116600090815260018301602052604081205415156105de565b6001600160a01b038216612920576040517fda007acd00000000000000000000000000000000000000000000000000000000815260040160405180910390fd5b61292c60008383612601565b7fbbbdc1476a0878f2ef9a893c81f5b6f6ea1b3acaf18ff47ccb69cd4267d50c8880547fbbbdc1476a0878f2ef9a893c81f5b6f6ea1b3acaf18ff47ccb69cd4267d50c86918391600090612981908490613523565b90915550506001600160a01b038316600090815260208290526040812080548492906129ae908490613523565b90915550506040518281526001600160a01b038416906000907fddf252ad1be2c89b69c2b068fc378daa952ba7f163c4a11628f55a4df523b3ef9060200160405180910390a3505050565b60006105e1825490565b60008281527f2e59e4c2e927cdddbb64e181e0668d9a0fa70dd88f94d999cd87d5496a20da6260205260409020612a3a9082612ee1565b50612a43611675565b6001600160a01b0316816001600160a01b0316837ff6391f5c32d9c69d2a47ea670b442974b53935d1edc7fd64eb21e047a839171b60405160405180910390a45050565b60408051603f833b908101601f19168201909252818152600091808360208401863c50805160209091012092915050565b60606105e16001600160a01b03831660145b60606000612ad9836002613762565b612ae4906002613523565b67ffffffffffffffff811115612afc57612afc61369c565b6040519080825280601f01601f191660200182016040528015612b26576020820181803683370190505b5090507f300000000000000000000000000000000000000000000000000000000000000081600081518110612b5d57612b5d6136b2565b60200101906001600160f81b031916908160001a9053507f780000000000000000000000000000000000000000000000000000000000000081600181518110612ba857612ba86136b2565b60200101906001600160f81b031916908160001a905350600160028402015b6001811115612c42577f303132333435363738396162636465660000000000000000000000000000000085600f1660108110612c0557612c056136b2565b1a60f81b828281518110612c1b57612c1b6136b2565b60200101906001600160f81b031916908160001a90535060049490941c9360001901612bc7565b5083156105de576040517fc913478500000000000000000000000000000000000000000000000000000000815260040160405180910390fd5b60006105de836001600160a01b038416612ef6565b81546000908103612ca3575060006105e1565b82546000905b80821015612cf857600081831682841860011c01905084868281548110612cd257612cd26136b2565b90600052602060002001541115612ceb57809150612cf2565b8060010192505b50612ca9565b600082118015612d26575083856001840381548110612d1957612d196136b2565b9060005260206000200154145b612d30578161184c565b50600019019392505050565b7f95d8298a3d25370298f52eb5e4c2caa68ca2492c02741ad9ada9443a021d758d80546000919015801590612d84575060028101546000908152600482016020526040902054155b8015612d91575080544210155b15612e2c576000612da0612f39565b6002830154600090815260048401602052604090208190556001830154909150612dcb576000612ddd565b612ddd82600101548360000154612fcf565b808355612deb906000612fcf565b6002830181905560018301548354604051919290917f4d1d74d5cbfc13e02ef05af3a30d8721e87a00d20bc3dc42198917139944def390600090a492915050565b600091505090565b6001600160a01b038316612e5357612e4b82613006565b6106f2613077565b6001600160a01b038216612e6a57612e4b83613006565b612e7382613006565b6106f283613006565b81546000908210612eb9576040517fe637bf3b00000000000000000000000000000000000000000000000000000000815260040160405180910390fd5b826000018281548110612ece57612ece6136b2565b9060005260206000200154905092915050565b60006105de836001600160a01b0384166130c5565b60008181526001830160205260408120546105e1575081546001808201845560008481526020808220909301849055845493815293810190915260409092205590565b7fcd7a55ef023eb5931cc022a9bdc64cb5b46c3a6e53bcaa84915eea6084f1c7b780546000917fcd7a55ef023eb5931cc022a9bdc64cb5b46c3a6e53bcaa84915eea6084f1c7b4919083612f8c836136c8565b909155505060038101546040518181527f8030e83b04d87bef53480e26263266d6ca66863aa8506aca6f2559d18aa1cb679060200160405180910390a192915050565b600080612fdf6201518085613779565b9050612feb8185613654565b9150612ffa6201518084613779565b90506107ce8183613523565b6001600160a01b03811660009081527fcd7a55ef023eb5931cc022a9bdc64cb5b46c3a6e53bcaa84915eea6084f1c7b4602090815260408083207fbbbdc1476a0878f2ef9a893c81f5b6f6ea1b3acaf18ff47ccb69cd4267d50c869092529091205461080e919061318a565b61318a565b6130c37fcd7a55ef023eb5931cc022a9bdc64cb5b46c3a6e53bcaa84915eea6084f1c7b56130727fbbbdc1476a0878f2ef9a893c81f5b6f6ea1b3acaf18ff47ccb69cd4267d50c885490565b565b60008181526001830160205260408120548015613183578354600090859060001981019081106130f7576130f76136b2565b906000526020600020015490508085600001600184038154811061311d5761311d6136b2565b600091825260208083209091019290925591825260018601905260409020819055835484908061314f5761314f61379b565b6001900381819060005260206000200160009055905583600101600084815260200190815260200160002060009055600191505b5092915050565b7fcd7a55ef023eb5931cc022a9bdc64cb5b46c3a6e53bcaa84915eea6084f1c7b754806131b6846131ea565b10156106f2578254600180820185556000858152602080822090930193909355938401805494850181558252902090910155565b805460009015613224578154829061320490600190613654565b81548110613214576132146136b2565b90600052602060002001546105e1565b600092915050565b60005b8381101561324757818101518382015260200161322f565b50506000910152565b602081526000825180602084015261326f81604085016020870161322c565b601f01601f19169190910160400192915050565b80356001600160a01b038116811461329a57600080fd5b919050565b6000806000806000806000806000806101408b8d0312156132bf57600080fd5b6132c88b613283565b99506132d660208c01613283565b999c999b505050506040880135976060810135976080820135975060a0820135965060c0820135955060e082013594506101008201359350610120909101359150565b6000806040838503121561332c57600080fd5b61333583613283565b946020939093013593505050565b60008060006060848603121561335857600080fd5b61336184613283565b925061336f60208501613283565b9150604084013590509250925092565b60006020828403121561339157600080fd5b5035919050565b600080604083850312156133ab57600080fd5b823591506133bb60208401613283565b90509250929050565b6000602082840312156133d657600080fd5b6105de82613283565b600080600080608085870312156133f557600080fd5b84359350602085013592506040850135915060608501356005811061341957600080fd5b939692955090935050565b6020808252825182820181905260009190848201906040850190845b818110156134655783516001600160a01b031683529284019291840191600101613440565b50909695505050505050565b6000806040838503121561348457600080fd5b50508035926020909101359150565b600080604083850312156134a657600080fd5b6134af83613283565b91506133bb60208401613283565b600181811c908216806134d157607f821691505b6020821081036134f157634e487b7160e01b600052602260045260246000fd5b50919050565b634e487b7160e01b600052602160045260246000fd5b634e487b7160e01b600052601160045260246000fd5b808201808211156105e1576105e161350d565b6005811061080e57634e487b7160e01b600052602160045260246000fd5b8281526040810161356483613536565b8260208301529392505050565b8054600090600181811c908083168061358b57607f831692505b602080841082036135ac57634e487b7160e01b600052602260045260246000fd5b838852602088018280156135c757600181146135dd57613608565b60ff198716825285151560051b82019750613608565b60008981526020902060005b87811015613602578154848201529086019084016135e9565b83019850505b5050505050505092915050565b6060815260006136286060830186613571565b828103602084015261363a8186613571565b91505061364683613536565b826040830152949350505050565b818103818111156105e1576105e161350d565b6000825161367981846020870161322c565b9190910192915050565b60006020828403121561369557600080fd5b5051919050565b634e487b7160e01b600052604160045260246000fd5b634e487b7160e01b600052603260045260246000fd5b6000600182016136da576136da61350d565b5060010190565b7f416363657373436f6e74726f6c3a206163636f756e742000000000000000000081526000835161371981601785016020880161322c565b7f206973206d697373696e6720726f6c6520000000000000000000000000000000601791840191820152835161375681602884016020880161322c565b01602801949350505050565b80820281158282048414176105e1576105e161350d565b60008261379657634e487b7160e01b600052601260045260246000fd5b500690565b634e487b7160e01b600052603160045260246000fdfea26469706673582212203bdaf309b2aeea0d469997f6b8f690ce26d1a379beae46fdda85b1f1e96044a864736f6c63430008140033",
  "linkReferences": {},
  "deployedLinkReferences": {}
}