{
  "_format": "hh-sol-artifact-1",
  "contractName": "ERC165",
  "sourceName": "contracts/introspection/ERC165.sol",
  "abi": [
    {
      "inputs": [],
      "name": "ERC165Base__InvalidInterfaceId",
      "type": "error"
    },
    {
      "inputs": [
        {
          "internalType": "bytes4",
          "name": "interfaceId",
          "type": "bytes4"
        }
      ],
      "name": "supportsInterface",
      "outputs": [
        {
          "internalType": "bool",
          "name": "",
          "type": "bool"
        }
      ],
      "stateMutability": "view",
      "type": "function"
    }
  ],
  "bytecode": "0x608060405234801561001057600080fd5b5061011f806100206000396000f3fe6080604052348015600f57600080fd5b506004361060285760003560e01c806301ffc9a714602d575b600080fd5b608e603836600460a2565b7fffffffff000000000000000000000000000000000000000000000000000000001660009081527fff923f4a67695a9cdd5da4b8580a5a20edf2183c42aa111dd7fc15dc7bed2640602052604090205460ff1690565b604051901515815260200160405180910390f35b60006020828403121560b357600080fd5b81357fffffffff000000000000000000000000000000000000000000000000000000008116811460e257600080fd5b939250505056fea2646970667358221220725f37a6af6f9f334e0165e94fbfdce61ad1dcb1191d5b7733e7c690c89b870964736f6c63430008140033",
  "linkReferences": {},
  "deployedLinkReferences": {}
}