{
  "_format": "hh-sol-artifact-1",
  "contractName": "DiamondLoupeFacet",
  "sourceName": "contracts/diamond/facets/DiamondLoupeFacet.sol",
  "abi": [
    {
      "inputs": [
        {
          "internalType": "bytes4",
          "name": "_functionSelector",
          "type": "bytes4"
        }
      ],
      "name": "facetAddress",
      "outputs": [
        {
          "internalType": "address",
          "name": "facetAddress_",
          "type": "address"
        }
      ],
      "stateMutability": "view",
      "type": "function"
    },
    {
      "inputs": [],
      "name": "facetAddresses",
      "outputs": [
        {
          "internalType": "address[]",
          "name": "facetAddresses_",
          "type": "address[]"
        }
      ],
      "stateMutability": "view",
      "type": "function"
    },
    {
      "inputs": [
        {
          "internalType": "address",
          "name": "_facet",
          "type": "address"
        }
      ],
      "name": "facetFunctionSelectors",
      "outputs": [
        {
          "internalType": "bytes4[]",
          "name": "facetFunctionSelectors_",
          "type": "bytes4[]"
        }
      ],
      "stateMutability": "view",
      "type": "function"
    },
    {
      "inputs": [],
      "name": "facets",
      "outputs": [
        {
          "components": [
            {
              "internalType": "address",
              "name": "facetAddress",
              "type": "address"
            },
            {
              "internalType": "bytes4[]",
              "name": "functionSelectors",
              "type": "bytes4[]"
            }
          ],
          "internalType": "struct IDiamondLoupe.Facet[]",
          "name": "facets_",
          "type": "tuple[]"
        }
      ],
      "stateMutability": "view",
      "type": "function"
    },
    {
      "inputs": [
        {
          "internalType": "bytes4",
          "name": "_interfaceId",
          "type": "bytes4"
        }
      ],
      "name": "supportsInterface",
      "outputs": [
        {
          "internalType": "bool",
          "name": "",
          "type": "bool"
        }
      ],
      "stateMutability": "view",
      "type": "function"
    }
  ],
  "bytecode": "0x608060405234801561000f575f80fd5b506106c68061001d5f395ff3fe608060405234801561000f575f80fd5b5060043610610064575f3560e01c80637a0ed6271161004d5780637a0ed627146100dd578063adfca15e146100f2578063cdffacc614610112575f80fd5b806301ffc9a71461006857806352ef6b2c146100c8575b5f80fd5b6100b36100763660046104d4565b6001600160e01b0319165f9081527fc8fcad8db84d3cc18b4c41d551ea0ee66dd599cde068d998e57d5e09332c131f602052604090205460ff1690565b60405190151581526020015b60405180910390f35b6100d061017b565b6040516100bf9190610502565b6100e56101fd565b6040516100bf9190610591565b61010561010036600461060c565b6103e5565b6040516100bf9190610632565b6101636101203660046104d4565b6001600160e01b0319165f9081527fc8fcad8db84d3cc18b4c41d551ea0ee66dd599cde068d998e57d5e09332c131c60205260409020546001600160a01b031690565b6040516001600160a01b0390911681526020016100bf565b60605f7fc8fcad8db84d3cc18b4c41d551ea0ee66dd599cde068d998e57d5e09332c131c600281018054604080516020808402820181019092528281529394508301828280156101f257602002820191905f5260205f20905b81546001600160a01b031681526001909101906020018083116101d4575b505050505091505090565b7fc8fcad8db84d3cc18b4c41d551ea0ee66dd599cde068d998e57d5e09332c131e546060907fc8fcad8db84d3cc18b4c41d551ea0ee66dd599cde068d998e57d5e09332c131c908067ffffffffffffffff81111561025d5761025d610644565b6040519080825280602002602001820160405280156102a257816020015b604080518082019091525f81526060602082015281526020019060019003908161027b5790505b5092505f5b818110156103df575f8360020182815481106102c5576102c5610658565b905f5260205f20015f9054906101000a90046001600160a01b03169050808583815181106102f5576102f5610658565b6020908102919091018101516001600160a01b0392831690529082165f908152600186018252604090819020805482518185028101850190935280835291929091908301828280156103a557602002820191905f5260205f20905f905b82829054906101000a900460e01b7bffffffffffffffffffffffffffffffffffffffffffffffffffffffff1916815260200190600401906020826003010492830192600103820291508084116103525790505b50505050508583815181106103bc576103bc610658565b6020026020010151602001819052505080806103d79061066c565b9150506102a7565b50505090565b6001600160a01b0381165f9081527fc8fcad8db84d3cc18b4c41d551ea0ee66dd599cde068d998e57d5e09332c131d602090815260409182902080548351818402810184019094528084526060937fc8fcad8db84d3cc18b4c41d551ea0ee66dd599cde068d998e57d5e09332c131c93909291908301828280156104c757602002820191905f5260205f20905f905b82829054906101000a900460e01b7bffffffffffffffffffffffffffffffffffffffffffffffffffffffff1916815260200190600401906020826003010492830192600103820291508084116104745790505b5050505050915050919050565b5f602082840312156104e4575f80fd5b81356001600160e01b0319811681146104fb575f80fd5b9392505050565b602080825282518282018190525f9190848201906040850190845b818110156105425783516001600160a01b03168352928401929184019160010161051d565b50909695505050505050565b5f8151808452602080850194508084015f5b838110156105865781516001600160e01b03191687529582019590820190600101610560565b509495945050505050565b5f6020808301818452808551808352604092508286019150828160051b8701018488015f5b838110156105fe57888303603f19018552815180516001600160a01b031684528701518784018790526105eb8785018261054e565b95880195935050908601906001016105b6565b509098975050505050505050565b5f6020828403121561061c575f80fd5b81356001600160a01b03811681146104fb575f80fd5b602081525f6104fb602083018461054e565b634e487b7160e01b5f52604160045260245ffd5b634e487b7160e01b5f52603260045260245ffd5b5f6001820161068957634e487b7160e01b5f52601160045260245ffd5b506001019056fea2646970667358221220b4f9b2b54151983f2ede91b77979c9ffd8744c497dc156ec71d1329a52118fd464736f6c63430008140033",
  "linkReferences": {},
  "deployedLinkReferences": {}
}